:020000040800F2
:100000000000022031380308A1020308A3020308FC
:10001000A5020308A7020308A902030800000000C4
:10002000000000000000000000000000AB02030818
:10003000AD02030800000000AF020308B10203088C
:1000400081380308813803088138030881380308A0
:100050008138030881380308813803088138030890
:100060008138030881380308813803088138030880
:100070008138030881380308B9020308C90203085C
:10008000D9020308E902030881380308F9020308CA
:100090000903030819030308290303088138030827
:1000A0008138030881380308813803088138030840
:1000B0008138030881380308813803088138030830
:1000C000813803088138030881380308390303089D
:1000D000490303085903030871030308813803081F
:1000E0008138030881380308813803088138030800
:1000F00081380308813803088138030881380308F0
:1001000081380308813803088138030881380308DF
:1001100081380308813803088903030881380308FC
:100120009903030881380308A9030308B9030308E6
:1001300081380308813803088138030881380308AF
:10014000813803088138030881380308813803089F
:100150008138030881380308C9030308813803087C
:10016000813803088138030881380308813803087F
:100170008138030881380308813803080000000033
:080180008138030881380308EF
:1001C00010B5054C237833B9044B13B10448AFF391
:1001D00000800123237010BD180C002000000000D7
:1001E0003C98030808B5034B1BB103490348AFF320
:1001F000008008BD000000001C0C00203C98030893
:1002000053B94AB9002908BF00281CBF4FF0FF317D
:100210004FF0FF3000F06CB9ADF1080C6DE904CE81
:1002200000F006F8DDF804E0DDE9022304B07047D1
:100230002DE9F047089E0D4604468E46002B40F0FF
:1002400082808A42174646D9B2FA82F24AB1C2F196
:10025000200105FA02F320FA01F1974041EA030E6A
:1002600094404FEA1748230CBEFBF8FCB9B208FBD8
:100270001CEE43EA0E430CFB01F098420AD9FB182E
:100280000CF1FF3580F01681984240F21381ACF1F9
:10029000020C3B441B1AA4B2B3FBF8F008FB10336A
:1002A00044EA034400FB01F1A14209D93C1900F1E1
:1002B000FF3380F00181A14240F2FE8002383C44CD
:1002C000641A40EA0C4000211EB1D4400023C6E964
:1002D0000043BDE8F08702B9FFDEB2FA82F2002ADD
:1002E0004FD1CB1B4FEA174E1FFA87F80121B3FB02
:1002F000FEFC250C0EFB1C3345EA034508FB0CF302
:10030000AB4207D97D190CF1FF3002D2AB4200F2AB
:10031000E7808446ED1AA3B2B5FBFEF00EFB105544
:1003200043EA054408FB00F8A04507D93C1900F151
:10033000FF3302D2A04500F2D7801846A4EB080490
:1003400040EA0C40C0E78B4208D9002E00F0AF8095
:100350000021C6E900050846BDE8F087B3FA83F13D
:1003600000294BD1AB4202D3824200F2B780841AFB
:1003700065EB030301209E46002EAAD0C6E9004E7D
:10038000A7E7C2F1200C01FA02F3974020FA0CF023
:100390004FEA174E21FA0CFC1843BCFBFEF1050C8A
:1003A0000EFB11CC1FFA87F845EA0C4501FB08F358
:1003B000AB4204FA02F409D97D1901F1FF3C80F047
:1003C0008B80AB4240F2888002393D44EB1A85B203
:1003D000B3FBFEF00EFB103345EA034500FB08F3C8
:1003E000AB4207D97D1900F1FF3C71D2AB426FD906
:1003F00002383D44EB1A40EA014178E7C1F1200C94
:100400008B4022FA0CF71F4320FA0CF405FA01F393
:100410004FEA174E25FA0CF51C43230CB5FBFEF9E9
:100420001FFA87F80EFB195543EA054509FB08FA40
:10043000AA4502FA01F200FA01F308D97D1909F17F
:10044000FF3047D2AA4545D9A9F102093D44A5EBA1
:100450000A05A4B2B5FBFEF00EFB105544EA0544B4
:1004600000FB08F8A04507D93C1900F1FF352DD253
:10047000A0452BD902383C4440EA0940A4EB0804CB
:10048000A0FB02894C45C6464D4619D316D05EB135
:10049000B3EB0E0264EB050404FA0CFCCA404CEA10
:1004A0000202CC40C6E900240021BDE8F0873146B5
:1004B00030460EE7AC46EDE6184601E74345E6D286
:1004C000B8EB020E69EB07050138E0E72846D3E7F1
:1004D00060468FE78146BAE7614677E708464BE713
:1004E000ACF1020C3D4415E702383C4426E700BF5E
:1004F000704700BF844641EA000313F003036DD147
:10050000403A41D351F8043B40F8043B51F8043BD6
:1005100040F8043B51F8043B40F8043B51F8043BDD
:1005200040F8043B51F8043B40F8043B51F8043BCD
:1005300040F8043B51F8043B40F8043B51F8043BBD
:1005400040F8043B51F8043B40F8043B51F8043BAD
:1005500040F8043B51F8043B40F8043B51F8043B9D
:1005600040F8043B51F8043B40F8043B51F8043B8D
:1005700040F8043B51F8043B40F8043B51F8043B7D
:1005800040F8043B403ABDD2303211D351F8043B1D
:1005900040F8043B51F8043B40F8043B51F8043B5D
:1005A00040F8043B51F8043B40F8043B103AEDD2CC
:1005B0000C3205D351F8043B40F8043B043AF9D21D
:1005C000043208D0D2071CBF11F8013B00F8013BF0
:1005D00001D30B8803806046704700BF082A13D3FD
:1005E0008B078DD010F003038AD0C3F10403D21A15
:1005F000DB071CBF11F8013B00F8013B80D331F849
:10060000023B20F8023B7BE7043AD9D3013A11F8C8
:10061000013B00F8013BF9D20B7803704B78437033
:100620008B78837060467047000000000000000077
:1006300000000000000000000000000000000000BA
:10064000A2EB0300704700BF02780B78012A28BF95
:100650009A42F5D16DE9044540EA0104CDE902670B
:100660006FF0000C4FEA447212B380EA010414F0F8
:10067000070F6AD100F0070420F0070004F003051B
:1006800021F007014FEAC505F0E8042314F0040F38
:10069000F1E804670CFA05F462EA040266EA04066B
:1006A0000AD063EA0403624667EA0407664603E089
:1006B000F0E80423F1E8046782FA4CF582EA0604C4
:1006C000A4FA8CF46CBB83FA4CF583EA0705A5FA0F
:1006D0008CF595B950E9022351E9026782FA4CF58D
:1006E00082EA0604A4FA8CF483FA4CF583EA07053F
:1006F000A5FA8CF52543DBD09CB92DBAB5FA85F463
:1007000024F0070427FA04F1DDE9026723FA04F371
:1007100003F0FF0001F0FF01FDE80445A0EB01003C
:10072000704724BAB4FA84F424F0070426FA04F1DA
:10073000DDE9026722FA04F202F0FF0001F0FF0196
:10074000FDE80445A0EB0100704714F0030F3CD115
:1007500010F0030428D150F8082B51F8083B82FA16
:100760004CF582EA0305A5FA8CF55DB950F8042C26
:1007700051F8043C82FA4CF582EA0305A5FA8CF59F
:10078000002DE8D02DBAB5FA85F424F0070423FA39
:1007900004F122FA04F202F0FF0001F0FF01FDE88B
:1007A0000445A0EB010070474FEAC40420F00300A9
:1007B00050F8082B21F0030151F8083B0CFA04F41F
:1007C00062EA040263EA0403C9E710F003041AD0E2
:1007D000A1EB040120F00300E40750F8042B06D03D
:1007E0000FD28B785FFAA2F4E41A06D12BB1CB7842
:1007F0005FFAB2F4E41A00D11BB920465DF8104B41
:10080000704701F1040150F8042BCC0721F00301DB
:1008100051F8043B48D824D222F07F4482FA4CF5A8
:1008200094EA1325A5FA8CF50AD165B951F8043B71
:1008300084EA0204B4EB036F0ED150F8042BEBE70B
:100840004FEA132355E035F07F454DD10878FDE898
:100850000445C0F1000070474FEA126203F0FF0345
:1008600047E002EA1C4482FA4CF594EA1345A5FAE3
:100870008CF50AD165B951F8043B84EA0204B4EB63
:10088000034F0CD150F8042BEBE74FEA134330E051
:1008900015EA1C4528D10B884FEA124229E04FEA9D
:1008A000124203EA1C4324E002F0FF0482FA4CF5F2
:1008B00094EA1365A5FA8CF50AD165B951F8043BA1
:1008C00084EA0204B4EB032F09D150F8042BEBE7C0
:1008D0004FEA13630DE015F0FF0F05D10B684FEAE7
:1008E000122223F07F4304E04FF00000FDE80445AE
:1008F000704712BA1BBA82FA4CF482EA0304A4FAD3
:100900008CF5B5FA85F402FA04F203FA04F34FEA1F
:100910001260FDE80445A0EB136070470000000082
:1009200000000000000000000000000000000000C7
:1009300000000000000000000000000000000000B7
:1009400090F800F06DE9024520F007016FF0000C0F
:1009500010F0070491F820F040F049804FF00004B7
:100960006FF00700D1E9002391F840F000F1080092
:1009700082FA4CF2A4FA8CF283FA4CF3A2FA8CF3CA
:100980004BBBD1E9022382FA4CF200F10800A4FA31
:100990008CF283FA4CF3A2FA8CF3E3B9D1E9042385
:1009A00082FA4CF200F10800A4FA8CF283FA4CF3BC
:1009B000A2FA8CF37BB9D1E9062301F1200182FA76
:1009C0004CF200F10800A4FA8CF283FA4CF3A2FA7C
:1009D0008CF3002BC6D0002A04BF04301A4612BA8A
:1009E000B2FA82F2FDE8024500EBD2007047D1E98D
:1009F000002304F00305C4F100004FEAC50514F01C
:100A0000040F91F840F00CFA05F562EA05021CBFEC
:100A100063EA050362464FF00004A9E70000000006
:100A200001F0FF01102A2BDB10F0070F08D010F89F
:100A3000013B013A8B422DD010F0070F42B3F6D1A3
:100A4000F0B441EA012141EA014122F007047FF0BC
:100A500000070023F0E80256083C85EA010586EA13
:100A6000010685FA47F5A3FA87F586FA47F6A5FA4F
:100A700087F68EB9EED1F0BC01F0FF0102F007025B
:100A800032B110F8013B013A83EA010313B1F8D106
:100A90000020704701387047002D06BF35460338E7
:100AA000073815F0010F07D1013015F4807F02BF20
:100AB000013015F4C03F0130F0BC0138704700BF71
:100AC00081F0004102E000BF83F0004330B54FEAFF
:100AD00041044FEA430594EA050F08BF90EA020F6C
:100AE0001FBF54EA000C55EA020C7FEA645C7FEAFF
:100AF000655C00F0E2804FEA5454D4EB5555B8BF22
:100B00006D420CDD2C4480EA020281EA030382EA92
:100B1000000083EA010180EA020281EA0303362D24
:100B200088BF30BD11F0004F4FEA01314FF4801CF7
:100B30004CEA113102D0404261EB410113F0004F09
:100B40004FEA03334CEA133302D0524263EB4303C0
:100B500094EA050F00F0A780A4F10104D5F1200E5E
:100B60000DDB02FA0EFC22FA05F2801841F10001B9
:100B700003FA0EF2801843FA05F359410EE0A5F18D
:100B800020050EF1200E012A03FA0EFC28BF4CF0BE
:100B9000020C43FA05F3C01851EBE37101F0004574
:100BA00007D54FF0000EDCF1000C7EEB00006EEB81
:100BB0000101B1F5801F1BD3B1F5001F0CD349080B
:100BC0005FEA30004FEA3C0C04F101044FEA445262
:100BD00012F5800F80F09A80BCF1004F08BF5FEAE9
:100BE000500C50F1000041EB045141EA050130BDC9
:100BF0005FEA4C0C404141EB0101013C28BFB1F5DB
:100C0000801FE9D291F0000F04BF01460020B1FA25
:100C100081F308BF2033A3F10B03B3F120020CDAF8
:100C20000C3208DD02F1140CC2F10C0201FA0CF0D6
:100C300021FA02F10CE002F11402D8BFC2F1200C3B
:100C400001FA02F120FA0CFCDCBF41EA0C019040F1
:100C5000E41AA2BF01EB0451294330BD6FEA04043A
:100C60001F3C1CDA0C340EDC04F11404C4F1200225
:100C700020FA04F001FA02F340EA030021FA04F337
:100C800045EA030130BDC4F10C04C4F1200220FA8E
:100C900002F001FA04F340EA0300294630BD21FACC
:100CA00004F0294630BD94F0000F83F4801306BF92
:100CB00081F480110134013D4EE77FEA645C18BF86
:100CC0007FEA655C29D094EA050F08BF90EA020F1D
:100CD00005D054EA000C04BF1946104630BD91EA15
:100CE000030F1EBF0021002030BD5FEA545C05D118
:100CF0004000494128BF41F0004130BD14F5800457
:100D00003CBF01F5801130BD01F0004545F0FE41CA
:100D100041F470014FF0000030BD7FEA645C1ABFFF
:100D2000194610467FEA655C1CBF0B46024650EA36
:100D3000013406BF52EA033591EA030F41F4002162
:100D400030BD00BF90F0000F04BF0021704730B5E8
:100D50004FF4806404F132044FF000054FF00001BD
:100D600050E700BF90F0000F04BF0021704730B57E
:100D70004FF4806404F1320410F0004548BF404253
:100D80004FF000013EE700BF42004FEAE2014FEAA8
:100D900031014FEA02701FBF12F07F4393F07F4F83
:100DA00081F06051704732F07F4208BF704793F086
:100DB0007F4F04BF41F40021704730B54FF4607499
:100DC00001F0004521F000411CE700BF50EA01029C
:100DD00008BF704730B54FF000050AE050EA010245
:100DE00008BF704730B511F0004502D5404261EBB5
:100DF00041014FF4806404F132045FEA915C3FF4F6
:100E0000D8AE4FF003025FEADC0C18BF03325FEA92
:100E1000DC0C18BF033202EBDC02C2F1200300FA43
:100E200003FC20FA02F001FA03FE40EA0E0021FA68
:100E300002F11444BDE600BF70B54FF0FF0C4CF456
:100E4000E06C1CEA11541DBF1CEA135594EA0C0F08
:100E500095EA0C0F00F0DEF82C4481EA030621EA43
:100E60004C5123EA4C5350EA013518BF52EA03357E
:100E700041F4801143F4801338D0A0FB02CE4FF030
:100E80000005E1FB02E506F00042E0FB03E54FF060
:100E90000006E1FB03569CF0000F18BF4EF0010E58
:100EA000A4F1FF04B6F5007F64F5407404D25FEA54
:100EB0004E0E6D4146EB060642EAC62141EA555107
:100EC0004FEAC52040EA5E504FEACE2EB4F1FD0C49
:100ED00088BFBCF5E06F1ED8BEF1004F08BF5FEAC7
:100EE000500E50F1000041EB045170BD06F0004679
:100EF00046EA010140EA020081EA0301B4EB5C0426
:100F0000C2BFD4EB0C0541EA045170BD41F480111D
:100F10004FF0000E013C00F3AB8014F1360FDEBF42
:100F2000002001F0004170BDC4F10004203C35DA1E
:100F30000C341BDC04F11404C4F1200500FA05F3A1
:100F400020FA04F001FA05F240EA020001F0004242
:100F500021F0004110EBD37021FA04F642EB0601B8
:100F60005EEA430E08BF20EAD37070BDC4F10C04E2
:100F7000C4F1200500FA04F320FA05F001FA04F2A6
:100F800040EA020001F0004110EBD37041F1000192
:100F90005EEA430E08BF20EAD37070BDC4F120059D
:100FA00000FA05F24EEA020E20FA04F301FA05F205
:100FB00043EA020321FA04F001F0004121FA04F2AD
:100FC00020EA020000EBD3705EEA430E08BF20EA7D
:100FD000D37070BD94F0000F0FD101F000464000B7
:100FE00041EB010111F4801F08BF013CF7D041EA39
:100FF000060195F0000F18BF704703F0004652003D
:1010000043EB030313F4801F08BF013DF7D043EA0D
:101010000603704794EA0C0F0CEA135518BF95EAC3
:101020000C0F0CD050EA410618BF52EA4306D1D14A
:1010300081EA030101F000414FF0000070BD50EA69
:10104000410606BF1046194652EA430619D094EAF3
:101050000C0F02D150EA013613D195EA0C0F05D1DD
:1010600052EA03361CBF104619460AD181EA030131
:1010700001F0004141F0FE4141F470014FF00000E9
:1010800070BD41F0FE4141F4780170BD70B54FF084
:10109000FF0C4CF4E06C1CEA11541DBF1CEA135504
:1010A00094EA0C0F95EA0C0F00F0A7F8A4EB0504E6
:1010B00081EA030E52EA03354FEA013100F08880DD
:1010C0004FEA03334FF0805545EA131343EA1263A6
:1010D0004FEA022245EA111545EA10654FEA00265B
:1010E0000EF000419D4208BF964244F1FD0404F514
:1010F000407402D25B084FEA3202B61A65EB030570
:101100005B084FEA32024FF480104FF4002CB6EB2C
:10111000020E75EB030E22BFB61A754640EA0C00AC
:101120005B084FEA3202B6EB020E75EB030E22BFEC
:10113000B61A754640EA5C005B084FEA3202B6EB2D
:10114000020E75EB030E22BFB61A754640EA9C00EC
:101150005B084FEA3202B6EB020E75EB030E22BFBC
:10116000B61A754640EADC0055EA060E18D04FEA7A
:10117000051545EA16754FEA06164FEAC30343EA1A
:1011800052734FEAC2025FEA1C1CC0D111F4801FE7
:101190000BD141EA00014FF000004FF0004CB6E7E0
:1011A00011F4801F04BF01430020B4F1FD0C88BF7F
:1011B000BCF5E06F3FF6AFAEB5EB030C04BFB6EB8A
:1011C000020C5FEA500C50F1000041EB045170BD7D
:1011D0000EF0004E4EEA113114EB5C04C2BFD4EBAA
:1011E0000C0541EA045170BD41F480114FF0000E2E
:1011F000013C90E645EA060E8DE60CEA135594EAAA
:101200000C0F08BF95EA0C0F3FF43BAF94EA0C0FAC
:101210000AD150EA01347FF434AF95EA0C0F7FF421
:1012200025AF104619462CE795EA0C0F06D152EA75
:1012300003353FF4FDAE1046194622E750EA410659
:1012400018BF52EA43067FF4C5AE50EA41047FF46A
:101250000DAF52EA43057FF4EBAE12E74FF0FF3CCF
:1012600006E000BF4FF0010C02E000BF4FF0010CA0
:101270004DF804CD4FEA410C7FEA6C5C4FEA430C19
:1012800018BF7FEA6C5C1BD001B050EA410C0CBF68
:1012900052EA430C91EA030F02BF90EA020F0020CA
:1012A000704710F1000F91EA030F58BF994208BF31
:1012B00090422CBFD8176FEAE37040F001007047EE
:1012C0004FEA410C7FEA6C5C02D150EA013C07D145
:1012D0004FEA430C7FEA6C5CD6D152EA033CD3D090
:1012E0005DF8040B704700BF8446104662468C468A
:1012F0001946634600E000BF01B5FFF7B7FF0028BD
:1013000048BF10F1000F01BD4DF808EDFFF7F4FFE5
:101310000CBF012000205DF808FB00BF4DF808ED70
:10132000FFF7EAFF34BF012000205DF808FB00BF93
:101330004DF808EDFFF7E0FF94BF012000205DF8B5
:1013400008FB00BF4DF808EDFFF7CEFF94BF01206A
:1013500000205DF808FB00BF4DF808EDFFF7C4FF63
:1013600034BF012000205DF808FB00BF4FEA410CAC
:101370007FEA6C5C02D150EA013C0AD14FEA430C8F
:101380007FEA6C5C02D152EA033C02D14FF00000CC
:1013900070474FF0010070474FEA410212F500120A
:1013A00015D211D56FF47873B3EB625212D94FEAAC
:1013B000C12343F0004343EA505311F0004F23FA96
:1013C00002F018BF404270474FF00000704750EAEB
:1013D000013005D111F0004008BF6FF000407047A8
:1013E0004FF00000704700BF08B503F051FB08BD87
:1013F0002DE9F04F9DB0064605F076FA804642F2A0
:10140000D17106F09EFA404629F0AAFE0A90B5492D
:1014100029F0B2FE40462AF02FF904460B90B2495B
:101420002AF0F8FDDFF824A300225146204609F0F7
:1014300033FD40462AF020F98146AC4C002221467B
:1014400009F02AFDAA4948462AF0E4FD0021484651
:101450002AF09CFE40462AF00FF907460C90A54D55
:101460000022294609F018FDA34938462AF0D2FD8A
:1014700040462AF001F90D90A0492AF0CBFD4046E4
:101480002AF0FAF807460E900022294609F004FDDA
:101490009B4938462AF0BEFD40462AF0EDF80F90F1
:1014A00098492AF0B7FD404627F064F905460890B0
:1014B00042F2D17106F045FA28462AF0DDF80546D9
:1014C00091492AF0A7FD00231A460921284606F073
:1014D000CDFA404627F04EF905460990802105F0E7
:1014E00087FA42F2D171284606F02BFA28462AF0F4
:1014F000C3F8054685492AF08DFD00231A460921C7
:10150000284606F0B3FA21F0FFFC04F0F5F81EF0CF
:1015100077FE0746012105F0F3F9304605F0E4F9BE
:10152000054642F2D17106F00CFA28462AF0A4F8DA
:101530008346109076492AF06DFD002251465846A8
:1015400009F0AAFC28462AF097F8834611907149C1
:101550002AF060FD00222146584609F09DFC2846ED
:101560002DF0B2FC834601212DF00DFD6A49CDF826
:1015700018B058462DF0B4FCDFF8D4B13B46002239
:101580005946069804F082FA28462AF075F8079022
:1015900062492AF03FFD00222146079809F07CFCB1
:1015A00028462DF091FC059001212DF0ECFC012145
:1015B00005982EF025FB5A4905982DF091FC3B46E5
:1015C00000225946059804F061FA28462AF054F89A
:1015D0000746129053492AF01DFD00222146384645
:1015E00009F05AFC284628F0BFFD13904E4928F018
:1015F0002DFE28462AF040F8074614904B492AF061
:1016000009FD00222146384609F046FC28462DF007
:101610005BFC0746159001212DF0B5FC00231A460E
:101620004349384604F032FA304605F05DF9074682
:101630002AF022F8834616903E492AF0EBFC00225D
:101640005146584609F028FC38462AF015F88246DB
:10165000179039492AF0DEFC00222146504609F055
:101660001BFC38462CF0C8FB834642F25F0106F0B3
:1016700051F900231A463149584604F007FA5846F2
:1016800006F094F8384629F0F7FF824618902C4966
:101690002AF0C0FC00222146504609F0FDFB3846E6
:1016A0002CF056FD1990384629F0E6FF82461A9034
:1016B00024492AF0AFFC00222146504609F0ECFBF9
:1016C00038462CF045FD1B901F4B1B78022B41D058
:1016D000012B00F07981002B00F0B8821DB0BDE82D
:1016E000F08F00BF9CBD03083CE90408880C002073
:1016F00048E90408800C002088E904088CE9040803
:101700009CE90408A0E90408B4E90408BCE9040859
:10171000C4E90408D4E90408E0E90408ECE9040891
:10172000F8E9040808EA040810EA040824EA0408AE
:101730005122000830EA04083CEA0408512000085D
:1017400048EA040854EA0408440C0020900C0020E5
:10175000B5230008964A9749304616F07DFB0124D0
:10176000029400260196009402233246032140464B
:1017700016F0C2FB904A9149404616F06DFB4FF0BF
:10178000050ACDF808A0019600942346324621466A
:101790000A9816F0B1FB02940196009402231A46AF
:1017A00031460B9816F0A8FB02940194009604238E
:1017B00002220321484616F09FFB02944FF00308D3
:1017C000CDF8048000942346022221460C9816F09E
:1017D00093FB0294CDF804800094234642463146A0
:1017E0000D9816F089FB029404230193009423467C
:1017F000022221460E9816F07FFB029404230193E7
:1018000000942346424631460F9816F075FB4FF080
:101810000209CDF80890CDF80480009423460422F4
:101820004146089816F068FBCDF80890CDF8048082
:101830000094234652464146099816F05DFB0294F7
:1018400001940096234632464146284616F054FB42
:101850005B4A5C49284616F0FFFA02940196009410
:101860004B4632463146109816F046FB0294CDF8AE
:1018700004800094234632464146069816F03CFB0D
:101880000294CDF8049000962346324631461198D2
:1018900016F032FB0294CDF80480009423462246D1
:1018A0004146059816F028FB0294CDF80490009666
:1018B000234622463146079816F01EFB0294062561
:1018C00001950094234622464146159816F014FBD4
:1018D0000294CDF804A0009623462246314614987F
:1018E00016F00AFB029401950094234632464146C5
:1018F000139816F001FB0294CDF804A0009623463D
:1019000032463146129816F0F7FA02940194CDF857
:101910000080234622464146384616F0EDFA284A12
:101920002849384616F098FA0294019600944B46DE
:1019300032463146169816F0DFFA0294CDF804804C
:1019400000944B4632462146584616F0D5FA02948A
:10195000CDF804900096234632463146179816F08B
:10196000CBFA0294019500942346224631461B98F7
:1019700016F0C2FA0294CDF804A00096234632462F
:1019800031461A9816F0B8FA02940195009423464D
:1019900032463146199816F0AFFA0294CDF804A0F9
:1019A0000096234622463146189816F0A5FA95E689
:1019B000200100200C0100205800002034000020ED
:1019C0009C000020840000209A4A9B49304616F073
:1019D00043FA012402940026019600940223324621
:1019E0000321404616F088FA7821089805F092FF06
:1019F0007821099805F08EFF904A9149404616F0EB
:101A00002BFA4FF0040ACDF808A001960096234661
:101A1000324621460A9816F06FFA02940196009415
:101A200002231A4631460B9816F066FA0294019486
:101A3000009602231A460321484616F05DFA0294E6
:101A40004FF00208CDF8048000942346032231466B
:101A50000D9816F051FA0294CDF8048000942346B4
:101A6000424621460C9816F047FA0294CDF804A09D
:101A700000942346424621460E9816F03DFA029401
:101A8000CDF804A000942346032231460F9816F0A7
:101A900033FA02944FF00509CDF8049000942346E0
:101AA00022463146089816F027FA0294CDF80490A1
:101AB0000094234603224146099816F01DFA029429
:101AC00001940096234632460321284616F014FA64
:101AD0005C4A5D49284616F0BFF9029401960094CD
:101AE000434632463146109816F006FA0294CDF875
:101AF00004800096434632463146119816F0FCF9B0
:101B000002940325019500964346324629460698DD
:101B100016F0F2F90294CDF804A00096434632463E
:101B20003146079816F0E8F90294CDF80490009633
:101B3000434632462946059816F0DEF902940623FC
:101B400001930096434632463146149816F0D4F974
:101B5000029407230193009643463246294615987E
:101B600016F0CAF9029408230193009643463246C0
:101B70003146129816F0C0F9029409230193009699
:101B8000434632462946139816F0B6F9029401945A
:101B90000095234622462946384616F0ADF9294AD3
:101BA0002949384616F058F90294019600944346A4
:101BB00032463146169816F09FF90294019500942A
:101BC000434632462146584616F096F90294CDF81F
:101BD00004800096234632463146179816F08CF959
:101BE0000294CDF804A000962346324631461A9856
:101BF00016F082F90294CDF80490009623463246FE
:101C000031461B9816F078F902940623019300964A
:101C1000234632463146189816F06EF9029407238F
:101C200001930096234632463146199816F064F91E
:101C300054E500BF280100201401002064000020AA
:101C400044000020AC0000208C0000209D4A9E49EA
:101C5000304616F001F99D4A9D49404616F0FCF8C1
:101C60009C4E9D4C32462146284616F0F5F83246E9
:101C70002146384616F0F0F8012402940026019619
:101C80000094234632460321404616F035F9324689
:101C90000221484609F079FC02940196009402233F
:101CA000324621460A9816F027F9029401940094CE
:101CB0000223324621460B9816F01EF902944FF08B
:101CC0000208CDF804800096434632460321484678
:101CD00016F012F902944FF00309CDF80490009425
:101CE0002346324621460C9816F006F90294CDF8A8
:101CF000049000942346224631460D9816F0FCF8D5
:101D000002944FF0040ACDF804A000942346324612
:101D100021460E9816F0F0F80294CDF804A0009435
:101D20002346224631460F9816F0E6F80294052322
:101D300001930094434632464946089816F0DCF871
:101D4000029406230193009443463246494609987B
:101D500016F0D2F802940194009623463246494682
:101D6000284616F0C9F8029401960094434632467C
:101D70003146109816F0C0F80294CDF80480009611
:101D8000434632463146119816F0B6F80294CDF823
:101D900004900096434632464946069816F0ACF841
:101DA0000294CDF804A00096434632463146079887
:101DB00016F0A2F80294052301930096434632469A
:101DC0004946059816F098F8029406230193009668
:101DD000434632463146149816F08EF80294072393
:101DE00001930096434632464946159816F084F80A
:101DF00002940823019300964346324631461298D6
:101E000016F07AF80294092301930096434632466D
:101E10004946139816F070F842F2D171384605F031
:101E200090FD0294CDF80480009623463246494640
:101E3000384616F061F80294019600944346324603
:101E40003146169816F058F80294CDF804800096A2
:101E5000234632463146179816F04EF80294CDF8D4
:101E600004900094434632462146584616F044F802
:101E70000294CDF804A000962346324631461A98C3
:101E800016F03AF802940523019300962346324651
:101E90003146199816F030F80294CDF804A0009657
:101EA000234622463146189816F026F80294052358
:101EB000019300962346224631461B9816F01CF8E3
:101EC0000CE400BF300100201C0100207400002041
:101ED00050000020C400002094000020F0B591B014
:101EE000054603F0B7FD04461A2803D01B2C2DD05D
:101EF00011B0F0BD284603F0B1FD0646436BB3F5C3
:101F0000C02F07D0736BB3F5A02FEFD13369002238
:101F1000DA70EBE7836B022BF4D102AFDFF82CC150
:101F2000BCE80F000FC7BCE80F000FC79CE80F000C
:101F300087E80F00336C10AA02EB830353F8383C98
:101F40003D4A316BF06A23F061FADBE7284603F083
:101F500085FD0446436BB3F5A02FC9D102A80DF04F
:101F6000A5FAE368DD885A88AD1AADB201352DB205
:101F7000B3F90020ADF80020B3F90420ADF8042037
:101F8000B3F90220ADF80220A16B2C4B53F821309D
:101F900005FB03F32A4EA6FB03135B0913FA82F336
:101FA0000433ADF80630002021F02EFEADF80C0011
:101FB0000423ADF808306A4602A920680DF09EFAA5
:101FC000BDF80620043AADF80220A16B1D4B53F872
:101FD000213003FB05F3A6FB03135B0913FA82F31D
:101FE000ADF80630052021F00FFEADF80C000023FF
:101FF000ADF808306A4602A920680DF07FFABDF9F5
:102000000620ADF80220A16B0F4B53F8213003FBE3
:1020100005F3A6FB03135B0913FA82F3ADF8063050
:10202000092021F0F1FDADF80C006A4602A92068F4
:102030000DF064FA5CE700BFA00605081CEF040879
:102040001F85EB51F4EE040844EF04085898030888
:1020500070B5A2B0054603F0FDFC0446284603F027
:10206000F5FC132C04D006461B2C0BD022B070BDFF
:10207000284603F0F3FCB0F900303C2BB8BF3C23FA
:102080000380F3E7284603F0E9FC0446436BB3F50D
:10209000403FEBD12021304604F0D2FC0028E5D0AF
:1020A000304626F03EFB0346664A082106A823F088
:1020B000ADF90025029541F6FF73019300952B467B
:1020C000614A126806A905A825F012F8E1680A8895
:1020D0008B889B1A9BB20133C3F3C03000FA83F3A1
:1020E00002EB63039BB2BDF9142002EBD270A3EBA9
:1020F00060039EB2ADF8203016FA82F2ADF82420CB
:102100004B880A3B9AB2ADF82630BDF81630D31A88
:10211000ADF82230284620F02DFF1D284FDC01238A
:10212000F61AADF82860BDF82450002020F022FFF8
:102130001D2851DC01232B44ADF82C30BDF8225072
:10214000002020F017FF1D2853DC0123EB1AADF807
:102150002A30BDF82650002020F00CFF1D2855DC49
:1021600001232B44ADF82E3014A80DF09FF9032164
:10217000122021F09FFDADF85400002020F0FAFE5F
:1021800000EB8000EF284EDC0123ADF850300AAAA6
:1021900014A920680DF0B2F90CA80BF0B1FA4FF6B3
:1021A000FF73ADF83C30284B1B680C93206800236C
:1021B000009306AB08AA0CA90BF0C2FA56E7284612
:1021C00020F0D8FE00F10A03204A82FB0312DB173D
:1021D000C3EBE2039BB2A3E7002020F0CBFE00F1AB
:1021E0000A031A4A82FB0312DB17C3EBE2039BB21A
:1021F000A1E7002020F0BEFE00F10A03134A82FB93
:102200000312DB17C3EBE2039BB29FE7002020F031
:10221000B1FE00F10A030D4A82FB0312DB17C3EB88
:10222000E2039BB29DE7002020F0A4FE00EB8000BB
:1022300000F15003054A82FB0312DB17C3EBA21324
:102240001BB2A2E764EA04084C0C002067666666CD
:1022500038B5054603F0FEFB0446284603F0F6FBBE
:102260000E2C00D038BD054603F07EFE03F082FE42
:102270000128F7D12C4B1B68002BF3D120F044FE32
:1022800003F072FA022104F03BFB20F03DFE03F064
:102290006BFA1AF06BFC244B186020F035FE03F04B
:1022A00063FA00227F2109F026F920F02DFE03F0C9
:1022B0005BFA0446122021F0A7FC014600222046CA
:1022C00009F009F9194B1B7803B3012B25D04FF402
:1022D000A5724FF49671144B186805F049FB124C27
:1022E000012240F2C67120681AF056FC1E2300221B
:1022F0000921206805F0BAFB2B4600220C49206812
:1023000003F0C4FB20681AF00FFFABE7C822B4212A
:10231000054B186805F02CFBE1E7DC22C821024BD5
:10232000186805F025FBDAE7340C0020440C002087
:102330003523000870B58CB0044603F08BFB0546CE
:10234000204603F08DFB0646204603F081FB1C2D42
:1023500001D00CB070BD03A91AF040FD9DF90E30FC
:10236000BDF80C20019200939DF90F300F4A2021F7
:1023700004A823F04BF804A930462DF0ABFB0C4D1C
:10238000286809F01DFA00242C6020F0BDFD03F040
:10239000EBF9022104F0EDFA20F0B6FD03F0E4F9C8
:1023A0002246214609F0A7F8D3E700BF68EA0408EF
:1023B000340C0020F8B5054603F04CFB04462846D3
:1023C00003F044FB0646284603F04AFB05460E2C64
:1023D00006D00F2C39D01F3CE4B2012C4BD9F8BDEC
:1023E00003F0C2FD03F0C6FD0228F8D031462846AE
:1023F0001DF012FF20F088FD20F08CFD40002949DF
:1024000081FB0031A1EBE071002209B2284609F0FE
:102410001CF8254C206806F017FC276820F074FD96
:1024200020F090FD84B2284605F089FB81B2611A44
:1024300009B2384605F085FA0121284604F099FAD8
:102440000021304607F057FBC9E700211DF0E4FEEC
:10245000154B1C6820F058FD20F074FD0146204605
:1024600005F06FFA0121284604F04AFA31460020AF
:1024700003F086FDB3E70C4B1C6820F045FD20F00F
:1024800061FD0146204605F05CFA0121284604F072
:1024900037FA0221304604F0B7FA3146002003F043
:1024A0006FFD9CE756555555980C002030B591B0FE
:1024B000044603F0CFFA072801D011B030BD204602
:1024C00003F0CEFA044605F033FB054620F01CFD70
:1024D00020F020FD00EBD07343F34F039D4211DA4F
:1024E000684620F0A7FE00940F4B0193002307934A
:1024F00008934FF480730993C8230A93684620F029
:10250000E1FEDAE7684620F095FE0094064B019361
:102510004FF480730793089300230993C8230A9309
:10252000684620F0CFFEC8E70943000838B50C46DE
:10253000074D0A46014628681FF08CFB00212868D9
:1025400009F084F82246034929F0C6FD38BD00BFD2
:10255000640C002064EA04082DE9F047C6685B4B70
:102560001B78002B00F08A80594A1368893B13605E
:10257000B3F5AF6F02D2554B00221A70554B1B7842
:10258000002B00F08880544A1368033B1360B3F5B6
:10259000AF6F02D24F4B00221A70504B1B78002BAA
:1025A00000F086804E4A1368393B1360B3F5AF6F75
:1025B00002D24A4B00221A70DFF81491D9F8004079
:1025C000DFF81481D8F80030E518454F3A68154413
:1025D00004EB440204EB4214B4FBF5F403EB4302B6
:1025E00003EB4213B3FBF5F5DFF804A100223168D9
:1025F000DAF800001FF055FB22463168DAF80000D7
:102600001FF069FB621C7168DAF800001FF049FBDB
:102610002C44621C7168DAF800001FF05CFBA21CFD
:10262000B168DAF800001FF03CFB6322B168DAF809
:1026300000001FF050FBDAF8000008F0C9FF044664
:102640006FF0040109F002F8D9F80020254929F0BB
:1026500043FD6FF00201204608F0F8FFD8F8002093
:10266000214929F039FD4FF0FF31204608F0EEFFF7
:102670003A681E4929F030FDBDE8F087144A136816
:102680007433136041F2941293427FF677AF0F4B8D
:1026900001221A7072E7104A13680933136041F27D
:1026A000941293427FF679AF0A4B01221A7074E7B5
:1026B0000B4A13684C33136041F2941293427FF635
:1026C0007BAF064B01221A7076E700BF450C002055
:1026D00064010020460C00206C010020470C002003
:1026E0006801002078EA040888EA040894EA0408EB
:1026F000540C002038B50C46084D0A46014628689F
:102700001FF0E9FA286808F063FF4FF0FF3108F086
:102710009DFF2246024929F0DFFC38BD500C002005
:10272000A0EA040838B50C46084D0A460146286858
:102730001FF0D1FA286808F04BFF6FF0020108F093
:1027400085FF2246024929F0C7FC38BD500C002005
:10275000B0EA040838B50C46084D0A460146286818
:102760001FF0B9FA286808F033FF6FF0040108F091
:102770006DFF2246024929F0AFFC38BD500C002005
:10278000C0EA04082DE9F043A9B0054603F062F958
:102790000446284603F05AF90646012C00F09180C1
:1027A000082C00F08E801A2C40F08E80284603F012
:1027B00055F90446436BB3F5C02F00F08880B3F59C
:1027C000A02F40F08180616A00296DD0A06A0028A6
:1027D0006AD0B0F90030B1F90220B1F90010032538
:1027E0000195B0F9020000900FA80CF015FC002133
:1027F0000FA80CF01FFB0746304605F0A0F906F1C4
:102800001408F38A02460028C0F2968003EBE20324
:10281000B6F91A200192002500951BB2FF2241460D
:1028200009A80CF025FE294609A80CF003FB054673
:102830001AA80CF03BFE7F238DF86B30A3691B8830
:10284000ADF86C3023680DF114094246996848468A
:1028500020F062FE2368D3F80880C3F80890626A0B
:10286000B2F90030ADF81C30A16A0B88013BADF81D
:102870002030B1F90230B2F902209342A8BF1346CA
:10288000ADF81E30B6F91A30ADF8223007AA1AA9F1
:1028900020680CF033FE2368C3F8088038460CF03B
:1028A0001FFB28460CF01CFB656C30461CF050F9F1
:1028B000A36B984242D022690023D3842269D38536
:1028C00002E0304605F002FD29B0BDE8F083826BDE
:1028D000022A7FF474AF30461BF076FD022815D033
:1028E0001AADC14E0FCE0FC50FCE0FC596E80F0023
:1028F00085E80F00236C28AA02EB830353F8383CC9
:10290000BA4A216BE06A22F081FDDDE71AADB84ECC
:102910000FCE0FC50FCE0FC596E80F0085E80F004C
:10292000236C28AA02EB830353F8383CAF4A216B8F
:10293000E06A22F06BFDC7E7C21D67E730461BF077
:1029400043FD012800F0A78023692A899A8523691D
:102950000F22DA85236900229A86236CA54A082172
:1029600005A822F053FD0023029341F6FF72019265
:102970000093A14A126805A904A824F0B9FB3046C7
:102980001BF022FD022800F08E80E1680B888A8807
:10299000D21A92B20132C2F3C03000FA82F203EBD3
:1029A00062039BB2BDF9102002EBD270A3EB60036F
:1029B000ADF81C3092B212FA83F3ADF820304E8895
:1029C000002020F0D7FAC0EB0010EF2800F3BA8007
:1029D0000123F31A9AB2ADF82230BDF81230D31A9F
:1029E000ADF81E30BDF81C60002020F0C3FA1D2891
:1029F00000F3B7800123F31AADF82430BDF820604E
:102A0000002020F0B7FA1D2800F3B88001233344DA
:102A1000ADF82830BDF81E60002020F0ABFA1D286C
:102A200000F3B9800123F31AADF82630BDF8226017
:102A3000002020F09FFA1D2800F3BA8001233344C0
:102A4000ADF82A301AA80CF031FD2B89ADF86C30A6
:102A5000002020F08FFA00EB8000EF2800F3B58013
:102A60000123ADF8683009AA1AA920680CF046FDC8
:102A70000FA80AF045FE4FF6FF73ADF848305E4BE5
:102A80001B680F9320680023009305AB07AA0FA9CA
:102A90000AF056FE18E723694FF6FF729A842369FD
:102AA0000222DA8459E7E3685F88002020F062FAA6
:102AB000C0EB0010EF2824DC0123FB1A9AB2ADF81A
:102AC0002230BDF81230D31AADF81E300021304646
:102AD0001CF000F8854220D0E3681A889B889B1A76
:102AE0009BB20133C3F3C03101FA83F302EB6303FA
:102AF0009AB2ADF82030BDF81030D31AADF81C30C2
:102B000070E7002020F036FAC0EB001000F150030F
:102B1000A02293FBF2F39BB2CFE7E3681A889B886D
:102B20009B1A9BB20133C3F3C03101FA83F302EB6A
:102B30006303ADF81C30BDF8102012FA83F3ADF832
:102B400020304FE7002020F015FAC0EB001000F114
:102B500050032A4A82FB0312DB17C3EBA2139BB27A
:102B600037E7002020F006FA00F10A03234A82FB2F
:102B70000312DB17C3EBE2039BB23CE7002020F01B
:102B8000F9F900F10A031D4A82FB0312DB17C3EBBC
:102B9000E2039BB23BE7002020F0ECF900F10A03CE
:102BA000164A82FB0312DB17C3EBE2039BB23AE740
:102BB000002020F0DFF900F10A03104A82FB031223
:102BC000DB17C3EBE2039BB239E7002020F0D2F918
:102BD00000EB800000F15003084A82FB0312DB1770
:102BE000C3EBA2131BB23CE758980308A0060508E4
:102BF000889803089CEA04084C0C00206766666607
:102C00002DE9F04F89B00D4617461E4603F06CFEC5
:102C1000044642F2D17104F094FE0121204614F0E2
:102C200061FB204628F028FD8246294629F0F2F96A
:102C30000022A349504608F02FF920461EF0F6FE68
:102C400005460022114608F0CBFA4FF4003200216D
:102C5000284608F0C5FA42F26401284604F05AFEFC
:102C6000204603F041FE80460D22114604F080FE0E
:102C70004FF480320021404608F0B2FADFF8589253
:102C800000224946404608F007F9002020F0BCFF2A
:102C900001460022404608F01EFC204628F0ECFCCD
:102CA0000590394629F0B6F9204603F01DFE074687
:102CB0000D22114604F05CFE4FF4803200213846AC
:102CC00008F08EFA00224946384608F0E5F805205B
:102CD00020F09AFF01460022384608F0FCFB20460F
:102CE00028F0CAFC0690314629F094F9204603F0FA
:102CF000FBFD06460D22114604F03AFE4FF48032E9
:102D00000021304608F06CFA00224946304608F0AF
:102D1000C3F8092020F078FF01460022304608F071
:102D2000DAFB204628F0A8FC0790129929F072F9E6
:102D3000644B1B78012B65D0634A6449204615F02B
:102D40008BF84FF00109CDF808900024019400940D
:102D5000022322462146504615F0CEF8CDF80890C1
:102D6000CDF804900094022322462146284615F00F
:102D7000C3F8CDF808904FF0020ACDF804A00094F3
:102D80004B4622462146404615F0B6F8CDF808904D
:102D90004FF00308CDF8048000944B4622462146AC
:102DA000384615F0A9F8CDF808900427019700944B
:102DB0004B4622462146304615F09EF8CDF8089045
:102DC000CDF804A000944B464A464146059815F0BC
:102DD00093F8CDF80890CDF8048000944B464A460D
:102DE0004146069815F088F8CDF8089001970094B0
:102DF0004B464A464146079815F07EF8284609B0EA
:102E0000BDE8F08F324A3349204615F025F80124F9
:102E100002944FF00009CDF80490CDF800900423FF
:102E20004A464946504615F067F84FF0030ACDF878
:102E300008A00194CDF8009023464A46494628460A
:102E400015F05AF802944FF0020BCDF804B000943C
:102E500023465A464946404615F04EF80294CDF8AE
:102E600004A0009423465A464946384615F044F8D3
:102E7000029404270197009423465A464946304657
:102E800015F03AF80294CDF804B000942346524667
:102E90005146059815F030F80294CDF804A000943E
:102EA000234652465146069815F026F8029401979B
:102EB0000094234652465146079815F01DF89DE7A9
:102EC000900C0020440C002048010020F800002055
:102ED00038010020EC000020780C00202DE9F043A0
:102EE00085B00C461646994603F0FEFC05462E4A70
:102EF000002108F075F942F2D17242F264012846CD
:102F000004F036FD294A2A49284614F0A5FF284630
:102F100028F026F98046214628F02EF9022702974C
:102F2000002401940094012322462146404614F0D7
:102F3000E3FF284628F0A0FB8046314629F06AF8D6
:102F4000012602960194009733463A4621464046B0
:102F500014F0D2FF284628F08FFB8046494629F01E
:102F600059F822461349404607F096FF029601960B
:102F7000009433463A462146404614F0BDFF2846A9
:102F800028F07AFB80460C9929F044F802960194C7
:102F90000097334603223946404614F0ADFF2846D9
:102FA00005B0BDE8F08300BFFFFF0F005401002013
:102FB00000010020880C00202DE9F04794B006465F
:102FC000042114F03FF9304603F08EFC0546012140
:102FD00014F088F9CE4ACF49284614F03DFF42F25A
:102FE0006401284604F0ADFC00224FF49671284697
:102FF00008F02BFA284628F03FFB8046C64929F006
:1030000009F80022C549404607F046FF012702970C
:10301000002401940094022322462146404614F0E5
:103020006BFF28461BF0A0F9BD4D286002F098FE0A
:10303000296802F0C5FE4FF48061286803F060FC47
:1030400002970197032100913B463A46286814F005
:1030500053FF5023039302970197052300932346C0
:103060002246214628681CF0A7F9322303930297D1
:1030700001970C27009723462246022128681CF05E
:103080009BF93A46214628681BF07AF939462868A8
:103090001BF042FC23462246A249286802F0F6FCB7
:1030A000A14B1B78002B00F07085012B00F074857C
:1030B0009B4C00220521206808F02BFA00221146C3
:1030C000206808F069FA2568284609F075FE01466F
:1030D000002228461BF05AFC0746944D2860D4F87D
:1030E000008050210A2021F05DFA02B239464046A4
:1030F0001BF0FAFC2768D5F8008050210A2021F047
:1031000051FA02B2414638461BF0EEFC2768D5F86A
:10311000008050210A2021F045FA02B2414638468B
:103120001BF0E2FC2768D5F8008050210A2021F02E
:1031300039FA02B2414638461BF0D6FC2768D5F86A
:10314000008050210A2021F02DFA02B24146384673
:103150001BF0CAFC2768D5F8008050210A2021F016
:1031600021FA02B2414638461BF0BEFC2768D5F86A
:10317000008050210A2021F015FA02B2414638465B
:103180001BF0B2FC2768D5F8008050210A2021F0FE
:1031900009FA02B2414638461BF0A6FC2768D5F86A
:1031A000008050210A2021F0FDF902B24146384644
:1031B0001BF09AFC2768D5F8008050210A2021F0E6
:1031C000F1F902B2414638461BF08EFC2768D5F86B
:1031D000008050210A2021F0E5F902B2414638462C
:1031E0001BF082FC2768D5F8008050210A2021F0CE
:1031F000D9F902B2414638461BF076FC24682D68A6
:1032000050210A2021F0CEF902B2294620461BF0B7
:103210006BFC304603F068FB05464FF4000103F0F9
:103220006FFB0121284614F05DF842F26401284644
:1032300004F087FB00224FF49671284608F005F948
:10324000334A3449284614F007FE284628F014FA79
:103250008046374928F0DEFE00223049404607F01C
:103260001BFE0127029700240194009402232246AA
:103270002146404614F040FE28461BF075F82D4DBF
:10328000286002F06DFD296802F09AFD4FF480611C
:10329000286803F035FB02970197032100913B4614
:1032A0003A46286814F028FE5023039302970197AA
:1032B0004FF00508CDF800802346224621462868B5
:1032C0001CF07AF832230393029701970C2700979A
:1032D00023462246022128681CF06EF842F264025E
:1032E0001146286804F044FB022128681BF0B6FA56
:1032F0002246062128681BF043F8394628681BF04F
:103300000BFB234622460749286802F0BFFB13E067
:10331000E4000020DC000020D0EA0408900C00202B
:10332000380C002085270008440C0020680C002081
:10333000E0EA04083C0C00204FF4007128681BF000
:1033400030F822464146286808F0E3F82246214634
:10335000286808F021F9D24B1B78002B00F0248458
:10336000022B00F03C84CF4C25680121122020F074
:103370006BFC0146002228461BF008FB0746CA4D9D
:103380002860D4F8008050210A2021F00BF902B205
:10339000394640461BF0A8FB2768D5F8008050212D
:1033A0000A2021F0FFF802B2414638461BF09CFB90
:1033B0002768D5F8008050210A2021F0F3F802B2E6
:1033C000414638461BF090FB2768D5F80080502115
:1033D0000A2021F0E7F802B2414638461BF084FB90
:1033E0002768D5F8008050210A2021F0DBF802B2CE
:1033F000414638461BF078FB2768D5F800805021FD
:103400000A2021F0CFF802B2414638461BF06CFB8F
:103410002768D5F8008050210A2021F0C3F802B2B5
:10342000414638461BF060FB2768D5F800805021E4
:103430000A2021F0B7F802B2414638461BF054FB8F
:103440002768D5F8008050210A2021F0ABF802B29D
:10345000414638461BF048FB2768D5F800805021CC
:103460000A2021F09FF802B2414638461BF03CFB8F
:103470002768D5F8008050210A2021F093F802B285
:10348000414638461BF030FB2768D5F800805021B4
:103490000A2021F087F802B2414638461BF024FB8F
:1034A00027682D6850210A2021F07CF802B22946B5
:1034B00038461BF019FB25687C4B186809F07CFC2A
:1034C0000146002228461BF061FA0746784D286025
:1034D000D4F8008050210A2021F064F802B2394665
:1034E00040461BF001FB2768D5F8008050210A20D8
:1034F00021F058F802B2414638461BF0F5FA276829
:10350000D5F8008050210A2021F04CF802B2414643
:1035100038461BF0E9FA2768D5F8008050210A20C8
:1035200021F040F802B2414638461BF0DDFA276828
:10353000D5F8008050210A2021F034F802B241462B
:1035400038461BF0D1FA2768D5F8008050210A20B0
:1035500021F028F802B2414638461BF0C5FA276828
:10356000D5F8008050210A2021F01CF802B2414613
:1035700038461BF0B9FA2768D5F8008050210A2098
:1035800021F010F802B2414638461BF0ADFA276828
:10359000D5F8008050210A2021F004F802B24146FB
:1035A00038461BF0A1FA2768D5F8008050210A2080
:1035B00020F0F8FF02B2414638461BF095FA276822
:1035C000D5F8008050210A2020F0ECFF02B24146DD
:1035D00038461BF089FA2768D5F8008050210A2068
:1035E00020F0E0FF02B2414638461BF07DFA246825
:1035F0002D6850210A2020F0D5FF02B2294620462E
:103600001BF072FA2B4B00932B4B2C4A2C49304663
:10361000FFF7F6FA2B4D286007F0DAFF4FF40001B0
:1036200003F06EF928681EF00DFA04465A23019340
:103630004FF48773009364230022014628681EF02C
:1036400050FA4FF00003ADF80430002700973B46D6
:103650003A46214628681EF029FA04A81FF0EAFD20
:1036600014230B930C9364230D934FF6FF73ADF863
:103670004C30D5F80080052020F0C6FA03460097AC
:103680000F22214640461EF06FFA0F4B059304901F
:1036900041F204030E9340F68C23119304A815E025
:1036A000440C00203C0C00206C0C0020380C002046
:1036B000700C00201CEB0408F0EA0408FCEA040883
:1036C0000CEB0408500C0020552700081FF0FAFDF1
:1036D000D5F80080384620F097FA03466FF01302C1
:1036E00000920F22214640461EF03EFAD24B05932F
:1036F000049040F628230E934FF4486311930990E9
:1037000004A81FF0DFFD2D68092020F07DFA034694
:103710006FF0270200920F22214628461EF024FA5D
:10372000C64B059304904FF42F630E934FF4E1635F
:10373000119304A81FF0C6FDC14B0093C14BC24AB0
:10374000C2493046FFF75CFAC14B1860C14B1B7889
:10375000012B40F25282BE4C20681EF073F90746DE
:103760005A2301934FF4B47300936423002201465B
:1037700020681EF0B6F94FF00003ADF804304FF0AA
:103780000008CDF8008043464246394620681EF0C6
:103790008DF92568404620F037FA03466FF009029C
:1037A00000921422394628461EF0DEF90146AA4D41
:1037B0002860424620681EF074FA27222968206893
:1037C0001EF089FAD4F80090052020F01DFA034677
:1037D000CDF800801E22394648461EF0C5F9014644
:1037E0006860282220681EF05CFA4522696820681B
:1037F0001EF071FAD4F80080092020F005FA034683
:103800006FF0130200920A22394640461EF0ACF9CE
:103810000146A860462220681EF043FA6322A96888
:1038200020681EF058FA2A4664218C4822F0DAF902
:103830008B4B00938B4B8C4A8C493046FFF7E0F959
:103840008B4B1860834B1B78012B40F2DD81884C39
:10385000256800220A21284607F021FE00220A21BD
:10386000284607F023FE25684FF400320A21284637
:1038700007F0D6FD4FF400320A21284607F0DEFD9E
:103880004FF4003247F6FF71206807F085FE4FF4D1
:103890000032FF21206807F02EFE25680421122047
:1038A00020F008FA01464FF40032284607F013FED4
:1038B0004FF400324FF0FF31206807F038FE4FF42C
:1038C00000320321206807F02BFE25680121122019
:1038D00020F0F0F901464FF4C022284607F03EFEE2
:1038E00020681EF0AFF805468C230193DC2300937B
:1038F0003C230A22014620681EF0F3F84FF6FF73BE
:10390000ADF80430112300930323152229462068C3
:103910001EF0CCF80F2302934FF6FF73ADF804307E
:103920001623009304231A46294620681EF0CAF87D
:10393000D4F80080002020F067F9034600270097A4
:103940000A22294640461EF00FF980463A460146B3
:1039500020681EF0A6F91422414620681EF0BBF92B
:10396000D4F800A00321384620F0A4F980460321B2
:10397000384620F09FF9034601974FF00109CDF832
:1039800000904246294650461EF026F980463A46A7
:10399000014620681EF085F91422414620681EF079
:1039A0009AF9D4F80080052020F02EF903460097FC
:1039B0000C22294640461EF0D7F8804614220146C4
:1039C00020681EF06EF92822414620681EF083F917
:1039D000D4F800A00321052020F06CF980460321D3
:1039E000052020F067F903460197CDF80090424684
:1039F000294650461EF0F0F8804614220146206801
:103A00001EF04FF92822414620681EF064F9D4F8D0
:103A10000080092020F0F8F8034600970A22294682
:103A200040461EF0A1F880462822014620681EF07C
:103A300038F93C221EE000BF25270008F5260008C3
:103A40004CEB040828EB040834EB040840EB0408B2
:103A5000540C0020440C0020580C0020592500086C
:103A600084EB040858EB040868EB040874EB0408C2
:103A7000640C0020414620681EF02DF9D4F800A007
:103A80000321092020F016F980460321092020F0A7
:103A900011F903460197CDF8009042462946504659
:103AA0001EF09AF880462822014620681EF0F9F898
:103AB0003C22414620681EF00EF9D4F80080042113
:103AC000122020F0F7F803466FF01802009204224B
:103AD000294640461EF010F88046206827F0CCFDAD
:103AE0000546564928F096FA3A465549284607F0C1
:103AF000D3F9206827F0C0FD0446524928F08AFA1D
:103B000004A81FF097FB0A230B930C933C230D93FF
:103B10004FF6FF73ADF84C304B4B0593CDF810804A
:103B200041F204030E934FF44873119304A81FF05D
:103B3000C9FB304605F088F8444B1B784B456AD0EA
:103B4000434F386803F0F4FF06460146386803F037
:103B5000F8FE31463F4B186803F0F3FE31463E4B0A
:103B6000186803F0EEFE42F237030A2202212846CB
:103B700003F07CFF002300930A23152229462046E8
:103B800005F082F814B0BDE8F0874FF44071286862
:103B90001AF007FCFFF78CBA4FF400712F4B18682E
:103BA0001AF0FFFBFFF784BA2C462D684FF4A022D1
:103BB0000021284607F081FC4FF4A022002128466E
:103BC00007F082FC246800220221204607F075FCE1
:103BD00000220221204607F077FCFFF7C4BB204BF0
:103BE0001C6800221021204607F067FC00221021EB
:103BF000204607F069FCFFF7B6BB07F0E9FC4FF47D
:103C0000000102F07DFEA6E507F0E2FC4FF40001A2
:103C100002F076FE1BE6C82211460D4B186803F031
:103C2000A7FEC82211460B4B186803F0A1FEC8225C
:103C30001146094B186803F09BFE94E790EB0408CB
:103C4000900C002094EB04082D250008440C002063
:103C5000500C0020540C0020640C0020380C002074
:103C60003C0C00202DE9F04F87B00746042113F0EB
:103C7000E9FA384602F038FE064642F2D17242F2C4
:103C8000640103F075FE00221E21304607F000FC9F
:103C9000304627F0F1FC8246DB4928F0BBF9DB4CCB
:103CA00000222146504607F0F7F8304627F0E4FCA2
:103CB0008146D74928F0AEF90022D649484607F098
:103CC000EBF8304627F0D8FC05460490D24928F09E
:103CD000A1F900222146284607F0DEF8304627F0F9
:103CE000CBFC04460590CD4928F094F909201FF03B
:103CF0008BFF01460022204607F030FC30461AF0C8
:103D000033FBC74C20605023039301250295019596
:103D10004FF00608CDF8008000231A4619461BF024
:103D20004BFB322303930295019507250095002351
:103D30001A46022120681BF03FFB022120681AF07E
:103D40008DFD0022414620681AF01AFB29462068A2
:103D50001AF0E2FD00231A46B249206801F096FEEF
:103D60002568284609F028F80146002228461AF05E
:103D70000DFE8046AC4D2860D4F800B05A213C209E
:103D800020F010FC02B2414658461AF0ADFED4F8BD
:103D90000080D5F800B05A213C2020F003FC02B28C
:103DA000594640461AF0A0FED4F80080D5F800B07D
:103DB0005A213C2020F0F6FB02B2594640461AF048
:103DC00093FED4F80080D5F800B05A213C2020F0B2
:103DD000E9FB02B2594640461AF086FED4F800804C
:103DE000D5F800B05A213C2020F0DCFB02B2594645
:103DF00040461AF079FED4F80080D5F800B05A2178
:103E00003C2020F0CFFB02B2594640461AF06CFE2F
:103E1000D4F80080D5F800B05A213C2020F0C2FB35
:103E200002B2594640461AF05FFED4F80080D5F839
:103E300000B05A213C2020F0B5FB02B25946404662
:103E40001AF052FED4F80080D5F800B05A213C2078
:103E500020F0A8FB02B2594640461AF045FED4F8BD
:103E60000080D5F800B05A213C2020F09BFB02B224
:103E7000594640461AF038FED4F80080D5F800B014
:103E80005A213C2020F08EFB02B2594640461AF0DF
:103E90002BFE24682D685A213C2020F083FB02B2BF
:103EA000294620461AF020FE604B1B78022B00F0BA
:103EB000EB80012B00F04581002B00F0A4813846F7
:103EC00002F012FD0446594B1B78002B40F0F181A3
:103ED0004FF4000102F014FD42F26401204603F0A9
:103EE00030FD0121204613F0ADF90121204613F0E9
:103EF000F9F94FF40001204602F002FD204627F0B8
:103F0000BBFB05464A4928F085F800223F49284670
:103F100006F0C2FFDFF84C81464E474D474B0093F9
:103F20004346324629462046FEF7D8FF444B0093CD
:103F30004346324629462046FEF7D0FF414B0093C8
:103F40004346324629462046FEF7C8FF3E4B0093C3
:103F50004346324629462046FEF7C0FF3B4B0093BE
:103F60004346324629462046FEF7B8FF384602F05F
:103F7000BBFC04462D4B1B78002B40F0A5814FF471
:103F8000000102F0BDFC42F26401204603F0D9FCBE
:103F90000121204613F056F90121204613F0A2F921
:103FA000204627F069FB0546294928F033F800220E
:103FB0001649284606F070FF204625F0CBFE25491D
:103FC00025F0D4FE204625F0C5FE234925F0CEFE7F
:103FD000204625F0BFFE0546204925F0C7FE0121F9
:103FE000284602F005FD204625F0B4FE05461C4992
:103FF00025F0BCFE8021284602F0FAFC204625F080
:10400000A9FE054630E000BF9CEB0408900C0020A0
:10401000ACEB0408880C0020BCEB0408C8EB0408D7
:10402000400C0020DD1E0008740C0020440C002011
:10403000E4EB0408FCEB0408D098030808EC04083F
:1040400010EC040818EC040820EC040824EC040824
:104050002CEC04083CEC04084CEC04085CEC040870
:104060006CEC0408F4EB04089D4925F07FFE8121E7
:10407000284602F0BDFC204625F06CFE994925F04B
:1040800075FE07B0BDE8F08F974C42F2640211460E
:10409000206803F06DFC246800201EF06BFFC0EB6D
:1040A00000104000EF283DDC01210022204607F0EF
:1040B0000BFA8E4A8E49304613F0CEFE012502954A
:1040C0000024019400942B4622462146504613F0CA
:1040D00013FF0295019500942B462246214648463F
:1040E00013F00AFF02950326019600942B46224600
:1040F0002146049813F000FF0295042301930094D5
:104100002B4622462146059813F0F6FE052302931E
:10411000019400962B462A4631467348006813F0F6
:10412000EBFECCE600201EF025FFC0EB00104300A4
:104130005033704A82FB0312D917C1EBA21109B2A6
:10414000B3E7304604F080FD674C2568304603F045
:1041500009FD81B2143909B2284603F0DBFB24685B
:1041600000201EF007FFC0EB00104000EF283BDCF2
:1041700001210022204607F0A7F95F4A5F49304637
:1041800013F06AFE01240294002501950094234651
:104190002A462946504613F0AFFE0294019500943A
:1041A000234622462946484613F0A6FE029401946F
:1041B000009423462A462946049813F09DFE029453
:1041C00001940094234622462946059813F094FE54
:1041D000029402210191032300930B462A46424890
:1041E000006813F089FE6AE600201EF0C3FEC0EBF3
:1041F0000010430050333F4A82FB0312D917C1EB32
:10420000A21109B2B5E7384D42F25F01286803F008
:1042100081FB2C681EF078FE1EF094FE81B24639B8
:1042200009B2204603F08DFB00224FF496712868F6
:1042300007F00BF94FF4007128681AF0B2F8304A11
:104240003049304613F008FE0126029600240194FE
:104250000094334622462146504613F04DFE029606
:1042600001960094334622462146484613F044FE08
:1042700002964FF00208CDF804800094334622469F
:104280002146049813F038FE02960323019300940C
:10429000334622462146059813F02EFE029604234B
:1042A00001930094334622464146286813F024FEC9
:1042B00005E642F2640103F044FB00224FF49671DC
:1042C000204607F0C2F80CE642F2640103F039FB25
:1042D00000224FF49671204607F0B7F858E600BF69
:1042E00078EC04088CEC0408400C0020140000203A
:1042F000000000206766666620000020080000209D
:10430000280000201000002070B582B005460E463F
:1043100007F05EF903F00CFC84B200201EF02AFEC8
:1043200000EB80008000EF2847DC0120241A24B233
:104330006D4B1B78002B7BD100201EF01BFE34231D
:1043400003FB00F3EF2B47DC012300944FF4807252
:104350000021304620F002F901B2284603F0DAFAD3
:1043600000201EF007FE00EB80004000EF2841DC3B
:104370004FF0FF3400201EF0FDFD00EB80004000F8
:10438000EF2846DC4FF0FF3322460621284603F093
:104390006DFBFF2E00DDFF260024284607F06BF999
:1043A000A04240F29F802146284607F04FF90022A4
:1043B000F1B207F0F8F80134EFE700201EF0DAFD63
:1043C00000EB800083005033484A82FB0312D81769
:1043D000C0EBA21080B2A9E700201EF0CBFD342272
:1043E00002FB00F25032414981FB0231D317C3EB8B
:1043F000A113AAE700201EF0BDFD00EB80004300E2
:1044000050333A4A82FB0312DC17A4EBA21424B205
:10441000B0E700201EF0AEFD00EB800043005033FB
:10442000324A82FB0312DB17A3EBA2131BB2ABE7EA
:1044300000201EF09FFDC0EB00108000EF2825DC5F
:10444000012300944FF480720021304620F086F85A
:1044500001B2284603F05EFA00201EF08BFD00EB4F
:1044600080004000EF281FDC4FF0FF3400201EF0DA
:1044700081FD00EB80004000EF2824DC4FF0FF338B
:1044800022460621284603F0F1FA82E700201EF0BA
:1044900071FDC0EB001082005032144981FB0231E3
:1044A000D317C3EBA113CCE700201EF063FD00EB94
:1044B0008000430050330D4A82FB0312DC17A4EB4B
:1044C000A21424B2D2E700201EF054FD00EB8000BD
:1044D00043005033054A82FB0312DB17A3EBA21300
:1044E0001BB2CDE702B070BD440C00206766666663
:1044F00070B592B0054601F0ADFA0446284601F0C9
:10450000A5FA0E2C03D0072C23D012B070BD07F0F3
:104510005FF8054603F00CFB04461EF0F5FC1EF0A8
:10452000F9FC00EBD07343F34F039C42EDDA02A891
:104530001EF080FE02951F4B0393002309930A93FC
:104540004FF480730B93C8230C9302A81EF0BAFE9D
:10455000DBE7284601F084FA05460078C41CE4B283
:10456000122C00D900241FF04FFB064620461FF0F6
:104570004BFB0246104B1B68009300233146184644
:1045800018F07AF928781FF03FFB044601460B48E3
:1045900021F0D0FA22460A4B19680A4B18681AF023
:1045A00077FA2246084B1968084B18681AF070FA17
:1045B000ABE700BF094300084C0C0020800C002032
:1045C000680C0020380C0020700C00203C0C0020EF
:1045D0002DE9F041804602F087F90746D74A0021CD
:1045E00006F0FEFD0021384612F02CFE02231A468A
:1045F0000321384612F052FE4FF48021384602F073
:104600007FF900224FF0FF31384606F064FFCC4BB3
:104610001B78002B5FD100201EF0ACFC00EB4003A8
:10462000C0EB0310EF2846DC01210022384606F0DB
:104630003DFF0022FF21384606F05DFF002247F6CD
:10464000FF71384606F0A8FFBD4B1B78002B7BD1CD
:1046500000201EF08FFC342303FB00F3EF2B55DC0E
:10466000012400201EF086FC342303FB00F3EF2B13
:104670005BDC01222146384603F07AF900201EF067
:1046800079FC00EB80004000EF2800F392804FF0AF
:10469000FF3400201EF06EFC00EB80004000EF288D
:1046A00000F396804FF0FF3322460621384603F090
:1046B000DDF90025C4E000201EF05CFC00EB4003A7
:1046C000C0EB031050309F4B83FB0023C117C1EB9D
:1046D000A31109B2A9E700201EF04CFCC0EBC003F7
:1046E000C0EBC300EF2801DC01219EE700201EF093
:1046F00041FCC0EBC003C0EBC3005030914B83FBC7
:104700000023C117C1EBA31109B28EE700201EF0F0
:1047100031FC342303FB00F350338A4A82FB03123B
:10472000DC17C4EBA21424B29BE700201EF022FC8D
:10473000342303FB00F35033824981FB0321DA1752
:10474000C2EBA11212B295E700201EF013FCC0EBE1
:1047500000108000EF280EDC012400201EF00AFC6F
:10476000C0EB00108000EF2814DC012221463846FF
:1047700003F0FEF882E700201EF0FCFBC0EB001007
:10478000830050336F4A82FB0312DC17C4EBA21480
:1047900024B2E2E700201EF0EDFBC0EB0010830026
:1047A0005033684981FB0321DA17C2EBA11212B220
:1047B000DCE700201EF0DEFB00EB800043005033FE
:1047C000604A82FB0312DC17A4EBA21424B260E758
:1047D00000201EF0CFFB00EB800043005033594A0D
:1047E00082FB0312DB17A3EBA2131BB25CE7384674
:1047F00023F0C0FF0446544E705D1FF005FA0146D9
:104800000022204606F067FE002247F6FF71204690
:1048100006F0C2FE00221146204606F0C4FE142215
:104820001146204603F0A4F8731900224749204698
:1048300001F02CF94FF48061204602F09AF801351E
:10484000414B5B5D132BD2D1404623F093FF0446CE
:104850003F4902F055F801224FF0FF31204606F0A3
:104860003AFE00220A21204606F019FE00220A2103
:10487000204606F01BFE00220A21204606F001FE1B
:1048800000220A21204606F003FE002247F6FF71AF
:10489000204606F081FE3B4600222E49204601F0CC
:1048A000F5F800221146204606F051FE00222A4962
:1048B000204606F027FE224B1B78002B7BD10020E0
:1048C0001EF058FB2A2303FB00F3EF2B26DC012507
:1048D00000201EF04FFB2A2303FB00F3EF2B3DDCEF
:1048E00001222946204603F043F800201EF042FB37
:1048F000C0EB0010EF2840DC4FF0FF3500201EF029
:1049000039FBC0EB0010EF2846DC4FF0FF332A469E
:104910000621204603F0AAF8BDE8F08100201EF031
:1049200029FB2A2303FB00F35033064A82FB0312C0
:10493000DD17C5EBA2152DB2CAE700BFFFFF0F00C0
:10494000440C0020676666665C010020F1440008A4
:1049500002000400AD2400089CEC040800201EF0B6
:1049600009FB2A2303FB00F35033484981FB032151
:10497000DA17C2EBA11212B2B3E700201EF0FAFA66
:10498000C0EB001000F15003404A82FB0312DD1718
:10499000A5EBA2152DB2B1E700201EF0EBFAC0EB9B
:1049A000001000F15003394A82FB0312DB17A3EB1E
:1049B000A2131BB2ABE700201EF0DCFA322303FB8C
:1049C00000F3EF2B25DC012500201EF0D3FA322363
:1049D00003FB00F3EF2B2BDC01222946204602F0DB
:1049E000C7FF00201EF0C6FAC0EB0010EF282EDC37
:1049F0004FF0FF3500201EF0BDFAC0EB0010EF288D
:104A000034DC4FF0FF332A460621204603F02EF80F
:104A100082E700201EF0AEFA322303FB00F350338E
:104A20001A4A82FB0312DD17C5EBA2152DB2CBE7A4
:104A300000201EF09FFA322303FB00F3503313498A
:104A400081FB0321DA17C2EBA11212B2C5E70020E5
:104A50001EF090FAC0EB001000F150030B4A82FBED
:104A60000312DD17A5EBA2152DB2C3E700201EF03F
:104A700081FAC0EB001000F15003044A82FB0312DC
:104A8000DB17A3EBA2131BB2BDE700BF6766666628
:104A9000F0B583B01EF038FA1EF03CFAB0F5A07FF6
:104AA00000F39480894B00221A70894B894A136065
:104AB000894A1360854B1B78022B00F09680012BEE
:104AC00000F0A780854D864C864B00932B468A22AA
:104AD000214602201FF00AFC834B00932B468F22B5
:104AE000214602201FF002FC2D2705201FF08CF824
:104AF000044600201FF088F80246774D2B6800938B
:104B000000232146184617F0B7FE784C204620F0C7
:104B10009FFC7F21204621F01DF8754C204620F097
:104B200097FC6C4E3168204621F01AF8714C2046F3
:104B300020F08EFC002008F03FF90146204620F0CE
:104B4000F9FF3168204621F00BF86B4C204620F02D
:104B50007FFC0021204620F05FFF47F6FF712046D2
:104B600021F010F81EF0D0F900F0C6FD3A460421FD
:104B70001DF0EEFB614B18601EF0C6F900F0BCFDA5
:104B80000022296806F0FAFC504B1B78022B4DD00E
:104B90005A4C5B4920681DF0EFFC074659492068D4
:104BA0001DF0EAFC0646584920681DF0E5FC054664
:104BB0003846FCF71DFC3046FEF7FEF92846FFF7A5
:104BC00051F82068FFF704FD03B0F0BD1EF09CF91A
:104BD0001EF0A0F9B0F5347F03DA3C4B01221A70C5
:104BE00063E73A4B02221A705FE73C4D3C4C474B5F
:104BF00000932B467022214602201FF077FB444B86
:104C000000932B467522214602201FF06FFB46279A
:104C10006BE7404B0093314B7D22314902201FF05E
:104C200065FB2D4B2A4A1A602D275EE7334B186827
:104C30001DF0A9FB04461EF067F91EF06BF900EBAE
:104C4000D070002240F34F01204606F028FC204699
:104C500026F086FA0546304926F08EFA1EF054F901
:104C60001EF058F900EBD0725210524292B2193233
:104C7000002312B20721284602F0F8FE204626F053
:104C8000FBFC064600221A4906F006F92349304685
:104C900027F0C0F9002700970A231322294630463F
:104CA00003F0F2FF204626F0E7FC04461C4927F0FB
:104CB000B1F93A460D49204606F0EEF800970A236E
:104CC00015222946204603F0DFFF61E7440C00204F
:104CD000C84E0508480C00204C0C0020E4EE0408E7
:104CE000A0EC0408F8ED040854EE0408880C002039
:104CF000900C0020800C0020780C0020980C0020E4
:104D0000C8EE0408D0EE0408DCEE0408E4EC040865
:104D100040ED04089CED040894D30408B0EE0408A8
:104D2000B8EE04082DE9F0416B4F6C4E6C4D6D4CA4
:104D30003B463246294620462EF0BCFEDFF8E48191
:104D4000D8F81C1068482EF0B5FE0A202EF0C6FEDA
:104D50003B463246294620462EF0ACFED8F81810C5
:104D600062482EF0A7FE0A202EF0B8FE3B463246DF
:104D7000294620462EF09EFED8F820105C482EF0E2
:104D800099FE0A202EF0AAFE3B46324629462046CE
:104D90002EF090FE98F8001056482EF08BFE0A2058
:104DA0002EF09CFE3B463246294620462EF082FEDF
:104DB00098F8271050482EF07DFE0A202EF08EFE27
:104DC0003B463246294620462EF074FED8F80C1099
:104DD0004A482EF06FFE0A202EF080FE3B463246F7
:104DE000294620462EF066FEB8F80A1044482EF0F8
:104DF00061FE0A202EF072FE3B46324629462046CE
:104E00002EF058FED8F814103E482EF053FE0A201B
:104E10002EF064FE3B463246294620462EF04AFEDE
:104E2000D8F8101038482EF045FE0A202EF056FE15
:104E30003B463246294620462EF03CFE98F8241088
:104E400032482EF037FE0A202EF048FE3B4632460E
:104E5000294620462EF02EFE98F825102C482EF0DC
:104E600029FE0A202EF03AFE3B46324629462046CD
:104E70002EF020FE98F8261026482EF01BFE0A2061
:104E80002EF02CFE3B463246294620462EF012FEDE
:104E900008F1010120482EF00DFE0A202EF01EFE22
:104EA0005D23002211461D482BF082FEDFF878803A
:104EB0005D22002140462BF0D9FE3B463246294672
:104EC00020462EF0F7FD414615482EF0F3FD0A204E
:104ED0002EF004FEBDE8F08114F104086CEF040824
:104EE00078EF040884EF040894EF0408B0EF040896
:104EF000CCEF0408F0EF040804F004081CF00408E8
:104F000038F0040850F004086CF0040888F0040835
:104F1000A8F00408C8F00408E8F0040870010020B4
:104F200000F104084CEA00209C0C002008B50B4856
:104F30000B4B03601023436000238360C360036155
:104F40004361037643768376C376037743772BF00A
:104F50003DFF00B908BD2AF0A9FFFBE7FC0C0020CB
:104F60000064004010B588B00023039304930593B8
:104F7000069307930268254B9A4201D008B010BDF2
:104F80000024019403F5EA331A6C42F000721A64AB
:104F90001A6C02F000720192019A02941A6B42F0AC
:104FA00001021A631B6B03F001030293029B4FF48F
:104FB000C053039302230493059403230693092308
:104FC000079303A912482CF0A7FB22462146132081
:104FD0002CF0E6F813202CF017F922462146142075
:104FE0002CF0DEF814202CF00FF922462146152073
:104FF0002CF0D6F815202CF007F922462146162071
:105000002CF0CEF816202CF0FFF8B7E70064004033
:105010000000024008B50A22024903482EF07BFB3B
:1050200008BD00BF240D0020C4E9002010B50A4BC4
:105030000A4A0B490B482EF03DFD0B4C21460B480C
:105040002EF038FD0A202EF049FD00232360636016
:105050002381FFF7DFFF10BDB4F204086CEF0408F2
:1050600078EF040884EF0408240D002030F10408D0
:1050700010B582B00446036C082B12D0036C042BCD
:1050800021D0036C022B30D0036C102B3FD0036C6B
:10509000012B4ED0036C002B5DD0FFF7BBFF02B09D
:1050A00010BD364B019347230093354B354A3649A3
:1050B00036482EF0FFFC216C35482EF0FBFC0A2010
:1050C0002EF00CFDE9E72D4B0193492300932C4B67
:1050D0002C4A2D492D482EF0EDFC216C2D482EF048
:1050E000E9FC0A202EF0FAFCD7E7244B01934B236E
:1050F0000093234B234A244924482EF0DBFC216CE7
:1051000025482EF0D7FC0A202EF0E8FCC5E71B4B03
:1051100001934D2300931A4B1A4A1B491B482EF04A
:10512000C9FC216C1C482EF0C5FC0A202EF0D6FCD0
:10513000B3E7124B01934F230093114B114A1249CD
:1051400012482EF0B7FC216C14482EF0B3FC0A2054
:105150002EF0C4FCA1E7094B019351230093084BA7
:10516000084A094909482EF0A5FC216C0C482EF08C
:10517000A1FC0A202EF0B2FC8FE700BFCCF204089D
:1051800048F104086CEF040878EF040878F104088B
:1051900094F10408BCF10408E0F1040804F20408E6
:1051A0002CF204082DE9F0410446DFF87480164F14
:1051B000164E174D43463A46314628462EF07AFCA5
:1051C000216A14482EF076FC0A202EF087FC434614
:1051D0003A46314628462EF06DFCA18C0E482EF042
:1051E00069FC0A202EF07AFC43463A4631462846AE
:1051F0002EF060FCE18C89B208482EF05BFC0A209E
:105200002EF06CFCBDE8F0816CEF040878EF040828
:1052100084EF040850F2040870F2040890F20408C5
:10522000E0F2040810B582B0002400942A4B1A6BF7
:1052300042F480021A631A6B02F480020092009A10
:1052400001941A6B42F400121A631B6B03F40013EF
:105250000193019B224621460E202BF0A1FF0E2038
:105260002BF0D2FF224621460F202BF099FF0F2072
:105270002BF0CAFF2246214610202BF091FF102070
:105280002BF0C2FF2246214611202BF089FF11206E
:105290002BF0BAFF2246214638202BF081FF382020
:1052A0002BF0B2FF224621463A202BF079FF3A201C
:1052B0002BF0AAFF224621463B202BF071FF3B201A
:1052C0002BF0A2FF2246214646202BF069FF462004
:1052D0002BF09AFF02B010BD003802402DE9F041DA
:1052E0008AB00024059406940794089409940094C5
:1052F0002B4B1A6B42F010021A631A6B02F0100269
:105300000092009A01941A6B42F004021A631A6B1D
:1053100002F004020192019A02941A6B42F0800298
:105320001A631A6B02F080020292029A03941A6BBB
:1053300042F001021A631A6B02F001020392039A0F
:1053400004941A6B42F002021A631B6B03F002030F
:105350000493049BDFF850800122114640462CF054
:10536000C5FA104E01224FF4607130462CF0BEFA9F
:1053700001250595069507940327089705A940463A
:105380002CF0CAF94FF460730593069507940897BB
:1053900005A930462CF0C0F90AB0BDE8F08100BF85
:1053A00000380240001002400004024010B582B0F4
:1053B0008DF807000E4C00224FF4807120462CF02F
:1053C00095FA00224FF4007120462CF08FFA4FF02E
:1053D000FF3301220DF1070106482CF006FF0122E0
:1053E0004FF4007120462CF081FA02B010BD00BFCE
:1053F00000100240A0E6002010B582B08DF8070032
:105400000E4C01224FF4807120462CF06FFA0022DE
:105410004FF4007120462CF069FA4FF0FF3301225F
:105420000DF1070106482CF0E0FE01224FF4007157
:1054300020462CF05BFA02B010BD00BF0010024005
:10544000A0E60020F8B507460D4616461C462A2061
:10545000FFF7ACFF380AFFF7CFFFF8B2FFF7CCFF3A
:10546000300AFFF7C9FFF0B2FFF7C6FF2B20FFF7A6
:105470009DFF280AFFF7C0FFE8B2FFF7BDFF200A33
:10548000FFF7BAFFE0B2FFF7B7FF2C20FFF78EFF60
:10549000F8BD000010B5104C01224FF400712046F9
:1054A0002CF024FA0122802120462CF01FFA322011
:1054B0002BF078FC0022802120462CF017FA3220B5
:1054C0002BF070FC0122802120462CF00FFA3220B4
:1054D0002BF068FC10BD00BF0010024010B5002486
:1054E00006E0144B03EB84039878FFF75FFF013469
:1054F000104B33F82430013B032BF8D801A252F8AB
:1055000023F000BF31550008E3540008155500088A
:1055100023550008074B03EB84039878FFF76CFFD3
:10552000E5E7044B03EB840358882BF03BFCDEE7F4
:1055300010BD00BFF8F204082DE9F041BDF8185085
:10554000EF283EDC06460C4690461F46EF2938DC25
:105550008318F02B03DDC0F1F0080FFA88F8E31987
:10556000F02B02DDC4F1F0073FB200224FF40071CE
:1055700015482CF0BBF9B0B2A1B200EB080292B210
:10558000CB199BB2013B013A9BB292B2FFF75AFF93
:105590002E0AEDB20BE03046FFF72EFF2846FFF74C
:1055A0002BFF013C24B2002CF5DC013F3FB2002F61
:1055B00001DD4446F7E701224FF4007102482CF068
:1055C00095F9BDE8F08100BF0010024000B583B03E
:1055D0000090F0231A4600210846FFF7ADFF03B004
:1055E0005DF804FB08B5FFF755FFFFF777FF4FF6AF
:1055F000FF70FFF7EBFF002008BD00002DE9F04130
:10560000064688461746234D00224FF4007128466F
:105610002CF06CF9B8F90000B8F90210B8F90420C0
:10562000B8F906309BB292B289B280B2FFF70AFF96
:10563000B8F90430B8F900401C1BB8F90630B8F9C5
:1056400002209B1A013304FB03335C0001224FF458
:10565000807128462CF04AF900224FF40071284648
:105660002CF044F9A2B24FF0FF3339460A482CF02F
:10567000BCFD01224FF4007128462CF037F90122BD
:105680004FF4007128462CF031F930461DF081FCB2
:10569000BDE8F08100100240A0E6002010B50446ED
:1056A000FFF7ACFF20461DF074FC10BD08B5FFF7F6
:1056B00099FF08BD38B5FFF7F9FF0B4D4FF416639E
:1056C00000220A4928461DF035FB094C20461DF0F2
:1056D00009FBF02323806380064B6361E56020466D
:1056E0001DF036FB38BD00BF40200020300D0020EB
:1056F000F01F00209D56000810B582B0044618B176
:1057000034B1206902B010BD1DF0FEFB0446F7E77E
:10571000044B0093044B3622044902201EF0E6FDA0
:105720002046EFE728F6040804F70408E8F5040823
:1057300010B582B0044618B134B1606902B010BD32
:105740001DF0E2FB0446F7E7044B0093044B4722AD
:10575000044902201EF0CAFD2046EFE758F604086F
:1057600018F70408E8F5040810B582B0044618B12B
:1057700034B1E06902B010BD1DF0C6FB0446F7E786
:10578000044B0093044B6D22044902201EF0AEFD31
:105790002046EFE78CF6040830F70408E8F5040823
:1057A00010B582B0044618B134B1206A02B010BD01
:1057B0001DF0AAFB0446F7E7044B0093044B7E223E
:1057C000044902201EF092FD2046EFE7C8F60408C7
:1057D00048F70408E8F5040808B5034608B19868D6
:1057E00008BD1DF091FB0346F9E7806858B1837E40
:1057F00003F03F038B4205D9C06801EB410100EB88
:105800008100704700207047037E13F0040F4FD1D2
:1058100010B50446037A233B012B01D8012010BDAB
:105820004FF48041406801F0FCF80028F7D0237A5B
:10583000113B1B2BF3D801A252F823F0AD580008FE
:10584000AD580008AD580008AD580008AD58000824
:10585000AD580008AD580008AD580008AD58000814
:10586000AD580008AD5800081F5800081F58000820
:10587000AD5800081F5800081F580008AD58000810
:10588000AD580008AD580008AD5800081F58000872
:105890001F5800081F5800081F580008AD5800087E
:1058A000AD5800081F580008AD5800080020B6E7A2
:1058B0000020704710B50C4628B1006830B103696C
:1058C00023B90068FAE74B681868F7E760B1036925
:1058D00063B10023E360036921469847237E13F0F8
:1058E000010F05D1012010BD0120FCE70120FAE7DE
:1058F0000020F8E7F8B5064600F036FB58B100681E
:1059000083680BB1317A9847337E13F0020774D164
:1059100013F0010F5BD100217068FFF766FF0446AA
:10592000002511E06368F360236830469847337EB2
:1059300013F0020763D113F0010F48D10135294656
:105940007068FFF752FF04467CB12368002BF5D046
:10595000237A94F90820002AF0DA802BE2D023F091
:105960008003327A9342E9D1DCE731460020FFF729
:10597000A1FF074620B100217068FFF736FF0446FB
:10598000002511E06368F360236830469847337E52
:1059900013F002021BD113F0010F32D10135294659
:1059A0007068FFF722FF04467CB1012F0DD12368F8
:1059B000002BF3D0227A94F90830002BEEDB002A7A
:1059C000E0D0337A9A42E9D1DCE7012F01D03846A2
:1059D000F8BD73685B68002BF9D03046FFF714FF01
:1059E0000028F4D073685B6873603046FFF782FF6D
:1059F00007460128EBD00027E9E70127E7E7012761
:105A0000E5E71746E3E70000D8B110B588B001908C
:105A100002908DF80C100021049105929DF81C3025
:105A200003F0FA0361F341038DF81C30064C236840
:105A3000069301A82060FFF75DFF069B236008B076
:105A400010BD0120704700BF5C2000200068704737
:105A500040687047007A00F07F0070470069704727
:105A6000C0687047084B1B6804E01A7E42F00102D0
:105A70001A765B6933B15A688242F6D01A6882425C
:105A8000F7D1F2E7704700BF5C2000202DE9F0411C
:105A900084B004460F4616461D4601F0EFF9A16892
:105AA0008B7E03F03F02013262F305038B76D4F85C
:105AB000088098F81A1001F03F0101EB41018900BC
:105AC000D8F80C001EF0CAFDC8F80C00A368DA680C
:105AD00052B39B7E03F03F0303EB43039B000C3B5D
:105AE000D750A368DA689B7E03F03F0303EB4303C0
:105AF0009B000C3B13441E72A368DA689B7E03F084
:105B00003F0303EB43039B000C3B13445D60A3681E
:105B1000D8689B7E03F03F0303EB43039B000C3BE1
:105B2000184404B0BDE8F081064B0293064B019384
:105B3000064B0093064BAB22064903201EF0D6FB12
:105B4000FEE700BFA0F70408B0F70408D4F7040884
:105B50001CF8040860F7040800B583B0037A013B21
:105B6000DBB20F2B04D8FFF779FF03B05DF804FB1D
:105B7000054B0093054B4FF49072054902201EF02F
:105B8000B5FB0020F1E700BFF4F7040830F8040883
:105B900060F7040800B583B0027AA2F11403DBB207
:105BA000022B05D9182A03D0172A01D0192A04D1AB
:105BB000FFF754FF03B05DF804FB054B0093054B62
:105BC0004FF49E72044902201EF090FB0020F1E782
:105BD000F4F7040844F8040860F7040810B582B02C
:105BE000037A132B0AD10C46FFF738FFB0F90010E7
:105BF000A142B8BF2146018002B010BD044B009302
:105C0000044B40F26B12044902201EF06FFBF3E7D5
:105C1000F4F704085CF8040860F70408F8B50546D2
:105C200000201DF0CFF904460026374605E0264641
:105C3000274620461DF0C6F904465CB1204600F018
:105C400099F9236DAB42F4D102280ED00428EED08E
:105C50002646EEE70FB13846F8BD0EB13746FAE7F3
:105C600000201DF0AFF90746F5E72746F3E7037E6E
:105C700013F0010F6AD12DE9F04706468946904698
:105C8000C5684FF0010A0027E5B101234FB32BB1DE
:105C900029463046C047054687423BD0002DF3D009
:105CA000286800F0CBFE10F0800FEDD12C68DCB13D
:105CB0000121204600F0B5FEB0B9204605F088FC71
:105CC0000446F4E7337E13F0080F00D117BBBAF196
:105CD000000F1FD03046C84705464FF0000A534614
:105CE000D4E7BDB12F46D2E72CB10121204600F008
:105CF00098FE0028C8D1F368AB420BD083B11C6872
:105D00003046FFF78BFF02460F212046FFF77CFE4F
:105D1000012801D0BDE8F087F368186802F0D6FAD0
:105D2000F5602C683046FFF779FF02460E212046C9
:105D3000FFF76AFE0128EDD1F368186802F0C6FA91
:105D40003369002BE6D030469847E3E77047000000
:105D500008B51C2101481EF000FA08BD942300205C
:105D6000014B1868704700BF6020002008B5024A48
:105D70000249FFF77CFF08BDF7410208E74102082E
:105D800008B5024A0249FFF772FF08BDFF41020849
:105D9000EF41020838B50446037EC3F3C00543F063
:105DA0000803037613F0040F06D1FFF7DFFF237E0D
:105DB00065F3C303237638BDFFF7E2FFF7E7000082
:105DC000002844D070B584B00C46054606461EF047
:105DD0000AFA014639B10B68A3421ED030461EF0C4
:105DE0000AFA0146F6E7204600F030FE30B1A3681B
:105DF0009B681BB1DB681B68A34210D0A3688BB102
:105E0000A3689D6028461EF0CFF9064670B1046075
:105E100028461EF0E8F9864215D004B070BDFFF7A1
:105E2000B9FFEBE7204601F029F8E9E7084B0293B8
:105E3000084B0193084B0093084B8A220849032022
:105E40001EF054FAFEE72846FFF7A4FFE5E7704787
:105E5000A0F70408C8F80408D4F70408D8F8040820
:105E600078F80408F8B5054600F0F0FD00284AD09F
:105E70000746C36813B11B68AB4214D0FB6813B16B
:105E80001B68AB4231D03E4638461EF0ACF90446A2
:105E9000002C38D02368AB422AD0214630461EF071
:105EA000AAF90446F4E7037E13F0010F03D0037E42
:105EB0006FF30003037638461EF095F9FB688342C2
:105EC00003D03846FFF766FFD8E738461EF08FF953
:105ED000FB688342F5D11C683846FFF79FFE0246F7
:105EE0000F212046FFF790FDC8E70023FB60CAE7BB
:105EF000214638461EF086F920461EF093FBAB681B
:105F00000BB100229A60F8BD18B1C06808B10068F2
:105F100070477047F8B170B50446037EC3F3400381
:105F20008B4213D0037E61F341030376FFF7ECFF4E
:105F3000054658B1E3681E682046FFF76FFE02462B
:105F40000E213046FFF760FD012800D070BD2846C5
:105F500002F0BCF9FAE7704718B1007EC0F34000C8
:105F60007047002070470000014B1868704700BF61
:105F70006420002010B10368187870470020704733
:105F800010B50C4630B30346427942F0020242712A
:105F9000254A1268824206D01A681278013AD2B2B3
:105FA000012A04D910BD214A00211160F4E714B17F
:105FB0001A6BA24201D100221A6314B15A6AA2429A
:105FC00001D100225A6214B19A6AA242EAD1002297
:105FD0009A62E7E700201CF0F5FF03E000238362EC
:105FE0001CF0F0FFD8B1437943F00203437103681A
:105FF0001B78013BDBB2012BF2D814B1036BA34237
:1060000001D10023036314B1436AA34201D10023E9
:106010004362002CE2D0836AA342E1D1DEE7034B66
:1060200000221A60BEE700BF642000206820002024
:1060300010B5044643796FF3000343711CF0DCFF95
:10604000A0641CF0D9FF606410BD034650B1026823
:106050001278012A0AD0032A08D04FF6FF730B806A
:106060004B80704700230B804B807047B3F90820AA
:106070000A80B3F90A304B807047034650B102687A
:106080001278012A01D0032A06D193F8400000F0CB
:106090000F0070470020704700207047034638B15A
:1060A00002681278012A01D0032A02D1D86A704707
:1060B00070470020704700230B804B80034658B187
:1060C00002681278012A01D0032A05D1B3F91420FD
:1060D0000A80B3F916304B80704718B1437943F00A
:1060E0000803437170470000014B1868704700BFF8
:1060F000682000200346E0B1032907D00C291AD1FB
:10610000B0F922201B68597E00200FE0B0F9202052
:10611000F8E7104400B2C1F1640303FB02F3074A3D
:1061200082FB03C2DB17C3EB62131AB2002AF0D161
:106130007047002070470020704700BF1F85EB515B
:1061400038B505460C46084609F0B0F921224FF44F
:106150008031284604F0C4FCC0B2E07002283CD86C
:1061600031224FF48031284604F0BAFCC0B284F8E2
:106170002200022839D845224FF48031284604F005
:10618000AFFCC0B284F83600022844D860224FF435
:106190008031284604F0A4FCC3B2FC2B0CD8E37871
:1061A000C0B200FB03F31B0AE37000FB03F0000A1C
:1061B00084F8220084F83600E3782BB994F8223072
:1061C00013B994F8360038B10B224FF480312846C9
:1061D00004F086FC2080012038BD20224FF480315D
:1061E000284604F07DFCA080BAE732224FF48031CB
:1061F000284604F075FC00B22084002803DC00234C
:1062000084F82230B7E730224FF48031284604F07A
:1062100067FCE083AFE740224FF48031284604F06A
:106220005FFC00B2E085002803DC002384F83630F0
:10623000ACE743224FF48031284604F051FCA0869D
:1062400044224FF48031284604F04AFCA0859DE7A3
:1062500070B5A4B004460D4620AA22A903F06AFC3A
:1062600022A81DF02DF918B920A81DF029F928B190
:1062700012A92046FFF764FF012801D024B070BDA9
:106280002946684601F083FA1B4B019302230293CF
:1062900012AB04934FF480330D9322A81DF010F934
:1062A000B8B920A81DF00CF90028E7D020AE03965D
:1062B0006A461A212046FFF7A7FB0396324612A929
:1062C000284609F01BF96A461B212046FFF79CFB74
:1062D000D4E722AE03966A461A212046FFF794FBC4
:1062E000324612A9284609F009F96A461B212046C0
:1062F000FFF78AFBD5E700BF7CF904082DE9F041E0
:10630000A2B00646FFF7A6FB05463046FFF79EFB08
:106310000446122D07D0152D53D0182D00F0DE8025
:1063200022B0BDE8F0813046FFF798FB05460378C0
:10633000022BF5D017220021204604F0D1FB10B12A
:1063400002232B70ECE70B220021204604F0C8FB4F
:1063500007B268220021204604F0C2FB06466922EB
:106360000021204604F0BCFBB4F91410B4F9162047
:10637000B4F918E0B4F91AC0B3B2C91AADF84010B4
:106380007344ADF8443080B2121AADF84220604434
:10639000ADF846003A4610A968681DF0F0F910B94A
:1063A00001232B70BCE721220021204604F098FB3A
:1063B000C0B2FC2802D900232B70B1E701232B7057
:1063C000AEE73046FFF7E6FB064602A809F06EF896
:1063D00034220021204604F083FB28B19DF82B30A5
:1063E00043F001038DF82B3002AF3A4600212046DE
:1063F00000F08CFE68220021204604F071FB054667
:1064000069220021204604F06BFBB4F914C0B4F9F2
:106410001610B4F91830B4F91AE0AAB2ACEB0205C0
:10642000ADF800501A44ADF8042083B2C91AADF893
:1064300002107344ADF80630314610A801F0A7F9F8
:10644000604B1193002512951497CDF84CD01D95F3
:1064500010AA1A212046FFF7D7FA1722294620460C
:1064600004F03EFB20B1BDF908309BB92B4600E09B
:106470000023069F1D460BB1002306936A4602A91E
:10648000304609F03BF83DB910AA1B212046FFF722
:10649000BBFA45E70123ECE718201EF00DF905468D
:1064A0000023BDF9082004F1140108F021FF04F5D0
:1064B0009071284608F0BEFC002FE5D000238DF82F
:1064C0000B308DF82A308DF832308DF83E3006973B
:1064D0006A4602A9304609F011F8D5E73046FFF7C1
:1064E00059FB054601462046FFF7B2FE1722002160
:1064F000204604F0F5FA002857D134220021204626
:1065000004F0EEFA00283FF40BAF02AF384608F073
:10651000CDFF00268DF80B608DF822608DF832607B
:106520008DF83E603A463146204600F0EFFD682285
:106530003146204604F0D4FA80466922314620468E
:1065400004F0CEFAB4F91410B4F91620B4F918E036
:10655000B4F91AC01FFA88F3C91AADF800107344D1
:10656000ADF8043080B2121AADF802206044ADF8E4
:106570000600294610A801F00AF9124B11930123D5
:1065800012931497CDF84CD01D9610AA1A212046CC
:10659000FFF73AFA6A463946284608F0AFFF10AAD4
:1065A0001B212046FFF730FABAE604F5907008F098
:1065B000A9FC06460028A0D008F0BEFC30461EF01C
:1065C00019F99AE77CF904082DE9F0410C464D6869
:1065D00025B3284602F096FE0646284602F02FFE16
:1065E0000746B5F8168010220021284604F078FAF4
:1065F00018FA80F39BB2DB1B9AB2E382531E6383CB
:10660000AF8A12220021284604F06AFA17FA80F3B2
:106610009BB2981B83B2A082013B238341F2020309
:10662000E36115B143F20203E3611DB1E36943F491
:106630004073E361E36943F4076343F00403E361F8
:1066400015B143F40043E361BDE8F0812DE9F04F5B
:106650008DB006900791038C09938B4206D001847C
:106660000A46194604F070F80A9010B90DB0BDE85A
:10667000F08F4FF420701EF01FF882464FF4207107
:106680001EF0BAF9002303939B461EE01B6800E04E
:1066900008331A88A2B1662AFAD15B680B930121EC
:1066A0000EE054F823300B93012109E09A88C2F3DD
:1066B0000E02662A04D11B680B93012100E01146EB
:1066C000002943D1039B01330393069B5B8CC3F3E7
:1066D000C503039A934240F2B780BBF11F0F00F24B
:1066E0008780069EF568039BDC0005EBC3070897CF
:1066F000786820F07F4004F025F880460590F36824
:106700002344586820F07F4004F053F9064643467E
:10671000079A9343D6D1FB7913F00201D2D12B59BA
:1067200093F90520002AB1DBDA79002AC7D0012AC3
:10673000BCD91C681046920000239842C0D9A51805
:1067400035F81350662DACD00133F6E7DDF82C8018
:106750000023049320E00134A34518D904EB8405F9
:106760000AEB85056F68384603F0ECFF0290384667
:1067700004F01FF92A89D8F8003033F809309A421A
:10678000E9D18642E7D1059B029A9342E3D8A3451B
:1067900010D0049B01330493D8F80030049A4FEAD8
:1067A000420933F81230002B8CD0BBF11F0F89D86F
:1067B0000024D1E7D8F80C100BEB8B020AEB820314
:1067C0002AF82210D8F810205A80D8F80820DA6069
:1067D000D8F8002032F809201A81D8F804201A616C
:1067E000089A5268C2F317025A600BF1010BD0E706
:1067F0000024099E069FDDF81C800EE004EB840552
:106800000AEB8505686804F0D4F801460095434614
:106810003246384604F0D8F90134A345EED8504644
:106820001DF0E8FF0A9B012B14D00A9B032B15D007
:106830000A9B022B7FF41AAF069C204601F046FD0E
:10684000204600F0B3FF11E70024099E069FDDF803
:106850001C80E2E7069801F039FD07E74FF6FF726A
:106860004FF47021069804F083FAFFE600B583B078
:10687000174B1B7813BB1DF0A9FE1FF0F3FA1DF098
:106880000BFB1CF0BDFCFFF763FA06F09FFA03F068
:1068900011FF4FF4AC710F481DF05FFC58210E48FA
:1068A0001DF05BFC05F0D8FB09F01AFC11F04EFB63
:1068B000074B01221A7003B05DF804FB074B0093ED
:1068C000074B6322074902201DF010FDF3E700BFCC
:1068D0006C200020F8220020D823002028F904088A
:1068E00058F90408ECF8040810B50146034800F014
:1068F00025FB044600F0D1FB204610BD7CF90408BE
:10690000F0B585B004460D4601F03CF8064615F09A
:10691000010718D1E3692B43E361C7B9204601F0B1
:1069200031F8B04202D115F0C07F07D0204604F004
:106930004FFE01F041F8204601F03EF815F0100F2F
:1069400009D105B0F0BD204601F0C0FCE2E72046C9
:1069500001F0BCFCE2E702AA6946204603F0EAF82F
:106960006946204601F092FC02A9204601F08EFC07
:10697000E7E770B584B004460D4601F003F806461B
:1069800015F0100F15D1E36923EA0503E36115F053
:10699000010F1CD1204600F0F5FFB04202D115F0E6
:1069A000C07F04D0204604F013FE01F005F804B0C7
:1069B00070BD02AA6946204603F0BCF8694620462D
:1069C00001F064FC02A9204601F060FCDBE72046F0
:1069D00001F07CFC204600F0D5FF0028DAD02046EC
:1069E00004F0F6FD00F0E8FF204600F0E5FFD1E7F7
:1069F00008B5038C43EA010231EA030300D108BD64
:106A00001146FFF723FEFAE708B5028CB0F92030F3
:106A100023EA010189B28A4200D108BDFFF716FEC0
:106A2000FBE7C36931EA03030CBF01200020704774
:106A3000C3690B4214BF012000207047008C7047CF
:106A4000038C0B4214BF012000207047806800B106
:106A500080687047F0B585B00E460846FEF7FAFF2D
:106A600004463046FEF7F4FF0546012C26D0082CDC
:106A700029D0032C4CD02A2C4ED00D2C5BD00E2CC0
:106A800000F02B81092C00F059810A2C00F05A816A
:106A90000F2C00F06E81292C00F06F81222C00F069
:106AA0008C81132C00F0AD81152C03D0182C01D053
:106AB000122C06D13046FFF721FC02E02021FFF71F
:106AC00097FF05B0F0BD2021FFF79EFF3046FEF78F
:106AD000C5FFFFF7E3FA0028F3D108212846FFF7A6
:106AE000A0FF0028EDD02846FFF7A8FF10F0010F07
:106AF00009D101212846FFF77BFF00221C212846EF
:106B0000FEF782FFDDE701212846FFF77DFFF4E76E
:106B10002021FFF779FFD4E704F0ADFD06460024FD
:106B200006E0AB681B6853F8240000F045FF013411
:106B3000B442F6D3C5E70821FFF773FF00283ED122
:106B40004FF401612846FFF76CFF0028B9D02846B2
:106B500000F07DFA0028B4D1284602F0D3FB0746A6
:106B6000284602F041FC04463046FEF777FF0378E2
:106B7000122B42D0112B54D0132B66D0142BA0D142
:106B8000284602F01AFB10F0030F00F09080002F4F
:106B900002DC002C40F38B80284602F026FB84B2F6
:106BA000284600F0C5FF01460028C0F29480A4EBFF
:106BB000A101002209B2284602F068FF81E73046B1
:106BC000FEF74CFF0478132C0AD0112C08D0142C9B
:106BD00001D0122C08D101212846FFF715FF03E050
:106BE00001212846FFF704FF0A2C3FF46AAF002278
:106BF0001C212846FEF708FF63E7284602F00AFB3F
:106C000084B2284600F09BFF0146002807DB04EB16
:106C1000A101002209B2284602F04CFF51E7C11C35
:106C2000F5E7284602F0F6FA84B2284600F087FF1E
:106C30000146002807DBA4EBA101002209B2284687
:106C400002F038FF3DE7C11CF5E7284602F0B5FA2F
:106C500010F0030F15D0002F01DC002C11DD2846A9
:106C600002F0C3FA84B2284600F062FF0146002811
:106C70001BDB04EBA101002209B2284602F006FF4B
:106C80001FE7284602F0C6FA84B2284600F057FFF4
:106C90000146002807DB04EBA101002209B22846C7
:106CA00002F008FF0DE7C11CF5E7C11CE1E728462B
:106CB00002F0B0FA84B2284600F041FF01460028F5
:106CC00007DBA4EBA101002209B2284602F0F2FE84
:106CD000F7E6C11CF5E7C11C69E74FF48061FFF7D7
:106CE000A0FEB0B92846FFF7B1FEFFF735F904461C
:106CF000FFF73AF990B1FFF73DF9022812D00428C6
:106D000012D0022194B141F008012846FFF770FE2D
:106D1000D7E60121284602F0EEFEE3E73046FEF713
:106D20001BFFE8E70621EDE70621EBE72846FFF722
:106D30005FFE08212846FFF767FEC2E64021FFF705
:106D400057FEBEE64021FFF75FFE284602F02DFA0F
:106D500002287FF4B6AE02AA6946284602F0EAFE8F
:106D60006946284601F092FA02A9284601F08EFAF7
:106D7000A7E60E21FFF748FEA3E60922002103F053
:106D8000AFFEC4B20A220021284603F0A9FE80B259
:106D900000B914B1284600F00FFE284604F06BFC41
:106DA0000646002406E0AB681B6853F8240000F098
:106DB00003FE0134B442F6D383E60122002103F03E
:106DC0008FFE07B204220021284603F089FE06B296
:106DD00009220021284603F083FEC4B20A220021C2
:106DE000284603F07DFE80B238B934B942F2D1733F
:106DF0009F4202D09E427FF464AE284600F0DCFD44
:106E00005FE6002100F057FC01463046FEF7E6FE43
:106E100057E6000010B50C460846FEF723FE00209A
:106E200003F050FC144A0021204604F0D9F9012057
:106E300003F048FC002120461CF016FA2046FFF71C
:106E400005FE10B12046FFF70DF8A3689BB1186846
:106E500020B11DF0E7FBA36800221A60A368D86880
:106E600020B11DF0DFFBA3680022DA60A0681DF0EE
:106E7000D9FB0023A36010BDFFFF0F00836803B19F
:106E8000704710B584B00446124A1368013313608A
:106E90001C201DF0A9FBA06070B11C211DF0ACFDF1
:106EA000A268537E43F00F035376A268137E43F02B
:106EB0000303137604B010BD074B0293074B0193F5
:106EC000074B0093074B40F25F12074903201DF068
:106ED0000DFAFEE770200020A0F7040840F904082E
:106EE000D4F7040860F90408ECF8040828B1006835
:106EF000884214BF0020012070470020704738B539
:106F0000044605682B6813B10360FFF7F8FF25609E
:106F10006B6813B121462846984738BD28B182696D
:106F2000054B13400BB90068F8E718B18069C0F34E
:106F30000F10704700207047F0FF0F00F0B583B0CE
:106F400005460C46FFF7EAFF06461DF04DFB0746D7
:106F5000F0B131461DF050FD3D607C60DCB1A368AE
:106F6000002B50D0A5682B68002B50D06B680133E4
:106F70006B60A5686968890028681DF06FFB286050
:106F8000A3681A685B6803F18043013B42F82370F1
:106F9000384603B0F0BD1BF0B7FF0446F0B1C0683F
:106FA00048B3616A0131616289001DF057FBE060FE
:106FB000636A03F18043013B40F823700024BC82E4
:106FC000FC8220461BF0A6FF80B2013838832046A1
:106FD0001BF0B8FF80B201387883D9E7114B0093DA
:106FE000114B3A22114902201DF080F938461DF05C
:106FF00019FB2746CCE704201DF0F6FAE060076095
:1070000001236362DAE72046FFF738FFAAE704208E
:107010001DF0EAFA2860A3681B681F60A3680122BC
:107020005A60B5E7DCF9040818FA040898F904086E
:1070300010B50446006883680BB121469847236861
:107040001B681BB123602046FFF7F2FF10BD0368E9
:107050002BB11A7E12F0030F01D11B68F8E73BB188
:10706000187E00F00300012814BF002001207047A3
:107070000020704703682BB11A7E12F00C0F01D16B
:107080001B68F8E73BB1187E00F00C00042814BF21
:107090000020012070470020704738B5044600F0FA
:1070A0008BFC002003F00EFB204605F073FE20460B
:1070B000FFF725FF012003F005FB4FF6FF724FF4A9
:1070C0007021204603F054FE204600F065FFFEF7D5
:1070D00047FE20B105462046FFF7CCFF88B9204681
:1070E00004F076FA054658B122462221FEF78CFCC0
:1070F000224623212846FEF787FC204601F0E6F8C9
:1071000038BD21462846FEF75BFEE8E7F8B50546A0
:1071100014460E46002940D1FF27002E4DD10B22E8
:107120003146284603F0DCFC2080E378002B4BD16D
:1071300032223146284603F0D3FC00B2208420B12D
:1071400094F82230002B40F09C80352231462846AE
:1071500003F0C6FC00B2E08420B194F82A30002B82
:1071600040F0B180A37E002B40F0CA8094F8363006
:10717000002B40F00A817EB1FC2F0DD894F8360028
:1071800000FB07F7C7F30727E770A77684F822709C
:1071900084F82A7084F83670F8BD602203F0A0FCF1
:1071A000C7B2022FB9D80023E370A37684F8223047
:1071B00084F82A3084F83630EEE7672231462846D4
:1071C00003F08EFCA070AAE721223146284603F086
:1071D00087FCC0B2E0700228AAD920223146284696
:1071E00003F07EFC02463146284603F0A3FDA08052
:1071F00026223146284603F073FC014618B1437A33
:1072000013F0070F15D123223146284603F068FCFE
:10721000E37B60F30203E37313F0070F0ED1272221
:107220003146284603F05CFCE37B60F3C503E3735F
:107230007EE70A22A01D1DF025FB79E720223146BA
:10724000284603F04DFC02463146284603F072FD05
:10725000E08022223146284603F042FC02463146B5
:10726000284603F067FD608124223146284603F05A
:1072700037FC207225223146284603F031FC20736A
:10728000CDE731223146284603F02AFCC0B284F80B
:10729000220002287FF659AF33223146284603F0F8
:1072A0001FFC94F8233060F3450384F82330302228
:1072B0003146284603F014FC02463146284603F0C6
:1072C00039FDE08341E737223146284603F008FCC8
:1072D000C0B284F82A0002287FF644AF3822314633
:1072E000284603F0FDFB208536223146284603F070
:1072F000F7FB02463146284603F01CFDA08431E727
:1073000028223146284603F0EBFB206100283FF499
:107310002DAF29223146284603F0E2FBC0B2A07609
:1073200002287FF623AF206906F033F802281AD02E
:107330002A223146284603F0D3FB0246314628462E
:1073400003F0F8FC20832B223146284603F0C8FBCB
:10735000E0762C223146284603F0C2FB003818BFE5
:107360000120207702E757223146284603F0B8FB78
:10737000606155223146284603F0B2FB0246314691
:10738000284603F0D7FC2083F0E640223146284609
:1073900003F0A6FB00B2E08500283FF4ECAE94F8C1
:1073A0003630022B7FF6E7AE45223146284603F001
:1073B00097FBC0B284F8360002287FF6DCAE41228B
:1073C0003146284603F08CFB20864222314628466F
:1073D00003F086FB608643223146284603F080FB9B
:1073E000A08644223146284603F07AFB0246314605
:1073F000284603F09FFCA085BDE670B506460C4606
:107400001546562203F06CFBC3B2AB76022B3DD976
:107410007CB160222146304603F062FBC3B2022BEE
:1074200035D9FC2B05D8AB7EC0B203FB00F00012AF
:10743000A87655222146304603F052FB02462146EB
:10744000304603F077FCA88158222146304603F0ED
:1074500047FBA88259222146304603F041FB68824F
:107460005A222146304603F03BFBAB7F60F3020318
:10747000AB777CB957222146304603F031FB2860B8
:107480005B222146304603F02BFB287770BD00239A
:10749000AB76FBE767222146304603F021FBAB7F4A
:1074A00060F3C503AB77E5E770B505460E461446B5
:1074B000462203F015FBC0B2E072022834D97EB137
:1074C00060223146284603F00BFBC3B2022B2CD9B5
:1074D000FC2B05D8E37AC0B203FB00F00012E07287
:1074E000002323804FF4807363802B8BAA8A9B1A1E
:1074F0009BB20133C3F3C03202FA83F35B10A38063
:107500006B8BEA8A9B1A9BB20133C3F3C03202FA37
:1075100083F35B10E38048223146284603F0E0FA0B
:10752000C0B2A07220B97EB970BD0023E372FBE740
:1075300047223146284603F0D3FA02463146284610
:1075400003F0F8FB2081EEE767223146284603F07E
:10755000C7FA237B60F303032373E5E770B50646A0
:107560000D4614464E2203F0BBFAC3B22372022B1F
:1075700018D97DB160222946304603F0B1FAC3B272
:10758000022B10D9FC2B05D8237AC0B203FB00F0E4
:107590000012207249222946304603F0A1FA00B2B7
:1075A000608018B970BD00232372FBE74D22294685
:1075B000304603F095FA02462946304603F0BAFBFE
:1075C00020804A222946304603F08AFA00B2A08081
:1075D000C8B94C222946304603F082FA003818BF59
:1075E0000120637A60F3820360F3C3036372002DAA
:1075F000D8D067222946304603F072FA637A60F3E6
:1076000001036372CEE74B222946304603F068FA45
:10761000E080DEE770B506460D461446502203F0C2
:107620005FFA00B2608000B970BD5322294630462F
:1076300003F056FAC3B22373022BF5D97DB1602251
:107640002946304603F04CFAC3B2022B30D9FC2B4A
:1076500005D8237BC0B203FB00F000122073522236
:107660002946304603F03CFA02462946304603F0EC
:1076700061FB208054222946304603F031FAA06095
:1076800051222946304603F02BFA003818BF01205A
:10769000637B60F382036373002DC5D067222946A4
:1076A000304603F01DFA637B60F301036373BBE7AD
:1076B00000232373B8E7F8B505460E46402203F0D1
:1076C0000FFA04B2E4B935223146284603F008FA2D
:1076D00007B2002F47D168223146284603F000FA4E
:1076E00007B269223146284603F0FAF900B2B842DF
:1076F000B8BF3846002801DD044424B22046F8BD56
:1077000045223146284603F0EBF9C0B2022801D8E1
:107710000024D8E704EBD47464100134A4B24322EB
:107720003146284603F0DCF914FA80F4A4B2412271
:107730003146284603F0D4F907B2422231462846A2
:1077400003F0CEF903B2002BB8BF5B429BB2002F0F
:10775000B8BF7F42BFB2BB422CBFE418E41924B2C9
:1077600024EAE474AFE737223146284603F0B8F93B
:10777000C0B20228AFD938223146284603F0B0F90A
:1077800007FA80F7BC42B8BF3C4624B2A3E738B53D
:1077900004460D4648211DF02FF9256038BD836849
:1077A00013B1B3F9160070470020704730B583B0AD
:1077B0000446FFF7F4FF05460023ADF806300DF14F
:1077C000060213212046FEF71FF9BDF90630AB4231
:1077D0000AD1A36863B1BDF80620DA82BDF906308C
:1077E000AB4211D103B030BD204600F06FFDF0E791
:1077F000BDF90630002BF1D02046FFF73FFBA36810
:10780000BDF80620DA82E9E7204600F05FFDE9E7EF
:10781000836813B1987E80097047002070472DE976
:10782000F04782B004460F4690466D22002103F0D7
:1078300057F906460FFA80F96C220021204603F022
:107840004FF905B2B9F1000F02D1B5F5807F26D00E
:10785000B4F814A06E220021204603F041F91AFA70
:1078600080F0ADF80400B4F816A06F220021204685
:1078700003F036F91AFA80F0ADF80600B8F1000FFF
:1078800007D076420FFA86F94FF4803090FBF5F579
:107890002DB201AB2A46494638461CF025F802B005
:1078A000BDE8F08730B583B005460C46002301AA39
:1078B000072102F00DFF012807D020B90022214640
:1078C000284603F0C9FD03B030BD019BA342F5D1AA
:1078D000F3E730B583B005460C46002301AA082122
:1078E00002F0F6FE012807D020B9002221462846E2
:1078F00003F0B9FD03B030BD019BA342F5D1F3E71E
:1079000038B504461546FFF7CDFF29462046FFF758
:10791000E0FF38BD30B583B005460C46002301AA10
:10792000012102F0D5FE012807D020B9002221460E
:10793000284603F075FD03B030BD019BA342F5D18D
:10794000F3E730B583B005460C46002301AA0421B5
:1079500002F0BEFE012807D020B9002221462846A9
:1079600003F06CFD03B030BD019BA342F5D1F3E7FA
:1079700038B504461546FFF7CDFF29462046FFF7E8
:10798000E0FF38BD38B504460A49FFF751F810B199
:107990000025284638BD0546204603F019FE00287C
:1079A000F7D00A22002103F09BF880B20028F0D023
:1079B0000125EEE70100060008B590F8222042F00C
:1079C000010280F8222003F007FE90F8222042F006
:1079D000020280F8222003F007FE406808B11EF082
:1079E0002CFA08BD10B50446002289B203F0E2FD6E
:1079F0002046FFF7E1FF10BD70B584B005460C4688
:107A0000134B196801311960124EC90030681CF01F
:107A100025FE306070B103460D4A106800F1005237
:107A2000013A43F832500B4B1B6803EBC20254601F
:107A300004B070BD084B0293084B0193084B0093B0
:107A4000084B40F24712084903201CF04FFCFEE7A8
:107A500074200020E4230020A0F7040870FA040832
:107A6000D4F7040888FA040830FA040870B504460C
:107A700015461E46002203F0FDFC324629462046EC
:107A8000FFF73EFF70BDB0F914300B80B0F916302F
:107A90004B80B0F918308B80B0F91A30CB8070472A
:107AA00038B5044603F094FDD8B10546A48A808A0F
:107AB000241AA4B2284601F098FB14FA80F4A4B268
:107AC00012220021284603F00BF880B2241AA4B237
:107AD00032220021284603F003F880B2201A00B2B7
:107AE00038BDB4F91400FBE738B5044603F070FD67
:107AF000D8B10546E48AC08A241AA4B2284601F007
:107B000089FB14FA80F4A4B210220021284602F066
:107B1000E7FF80B2241AA4B232220021284602F0E4
:107B2000DFFF80B2201A00B238BDB4F91600FBE7BF
:107B3000038B808A181A80B2013000B27047438BE1
:107B4000C08A181A80B2013000B2704738B50546B5
:107B5000FFF7CAFF84B22846FFF7F1FF14FA80F05E
:107B600000B238BDF8B505461222002102F0B8FF78
:107B7000074613220021284602F0B2FF06463222B1
:107B80000021284602F0ACFF04462846FFF7D0FF4C
:107B900083B2DB1B9BB29B1B9BB2600080B2181AA6
:107BA00000B2F8BDF8B505461022002102F098FF9A
:107BB000074611220021284602F092FF0646322293
:107BC0000021284602F08CFF04462846FFF7B7FF45
:107BD00083B2DB1B9BB29B1B9BB2600080B2181A66
:107BE00000B2F8BD70B506460C463222002102F004
:107BF00077FF054621463046FFF745FF694209B247
:107C00000A4620461BF06AFC12220021304602F090
:107C100067FF238813FA80F020801322002130466A
:107C200002F05EFF83B2A088C01AA080102200215B
:107C3000304602F055FF638813FA80F0608011220D
:107C40000021304602F04CFF83B2E088C01AE08089
:107C500070BD00B583B00023ADF804304EF20103CF
:107C6000ADF8063001AA2C21FDF7CEFEBDF90400C7
:107C700003B05DF804FB00002DE9F04F83B005462A
:107C80000022114601F002FF32220021284602F0B4
:107C900027FF044613220021284602F021FFA4B248
:107CA00014FA80F01FFA80FA03B201931222002125
:107CB000284602F015FF14FA80F41FFA84FB23B261
:107CC00000932846FFF7C5FF1BFA80F91AFA89F9D5
:107CD0000FFA89F9284603F0CEFC804616220021CF
:107CE000284602F0FDFEC0B201284ED00024584FB5
:107CF0006CE009220021304602F0F2FEC0B20828F2
:107D00002DD8DFE800F0052C2C052C2C052C0500C7
:107D1000B5F91830B6F914209B1A01339F42B8BF49
:107D20001F463FB20134444532D2AB681B6853F85A
:107D3000246048493046FEF77BFE0028F2D13046E9
:107D4000FFF720FE0028D4D0B5F91830B6F914207A
:107D50009B1A01339F42B8BF1F463FB2E2E707229A
:107D60000021304602F0BCFE00B20028DAD1338B8D
:107D7000B28A9B1A9BB201339AB2019901FA83F33A
:107D80009F42CFDC524417B2CCE70024304FCAE701
:107D90002F4B9F4251D05F443FB24EE00922002159
:107DA000304602F09DFEC3B2072B2BD8012098402D
:107DB00010F0930F26D0B6F91830B5F914209B1A9D
:107DC00001339F42B8BF1F463FB2013444452FD212
:107DD000AB681B6853F824601E493046FEF728FE46
:107DE0000028F2D13046FFF7CDFD0028D6D0B6F9F5
:107DF0001830B5F914209B1A01339F42B8BF1F46B3
:107E00003FB2E2E708220021304602F069FE00B2EC
:107E10000028DAD1338BB28A9B1A9BB201339AB213
:107E2000009901FA83F39F42CFDC5A4417B2CCE7A2
:107E3000074B9F4201D057443FB2054B9F4202D0AF
:107E4000B945B8BFB946484603B0BDE8F08F00BF9A
:107E500001E0FFFF0100040000B583B04EF2010312
:107E6000ADF804300023ADF8063001AA2C21FDF74F
:107E7000CBFDBDF9060003B05DF804FB2DE9F04F22
:107E800083B006460022114601F014FE3222002182
:107E9000304602F025FE044610220021304602F052
:107EA0001FFEA4B214FA80F01FFA80FB03B2019304
:107EB00011220021304602F013FE14FA80FA1FFA54
:107EC0008AFA3046FFF7C8FF1BFA80F91AFA89F9D7
:107ED0000FFA89F9304603F0CEFB07460024DFF89D
:107EE000B48013E009220021284602F0F9FDC0B257
:107EF000032828D8B5F91A30B6F916209B1A013391
:107F00009845B8BF98460FFA88F80134BC4231D280
:107F1000B3681B6853F824501D492846FEF788FDB6
:107F20000028F2D12846FFF72DFD0028DAD0B5F958
:107F30001A30B6F916209B1A01339845B8BF9846F7
:107F40000FFA88F8E1E708220021284602F0C8FD70
:107F500000B20028D9D16B8BEA8A9B1A9BB20133FD
:107F60009AB2019901FA83F39845CEDC5A440FFA8C
:107F700082F8CAE7074B984505D0D0440FFA88F835
:107F8000C145B8BFC146484603B0BDE8F08F00BF49
:107F90000100040001E0FFFF38B504460122002182
:107FA00002F09EFD05B204220021204602F098FD59
:107FB00042F2D1739D4202D000B2984204D12046D1
:107FC000FFF7FAFC012038BD0020FCE72DE9F84F4F
:107FD0008346884617469A4603F04DFB81460026A5
:107FE00015E01FFA88F3A28A1A44A282BDB2E28A7F
:107FF0002A44E282228B13442383638B1D446583CE
:1080000000233A4641462046FFF7E0FF01364E4541
:108010000FD2DBF808301B6853F82640BAF1000F86
:10802000DFD04FF480212046FEF7FBFC0028D8D09B
:10803000ECE7BDE8F88F80B32DE9F0410F46154617
:108040001C468046FFF7E4FB06469CB11DB9022E94
:108050000AD0BDE8F081404603F0BAFA23462A462A
:108060003946FFF7E8FFF2E7224639464046FFF778
:10807000D6FBEEE702280AD0002DEAD0404603F0F6
:10808000A7FA23462A463946FFF7D5FFE1E72246FD
:1080900039464046FFF7C3FBEEE77047F0B585B0C1
:1080A00005460C4616461F46B1F90010ADF8001003
:1080B000B4F902E0ADF802E0ADF80410B4F906102E
:1080C000ADF80610B4F904C0ADF808C0ADF80AE088
:1080D000ADF80CC0ADF80E106946FFF7ACFF3B469B
:1080E000324601A92846FFF7A6FF3B46324602A9C1
:1080F0002846FFF7A0FF3B46324603A92846FFF774
:108100009AFFBDF90C30BDF908501946AB42A8BF23
:108110002946BDF90420BDF9000016468242A8BFD9
:108120000646B142A8BF31462180AB42B8BF2B46BC
:108130008242B8BF02469342B8BF1346A380BDF93E
:108140000E30BDF90A501946AB42A8BF2946BDF909
:108150000620BDF9020016468242A8BF0646B1427B
:10816000A8BF31466180AB42B8BF2B468242B8BF40
:1081700002469342B8BF1346E380052211462046CB
:108180001BF0ACF905B0F0BD2DE9F04182B004461A
:108190000E460121FEF745FC20B10027384602B00B
:1081A000BDE8F0810746204603F016FA054603F0C5
:1081B0001BFA8046FDF7A0FA85420ED04046FDF737
:1081C000B7FA854209D04046FDF7CEFA854204D081
:1081D0004046FDF7E5FA8542E0D14FF40021204604
:1081E000FEF726FCE8B92046FFF7D9FAB4F91410D7
:1081F000B4F91620B4F91830B4F91A5080B2091A3B
:10820000ADF80010121AADF802200344ADF80430A6
:108210002844ADF806006A46314630461BF07CF92A
:1082200050B10023012231462046FFF737FF204698
:1082300003F0CEF9044605E00746AFE7204603F019
:10824000C7F9044604B301212046FEF7EAFB0028E3
:10825000A4D14FF400212046FEF7EAFB0028EDD11F
:108260006D46A169606985E8030000230122294663
:108270002046FFF713FF2A46314630461BF04CF9E3
:108280000028DBD1074689E7012787E710B582B0D0
:108290000446B1F90030ADF80030B1F90230ADF864
:1082A0000230B1F90430ADF80430B1F90630ADF860
:1082B00006306946FFF768FF08B902B010BD2046D6
:1082C00003F092F9694604F021FCF6E770B582B03C
:1082D0000446FFF764FAB4F91450B4F91610B4F96F
:1082E0001820B4F91A6083B2ED1AADF80050C91A1B
:1082F000ADF802101A44ADF804203344ADF806304E
:1083000069462046FFF7C2FF02B070BD2DE9F04F6D
:1083100085B004460E461546476857B31222002121
:10832000384602F0DDFB82460FFA80FB1022002166
:10833000384602F0D5FB81460FFA80F84FF48021D1
:108340002046FEF76EFB002837D0B88A824416FA22
:108350008AF636B2FA8A4A4415FA82F52DB23222EA
:108360000021384602F0BCFB80B2064436B2054418
:108370002DB2A18A761A1FFA86F836B2E28AAD1AB1
:108380001FFA85F92DB20EB9002D58D02046FFF7FF
:108390009DFF02A92046FFF776FB1FB369463846CA
:1083A000FFF720FC0022694602A81BF0E8F982468C
:1083B000D0B9384601F0C8FF16E0B7F9140083447D
:1083C000384600F012FFABEB000B5E4436B2B7F953
:1083D00016008044384600F01DFFA8EB0008454415
:1083E0002DB2BCE74FF0000AA38A4344A382E38A7C
:1083F0004B44E382238B9844A4F81880638B994400
:10840000A4F81A9000232A4631462046FFF7DEFDE5
:1084100027B1224622213846FDF7F6FA2046FFF71B
:1084200055FF67B10022694604F114001BF0A7F95B
:10843000BAF1000F00D110B1384601F085FF05B048
:10844000BDE8F08F2DE9F04F85B00446FFF79AFAAA
:1084500010B105B0BDE8F08F204603F0B9F807462B
:1084600007220021204602F03BFB814605B208228C
:108470000021204602F034FB804606B2002F4ED089
:108480003846FFF76FFB00903846FFF78BFB0190F3
:1084900009F4C049B9F5005F47D008F4C048B8F501
:1084A000005F57D06A220021204602F019FB814666
:1084B0000FFA80FB6B220021204602F011FB804660
:1084C0000FFA80FA2046FFF733FB02902046FFF7B1
:1084D00036FB039009F4C049B9F5005F4FD008F4AA
:1084E000C048B8F5005F61D05D441FFA85F82DB231
:1084F00056441FFA86F936B209220021204602F0BE
:10850000EFFA10F0FF0068D001286ED0023807287B
:108510007FD8DFE800F07284989FB28BBFD23246DA
:1085200029462046FFF7F2FE93E725F4C043B3F552
:10853000FA6FB2DCB3F57A7F01DDC3F57A73009A86
:1085400003FB02F3694A82FB0312DD17C5EB6215D8
:108550002DB2A2E726F4C043B3F5FA6FA2DCB3F55F
:108560007A7F01DDC3F57A73019A03FB02F35F4A58
:1085700082FB0312DE17C6EB621636B292E72BF4CB
:10858000C043B3F5FA6FAADCB3F57A7F01DDC3F51A
:108590007A73029A03FB02F3544A82FB03124FEAF6
:1085A000E37BCBEB621B0FFA8BFB98E72AF4C0430B
:1085B000B3F5FA6F98DCB3F57A7F01DDC3F57A7312
:1085C000039A03FB02F3494A82FB03124FEAE37A60
:1085D000CAEB621A0FFA8AFA86E716220021384699
:1085E00002F07EFAC0B2012805D032462946204664
:1085F000FFF78CFE2DE7032088E7009B03EBD37089
:10860000029B03EBD3756D10C5EB600518FA85F579
:108610002DB2324629462046FFF778FE19E7009B27
:10862000029A9D1A18FA85F52DB2F2E7019B03EB29
:10863000D370039B03EBD3767610C6EB600619FA72
:1086400086F636B2E5E7019B039A9E1A19FA86F67A
:1086500036B2DEE7009B03EBD370029B03EBD375CE
:108660006D10C5EB600518FA85F52DB2019B039AD4
:108670009E1A19FA86F636B2CBE7009B029A9D1A2B
:1086800018FA85F52DB2019B039A9E1A19FA86F6FF
:1086900036B2BEE7009B029A9D1A18FA85F52DB2F4
:1086A000019B03EBD370039B03EBD3767610C6EBF1
:1086B000600619FA86F636B2ABE7009B03EBD3707F
:1086C000029B03EBD3756D10C5EB600518FA85F5B9
:1086D0002DB2019B03EBD370039B03EBD376761093
:1086E000C6EB600619FA86F636B292E71F85EB51A3
:1086F00070B582B00446FFF752F8B4F91450B4F9DB
:108700001610B4F91820B4F91A6083B2ED1AADF856
:108710000050C91AADF802101A44ADF804203344D1
:10872000ADF8063069462046FFF72EFD02B070BD59
:1087300038B505460C46FEF7A1FBAB689C8238BDF8
:1087400070B4B0F914200A80B0F916304B80B0F93B
:1087500018508D80B0F91A40CC80866876B1B68A00
:10876000921B0A808268928A2A448A808268928A4E
:108770009B1A4B8083689B8A2344CB8070BC7047D4
:1087800030B401F4C045B5F5005F0CD002F4C0452B
:10879000B5F5005F1BD09042A8BF10468842B8BF15
:1087A000084630BC704721F4C045B5F5FA6FEDDCE2
:1087B000B5F57A7F01DDC5F57A7505FB03F50E4C3D
:1087C00084FB0514E917C1EB641109B2DEE722F45A
:1087D000C044B4F5FA6FDEDCB4F57A7F01DDC4F590
:1087E0007A7404FB03F4044B83FB0423E217C2EB0B
:1087F000631212B2CFE700BF1F85EB5130B401F412
:10880000C045B5F5005F0CD002F4C045B5F5005F7A
:108810001BD09042A8BF10468842B8BF084630BC63
:10882000704721F4C045B5F5FA6FEDDCB5F57A7FF8
:1088300001DDC5F57A7505FB03F50E4C84FB0514C7
:10884000E917C1EB641109B2DEE722F4C044B4F5C4
:10885000FA6FDEDCB4F57A7F01DDC4F57A7404FBCF
:1088600003F4044B83FB0423E217C2EB631212B23E
:10887000CFE700BF1F85EB5190F8233003F00603CC
:10888000062B00F096812DE9F04F87B0044602F0E8
:108890009FFE0546002800F08E81204600F032FD44
:1088A000009094F8233013F0040F76D02046FFF7A1
:1088B0003FF906464FF00009204600F0C0FC07468D
:1088C00094F8233013F0020F00F0E5802046FFF704
:1088D00036F980464FF0000AB9F1000F02D1BAF123
:1088E000000F05D000233A460099204601F0F6F823
:1088F0002046FFF71DF9B04205D12046FFF71FF9CA
:10890000404500F05A812046FFF7E0FC04A92046CC
:10891000FFF7B9F802A92846FFF764F9002202A977
:1089200004A81AF02CFF0746002800F03881E38ADB
:1089300043449BB2013B638316220021204602F090
:10894000CFF8C0B2012800F02E81A08A0644B6B24A
:10895000013E268304AA29212046FDF755F8224628
:1089600022212846FDF750F82046FFF7AFFC0021F2
:10897000204601F00CFD002202A904F114001AF0B7
:10898000FEFE07B910B1284601F0DEFC2046FEF7D6
:108990000DFF012007B0BDE8F08F01220021204625
:1089A00002F09EF806B242F2D1794E4514BF4FF064
:1089B00000094FF0010900F4C040B0F5005F36D067
:1089C0004FF000082846FFF7CDF8074642F2D17372
:1089D0009E4237D0B8F1000F15D095F8233013F030
:1089E000040F34D026F4C0431BB2B3F57A7F01DD07
:1089F000C3F57A7303FB07F3714A82FB0312DE1798
:108A0000C6EB621636B202220021204602F068F858
:108A10000FFA80F803220021204602F061F83B465D
:108A200002B241463046FFF7ABFE064644E726F465
:108A3000C043B3F5FA6F02DD4FF00008C2E74FF014
:108A40000108BFE72046FFF717F90646DBE70122DA
:108A50000021284602F044F800B242F2D173984255
:108A6000C0D132220021204602F03AF806460FFA21
:108A700080F812220021204602F032F816FA80F621
:108A8000B6B213220021204602F02AF808FA80F339
:108A90001E4436B2B7E704220021204602F020F837
:108AA0000FFA80F842F2D17AD04514BF4FF0000A95
:108AB0004FF0010A00F4C040B0F5005F39D04FF02C
:108AC000000B2846FFF76EF8019042F2D1739845EB
:108AD0003AD0BBF1000F18D095F8233013F0020FF5
:108AE00037D028F4C0431BB2B3F57A7F01DDC3F55C
:108AF0007A73019A03FB02F3314A82FB03124FEAB5
:108B0000E378C8EB62180FFA88F8052200212046A6
:108B100001F0E6FF0FFA80FB06220021204601F05B
:108B2000DFFF019B02B259464046FFF767FE8046D1
:108B3000D2E628F4C043B3F5FA6F02DD4FF0000B24
:108B4000BFE74FF0010BBCE72046FFF797F98046DF
:108B5000DBE704220021284601F0C2FF00B242F206
:108B6000D1739842BDD132220021204601F0B8FFD6
:108B700080460FFA80FB10220021204601F0B0FF52
:108B800018FA80F81FFA88F811220021204601F017
:108B9000A7FF0BFA80FBD8440FFA88F8B5E7284600
:108BA00001F0D2FBC3E6208B861BB6B20136A6824B
:108BB000D0E6002070470020ECE60020EAE600BF87
:108BC0001F85EB5170B5054602F055FD06460024A1
:108BD00006E0AB681B6853F82400FFF7F3FF01348D
:108BE000B442F6D395F8223013F0010F00D170BDD6
:108BF00095F822306FF3000385F822302846FFF7FE
:108C00003BFE2846FFF71EFC002EF0D00A22002172
:108C1000284601F065FF80B20028E8D0084B1B68A9
:108C20008342E4D300F100500138064B1B6803EB8C
:108C3000C00253F83030516828469847D7E700BF44
:108C400074200020E42300200E4B1B7803B17047F2
:108C500010B50C4B01221A7002F0BEFC044608E06D
:108C600094F822306FF3410384F822302046FFF756
:108C7000A9FF94F8223013F0020FF1D1014B00222A
:108C80001A7010BD782000202DE9F04F85B0814684
:108C90000D4690460193FFF7D7FF002D55D048466B
:108CA00002F096FC07463222002101F019FF064629
:108CB00012220021384601F013FFB6B216FA80FAEC
:108CC0000FFA8AFA10220021384601F009FF16FA3D
:108CD00080F60FFA86FB32220021284601F000FFC1
:108CE000064612220021284601F0FAFEB6B216FA14
:108CF00080F083B2029304B210220021284601F0D2
:108D0000EFFE16FA80F6B3B2039336B2B8F1000F55
:108D100020D008F1FF38B8F1140F59D8DFE818F067
:108D2000220080009300A100AF00CF00EA00FD0008
:108D30005B001D0125013B014C01520166017501DB
:108D40007D019301A401AA01BE01484602F040FC46
:108D50000546A4E716220021284601F0C1FEC0B254
:108D6000012870D016220021384601F0B9FEC0B2A9
:108D7000012800F0A281B5F91480019B4344B7F9A2
:108D80001400A3EB0008384600F0BCFA8044A8EBBE
:108D90000A0A544424B2B5F91600BDF93850054406
:108DA000B7F916002D1A384600F049FA2844A0EB0E
:108DB0000B00064436B200220121484602F05AFB5D
:108DC000324621464846FEF79BFD05B0BDE8F08FD0
:108DD00000263446C6E72846FEF7C4FE0446484649
:108DE000FEF7A6FE04EBD47300EBD0704410C4EB86
:108DF0006304029B13FA84F424B22846FEF7D2FEE1
:108E000006464846FEF79BFE06EBD67300EBD07095
:108E10004610C6EB6306039B13FA86F636B2A1E74B
:108E20002846FEF79FFE04464846FEF781FE04EB07
:108E3000D47300EBD0704410C4EB6304029B13FAAC
:108E400084F424B28EE72846FEF78CFE84B24846AE
:108E5000FEF76EFE80B2241A029B13FA84F424B249
:108E600080E72846FEF79EFE86B24846FEF767FE7C
:108E700080B2361A039B13FA86F636B272E728469A
:108E8000FEF770FE04464846FEF752FE04EBD4732C
:108E900000EBD0704410C4EB6304029B13FA84F41B
:108EA00024B22846FEF77EFE86B24846FEF747FE0D
:108EB00080B2361A039B13FA86F636B252E728467A
:108EC000FEF750FE84B24846FEF732FE80B2241A06
:108ED000029B13FA84F424B22846FEF763FE86B29E
:108EE0004846FEF72CFE80B2361A039B13FA86F62C
:108EF00036B237E72846FEF755FE06464846FEF7E7
:108F00001EFE06EBD67300EBD0704610C6EB630670
:108F1000039B13FA86F636B224E72846FEF722FEB4
:108F200084B24846FEF704FE80B2241A029B13FA6C
:108F300084F424B22846FEF735FE06464846FEF77E
:108F4000FEFD06EBD67300EBD0704610C6EB630651
:108F5000039B13FA86F636B204E74846FEF7EFFDA8
:108F600086B2764236B20024FCE62846FEF7E0FDE3
:108F700004464846FEF7DCFD04EBD47300EBD070EA
:108F80004410C4EB630424B24846FEF7D8FD86B211
:108F9000764236B2E6E62846FEF7CAFD84B2484677
:108FA000FEF7C6FD80B2241A24B24846FEF7C7FD7C
:108FB00086B2764236B2D5E62846FEF7C0FD0646B2
:108FC0000024CFE62846FEF7B3FD04464846FEF7E8
:108FD000AFFD04EBD47300EBD0704410C4EB63041A
:108FE00024B22846FEF7ABFD0646BBE62846FEF750
:108FF0009FFD84B24846FEF79BFD80B2241A24B23E
:109000002846FEF79CFD0646ACE64846FEF790FD76
:1090100084B2644224B20026A4E64846FEF788FDE6
:1090200084B2644224B22846FEF789FD06464846CB
:10903000FEF785FD06EBD67600EBD0704310C3EB50
:10904000660636B28EE64846FEF772FD84B264428A
:1090500024B22846FEF773FD86B24846FEF76FFD40
:1090600080B2361A36B27DE62846FEF761FD044628
:10907000002677E62846FEF75BFD04462846FEF705
:109080005EFD06464846FEF75AFD06EBD67600EB37
:10909000D0704310C3EB660636B263E62846FEF78F
:1090A00047FD04462846FEF74AFD86B24846FEF7CD
:1090B00046FD80B2361A36B254E6B5F91480019BEB
:1090C0004344B7F91400A3EB0008384600F08CF9CC
:1090D0008044A8EB0A0A544424B25CE670B5044606
:1090E00015460E4601B9F2B12046FDF7C7FEA2684B
:1090F000138A33441382A268538A2B445382012378
:109100002A4631462046FEF761FF00220B21204609
:10911000FCF77AFC0546012801D0284670BD2046A0
:10912000FFF7D4F8F9E70125F7E708B500220A218F
:109130000068FCF769FC08BD38B504460D46FDF72C
:109140009DFEA268137E03F00303AB4206D0137E9C
:1091500065F3010313762046FFF7B8F838BD38B53C
:1091600005460C46FDF78AFEAA68537E03F00F03FE
:10917000A34203D0537E64F30303537638BD38B55E
:1091800005460C46FDF77AFEAB681A7E64F383024F
:109190001A7638BD38B505460C46FDF76FFEAB684C
:1091A0001A7E64F305121A7638BD83681BB1187EE7
:1091B00000F0030070470320704783681BB1587E9E
:1091C00000F00F0070470F20704783681BB1187EB6
:1091D000C0F3810070470020704783681BB1187E80
:1091E000C0F3011070470020704783681BB1188AD4
:1091F000404200B270470020704738B504460D4623
:10920000FFF7F3FF15FA80F1002209B22046FFF7BD
:1092100065FF38BD83681BB1588A404200B2704771
:109220000020704738B504460D46FFF7F3FF15FAE6
:1092300080F212B200212046FFF750FF38BD83684C
:109240001BB1588A404200B27047002070470000AE
:109250002DE9F047064602F00EFA80460024274F1B
:1092600000E0013444450FD2B3681B6853F8245022
:1092700023492846FDF7DCFB0028F2D1B5F91A3066
:109280009F42B8BF1F46ECE710220021304601F094
:1092900027FC054611220021304601F021FC8246C0
:1092A00032220021304601F01BFC8046134B9F42C6
:1092B00005D0738BAAEB030303441F443FB230462F
:1092C000FEF7CAFD81464FEA48081FFA88F8304683
:1092D000FEF735FC84B22D1B1AFA85F418FA84F4D3
:1092E00019FA84F4A4B23046FFF794FF80B2201A32
:1092F00000B2B842B8BF3846BDE8F08701E0FFFFD2
:10930000010004002DE9F84F04461622002101F067
:10931000E7FBC0B2012807D0A368002B5DD0188AF4
:10932000404200B2BDE8F88F13220021204601F030
:10933000D7FB074612220021204601F0D1FB8246CE
:1093400032220021204601F0CBFB8146204602F06C
:1093500092F9834641F6FF78002500E001355D452E
:109360000FD2A3681B6853F825601D493046FDF7EE
:109370005FFB0028F2D1B6F914309845A8BF984693
:10938000ECE741F6FF73984525D0A08A504419FABE
:1093900080F080B2A0EB080005B22046FEF759FC31
:1093A00080464FEA49091FFA89F92046FEF7C0FBBB
:1093B00086B2BE1B1AFA86FA19FA8AF618FA86F6E7
:1093C000B6B22046FFF711FF16FA80F000B2A842AD
:1093D000B8BF2846A6E7034DDFE70020A2E700BF9D
:1093E0000100040001E0FFFF2DE9F84305461622C5
:1093F000002101F075FBC0B2012805D1AB68002B3C
:1094000053D0B3F910004EE0284602F034F98046FC
:109410000024274F00E0013444450FD2AB681B689D
:1094200053F8246023493046FDF702FB0028F2D1AF
:10943000B6F918309F42B8BF1F46ECE7132200214F
:10944000284601F04DFB044612220021284601F077
:1094500047FB814632220021284601F041FB0646A7
:10946000134B9F4204D0288B201A304407443FB24C
:109470002846FEF7EEFB80467600B6B22846FEF799
:1094800057FB80B2241A19FA84F416FA84F418FAF5
:1094900084F4A4B22846FFF7A8FE80B2201A00B2D6
:1094A000B842B8BF3846BDE8F8830020FBE700BFEC
:1094B00001E0FFFF0100040038B505460C460D49E8
:1094C00019F05EFF68B1436A5B4218B220800A4916
:1094D000284619F055FF40B1406A404200B2608012
:1094E00038BD2846FFF781FEF0E72846FFF792FED9
:1094F000F5E700BFFB91000825920008F0B591B098
:10950000044615460E4601B982B1012B10D03F49E1
:10951000204619F0A9FE3E49204619F0A5FE00227A
:1095200009212046FCF770FA012862D011B0F0BD85
:10953000204602F059F80746684619F07BFE009471
:10954000344B039396B9002DF0D0384619F0FAFC4D
:109550002A46002140F35D0019F02CFFC7282FD9BF
:10956000B0F5C87F2DD94FF4C8702AE0384619F0FD
:10957000D1FC3246002140F35D0019F01BFFC728E3
:1095800005D9B0F5C87F03D94FF4C87000E0C820F2
:109590000A902046FFF729FE4342301A07930893AA
:1095A00009901B4B01931C4B06936A4609212046E8
:1095B000FCF72AFA0128B9D1684619F083FEC2E700
:1095C000C8200A902046FFF725FE4342281A079339
:1095D000089309900D4B01930F4B06936A4609219E
:1095E0002046FCF711FA0128A0D1684619F06AFE5E
:1095F0009CE72A4631462046FFF770FD012895D1A9
:1096000000220A212046FCF7FFF98FE72592000887
:10961000FB9100082B910008D33302082DE9F04795
:10962000064615461F46894601B992B33046FFF7F4
:109630000BFB3046FFF7D9FD1FFA80FA1FFA89F9B4
:10964000A9EB0A010FFA81F916220021304601F038
:1096500047FAC0B2012833D0B9F1000F1BDD4FF03B
:1096600000093046FFF7D6FD1FFA80F8ADB2A5EB32
:1096700008052CB2002C3CDD00240AEB090109B2DC
:1096800008EB040212B201B91AB13B463046FFF7AB
:1096900035FFBDE8F087E4DA3046FFF733FE84B2E9
:1096A0003046FFF7A1FE14FA80F109B2002905DB6C
:1096B0004B429945D5DA0FFA83F9D2E70021F7E753
:1096C000B9F1000F12DBCCDD3046FFF71BFE84B290
:1096D0003046FFF789FE14FA80F000B2002803DB61
:1096E0004845BEDA8146BCE70020F9E74FF00009A3
:1096F000B7E7C2DA3046FFF7A2FD85B23046FFF782
:10970000A7FD15FA80F000B2002804DB43429C421A
:10971000B3DA1CB2B1E70020F8E700002DE9F04F02
:1097200089B081460D46039117460293084601F021
:109730004FFF04461021FDF774F9002800F0E78080
:109740002046FFF73AFD01902046FFF746FD0490C2
:10975000002800F0DF8005F1140B322200212046A2
:1097600001F0BEF9804610220021204601F0B8F930
:109770001FFA88F818FA80F6B6B2112200212046A6
:1097800001F0AEF918FA80FA1FFA8AFAE58A354430
:10979000ADB2BBF80230ED1AADB27B88ED1A2DB236
:1097A000BBF80620618BAAEB01010A4413449AB26C
:1097B00007921BB205932046FEF7C1F983B29B1BAB
:1097C0009BB2A3EB0A031AB20692002DC0F2A4804A
:1097D000059B002BC0F2A0800025049B022B00F00B
:1097E000C380032B00F0D080012B00F0B080204616
:1097F000FFF7EBFC834610B1039B03F1140912221F
:109800000021204601F06CF918FA80FA1FFA8AFA52
:1098100013220021204601F063F918FA80F81FFA9C
:1098200088F8A68A5644B6B2B9F80030F61AB6B22D
:109830003B88F61A36B2B9F80420218BA8EB010157
:109840000A4413449AB21BB2002EC0F2BC80002B13
:10985000C0F2B98000262046FEF76AF983B2A3EB76
:109860000A039BB2A3EB08031BB2BBF1020F00F08B
:10987000D280BBF1030F00F0DE80BBF1010F00F0DE
:10988000BB808049204619F0EFFC80467E49204687
:1098900019F0EAFCB8F1000F00D130B100220A2122
:1098A0002046FCF7B1F8012831D1019B13F0010FDC
:1098B00002D1002EC0F2DD80019B13F0020F02D115
:1098C000002E00DD0026019B13F0040F02D1002DB5
:1098D000C0F2D180019B13F0080F02D1002D00DDF2
:1098E00000253B88029A002A00F0C780B2B21344D8
:1098F0003B807B88029A002A00F0C180AAB2134400
:109900007B80029B2A4631462046FFF7F7FD09B0CF
:10991000BDE8F08FCB4620E7002D08DD2046FFF79D
:109920008EFC401B0028BFF658AF002555E7059B6D
:10993000002B01DC002550E7079B5D422DB220463D
:10994000FFF786FCE8427FF548AF002545E7E38A4C
:109950001E44B6B2BBF80230AAB29D18ADB2751B58
:1099600012FA85F52DB242E7638BA3EB0A0A1FFAC0
:109970008AFABBF80630AAB29D18ADB2AAEB05056B
:1099800012FA85F52DB232E7E38A1E44069B03EBFB
:10999000D3735B1013FA86F6B6B2BBF80630BBF889
:1099A00002209B1A9BB20133C3F3C03101FA83F347
:1099B00002EB6303ADB215FA83F39BB2F61A15FA04
:1099C00086F52DB213E7002E03DC002B0ADC0026FF
:1099D00041E72046FFF796FC801B0028BFF63BAF0F
:1099E000002638E7564236B22046FFF7FDFCF0422B
:1099F0007FF531AF00262EE7A38A9A441FFA8AFA30
:109A0000B9F80030B2B29E18B6B2AAEB060612FA46
:109A100086F636B235E7238BA3EB08081FFA88F8E1
:109A2000B9F80430B2B29E18B6B2A8EB060612FA24
:109A300086F636B225E7A28A924403EBD3735B1015
:109A400013FA8AF39BB2B9F80420B9F80010521A3D
:109A500092B20132C2F3C03000FA82F201EB62022C
:109A6000B6B216FA82F292B29B1A16FA83F636B2A0
:109A700007E7002620E700252CE7002237E7002231
:109A80003DE700BF25920008FB91000870B5044631
:109A90000E461546064919F0E7FB2046FFF7A5FBE1
:109AA000811B2B46002209B22046FFF7B7FD70BD8F
:109AB000FB91000870B504460E461546064919F09C
:109AC000D3FB2046FFF7A6FB821B2B4612B20021D8
:109AD0002046FFF7A3FD70BD2592000870B505462E
:109AE00016461C461A46FFF7D1FF22463146284645
:109AF000FFF7E0FF70BD70B582B005460E46FFF778
:109B0000A3F80023ADF80430ADF80630284601F084
:109B10005FFD044629465CB1334601AA05F11400F5
:109B2000FFF7FCFD204601F053FD21460446F2E715
:109B300002B070BD2DE9F04F95B004460F461646B1
:109B40004FF0FF3500952B4600221146384619F09C
:109B5000A4FC00952B4600221146304619F09DFCCE
:109B600010212046FCF75DFF039020B12046FFF74F
:109B70001CFB814610B915B0BDE8F08F002019F02C
:109B800021FA0546B9F1020F0CD14DB12846FCF778
:109B900085FA844204D0284619F014FA0546F4E701
:109BA000002DE8D02046FFF74AFB80462046FFF70D
:109BB0004FFB04902046FFF7A5FB05902046FFF7DA
:109BC00013FC06902046FFF7F8FA824610F00C0FBF
:109BD00021D0B9F1010F00F02C81B9F1030F05D0AC
:109BE000B9F1020F0ED04FF0000B16E0B8F1000FE4
:109BF00002DDDDF80CB010E0049B002BF0DDDDF899
:109C00000CB00AE02846FCF738FA0C2800F0148162
:109C10004FF0000B01E04FF0000B1AF0030F0AD0D9
:109C2000B9F1010F0CD0B9F1030F00F00881B9F1BF
:109C3000020F00F00D81BBF1000F9CD000230393B5
:109C400016224FF48031204600F04AFFC3B20A9337
:109C500010224FF48031204600F042FF129003B2F0
:109C60000C9311224FF48031204600F039FF099007
:109C700003B20B9312224FF48031204600F030FFE4
:109C8000119003B2109313224FF48031204600F05C
:109C900027FF0D9003B20F9301224FF4803120462D
:109CA00000F01EFF08900FFA80F92046FDF747FFED
:109CB00005462046FDF73CFF0790BBF1000F00F082
:109CC000CE80CDF83890039B0BB94FF000092122CC
:109CD0004FF48031204600F003FFC0B2012840F26B
:109CE000C1801FFA85FA0AEB0800049B13FA80F082
:109CF0001FFA80F800B2BBF1000F00F0FE800028D0
:109D000000F0FB80B4F916307380B4F91A30F38098
:109D10000A9B012B00F0B180228B0D9BD21A93B2CB
:109D2000B280089A9B1A9BB2013333800C9BA5EB3F
:109D3000030B0B9BABEB030BCDF84C90ABEB090B80
:109D40000BFB05F595FBF0F00FFA80FB5D4600205C
:109D500019F010F900EB80004000EF2800F3988024
:109D600001239D4240F3A280BDF84800AAEB000306
:109D70009BB2BDF824505B1B9BB21FFA89F9A3EB81
:109D800009039BB21FFA8BFBA3EB0B039AB21BB226
:109D9000A8EB0A080FFA88F8B8F1000F40F3A28088
:109DA000049901FB03F191FBF8F3D31AE28A12FA4A
:109DB00083F310FA83F31AB272801BFA83F39BB217
:109DC000013BF380B4F916100C9B0B449A42C0F28D
:109DD0003881B6F90610B4F91A20139BD31A0B98E0
:109DE0001B1A994240F3898093B2A3EB09091FFA29
:109DF00089F35D1B2DB2F580002019F0BBF800EB54
:109E000080004300EF2B00F35C810123EB1AB6F9CD
:109E10000220934271DAF588002019F0ABF800EBCC
:109E200080004300EF2B00F35A810123EB1A73806B
:109E300063E0DDF80CB0F0E6DDF80CB0EDE6059B74
:109E4000002B3FF7FDAE069B002B3FF7F9AEEEE689
:109E50002846FCF712F903287FF4EDAEF0E6002364
:109E60000E9330E731224FF48031204600F038FE67
:109E7000C0B201283FF635AF7DE6A38A119A13449C
:109E80003380089A12FA83F39BB2013BB3804DE70B
:109E9000002019F06FF800EB800043005033B84AFF
:109EA00082FB0312DB17C3EBA2135AE7002019F061
:109EB00061F800EB80004300EF2B02DC4FF0010B58
:109EC00052E7002019F056F800EB800043005033B1
:109ED000AB4A82FB03124FEAE37BCBEBA21B0FFAE8
:109EE0008BFB41E7E38A18447080638B5B1B9BB25A
:109EF000A3EB09039BB2013BF380BDF81C80059BDB
:109F000043441846069B13FA80F01FFA80FA00B209
:109F1000039B002B3FF42FAE00283FF42CAE628B46
:109F2000099BD21A93B2FA80089A9B1A9BB201330A
:109F30007B80B4F914303B80B4F91830BB80079BA8
:109F4000109A9E1A0F9AB61A0E9A9346B61A06FBE4
:109F500003F696FBF0F006B23546002019F00AF839
:109F600000EB80004000EF2800F3C88001239D42F1
:109F700040F3D280BDF84400A8EB00039BB2BDF8CB
:109F800034505B1B9BB2BDF83890A3EB09039BB226
:109F9000B6B29B1B9AB21BB2AAEB08080FFA88F85C
:109FA000B8F1000F40F3D180069901FB03F191FB5A
:109FB000F8F3D31A9BB20A9A012A00F0E380A28A2E
:109FC000134410FA83F31AB23A8016FA83F39BB261
:109FD000013BBB80B4F91410109B0B449A42C0F2B1
:109FE0005D81B7F90410B4F91820A2EB0B030F98A8
:109FF0001B1A99427FF7BFAD94B2A4EB0904A4B237
:10A00000641B24B2BC80002018F0B4FF00EB800079
:10A010004300EF2B00F37C810123E31AB7F9002002
:10A020009342BFF6A8ADBC88002018F0A3FF00EB58
:10A0300080004300EF2B00F379810123E31A3B807A
:10A0400099E510FA81F10FFA81F8A6F80280002054
:10A0500018F090FF00EB80004300EF2B14DC01238D
:10A060004344B6F9062093427FF7B3AEB6F80280B8
:10A07000002018F07FFF00EB80004300EF2B11DC85
:10A0800001234344F380A4E6002018F073FF00EBA3
:10A090008000430050333A4A82FB0312DB17C3EBC4
:10A0A000A213DDE7002018F065FF00EB80004300FD
:10A0B0005033334A82FB0312DB17C3EBA2139BB26C
:10A0C000DFE7002018F056FF00EB8000430050331C
:10A0D0002B4A82FB0312DB17C3EBA21396E6002088
:10A0E00018F048FF00EB800043005033244A82FB05
:10A0F0000312DB17C3EBA2139BB297E6002018F004
:10A1000039FF00EB8000430050331D4A82FB0312ED
:10A11000DB17C3EBA2132AE7002018F02BFF00EB9C
:10A1200080004300EF2B01DC012623E7002018F01C
:10A1300021FF00EB800043005033114A82FB0312E1
:10A14000DE17C6EBA21636B214E70A9B012B0BD022
:10A15000A38A18443880238B5B1B9BB2A3EB0903B3
:10A160009BB2013BBB8006E5A38A034419FA83F343
:10A170009BB2013B3B80238B5D1BBD80FBE400BF9A
:10A1800067666666A28A134410FA83F319FA83F3AA
:10A190001AB23A8016FA83F39BB2013BBB80B4F942
:10A1A0001410109B0B449B445A4528DBB7F904104C
:10A1B000B4F918300F9A9A1A91427FF7DCAC9CB22E
:10A1C000641B24B2BC80002018F0D4FE00EB800099
:10A1D0004300EF2B4BDC0123E31AB7F90020934235
:10A1E000BFF6C9ACBC88002018F0C4FE0A2303FBEC
:10A1F00000F3EF2B46DC0123E31A3B80BBE410FAAB
:10A2000081F619FA86F636B23E80002018F0B2FECA
:10A2100000EB80004300EF2B12DC01233344B7F93D
:10A2200004209342C2DD3E88002018F0A3FE0A23DA
:10A2300003FB00F3EF2B0EDC01233344BB80B5E7B7
:10A24000002018F097FE0A2303FB00F35033A022EE
:10A2500093FBF2F3E2E7002018F08CFE0A2303FBE5
:10A2600000F35033A02293FBF2F39BB2E5E700200A
:10A2700018F080FE0A2303FB00F35033A02293FB67
:10A28000F2F3A9E7002018F075FE0A2303FB00F3A0
:10A290005033A02293FBF2F39BB2ADE710FA81F1A9
:10A2A0000EB23E80002018F065FE00EB80004300F7
:10A2B000EF2B13DC01233344B7F9042093427FF7DB
:10A2C00090AE3E88002018F055FE00EB8000430061
:10A2D000EF2B11DC01233344BB8082E6002018F011
:10A2E00049FE00EB800043005033164A82FB031204
:10A2F000DB17C3EBA213DEE7002018F03BFE0A23B6
:10A3000003FB00F35033A02293FBF2F39BB2E2E78E
:10A31000002018F02FFE00EB800043005033094A64
:10A3200082FB0312DB17C3EBA21376E6002018F0C2
:10A3300021FE0A2303FB00F35033A02293FBF2F328
:10A340009BB27BE66766666610B584B004466A46D3
:10A3500002A9FFF7EFFB02A819F0B2F818B9684696
:10A3600019F0AEF838B102A819F0AAF828B9684671
:10A3700019F0A6F830B904B010BD02A92046FDF7C7
:10A3800085FFF4E769462046FDF780FFF3E7F8B55F
:10A3900004460D46FEF721FF20B12046FEF715FFCB
:10A3A000B0B1F8BD2046FEF74AFF06462046FEF74C
:10A3B0004FFF031EF1DA002EEFDD5A42B242A8BF72
:10A3C00032462B4612B200212046FFF797F8E4E709
:10A3D0002046FEF797FF07462046FFF705F806469A
:10A3E00016220021204600F07BFBC0B201280ED0CF
:10A3F000002ED6DA002FD4DD7142B942A8BF39460B
:10A400002B46002209B22046FFF778F8C9E7002F53
:10A41000C7DA002EC5DD2B46002239462046FFF75D
:10A420006DF8BEE72DE9F047064689469246984604
:10A43000274819F0DCFE0446002707E0A3885345AF
:10A4400032D04FF6FF739A4530D02C46002C3CD0CA
:10A4500044453AD021461E4819F0D1FE05462068F1
:10A46000B042F2D1A3684B45E8D0B9F5702FECD1DA
:10A47000E4E7A18810581BF065F80137738CC3F32B
:10A48000C503BB4214D9F268F80002EBC703D979BF
:10A4900011F0020FF1D0B9F5702FEAD05B68C3F369
:10A4A00017034B45E9D1E4E70027E7E70027E5E795
:10A4B0000021204618F0D8FE2146054819F0A2FEDA
:10A4C00020461AF0AFF80127BFE73846BDE8F0870D
:10A4D000E8230020F8B5074601F0CDF80646002530
:10A4E00012E0BB681B6853F825402046FDF7EEFEDE
:10A4F00000222A212046FBF787FA2046FDF7E6FED8
:10A500002046FFF7E7FF0135B542EAD3F8BD00006A
:10A510002DE9F04184B004460D46002200E00132EE
:10A52000638CC3F3C50393420DD9E36803EBC20305
:10A53000D97911F0010FF2D05968C1F31701A9427E
:10A54000EDD1186853E0013303F03F01638C61F3F0
:10A55000C8036384C900E0681AF080F8E060B0B115
:10A56000668CC6F3C506013EFEB1E26806F10053F3
:10A57000013B02EBC303D97911F0030F15D102EBB4
:10A58000C60293E8030082E80300013EECE7194BA2
:10A590000293194B0193194B0093194B40F2FD1292
:10A5A0001849032019F0A2FEFEE7E068F700082131
:10A5B00000EBC6001AF020FAD4F80C8008201AF03C
:10A5C00013F848F83600E36853F836001AF040FFF5
:10A5D000E3683B44DA7942F00102DA71E3683B4414
:10A5E0005A6865F317025A60E36853F8360004B0FE
:10A5F000BDE8F081A0F70408E0FA0408D4F70408E5
:10A6000014FB04089CFA040870B504460D460020AB
:10A6100000E00130638CC3F3C5031E4683420BD9AF
:10A62000E26802EBC002D17911F0020FF1D052685A
:10A63000C2F31702AA42ECD1864203D0E36803EBCF
:10A64000C00070BD013303F03F03628C63F3C802A6
:10A650006284D900E0681AF001F8E060668CC6F305
:10A66000C506013E6EB1E26806F10053013B02EB04
:10A67000C30302EBC60293E8030082E80300013E35
:10A68000F0E70821E0681AF0B7F9E668082019F049
:10A69000ABFF3060E36818681AF0DAFEE268D3793D
:10A6A00043F00203D371E3685A6865F317025A60F6
:10A6B000E068C6E708B51421014819F04EFD08BD51
:10A6C000E8230020014B1870704700BFCD01002027
:10A6D00070B5002500E00135448CC4F3C504AC42DC
:10A6E0000FD9C46804EBC504E67916F0010FF2D067
:10A6F0006668C6F317069E42EDD120681AF0A4FFE3
:10A7000000E0002070BD70B5002500E00135448CEC
:10A71000C4F3C504AC420BD9C36803EBC503DE79AF
:10A7200016F0010FF2D05B68C3F317039342EDD12B
:10A73000AC4205D0C36853F835001AF003FF70BD72
:10A740000020FCE780B270472DE9F04782B0064652
:10A75000884617460025A94610E04FF003094846F1
:10A7600002B0BDE8F08701AA692120461AF06CFF0B
:10A77000002800F0B4804FF002090135738CC3F358
:10A78000C503AB42EBD9F4684FEAC50A04EBC50335
:10A79000DA7912F0020FF0D1586820F07F40FFF70D
:10A7A000D1FF30EA08030CBF0122002230EA070380
:10A7B0000CBF012300239A42DFD054F80A4001AABB
:10A7C000102120461AF040FF0028C6D101AA11210D
:10A7D00020461AF039FF0028BFD101AA12212046D5
:10A7E0001AF032FF0028B8D101AA132120461AF02E
:10A7F0002BFF0028B1D101AA152120461AF024FF11
:10A800000028AAD101AA142120461AF01DFF002811
:10A81000A3D101AA0A2120461AF016FF00289CD1D4
:10A8200001AA6A2120461AF00FFF002895D101AA3B
:10A830006B2120461AF008FF00288ED101AA0121C1
:10A8400020461AF001FF002887D101AA04212046E2
:10A850001AF0FAFE002880D101AA022120461AF03F
:10A86000F3FE00287FF479AF01AA032120461AF0F5
:10A87000EBFE00287FF471AF01AA052120461AF0F3
:10A88000E3FE00287FF469AF01AA062120461AF0F2
:10A89000DBFE00287FF461AF01AA322120461AF0C6
:10A8A000D3FE00287FF459AF01AA6D2120461AF08B
:10A8B000CBFE00287FF451AF01AA6C2120461AF08C
:10A8C000C3FE00287FF449AF01AA682120461AF090
:10A8D000BBFE00283FF447AF4FF002094DE701AA45
:10A8E0006D2120461AF0B0FE10B14FF0020944E786
:10A8F00001AA6C2120461AF0A7FE10B14FF0020900
:10A900003BE701AA372120461AF09EFE10B14FF016
:10A91000020932E701AA382120461AF095FE10B14B
:10A920004FF0020929E701AA352120461AF08CFED2
:10A9300010B14FF0020920E701AA402120461AF089
:10A9400083FE10B14FF0020917E701AA4521204606
:10A950001AF07AFE10B14FF002090EE701AA412168
:10A9600020461AF071FE10B14FF0020905E701AA66
:10A97000422120461AF068FE10B14FF00209FCE6B1
:10A9800001AA432120461AF05FFE10B14FF00209E0
:10A99000F3E601AA492120461AF056FE30B9B9F172
:10A9A000000F7FF4EAAE4FF00109E6E64FF002092E
:10A9B000E3E600F47F0070472DE9F04F87B00546CD
:10A9C0008A460192029310461AF0E7FE4FF0010901
:10A9D00009FA00F95FFA89F92B8C03936FEA030BEC
:10A9E0001FFA8BFB95F82280C8F3800800244646A6
:10A9F00000E001346B8CC3F3C503A34222D9EF6896
:10AA00004FEAC40807EBC403DA7912F0020F56D0FC
:10AA1000002EEED1586820F07F40FFF7CAFF504566
:10AA2000E7D157F80800837913EA090FE1D005AAA6
:10AA300001991AF009FE0028DBD0059B029A1360E9
:10AA4000012048E04FF0FF330093A84605E0059B46
:10AA5000029A136001203EE00134B8F82230C3F3BB
:10AA6000C503A34230D9D8F80C3003EBC40253F825
:10AA70003450AB7913EA090FEED05668C6F31706C7
:10AA80003046FFF796FF07463046FFF75BFE064667
:10AA9000BA45E1D11BEA000FDED1009B9842DBDD15
:10AAA00005AA019928461AF0CFFD0028D4D0039BAF
:10AAB000B342CCD0059B029A13600096CCE74FF0CE
:10AAC000FF330093A846C8E7009B002B06DB059BDD
:10AAD000029A1360012007B0BDE8F08F0020FAE76A
:10AAE0002DE9F04182B004468846174610461AF018
:10AAF000E5FE00F00105002601E04FF0000884B1FA
:10AB000001AB3A4641462046FFF756FF064640B99C
:10AB10003DB1B8F1000FF0D1204600F059FD0446D8
:10AB2000EDE756B9B8F1000F03D1012F09D0042F7A
:10AB300007D038461AF0D6FD0190019802B0BDE862
:10AB4000F081236803E0B3F914203AB91B682BB1F4
:10AB5000012FF8D0B3F91620002AF7D043B1012F06
:10AB600003D0B3F916300193E7E7B3F91430FAE7ED
:10AB700000230193E1E710B504466D220021FFF7A1
:10AB8000AFFF00B2F0B96C2200212046FFF7A8FF0A
:10AB900000B2B0F5807F01D0022014E060220021D5
:10ABA0002046FFF79DFFC0B2FF2801D001200AE038
:10ABB000672200212046FFF793FF10F0FF0002D02C
:10ABC000012000E0022010BD2DE9F04F95B00446B1
:10ABD000894693461F461E9E90F8223043F0040398
:10ABE00080F8223002843289FFF77AFF05462784F5
:10ABF000328949462046FFF773FF804694F8223099
:10AC00006FF3820384F822308246854246D0A4F84E
:10AC100020B0328949462046FFF762FF0546278467
:10AC200049462046FFF7F0FC2A46318900681AF0B1
:10AC3000BDFD33890B2B33D0354819F096FA074602
:10AC4000002857D0C560C0F8108004603389838025
:10AC5000C0F8089004A818F0EDFA04972D4B05935E
:10AC60002D4B06932D4B079300230B930C93FF2240
:10AC70000D9232880E92728852420F92F2680A92B6
:10AC80009DF84E2063F300028DF84E20336909933E
:10AC900004A818F017FB15B0BDE8F08FB7D1FAE79C
:10ACA000AB4647F6FF739D4201D09A45C4D120467A
:10ACB000FCF73EFF00EBD07040F34F072046FCF757
:10ACC00037FF00EBD07040F34F0347F6FF72934518
:10ACD00008D047F6FF729245AED19F4208DA7B1C3E
:10ACE0009846A9E79F4201DA7D1CF2E75D1CF0E778
:10ACF0000133F5E70A4B02930A4B01930A4B009389
:10AD00000A4B40F257120A49032019F0EFFAFEE706
:10AD1000E8230020F9AF0008C1B3000815B300080C
:10AD2000A0F704084CF90408D4F70408F4FA04085E
:10AD30009CFA0408F8B51446C0B10D4606466122D7
:10AD4000FFF7CEFE074678B103686BB16222294651
:10AD50003046FFF7C5FE10F0FF0205D03B682146E4
:10AD60003846984760F30F042046F8BD1046FCE7CC
:10AD7000484B1B7803B970472DE9F04705460E464E
:10AD80001446FDF7A3FA3046FFF713FE06462046A9
:10AD90001AF094FD00F0040720461AF08FFD00F031
:10ADA000020820461AF08AFD00F0010920461AF038
:10ADB00085FD00F0100A5FB1B6F5702F00D0D6BB4C
:10ADC00000222A212846FAF71FFE2846FCF7F4FD48
:10ADD000B6F5702F00D056B94FF6FF739C4200D0E5
:10ADE0002FB1284600F0F4FB08B1FCF7E5FDB6F5FD
:10ADF000702F00D016B9BAF1000F31D14FF6FF73A2
:10AE00009C4202D0B8F1000F02D02846FCF7CEFCDD
:10AE10002846FDF75BFA4FF6FF739C4206D0B9F166
:10AE2000000F06D0B8F1000F00D117B1B6F5803F82
:10AE30002CD1BDE8F087042200212846FFF750FE00
:10AE400000B242F2D1739842BAD0012200212846C2
:10AE5000FFF746FE00B242F2D1739842B8D1AFE795
:10AE60002846FFF788FE8246AB6823B19A7E60F3DE
:10AE700087129A76C2E70028C0D02846FBF7FEFF6B
:10AE8000AB689A7E6AF387129A76B7E72846FFF78F
:10AE900021FBCEE7CD0100202DE9F0410546884693
:10AEA000174600234FF6FF723946FFF7BBFA00261C
:10AEB00000E00136698CC1F3C501B14209D9EB68E4
:10AEC00003EBC603DB7913F0020FF2D113F0010F8D
:10AED000EFD1013101F03F016B8C61F3C8036B844A
:10AEE000C900E86819F0BAFBE8606A8CC2F3C502D1
:10AEF000013A0CE0EC6802F10053013B04EBC303A0
:10AF000004EBC20493E8030084E80300013A96428C
:10AF1000F0D3E868F400082100EBC60019F06CFDDE
:10AF2000EB6843F83680EB6823445A6867F31702EE
:10AF30005A604FF6FF7239462846FFF719FFBDE801
:10AF4000F081F8B505460C46002200E00132638C22
:10AF5000C3F3C50393420CD925B1E36853F83230EB
:10AF6000AB42F3D14FF6FF724FF470212046FFF74A
:10AF7000FFFE204600F07FFB0746002607E0A3689F
:10AF80001B6853F826102846FFF7DBFF0136BE4248
:10AF9000F5D3F8BD0E4B1B7803B9704770B5064664
:10AFA000002017F0FDFF05460DE0EB6853F8241074
:10AFB0003046FFF7C6FF01346B6AA342F5D8284636
:10AFC00017F0EEFF05460DB10024F5E770BD00BF98
:10AFD000CD010020F8B506460D4617461C46194619
:10AFE000FFF796FA3A4629461AF0E0FB2A46214630
:10AFF0003046FFF7BDFEF8BD2DE9F04782B00446AC
:10B000000F460568002200E001326B8CC3F3C503D4
:10B01000934240F2D980EB68D60003EBC203D879A3
:10B0200010F0020FF0D05868C0F31700A1688842F2
:10B03000EAD1A188A1F12002472A00F2A780DFE827
:10B0400002F04BA5A5A5A5A5A5A5A5A5A5A5A5A562
:10B05000A5A54BA5A52424A54BA5A5A5A5A5A5A556
:10B06000A5A5A5A5A5A54BA5A54BA5A5A5A5A5A544
:10B07000A5A5A5A5A5A5A54BA537A5A5A5A5A5A548
:10B08000A5A5A53DA5A5A5A53724FE2F0EDCE7683F
:10B0900001AA18681AF0D8FA002800F08A80019BEB
:10B0A0009F4200F082804FF0010884E02769EFE7BB
:10B0B000FE2F01DCE768EBE72769E9E7E2682AB1E0
:10B0C000206928B17F2F05DC1746E1E72769DFE714
:10B0D0001746DDE70746DBE7002F06DDFE2F09DD1B
:10B0E000228A002762F30F07D2E7A289002762F3C2
:10B0F0000F07CDE7FFB2B4F810E0B4F80CC0CEF300
:10B10000C402CCF3C400C7F1FF0808FB00F007FB42
:10B110000202803202EB022002EBC012C2F3C452E0
:10B120004FF0000062F3C7000EF00709CEF3423281
:10B1300002EBC9020CF0070ACCF3423909EBCA0949
:10B1400009FB08F902FB0792803202EB022902EBAD
:10B15000C912C2F3826969F30200C2F3C25262F3F8
:10B160004F30CEF3042ECCF3042C0CFB08F80EFB6E
:10B170000787803707EB072207EBC217C7F3C457CF
:10B1800067F30C20002760F30F0781E70FB9E7682A
:10B190007EE7FF2F07D0E0682269121A07FB02F74B
:10B1A00000EB272774E7276972E710D04FF00108FA
:10B1B00001E04FF00108EB683A46A18898591AF06F
:10B1C000F5FAB8F1000F05D102B0BDE8F0874FF0F5
:10B1D0000008F0E7A288A1682068FFF7C9FDF3E73F
:10B1E0002DE9F04F85B004460E46019115461046F4
:10B1F000FFF7A8FA81462846FFF7DBFB834646B1F6
:10B20000F37953B14FF6FF730393002302931D4666
:10B210000DE04FF6FF730393F7E700230393F4E782
:10B22000019A32B357F80A30934222D00135638C29
:10B23000C3F3C503AB425FD9E7684FEAC50A07EB22
:10B24000C508D8F80460C6F317063046FFF77AFA47
:10B2500000903046FFF7ADFB4FF6FF73994502D0E3
:10B26000009B9945E2D1BBF5702FD9D08345D7D04B
:10B27000DCE798F8073013F0020F08D1E36803EB1E
:10B280000A02D27912F0030F09D12A461FE00023E7
:10B290004FF6FF7259462046FFF7C4F8EEE753F821
:10B2A0000A001AF0DBF8E36853F80A0019F0BAF95B
:10B2B000E368002243F80A20E7E7E368561C03EB43
:10B2C000C60103EBC20303C983E803003246618C65
:10B2D000C1F3C5014B1E9342EFD83F3101F03F014E
:10B2E000638C61F3C8036384C900E06819F0B6F9A0
:10B2F000E060012302939AE7029B0BB1039B13B911
:10B3000005B0BDE8F08F1A4659462046FFF730FDDC
:10B31000F6E700002DE9F04104682568A688274873
:10B3200018F061FF014603E0244818F064FF01466D
:10B3300079B1A142F8D00A6823689A42F4D18A68A8
:10B34000A3689A42F0D18A88A3889A42ECD101235B
:10B3500000E0002313B1BDE8F08101336A8CC2F331
:10B36000C5029A42F7D9EA68DF0002EBC302D1793D
:10B3700011F0020FF1D05268C2F31702A1688A429D
:10B38000EBD121460D4818F03DFF204619F04AF94F
:10B39000EC6804EB07083146E0591AF0D3F8EB6883
:10B3A000D8591AF0F5F90028D5D0D8F8042022F0A1
:10B3B0007F42E1592846FFF713FFCCE7E82300203E
:10B3C00070B50468A068FFF7F4FA0546A288014644
:10B3D0002068FFF785FBE060A6880023A380234652
:10B3E000324629462068FFF71DF8A680A16820682C
:10B3F000FFF70AF9E268A18800681AF0D7F970BD72
:10B4000070B505460E465B22FFF76AFBC4B21622F2
:10B4100031462846FFF764FB04B90124204670BD7D
:10B4200008B513460A460121FFF7D4FD08BD08B54B
:10B4300013460A460221FFF7CDFD08BD08B51346A5
:10B440000A460421FFF7C6FD08BD08B513460A46A3
:10B450000621FFF7BFFD08BD08B513460A460721C0
:10B46000FFF7B8FD08BD08B513460A460821FFF7E7
:10B47000B1FD08BD08B513460A460921FFF7AAFD2C
:10B4800008BD08B513460A461021FFF7A3FD08BD05
:10B4900008B513460A461121FFF79CFD08BD08B503
:10B4A00013460A461221FFF795FD08BD08B513465D
:10B4B0000A461321FFF78EFD08BD08B513460A465C
:10B4C0001421FFF787FD08BD08B513460A4615216C
:10B4D000FFF780FD08BD10B582B013460024ADF81B
:10B4E0000040224664F31F4261F30F022021FFF760
:10B4F00071FD02B010BD08B513460A462121FFF7C1
:10B5000069FD08BD08B513460A462821FFF762FD0C
:10B5100008BD08B513460A463321FFF75BFD08BD99
:10B5200008B513460A463521FFF754FD08BD10B58E
:10B5300082B013460024ADF80040224664F31F4257
:10B5400061F30F023621FFF745FD02B010BD08B5CB
:10B5500013460A464021FFF73DFD08BD10B582B0F5
:10B5600013460024ADF80040224664F31F4261F305
:10B570000F025521FFF72EFD02B010BD08B513468E
:10B580000A465721FFF726FD08BD08B513460A46AF
:10B590005B21FFF71FFD08BD08B513460A460B21C6
:10B5A000FFF718FD08BD08B513460A466021FFF7EE
:10B5B00011FD08BD08B513460A460A21FFF70AFD2A
:10B5C00008BD08B513460A461621FFF703FD08BD5E
:10B5D00008B140687047704710B50446FFF7F8FFA0
:10B5E0000028FAD1204610BD30B583B00546436827
:10B5F00013B1FFF7F1FF0546104818F0F4FD0446BB
:10B6000084B10023626A9A4206D9E26852F8232084
:10B61000AA4210D00133F5E72146084818F0EBFDA7
:10B620000446EDE7064B0093064B40F21F12064915
:10B63000022018F05BFE204603B030BDF822002047
:10B6400068FB040804FC040824FB0408806888B133
:10B65000002907DB0B4642689A420AD9036853F86F
:10B6600021007047436819440B460029F3DA002093
:10B6700070470020704783680BB1586870470020FE
:10B68000704770B50646FFF7A3FF90B1054600244A
:10B690002846FFF7F0FFA04207D921462846FFF7CA
:10B6A000D5FF864203D00134F2E74FF0FF34204645
:10B6B00070BD0024FBE770B5054600222121FAF792
:10B6C000A3F900287AD000212846FFF7BFFF05E044
:10B6D000FFF7F1FF00212846FFF7B8FF0028F7D158
:10B6E0002846FBF7B3F90646002017F06BFC04462A
:10B6F0000DE029462046FAF743FC236BAB420ED0FF
:10B70000236DB3420ED0204617F05CFC044694B182
:10B71000636AAB42EDD0A36AAB42EED1E9E7002306
:10B720002363EDE7FAF7E0FC8542ECD12946204699
:10B73000FAF726FCE7E72846FBF77AFC6B681BB1B3
:10B740002846FFF79EFF27E02846FFF74DFF0446F7
:10B750000023626A9A420DD9E26852F82320AA4275
:10B7600008D00133F5E7E1685A1C51F8220041F88E
:10B7700023001346616A01399942F4D86162890055
:10B78000E06818F06BFFE06015E01268431C52F8A7
:10B79000231042F8201018466B689A685368013BE2
:10B7A0008342F2D853606B689C68616889002068A6
:10B7B00018F054FF2060284618F034FF70BD0000D8
:10B7C000F0B583B00546FCF781FD2846FFF700FF82
:10B7D000044608B1FEF7B8FDE4B100263746284616
:10B7E000FFF769FF9CB12046FDF72EFA00212046A5
:10B7F000FEF7CDFD2046FEF7A7FD002222212046C0
:10B80000FAF702F9002224212046FAF7FDF876B96A
:10B8100003B0F0BD2846FFF7E7FE07460028F7D043
:10B820000369AB4201D00026D9E70126D7E7054BD3
:10B830000093054B4D220549022018F057FD0023C7
:10B840003B61E5E778FB0408E4FB040824FB0408FB
:10B85000F0B583B043686BB106460F4699B1FCF76B
:10B8600035FD3846FBF70AFB75683046FFF709FFE0
:10B87000044619E0364B0093364B8A2236490220A3
:10B8800018F034FD5AE0354B0093324B8F22324989
:10B89000022018F02BFD51E0AB681A68631C52F8C7
:10B8A000231042F824101C462846FFF7E4FE013816
:10B8B000A042F1DCAA685368013B5360AC68616840
:10B8C00000293DD08900206818F0C8FE2060BA68C1
:10B8D000536801335360BC6861688900206818F0C0
:10B8E000BDFE2060BB681C683846FFF7C4FE00F14F
:10B8F0008040013844F82060776000212846FEF738
:10B9000046FD2846FEF720FD324622212846FAF75A
:10B910007BF8002224212846FAF776F832462221C5
:10B920003846FAF771F8002223213846FAF76CF806
:10B930003046FCF741F83046FCF7C8FC03B0F0BDD8
:10B94000206818F06FFEAB6800221A60BFE700BFE6
:10B9500098FB0408F0FB040824FB0408BCFB040863
:10B96000F8B507460D1E11DB3846FFF78AFE044680
:10B970003846FFF72DFE0646002D25DBFFF77BFE40
:10B98000A84221DDA5421FD010DB26E0FFF720FEF4
:10B99000FFF771FE0544E7E7B3681A6804F18043D6
:10B9A000013B52F8233042F82430013CA542F3DB3E
:10B9B000B3681B6843F82570002222213046FAF74D
:10B9C00023F83046FCF782FCF8BDB3681A68631CA4
:10B9D00052F8231042F824101C46A542F5DCE7E794
:10B9E00070B48B880C881B1B9BB201331CB2CB88B4
:10B9F0004D885B1B9BB201331BB203FB04F3013B7D
:10BA00000024A3420AD932F8135032F8146022F805
:10BA1000136022F81450013B0134F2E7B1F90640FB
:10BA200042884B88D21A92B2013ACA8043881B1BC3
:10BA30009BB2013B4B80B1F9044002880B88D21ABB
:10BA400092B2013A8A8003881B1B9BB2013B0B8098
:10BA500070BC70472DE9F041069F02FB01F808F128
:10BA6000FF3801F1FF3E0EFB02FE4FF0000C10E02C
:10BA7000AD1A013424B28C4207DA33F8026B27F88E
:10BA800015600028F4D01544F3E70CF1010C0FFA0F
:10BA90008CFC944506DA0CEB0E0508B1A8EB050505
:10BAA0000024E8E7BDE8F0812DE9F041002645E0FB
:10BAB00001FB067C01FB074701FB043401FB036328
:10BAC00032F81CE032F8178022F81C8032F814C0DB
:10BAD00022F817C032F8137022F8147022F813E01D
:10BAE00001352DB22F464B1C03EBD373B5EB630F1F
:10BAF00022DA8BB29C1B013C24B2ADB25B1B013B32
:10BB00001BB20028D4D001FB067E01FB036C01FBB5
:10BB1000043301FB074432F81E7032F81C8022F80F
:10BB20001E8032F813E022F81CE032F814C022F82C
:10BB300013C022F81470D3E7013636B201EBD1738B
:10BB4000B6EB630F01DA0025CCE7BDE8F08170B5F4
:10BB500082B00C8805892C44ADF800404E88448999
:10BB60002644ADF802608E883544ADF80450C9888B
:10BB70000C44ADF8064043696946984702B070BD71
:10BB800070B584B00368DB68DB68B3FBF1F1154680
:10BB90008A4200DB0D461B4B1B681B689B691BB36D
:10BBA0000023ADF80830ADF80C30ADF80A302CB2F7
:10BBB0002646013C24B2ADF80E40124B1B681868B3
:10BBC000836902A99847BDF90E2093B2BDF80A1007
:10BBD0005B1A9BB201331BB2AB4202DD002CE7DCE7
:10BBE0002646002E03DD551C284604B070BD064BCA
:10BBF0000093064B40F20E420549022018F076FBF6
:10BC00000020F2E77C20002054FC0408A8FE040871
:10BC100014FC0408F0B583B006460C46002214312B
:10BC200017F0ADFD70B301212046FAF7FAFE68BBAC
:10BC30002046FBF7EDFD58BB00238DF80030019640
:10BC40006A4612212046F9F7DFFE9DF80030022BEC
:10BC500020D02046FFF70FFD074600252B46BD42AA
:10BC60000AD2A3681B6853F825103046FFF7D2FFAD
:10BC7000034608B90135F2E72BB99DF8002012B947
:10BC8000234600E00023184603B0F0BD0023FAE786
:10BC90000023F8E70023F6E72DE9F04383B0002501
:10BCA00051E00134304B1B68B3F85021A24249D90E
:10BCB0001A1992F83021002AF3D1AC42F1D0A81D14
:10BCC000A11D03EBC10103EBC00017F036FD0028F6
:10BCD000E7D0DFF89480D8F80030A91DCE00A21D6F
:10BCE0004FEAC20903EBC20203EBC101684617F039
:10BCF0003FFC684617F0E4FB0746D8F800003044E4
:10BD000017F0DEFB0646D8F80000484417F0D8FBD1
:10BD10000644B742C5D2D8F80020BDF90010AB1DCB
:10BD200022F83310BDF9021002EBC3035980BDF9AC
:10BD300004109980BDF90610D9802244012382F8AD
:10BD40003031AEE70135084B1B68B3F85021AA42E9
:10BD500006D92B4493F83031002BF3D10024A1E70E
:10BD600003B0BDE8F08300BF7C2000202DE9F04F38
:10BD70008BB080460F46894B18680468237C13F00B
:10BD8000020F02D013F0040F0AD103F03003202B6E
:10BD900010D0102B19D0302B17D00BB0BDE8F08F7E
:10BDA0007F4B00937F4B40F279427F49032018F08C
:10BDB0009DFAF2E73A4641462046FFF711FE3A4621
:10BDC00041462046FFF7C3FEE7E717F0F7F80546C0
:10BDD000B8F80430B8F900108AB29B1A9BB201334C
:10BDE00098B2089018B20490B8F806A0B8F90230DA
:10BDF00009939BB20793AAEB030A1FFA8AFA0AF186
:10BE0000010A0FFA8AFA4FF4A053B3FBF0F353453B
:10BE1000A8BF53460693237C03F03003102B0BD0AE
:10BE2000A8F80210089BD3189BB2013BA8F8063073
:10BE300000260396BB4662E063889B1A9BB2013BD7
:10BE40009AB2A8F80630089BD31A9BB20133A8F81F
:10BE50000230EDE7207C00F030005A4619463028C9
:10BE600014BF00200120FFF71FFE237C03F03003E6
:10BE7000102B0ED02288079BD21A013A93B2A8F851
:10BE80000420089A9B1A9BB20133A8F80030049F43
:10BE90006BE0099BA8F80030079B089A13449BB2FB
:10BEA000013BA8F80430049F5FE04FF4205018F0E5
:10BEB00003FC039037E0079B3344A8F8003019FADD
:10BEC00083F39BB2013BA8F804304EE000236B6182
:10BED000039A5AB141462046FFF739FE2B693BB120
:10BEE000A36A002BFAD020469847F7E75A46F1E7B5
:10BEF000049B09FB03F90BEB490B3E4436B2564554
:10BF000043DA0596AAEB0609069B9945A8BF994610
:10BF10000FFA89F701232B6116B9049B9A4599DA28
:10BF2000039B002BC1D0207C00F03000039B0093CA
:10BF30005B463A460499302814BF00200120FFF7E1
:10BF400089FD237C03F03003102BB4D02388079A9B
:10BF50009B1A9BB29B1B013B9AB2A8F80430A2EB40
:10BF600009039BB20133A8F80030B946059B3B4456
:10BF70009A45ABDCAB6913F0010FA7D0AB6913F0A6
:10BF8000020FA3D001236B61A2E7039B002B3FF4B8
:10BF900004AF184618F02EFCFFE600BF7C200020FE
:10BFA000B0FC0408B4FE040814FC0408F8B5054607
:10BFB000284B186817F002F804462B68DE6B336BC9
:10BFC0000BB13046984723685BB163684BB1236976
:10BFD0003BB1204B1B681868836A002BF7D0984749
:10BFE000F5E7012323611B4B1B681B68DB689A691B
:10BFF00012F0010F06D09B6913F0020F02D001234B
:10C00000636101E00023636167692868436953B194
:10C01000037C13F0300F02D013F0040F12D13268FA
:10C020007168FFF794FD23685BB162684AB12968C3
:10C03000097C11F0010F00D01FB1A1688B4206D01E
:10C04000A360F8BD31687068FFF790FEEBE7A2606F
:10C05000F7E700BF7C20002070472DE9F04387B050
:10C0600006460D46D0F8088002A92846FBF70BFDCE
:10C070002846FBF794FB0146024602A817F02EFA69
:10C0800002AA414604A817F047FAB0B10123994625
:10C09000EBB94FF400212846FAF7C3FC48B36B46CE
:10C0A000D8F80000D8F8041003C3C6F808D0284612
:10C0B000FFF7E1FA074600242BE04FF40021284661
:10C0C000FAF7AFFC08B90023E1E70123DFE704AB8F
:10C0D000B360324614212846F9F796FC3246152102
:10C0E0002846F9F791FC324616212846F9F78CFCD0
:10C0F000CFE705F114024146684617F00DFA50B13A
:10C10000D3E7AB681B6853F82410304600F01EF8E4
:10C110000134BC42F5D3B9F1000F04D1C6F8088050
:10C1200007B0BDE8F08304ABB36032461721284660
:10C13000F9F76AFC324618212846F9F765FC3246C1
:10C1400019212846F9F760FCE8E700002DE9F04FD7
:10C150009BB005460C4601212046FAF762FC04908C
:10C1600010B11BB0BDE8F08F2046FBF751FB8146B4
:10C1700020B921462846FFF770FFF2E76022002130
:10C180002046FEF7ADFCC6B2012EEAD9D5F80880EC
:10C190002046FBF704FB07460BA92046FBF773FC80
:10C1A0003A4639460BA817F099F9B9F1020F00F099
:10C1B000D180B9F1010F40F0F9800BAA414614A8D3
:10C1C00017F0AAF90028CCD009AB1599149883E888
:10C1D000030004F1140306930022194609A817F07E
:10C1E000CEFA002800F0EC8000238DF8503009AB27
:10C1F000159314AA12212046F9F706FC9DF8503039
:10C20000002B40F0DD80B9F1010F40F0E3804FF4E6
:10C21000C04709A817F054F94FEA400AB7EB400F9E
:10C2200000D95746384618F0DFF98046B9F1010FBA
:10C2300000F0D580B8F1000F00F00681A84B1B6814
:10C240001B68986C18F0D0F98146002800F017811F
:10C250000DF1340B0A9909988BE80300A04B1B6879
:10C26000186890F810A0CAF3801A036C49469847E2
:10C27000C9F808B0C9F804B0C9F8008014A801F0E2
:10C2800045F88DF85B606D2200212046FEF728FC02
:10C2900003B2ADF85030B3F5616F03DDA3F5616310
:10C2A000ADF85030BDF95030002BC0F2F6806C2252
:10C2B00000212046FEF714FCADF852006722002151
:10C2C0002046FEF70DFC9DF85C3060F303038DF80B
:10C2D0005C30834B1B681B681B7CC3F3C0039DF859
:10C2E000642063F300028DF864206E220021204652
:10C2F000FEF7F6FB03B207936F2200212046FEF7FC
:10C30000EFFB0FFA80FBCDF84C809DF844306FF3C3
:10C3100047138DF84430BDF82830BDF824209B1A0F
:10C320009BB201331EB2119A63F3942211927600EC
:10C33000B7FBF6F6BDF8363033449BB2013B1BB277
:10C34000ADF83A30BDF92A20934240F33281ADF87E
:10C350003A202EE111AF0C990B9887E803000023D7
:10C360001A4639462046FBF799FE3A4641460FA841
:10C3700017F0D2F800283FF4F4AE14AF10990F98DC
:10C3800087E803000123002239462046FBF786FE9A
:10C390000BAA3946384617F0BFF800283FF4E1AE43
:10C3A00009AB1599149883E8030012E74D4B0093ED
:10C3B0004D4B40F25A324D49022017F097FFD0E61C
:10C3C0004B4B0093484B4FF45A724849022017F0E8
:10C3D0008DFFC6E609A817F073F8470019E7002893
:10C3E0007FF428AF7F00BDF82830BDF824209B1AC9
:10C3F0009BB201331BB25B00B3F5006F01D84FF461
:10C4000000635B00029301973A4B0093364B4FF465
:10C410005F723649022017F069FFBDF82830BDF879
:10C4200024209B1A9BB201331BB25B00B3F5006F53
:10C4300001D84FF40063534500D89A46504618F08F
:10C44000D3F880465746F5E6274D284C7F000197E4
:10C45000294B00932B464FF461722146032017F0BD
:10C4600045FF264B0293264B0193264B00932B4608
:10C4700040F285322146032017F038FFFEE71F4BBC
:10C480000293214B01931F4B0093174B40F28B32C9
:10C490001649032017F02AFFFEE703F56163ADF8A4
:10C4A000503004E700238DF83C300DAB10930FAAF9
:10C4B00012212046F9F7A8FA9DF83C30002B40F0F5
:10C4C0009280074B1B681B681A7C6FF386121A74E4
:10C4D0009DF84430042262F304038DF8443025E0D3
:10C4E0007C200020D8FC04089CFE040814FC0408EE
:10C4F000FCFC040834FD040894FD0408A0F70408BB
:10C50000D4FD0408D4F70408E8FD0408504B1B6868
:10C510001A68137C43F0400313749DF844300522DD
:10C5200062F304038DF84430049B0593A38A079AB1
:10C5300013FA82F39BB2BDF834209B1AADF8543045
:10C54000E38A13FA8BF39BB2BDF836209B1AADF841
:10C550005630059B002B62D021464846FFF77DFDF3
:10C5600011A803F0DDF8BDF83A30BDF836209B1A6B
:10C570009BB20133BDF8462063F34F12ADF846205D
:10C58000334B1B681B681A7C6AF386121A7411AB52
:10C590000DAA14A9284601F057F8BDF93A2093B224
:10C5A0000133ADF83630BDF92A309A4201DDADF8DD
:10C5B0003A30BDF93630BDF92A20934234DC16FA00
:10C5C00083F39BB2013B1BB2ADF83A30934201DDDD
:10C5D000ADF83A20002206990DA817F0D0F8059082
:10C5E00000287FF45FAFBDF82860BDF82430F61A4C
:10C5F000B6B2013636B206EB4606B7FBF6F6BDF824
:10C60000363033449BB2013B1BB2ADF83A30BDF932
:10C610002A2093427FF77AAFADF83A2076E7394681
:10C62000404618F0E9F997E7094C23681868436C0D
:10C6300049469847404617F0F5FF484617F0F2FF85
:10C6400023681B681A7C6AF386121A7489E500BF96
:10C650007C2000202DE9F8438146884659B1B8F185
:10C66000000F3AD041464846FFF770FD4046FEF7BE
:10C67000AFFF054629E01A4B1868F9F73DF88046E8
:10C68000EDE74846FFF762FD0134B44209D2AB68DA
:10C690001B6853F82410002FF3D18845F4D10127EB
:10C6A000F2E74A4617212846F9F7AEF94A4618211B
:10C6B0002846F9F7A9F94A4619212846F9F7A4F9B5
:10C6C0002846FEF785FFA846054635B12846FEF701
:10C6D000D2FF064600242746D7E7BDE8F88300BF0F
:10C6E0007C2000202DE9F04194B005466C4B186881
:10C6F00016F064FC036813B10446436873B36C68B6
:10C70000674E3068F8F7F8FF01462046FFF782FAD7
:10C71000044633685E6926B131466868FFF77AFAE5
:10C72000064634B35E4B1B6893F8282012F0010FC5
:10C7300000F08980002C00F0828021462846FFF717
:10C7400089FF574B1B685B69002B00F08880002E27
:10C7500077D031462846FFF77DFF80E02369002B24
:10C76000CDD04F4B1B681868836A002BF6D09847D2
:10C77000F4E7002ED6D1DFF82881D8F8000016F0B3
:10C78000C9FB87B2013FBFB2D8F8000016F0DAFB50
:10C7900083B2013B1BB200933BB20022114604A8B6
:10C7A00016F07BFEEB6AABB106A802F07FFED8F86C
:10C7B0000030DA6A0A9293F829208DF832205B8DD6
:10C7C000ADF81C308DF81B20EB6A04AA06A9284698
:10C7D0009847A7E7324B1B68D86AF0B103A903F06A
:10C7E00085FB012809D02F4B00932F4B40F2A62246
:10C7F0002E49022017F07AFD94E706A800F086FD86
:10C80000274B1B6893F829208DF82320DB6A04AAA4
:10C8100006A9284600F018FF84E706A802F046FEA5
:10C820001F4B1B685A8DADF81C2093F829308DF8EA
:10C830001B306A6806A9284602F060FE72E71C6990
:10C840007BE71E4685E75B6923B106B33146284680
:10C85000FFF700FFECB121462846FFF7FBFE104C26
:10C860002068F8F781FF01462846FFF7F3FE2068AD
:10C87000F8F796FF01462846FFF7ECFE20680368AC
:10C880001B7C13F0020F08D014B0BDE8F0811E46E7
:10C89000DCE7034B1B681C69DDE7FFF787FBF3E769
:10C8A0007C20002000FE04088CFE040814FC040810
:10C8B0002DE9F04786B00746614B18680368DD6BC9
:10C8C000DB689B682B6003681B7C13F0030F25D18A
:10C8D000BC883B88E41AA4B2013424B2B7F90660DC
:10C8E0001FFA86F87B88A8EB03081FFA88F808F17E
:10C8F00001080FFA88F816F025FBB04241DDB7F9C0
:10C900000660424621464E4B1868FFF739F98046CB
:10C910008146B7F902304FF0000A42E016F0FAFA09
:10C9200084B2013CA4B2464E306816F00BFB83B2D1
:10C93000013B0DF108081BB2009323B200221146FF
:10C94000404616F0AAFDC5F8048033681B681A7CBF
:10C9500012F0020F0AD0DA68137E43F00203137656
:10C9600002ABAB602846FFF7BDFE47E0DA6891698D
:10C97000137E61F341031376AF602846FFF7B2FEE2
:10C980003CE02F4B186816F0DDFA86B2013E36B255
:10C99000B7E7BDF916A0564527D02846FFF7A2FEF7
:10C9A00023B203EB0902013AB24225DCB7F90020B9
:10C9B000ADF81020B7F90420ADF81420ADF812300E
:10C9C00043449CB2631EADF8163004AB6B60AB60A1
:10C9D0001B4B1B681A68D26892682A60BDF9162042
:10C9E000B242D6DDADF81660D3E71B68DA68137E75
:10C9F00043F002031376D0E7B24502D106B0BDE89A
:10CA0000F087B7F90020ADF81020B7F90420ADF891
:10CA10001420ADF81230ADF8166004AB6B60AB605B
:10CA2000074B1B681A68D26892682A601B68DA682C
:10CA3000137E43F0020313762846FFF753FEDDE72B
:10CA40007C20002070B52F4B00221A602E4B1A68F4
:10CA5000B2F85041002C53D0013C002C05DB1319D7
:10CA600093F8303113B1013CF7E700241068436BB1
:10CA700003B19847244B1B681A68D1680A7E6FF38C
:10CA800000020A761A68D1680A7E6FF341020A76BC
:10CA900093F8282042F0040283F82820002515E0AE
:10CAA0001A68D1680A7E6FF341020A76A81DC60093
:10CAB00003EBC000FFF7FCFE134B1868304416F080
:10CAC000FFFC104A13680344136001350E4B1B68CA
:10CAD000B3F85021AA420DDD5A1992F83021002AEC
:10CAE000F3D1A542DCD11A68D1680A7E42F0010276
:10CAF0000A76D5E793F828206FF3820283F828207E
:10CB000070BD00BF802000207C20002030B587B0A1
:10CB10000C46054600283AD0002D48D095F828301C
:10CB200013F0040F37D1002C3ED00023ADF81030A5
:10CB3000ADF81230284616F0EDF980B20138ADF8A4
:10CB40001400284616F0FEF980B20138ADF8160040
:10CB500004AA214602A816F0DFFC40B32868037C33
:10CB600013F0020F25D183690BB102A99847002465
:10CB7000B5F85031A3422CD9A11D002205EBC1010B
:10CB800002A816F0FCFD90B90134A4B2F0E716F04B
:10CB9000BBF90546C0E7254B0093254BD322254919
:10CBA000032017F0A3FB02E00023A5F8503107B0E3
:10CBB00030BD05F1300306AA12E9030083E8030043
:10CBC0000123A5F8503168680028F0D019F035F934
:10CBD000EDE71F2B1AD8BDF90820063325F83320BE
:10CBE000BDF90A2005EBC3035A80BDF90C209A80D9
:10CBF000BDF90E20DA80B5F850310133A5F8503177
:10CC000068680028D3D019F018F9D0E70023A5F8F8
:10CC10005031BDF910302B86BDF912306B86BDF94D
:10CC20001430AB86BDF91630EB86E4E720FE04082D
:10CC300068FE040814FC0408014B1868704700BF24
:10CC40007C200020F0B587B0044616F0D5F90546E3
:10CC500000230593002C4FD0E2683D4B1A6020461C
:10CC600019F0E6F83A4C23681869FBF7EDFF2368E2
:10CC7000586908B1FBF7E8FF354C2368D869FBF722
:10CC8000E3FF2368186AFBF7DFFF23681A69002AAD
:10CC900037D0FFF701F8FFF7D5FE2D4B1868B0F835
:10CCA00050310BB303681B7C13F0020F35D1284CB5
:10CCB00020684FF48071303017F09EFE20682021EC
:10CCC00000F5987017F098FE23680022A3F8502111
:10CCD000284616F09FF9059023681868436A1BB12F
:10CCE00005991C4A1268984717F0AEFD15F0F8FF39
:10CCF00002F040F907B0F0BD16F006F9144B1860C9
:10CD0000B0E7A3F85021144B0093144B4FF49E72DC
:10CD10001349022017F0EAFAECE716F0FBF884B2A8
:10CD2000013CA4B20A4F386816F00CF983B2013BFB
:10CD300003AE1BB2009323B200221146304616F018
:10CD4000ACFB38680368DB6B5E60FFF72FF9AEE77A
:10CD50007C200020802000204CFE040878FE04087F
:10CD600014FC040838B504460D46406808B1FFF7C6
:10CD7000F9FF236813B129462046984738BD08B506
:10CD800020B1FEF731FCF8F727FD08BD16F0BCF81E
:10CD9000F9E7000038B50446FFF7F1FF48B1054652
:10CDA000044A00212046FEF71BFA21462846FFF7D9
:10CDB000D9FF38BDFFFF0F0008B5FFF7E0FF08B14E
:10CDC000008A08BD112016F01FFFFAE7704710B562
:10CDD0000446102117F010FE01236380FF23237304
:10CDE0004FF00003238010BD70B582B0BDF818501D
:10CDF000BDF81C600C7B022C08D9B1F902402CB1A3
:10CE0000B54203D0046901960095A04702B070BDF9
:10CE10002DE9F04F85B08346009115461C46BDF8BC
:10CE200038A0BDF93C609DF84020119F03F5B47314
:10CE30009A4519D00FFA85F9B4F5B47F02D9A4F553
:10CE4000B474A4B2BAF5B47F03D9AAF5B47A1FFAC0
:10CE50008AFAA5EB06080FFA88F8A2B106EBD67697
:10CE60007610013636B20FE01FFA80FBABEB0503FC
:10CE70003B80BDF800104B1B7B80AB44A7F804B08F
:10CE80000D44FD802DE000266308C849A1FB032363
:10CE9000C3F347134FEA5A02A1FB0212C2F347122F
:10CEA000042B21D0042A21D0934221D013B9012A86
:10CEB00000F0F980012B00F03581022B00F0788121
:10CEC000032B00F0BF811FFA8BFBABEB05033B800C
:10CED000BDF800104B1B7B80AB44A7F804B00D4499
:10CEE000FD8005B0BDE8F08F0323DBE70322DBE71D
:10CEF0005445DBD8002B39D0012B6CD0022B00F02D
:10CF00009F80032BEDD104F15A0000B217F048FACC
:10CF100008FB00F31FFA8BFB0BEBE3339BB2B6B2BB
:10CF20009B1B3B8020B217F03BFA09FB00F3BDF8D6
:10CF3000005005EBE3339BB29B1B7B800AF15A0048
:10CF400000B217F02DFA00FB09F30BEBE33316FAEE
:10CF500083F3BB800FFA8AF017F022FA00FB08F87F
:10CF600005EBE83516FA85F6FE80BAE720B217F031
:10CF700017FA08FB00F3BDF8005005EBE3339BB252
:10CF8000B6B29B1B7B8004F15A0000B217F008FA7E
:10CF900009FB00F31FFA8BFB0BEBE33316FA83F369
:10CFA000BB800FFA8AF017F0FBF900FB09F905EBDB
:10CFB000E93516FA85F5FD800AF15A0000B217F03E
:10CFC000EFF900FB08F80BEBE83B1FFA8BFBABEB30
:10CFD00006063E8085E720B217F0E2F909FB00F370
:10CFE000BDF8005005EBE333B6B216FA83F3FB80CD
:10CFF00004F15A0000B217F0D3F908FB00F31FFA4E
:10D000008BFB0BEBE33316FA83F3BB800FFA8AF04A
:10D0100017F0C6F900FB08F305EBE3339BB29B1B4B
:10D020007B800AF15A0000B217F0BAF900FB09F947
:10D030000BEBE93B1FFA8BFBABEB06063E8050E7A0
:10D0400004F15A0000B217F0ABF909FB00F31FFA24
:10D050008BFB0BEBE3339BB2B6B29B1B3B8020B246
:10D0600017F09EF908FB00F3BDF8005005EBE33321
:10D0700016FA83F3FB800FFA8AF017F091F900FBA0
:10D0800009F305EBE3339BB29B1B7B800AF15A004B
:10D0900000B217F085F900FB08F80BEBE83B16FA35
:10D0A0008BF6BE801DE70AF15A0000B217F078F93E
:10D0B00009FB00F31FFA8BFB0BEBE3339BB2B6B219
:10D0C0009B1B3B800FFA8AFA504617F069F90190D2
:10D0D00023B20293184617F063F9019B83421DDACD
:10D0E000504617F05DF900FB08F3BDF800A00AEB0D
:10D0F000E3339BB29B1B7B8004F15A0000B217F014
:10D100004FF900FB09F90BEBE93916FA89F9A7F891
:10D110000490554416FA85F6FE80E2E6029817F070
:10D120003FF9E0E7022A7FF4C8AE1FFA8BFBABEBB6
:10D1300005039BB2B6B29B1B3B800FFA8AF017F037
:10D140002FF909FB00F3BDF8005005EBE3339BB268
:10D150009B1B7B8004F15A031BB20193184617F006
:10D160001FF900900AF15A0A0FFA8AFA504617F08E
:10D1700017F9009A824215DD019817F011F900FBAA
:10D1800008F80BEBE83B16FA8BFBA7F804B020B2CB
:10D1900017F006F900FB09F905EBE93516FA85F6F3
:10D1A000FE809EE6504617F0FBF8E8E7B7600BB646
:10D1B000032A7FF485AE04F15A0000B217F0F0F8AC
:10D1C00009FB00F31FFA8BFB0BEBE3339BB2B6B208
:10D1D0009B1B3B80BDF8003000935B1B9BB29B1BED
:10D1E0007B800AF15A0000B217F0DAF800FB09F967
:10D1F0000BEBE93B16FA8BFBA7F804B00FFA8AFA9F
:10D20000504617F0CDF808FB00F524B2204617F081
:10D21000C7F800FB08F085420CDD504617F0C0F857
:10D2200000FB08F3C3F3CF33009A1A4416FA82F6D0
:10D23000FE8056E6204617F0B3F800FB08F3C3F370
:10D24000CF33F1E7002A7FF43EAE0AF15A031BB256
:10D250000293184617F0A4F8019004F15A0319B28A
:10D260000391084617F09CF8019A824228DA029846
:10D2700017F096F800FB08F31FFA8BFB0BEBE33378
:10D280009BB2B6B29B1B3B8020B217F089F809FB1A
:10D2900000F3BDF8004004EBE3339BB29B1B7B80A3
:10D2A0005D4416FA85F5BD800FFA8AF017F078F81C
:10D2B00000FB09F904EBE93416FA84F6FE8010E667
:10D2C000039817F06DF8D5E708B502F0C8FE08BD61
:10D2D00070B598B004460D4616460AA802F0E6F866
:10D2E0004FF6FF73ADF82C302A460AA9204602F00B
:10D2F00005F902A800F004FA0023009333462A46F9
:10D3000002A9204600F01CFA18B070BD10B5044602
:10D31000182117F071FB4FF000032381FF23E37204
:10D320004FF480736380237D43F00103237510BDA8
:10D3300004380A2807D8DFE800F01208120A0C0E99
:10D34000100A0C0E100000207047182070470120B2
:10D350007047022070470420704708207047102053
:10D360007047032805D0062801D00020704701200F
:10D370007047012070470E2809D8012303FA00F0F6
:10D3800047F6A473184214BF012000207047002004
:10D39000704750B10278A2F12003DBB25F2B06D9AF
:10D3A00012F0800F05D10020704703207047012044
:10D3B00070470220704730B583B044691CB19DF8B6
:10D3C00018500095A04703B030BD00002DE9F04F84
:10D3D0008DB01546CA7A022A03D801200DB0BDE8E7
:10D3E000F08F06460C460A690989184602F05AF978
:10D3F0000746002800F01E8190F8149009F01F09DC
:10D400004846FFF7AEFF98B9C846B9F10E0F06D0EF
:10D410004846FFF7B0FF08B34FF005080AE023685D
:10D42000B3F1807F06D00023BB614FF0050801E017
:10D430004FF006083B6AA3B17F4B00937F4BFF225E
:10D440007F49022016F052FF3A6A29463046FFF71C
:10D450003FFF3846FFF738FF0120BFE74FF00408D1
:10D46000E8E7BB69002B5AD0B5F90030ADF82030A1
:10D47000B5F90230ADF82230B5F90430ADF82430FA
:10D48000B5F90630ADF826302368B3F1807F15D1A9
:10D4900008AAB1680AA816F03FF800283AD0D6F8D2
:10D4A00008900AABB360BB69CDF800802A462146DC
:10D4B0003046FFF780FFC6F80890CAE7A9882B8896
:10D4C000C91A89B20131EA886B88D21A92B2013244
:10D4D000204630F9043B01906088009012B209B2F6
:10D4E00008A802F059F82A88BDF820301344ADF896
:10D4F00020306B88BDF822101944ADF82210BDF819
:10D5000024100A44ADF82420BDF826201344ADF8B9
:10D510002630BDE73846FFF7D7FE01205EE72A46F2
:10D52000B16806A815F0F8FF98B3BDF81C30BDF837
:10D5300018209B1A9BB201331BB2049303EB4300E8
:10D5400017F0BAF88246D6F808B0BDF91830ADF831
:10D550002030BDF91A30ADF82230BDF91C30ADF8DD
:10D560002430BDF91E30ADF82630012108A815F091
:10D57000A1FFBDF918300293B5F900300393BDF94E
:10D580001A90B5F90250A9EB0505234654469A4670
:10D590001CE03846FFF798FE01201FE7059802F0CF
:10D5A0005EFD284B0093254B4FF4A17224490220C5
:10D5B00016F09CFE204617F01DF93846FFF784FE52
:10D5C000C6F808B0002009E709F10109BDF91E30CD
:10D5D0004B4529DB08AA59460AA815F09DFF0028EB
:10D5E000F2D00597029B039A991A0094049B2AB2E1
:10D5F00009B2384602F022FD0128CFD10AABB36050
:10D60000CDF80080234608AA51463046FFF7D3FEE6
:10D61000BDF922300133ADF82230BDF92630013397
:10D62000ADF826300135CFE7C6F808B0204617F030
:10D63000E1F80EE70020D1E608FF040868FF0408BF
:10D64000C4FE04081CFF040870B582B004461546E9
:10D6500053B1CA7A022A05D9A6699EB12A46204644
:10D66000B047A0B102B070BD104B0093104B4122E7
:10D670001049022016F03AFE0F4A29462046FFF7CD
:10D6800027FEEFE72A462046FFF7A0FEE9E70B4B0F
:10D690000093074B51220749022016F027FE064A45
:10D6A00029462046FFF714FEDCE700BF3CFF0408D4
:10D6B0005CFF0408C4FE040854FF040808FF0408C3
:10D6C00003463038C0B2092818D9602B01D9203B55
:10D6D000DBB2413B052B0ED8DFE803F0030F050753
:10D6E000090B0A2070470C2070470D2070470E2050
:10D6F00070470F207047002070470B2070470000D4
:10D7000010B50446202117F077F9FF23A3764FF0D8
:10D710000003A381074B23604FF6FF736360A36090
:10D720004FF00003E381052016F06EFA20820023FB
:10D73000E37610BDC84E050810B5C469A04710BDFA
:10D740002DE9F04FB5B0099208933E9C8B7E022BD9
:10D7500013D981460D460B6893B1C369CBB12CAE8A
:10D760000F460FCF0FC697E80F0086E80F002B6813
:10D770000493089B0BB11B78A3B935B0BDE8F08FBB
:10D78000B04B0093B04B5222B049022016F0AEFDD0
:10D79000F3E7AF4B0093AC4B5722AC49022016F095
:10D7A000A5FDEAE7D9F8082009992AA815F0B4FEE2
:10D7B0000028E2D02B7F0C930BB901230C936B7FD5
:10D7C00013F0020F25D1099A938812889B1A9BB2F5
:10D7D00001331BB2049AB2F90860B5F91220971907
:10D7E0000D970998B0F90020ADF8A420B0F90220F7
:10D7F000B5F916100E91B5F918100A44ADF8A62027
:10D800003CB349BBB0F90220002A13DB4FF0FF37CD
:10D8100024E0029341F6FF730193B5F912300093AF
:10D82000B5F914302A68089915A819F061FCBDF9FA
:10D830005430CFE7A1688A1A002AB8BF5242C7F510
:10D840000071B2EB410F02DD4FF0FF32226027681A
:10D8500004E04FF0FF3701E04FF0FF37E4B1002F55
:10D860001CDB6268BDF8A6100A44ADF8A6201AB207
:10D870000A926B7F0193002300931346B5F914209D
:10D8800004990898384419F0BFFA00EB070BDDF84B
:10D890003480DDF820A009E00027E8E70027E6E76C
:10D8A0003B785F46002B3FF468AF8346BDF9A63056
:10D8B0003344D9F80820B2F90220934228DA0AEB5F
:10D8C0000B076B7F0193002300930A9BB5F914208B
:10D8D0000499384619F098FA5844BDF8A6304344E4
:10D8E0001BB2ADF8A630002CDAD013F5806FD7DB71
:10D8F0002368002BD4DAC4F800B0BDF9A63009992A
:10D90000B1F902209B1A6360B1F90230A360C7E746
:10D910000C9B022B21D00C9B032B3AD06A68144637
:10D92000D5F80880424502D8434690461C46AB7F56
:10D9300013F0030F46D14FF0000A17A801F0B6FD0F
:10D940002B8AADF86030BDF9A430109300230F93FB
:10D950002646CDF81C90B94661E16B7F0093B5F97E
:10D960001430049AABEB07010898384419F070FBA7
:10D97000099A938812889B1A9BB201331BB21B1A17
:10D9800003EBD373BDF8A42002EB6303ADF8A4301E
:10D99000C4E76B7F0093B5F91430049AABEB070131
:10D9A0000898384419F054FB099A938812889B1AF6
:10D9B0009BB201331BB21B1ABDF8A4201344ADF86F
:10D9C000A430ABE726A800F0B7F9AB89ADF89830E2
:10D9D000049B93F90E307BB11BB2ADF89A30AB7E4D
:10D9E0008DF8A030AB7FC3F3C1039DF8A12063F392
:10D9F00001028DF8A1209EE70123EEE700230593A5
:10DA000093E00023059390E037B1012F64D0022FFB
:10DA100040F09980002775E0259B0F93012771E066
:10DA2000202B6FD1259B0F9A9B1A072B04D0AB8913
:10DA3000ADF82E30022765E0069B991815AA06233B
:10DA40000DE000BFBCFF04081400050878FF0408BF
:10DA5000D0FF040811F8010B02F8010B013B002B69
:10DA6000F8D19DF85400FFF72BFE04019DF85500F6
:10DA7000FFF726FE231805939DF85600FFF720FEBA
:10DA800004019DF85700FFF71BFE04449DF8580061
:10DA9000FFF716FE07019DF85900FFF711FE3B182E
:10DAA000C4F34211059AC2F3C402C3F3C403C4F31E
:10DAB0008204BDF8440061F30200014662F3C7012D
:10DAC0000A4663F30C22134664F34F33ADF8443037
:10DAD000ADF82E30022715E0002737E0BDF82EA064
:10DAE00038E0ADF8BCA0139B29AA2CA90798FFF732
:10DAF00023FE3CB1A88A0444BDF8A40010FA84F4C3
:10DB0000ADF8A440ABEB090325998B4253D94FF6EE
:10DB1000FF7398453FF472AF9E423FF472AF854B5E
:10DB20001B68494408989847059025AB14AA13A987
:10DB3000069819F077FA6B7F13F0010F06D0139B4C
:10DB4000232B3FF461AF012F3FF46AAFB5F80CA06F
:10DB5000022FC3D0149A1399049814F03FFF04467F
:10DB60004FF6FF739845BCD09E42BAD0059B9845AE
:10DB7000B7D89E42B5D9BDF9A430ADF85430BDF93F
:10DB8000A620ADF8562010FA83F3A98A11FA83F380
:10DB90009BB2013BADF858300D9B13FA82F39BB258
:10DBA000013BADF85A3015AA17A9079801F0A6FC59
:10DBB000B5F80EA095E7AB7F13F0020F41D1AB7F14
:10DBC00013F0010F62D1089B03EB0B046B7F0193F1
:10DBD000002300930A9BB5F914200499204619F0FC
:10DBE00013F90BEB0007099BB3F90030ADF8A43033
:10DBF0000C9B022B6DD00C9B032B00F08480BDF896
:10DC0000A6300D9A13441BB2ADF8A630079A92685D
:10DC1000B2F90620D94693423FF7AFADBB46089B09
:10DC20001A464A44069213F80930002B3FF4A5AD7A
:10DC3000BDF8A4300E9A1344ADF8A4300027259700
:10DC400060E7109BADF85030BDF8A6302A68B2F9F5
:10DC5000082002EBD27203EB6203BDF99A2002EBBB
:10DC6000D272521012FA83F31BB2ADF85230BDF9E2
:10DC7000A420ADF85420ADF85630ADF898A015ABFF
:10DC800014AA26A9079800F064F898E7109BADF84D
:10DC90005030BDF8A6302A6811890B449BB25289D6
:10DCA0009B1A9BB2049A92F90D2092B29B1A1BB256
:10DCB000ADF85230BDF9A420ADF85420ADF856307F
:10DCC000ADF898A015AB14AA26A9079800F041F862
:10DCD00079E76B7F0093B5F91430049A014620462A
:10DCE00019F0B6F9099A938812889B1A9BB20133EE
:10DCF0001BB2181A00EBD070BDF8A43003EB600023
:10DD0000ADF8A4007BE76B7F0093B5F91430049A5B
:10DD10000146204619F09CF9099A938812889B1AAB
:10DD20009BB201331BB21B1ABDF8A4201344ADF8FB
:10DD3000A43064E72C02002010B504460A2116F036
:10DD40005BFE01236380FF2323724FF000032380D7
:10DD500010BD10B5B1F9024024B10C7A022C01D9E2
:10DD6000046AA04710BDF0B4049DB5F90A4094427E
:10DD70007CDCB5F90E4094427BDB5F18B5F9086096
:10DD8000B74278DBB5F90C408C4276DBA74208DD60
:10DD9000A4B29FB27B189BB2E31A17FA83F3013344
:10DDA0001BB28E4203DD711A5B1A1BB20844B5F92F
:10DDB0001040944227DAB5F9121091423CDD6E7D95
:10DDC0002F7DF51B091B0131121B02FB05F292FB93
:10DDD000F1F257FA82F2D2B200243BE002FB04F2E5
:10DDE00002EB022402EBC412C2F3C75434700131B7
:10DDF0008B420ADD4618445C2A7DFC2AF6D8022AAA
:10DE0000ECD80024F2E70021F2E702202FE002FB29
:10DE100004F202EB022402EBC412C2F3C7543470C2
:10DE200001318B420ADD4618445C6A7DFC2AF6D833
:10DE3000022AECD80024F2E70021F2E7022016E0E3
:10DE400002FB01F101EB012601EBC611C1F3C75141
:10DE500029700134A34207DD0519015DFC2AF7D8BA
:10DE6000022AEDD80021F3E7022000E00120F0BCF7
:10DE700070470120FBE70120F9E70120F7E7028066
:10DE800000234380C2F101020A807047B0F90220EA
:10DE9000B0F900008242CCBF002001207047B1F9E8
:10DEA0000030002B13DD10B4B0F90220B0F90040AF
:10DEB000121B03EB420305330B80B0F90030013B2A
:10DEC0000380B0F902300133438010BC70474288B0
:10DED000520092B2134403330B80B0F90230013385
:10DEE0004380704730B4C5684C1C35F8144035F891
:10DEF0001150641B1480826832F911201A80426824
:10DF0000C36833F81100104430BC7047F8B50646BA
:10DF1000069DE86901FB00F4A412002808DDA24276
:10DF20000FDA95F8280010F0020000D00120F8BDAB
:10DF3000A24206DD95F8280010F00200F7D001207B
:10DF4000F5E71F46CC1804FB00F4A412002809DDF5
:10DF5000A24211DD95F8283013F0020F00F0C880BE
:10DF60000020E4E7A24207DA95F8283013F0020F08
:10DF700000F0C0800020DAE7002837DDA86900FB48
:10DF800002F242F39502141212F0FF0234D0C2F1F1
:10DF9000FF0C686A00FB0CF00012C0F1FF00611A70
:10DFA000002A5CD000291FDB8B421DDDC2F1FF027D
:10DFB000C0F1FF0404FB02F2C2F34722D443E4B2EF
:10DFC00095F828C01CF0020F00D12246745CFC2A90
:10DFD00009D8022A12D904FB02F202EB022402EB56
:10DFE000C412C2F3C75474544A1C12E0A86902FB5D
:10DFF000000242F39502C6E7FF20D0E70024F2E7D3
:10E000004FF0000C8EF800C06C6A001B0132974282
:10E0100027DDD5F824C0844523DA002AF4DB9742B3
:10E02000F2DDC4B2CCF3470CA4EB0C04E4B295F8D7
:10E0300028C01CF0020F01D0E443E4B206EB020E4C
:10E0400016F802C0FC2CDDD8022CD9D904FB0CF444
:10E0500004EB042C04EBCC14C4F3C75CD2E70A46EF
:10E06000D7E7934222DD002A20DBAC6900FB04F4F1
:10E07000A41204FB00F0C0F34720EC69002C20DB65
:10E0800095F8284014F0020F01D0C043C0B2B71871
:10E09000B45CFC2809D8022816D900FB04F000EB78
:10E0A000002400EBC410C0F3C7543C7095F828005E
:10E0B00010F002000FD08B421EDB002906DA02208E
:10E0C00035E7C043C0B2DBE70024EEE7304616F088
:10E0D00093FC02202BE701323FF529AF934201DA8E
:10E0E000022024E7991AB01816F086FC02201EE7D9
:10E0F00001201CE701201AE7002018E7F8B50446C4
:10E10000069FBD6902FB05F08612002D0ADD06F1AF
:10E11000010C614508DD97F8280010F0020000D0DE
:10E120000120F8BDB446F4E701EB030CB44507DA6F
:10E1300097F8283013F0020F00F051810020F0E72B
:10E1400040F38D26C0F3870002FB055242F38D2E6B
:10E15000C2F38702A6EB010C764501D0002D64DBEB
:10E16000764569D0002DC0F2AD80C0F1FF02F8699C
:10E1700000FB02F08012BCF1000F20DB63451EDDC6
:10E1800000FB02F2C2F34722D543EDB297F828E034
:10E190001EF0020F00D12A4604EB0C0E14F80C50AE
:10E1A000FC2A0AD8022A40F2018102FB05F202EBA6
:10E1B000022502EBC512C2F3C7558EF80050C0F11C
:10E1C000FF00BA6902FB00F292121CF101051BD498
:10E1D000AB4219DD02FB00F2C2F3472297F8280098
:10E1E00010F0020F01D0D243D2B2605DFC2A0AD8EF
:10E1F000022A40F2DD8002FB00F202EB022002EB79
:10E20000C012C2F3C75060550CF1020597F82820E0
:10E2100012F0020000F0D380711A8B42C0F2E78046
:10E22000002980F2C78002207BE7002898D10CF1FA
:10E23000FF3C7646FF2093E7BCF1000F1CDB6345F3
:10E240001ADD0244C2F3470297F8280010F0020FCB
:10E2500001D0D243D2B204EB0C0514F80C00FC2A16
:10E2600009D8022A17D900FB02F202EB022002EBC6
:10E27000C012C2F3C75028700CF1010597F82800AE
:10E2800010F002000ED0711A8B4240F3AA800029D0
:10E2900003DA022045E70020EDE7204616F0ACFB4C
:10E2A00002203EE7AB4200DA1D46002D3FF439AFB5
:10E2B000002D01DC022034E7591B601916F09CFB8D
:10E2C00002202EE7FA69524200FB02F29212BCF1E0
:10E2D000000F1EDB63451CDD02FB00F0C0F347208E
:10E2E00097F8285015F0020F01D0C043C0B204EBDC
:10E2F0000C0E14F80C50FC2809D802283ED900FB5B
:10E3000005F000EB002500EBC510C0F3C7558EF8F3
:10E310000050C2F1FF00BA69524202FB00F29212B1
:10E32000BCF101051BD4AB4219DD02FB00F2C2F3C4
:10E330004722D043C0B297F828E01EF0020F00D168
:10E340000246605DFC2A09D8022A19D902FB00F2B4
:10E3500002EB022002EBC012C2F3C75060550CF171
:10E36000010C97F8282012F0020F10D0711A013911
:10E370008B4238DB002905DC0220D2E60025C6E707
:10E380000020EBE7204616F037FB0220C9E6634584
:10E390002BDBBCF1000F01DA0220C2E6A3EB0C017B
:10E3A00004EB0C0016F028FB0220BAE6002504E777
:10E3B000002028E7204616F01FFB0220B1E6AB4202
:10E3C00000DA1D46002D3FF4ACAE002D01DC02202A
:10E3D000A7E6591B601916F00FFB0220A1E60120E9
:10E3E0009FE600209DE602209BE6012099E60020A2
:10E3F00097E670B582B00546069CA08A121A12B242
:10E40000608A091A09B2266A002E47D194F82800BA
:10E4100010F0010F14D0237C13F0020F4ED003F044
:10E420000303022B05D0032B4AD1002A06DD01206D
:10E430003DE0B2F1FF3FF6DA012038E0002036E09F
:10E44000227C12F002043DD102F00300012809D021
:10E4500080B9CA1838D44C42002928DCA34204DC15
:10E46000022024E00029F3DD21E01146281916F0EE
:10E47000C3FAF5E7D94229D44A42002903DDB34261
:10E4800003DC204613E01646F9E7002E01DA0220ED
:10E490000DE03146284616F0AFFAF8E794F8280068
:10E4A00010F0010F05D000942846FFF72FFD02B0B1
:10E4B00070BD00942846FFF721FEF8E70120F6E73B
:10E4C0000020F4E70120F2E70120F0E72046EEE724
:10E4D0002DE9F04782B081460E46154698460A9CC3
:10E4E000B4F90A30D71AB4F90820891AB4F90C2003
:10E4F000B32A00F38F80B4F90E00B32800F38A80AA
:10E50000002A00F08780002800F08480824240F3D7
:10E510008180AB4200F38281636D07FB03F34FEA16
:10E52000A32CA36A07FB0337BF1292B2A2F20F1308
:10E530009BB2582B01D8002F0DDB531E9BB2592BD9
:10E5400001D8002F1EDB5B3A93B2B22B04D8002F08
:10E5500002DD002700E0002780B2A0F20F139BB27B
:10E56000582B01D8002F0FDB431E9BB2592B01D82B
:10E57000002F32DB5B3883B2B22B06D8002F04DDCC
:10E58000002702E00027E7E70027ACEB070A07EBCC
:10E590006A07A7EB010AD04500DAC246BAF1000FBC
:10E5A0001DDC0127D04500DAC246BAF1000F28DB96
:10E5B000D1441FFA8AF39919A8EB03033C34009461
:10E5C0001BB22A4609B24846FFF713FF0446D8B1EA
:10E5D000A74200F02881022725E10027D5E704F1B2
:10E5E000100300930FFA8AF32A4631464846FFF794
:10E5F00000FF07460028D5D15146484616F0FCF9E1
:10E60000D0E74FF0000AD3E7A8EB0A01484616F01E
:10E61000F3F9DDE7B42A40F39680B4F90E00B4288C
:10E6200040F39180824240F38E80AB42C0F2F8808A
:10E63000636D07FB03F34FEAA32CA36A07FB0333C5
:10E640004FEAA32A92B2A2F20F139BB2582B02D820
:10E65000BAF1000F10DB531E9BB2592B02D8BAF14E
:10E66000000F25DB5B3A92B2B22A07D8BAF1000F4D
:10E6700004DD4FF0000A01E04FF0000A83B2A3F27C
:10E680000F1292B2582A02D8BAF1000F13DB5A1EA9
:10E6900092B2592A02D8BAF1000F36DB5B3B9BB22B
:10E6A000B22B0AD8BAF1000F07DD4FF0000A04E0E0
:10E6B0004FF0000AE2E74FF0000AACEB0A0C0AEB5D
:10E6C0006C0AAAEB010AD04500DAC246BAF1000F83
:10E6D0001EDC0127D04500DAC246BAF1000F29DB63
:10E6E000D1441FFA8AF39919A8EB0303103400945C
:10E6F0001BB22A4609B24846FFF77BFE0446E0B14A
:10E70000A74200F0908002278DE04FF0000AD4E786
:10E7100004F13C0300930FFA8AF32A463146484637
:10E72000FFF767FE07460028D4D15146484616F049
:10E7300063F9CFE74FF0000AD2E7A8EB0A01484699
:10E7400016F05AF9DCE7B42A05D09AB9AB4227DDB6
:10E750004FF0030A03E0AB421FDD4FF0010AB4F9AA
:10E760000E30B42B25D0BBBBB4F90A30AB424BDD25
:10E77000012723E0B32A01DCAB4214DCB42A01DD1B
:10E78000AB4213DD04F11003009343462A463146A1
:10E790004846FFF72EFE8246E1E74FF0030ADEE728
:10E7A0004FF0010ADBE74FF0030AD8E74FF0030A06
:10E7B000D5E7B4F90A30AB4224DD0327BAF1000FE4
:10E7C00030D087B3BAF1030F24D0BAF1010F2ED1A4
:10E7D000012F28D0022726E0B32B03DCB4F90A204E
:10E7E000AA4213DCB42B03DDB4F90A30AB420FDDCF
:10E7F0003C34009443462A4631464846FFF7F9FD2B
:10E800000746DBE70127D9E70327D7E70327D5E743
:10E810000327D3E7032FD8D1002704E0012702E024
:10E82000012700E05746384602B0BDE8F0870227CE
:10E83000F9E72DE9F04782B006460F461D460A98D3
:10E8400090F81280B0F91090B0F908C0B0F90A1031
:10E85000B0F90C40B0F90E3018F0010832D18A42FC
:10E86000C0F251819A4200F352810CEB090E7745B8
:10E8700005DB05EB070EA4EB090AD64507DD01EB26
:10E88000090E72454ADBA3EB090E724546DCB8F16E
:10E89000000F28D1ACEB07084545C0F23C81B8F128
:10E8A000000F16DAE71B0137002F40F33681BD4217
:10E8B00014DCB8F1000F40F03281BD4200F031812C
:10E8C000022021E18A42C0F224819A42CDDD01205A
:10E8D0001AE14146304616F08FF8E3E7E91BF019DC
:10E8E00016F08AF8E5E7BCEB070C0FD465450BDBA7
:10E8F000E11BA1EB0C0101310CEB01039D4201DA9C
:10E90000A5EB0C01002904DA0220FDE04FF0000C19
:10E91000ECE706EB0C0016F06FF8F5E7ACEB070739
:10E92000A4B21FFA8CFCA4EB0C04A4B20134A4B270
:10E930009BB289B25B1A9BB201339BB292B2A2EB3B
:10E94000010C1FFA8CFE0FFA8CFCE14525DD891ABB
:10E95000494489B2013909B201AB0DF1060240699F
:10E96000FFF7C0FABFB23A1992B21FFA89F9A2EBC7
:10E970000902BDF8043013FA82F21FFA82FC11B2C8
:10E98000B9441FFA89F4E41AA4B2013C24B2B8F1E4
:10E99000000F40F09880002214E0A9EB03037344B9
:10E9A00019B2D9E7734629E0002327E003FB0EFEE6
:10E9B0000EEB0E230EEBC31ECEF3C75E06F807E088
:10E9C000013212B2BDF90630934225DD17469B1A7B
:10E9D000013B10F803E011EB020C11D4AC450FDA47
:10E9E00016F80C30FC2BDDD8022BDDD903FB0EF31F
:10E9F00003EB032803EBC813C3F3C75306F80C302B
:10EA0000E71BDDD4AF42DBDAF35DFC2BD6D8022B5B
:10EA1000CCD84FF0000ED1E70A44AA42A8BF2A463C
:10EA200022EAE27212B2A91AB01815F0E5FFBDF998
:10EA30000610611A01318D42A8BF0D4625EAE57125
:10EA400009B2304615F0D8FF02205DE03A4629E0D1
:10EA5000002227E00EFB07F707EB072E07EBCE1788
:10EA6000C7F3C757B75401331BB2BDF906209A420A
:10EA70002BDD013A9E46D21A875CFF43FFB211EBB1
:10EA8000030811D4A8450FDA16F80820FC2ADDD8AF
:10EA9000022ADDD902FB07F202EB022902EBC912BE
:10EAA000C2F3C75206F80820B4EB0E02DBD4AA4228
:10EAB000D9DA16F802E0BEF1FC0FD3D8BEF1020F8E
:10EAC000C8D80027CEE70023CFE70134AC42A8BF67
:10EAD0002C4624EAE47420B28D4208DD0B1ADB0FC9
:10EAE0005BB98D4206DDACEB040421B206E02B1AC3
:10EAF000DB0FF5E72C1B21B200E00021304415F0BC
:10EB00007BFF022000E0002002B0BDE8F08700207B
:10EB1000FAE70120F8E70020F6E70020F4E70220FA
:10EB2000F2E70120F0E70000002900F078812DE9EC
:10EB3000F04790B005468A460183006808B115F099
:10EB400071FD0AF1010606EB4600400015F04CFD90
:10EB5000286020B368604FEA4A0202320244EA6049
:10EB60004FEA8A0204320244AA60BAF1010F24D0AB
:10EB7000F00015F0A1FD074600EB86064FEA8A0279
:10EB800012B20DF13A010FA8FFF779F9BDF93C3047
:10EB90009B100A93002306931C46994664E0A04B01
:10EBA0000293A04B0193A04B0093A04B40F25D5207
:10EBB0009F49032015F09AFBFEE7B4220270EA6831
:10EBC00000231380EA6801215180AA68138023E1A1
:10EBD000BDF93C30991010AA02EB880242F8181CCB
:10EBE00003F0030342F8283C08F10108B8F1030FD1
:10EBF00009DC0DF13A010FA8FFF751F90FA8FFF753
:10EC000045F90028E4D1B8F1040F40F099800A9B3F
:10EC10000D9A934230D00B9A934243D027F8143088
:10EC20000FFA89F126F814106A680698105568687A
:10EC3000025D12010255A4B2621C12B2013B27F818
:10EC4000123026F81210079B08990B44696809983E
:10EC500050FA83F304338B5469688B5C1B018B542B
:10EC6000023424B209F101090FA8FFF70FF90028B7
:10EC700066D04FF00008B9E727F8143026F8149052
:10EC8000069B079A1344089A52FA83F36A68099913
:10EC900051FA83F313556A68135D1B011355013450
:10ECA00024B2DFE70C9A934223D027F814300FFAEE
:10ECB00089FC26F814C06968069A079802440A5528
:10ECC00069680A5D12010A55A4B2621C12B2013BC6
:10ECD00027F8123026F812C06968089B0998034487
:10ECE00008338B5469688B5C1B018B54023424B24B
:10ECF000B8E727F814300FFA89F126F81410069AAD
:10ED00000798024468680590089850FA82F20598BE
:10ED100002556868025D12010255A4B2621C12B26B
:10ED2000013B27F8123026F812106968099B0C3352
:10ED30008B5469688B5C1B018B54023424B291E7BD
:10ED400040F2D32303FB0AF39912224604F1004058
:10ED5000013837F910C0BCEBA32F16D0C3F3090359
:10ED6000B3F5007F16DC03FB03F3DB1309B227F8CE
:10ED7000121026F8121069688B5469688B5C1B01AD
:10ED80008B54013424B2A31E1AE036F910008842D5
:10ED9000E4D1F8E7C3F5806303FB03F3DB13C3F1AE
:10EDA0000F03E3E736F9132027F8142037F913206F
:10EDB00026F814206A68D15C1155013B013424B255
:10EDC000002BEFDAEA68002313809C4613E07A5E9A
:10EDD000A96831F800804245A8BF42460A52013373
:10EDE000590036F91320624501D19E45EFDC0CF144
:10EDF000010C0FFA8CFCA6469C420ADDEA684FEA39
:10EE00004C0022F81C30AA6837F8131022F81C10A6
:10EE1000E6E7384615F0EEFC10B0BDE8F087704725
:10EE2000A0F7040868000508D4F70408780105086D
:10EE30002400050800230F2B06D8104A52F833206F
:10EE400012B10133DBB2F6E70F2B07D80B4A42F8B9
:10EE5000330002EBC302516018B2704700B583B0B3
:10EE6000074B0093074B5A220749022015F03EFA40
:10EE70004FF0FF3003B05DF804FB00BF0423002017
:10EE80007800050830010508240005082DE9F04F39
:10EE900083B08146884617461E46104D4FF0000A43
:10EEA00000E008352C6874B1D4F800B00094334603
:10EEB0003A4641464846D847034640B10228F0D179
:10EEC0004FF0010AEDE7BAF1000F04D10123184613
:10EED00003B0BDE8F08F0223F9E700BF0423002050
:10EEE0000346B0F1FF3F09D0054A52F83000002137
:10EEF00042F8331002EBC30359607047002070479B
:10EF00000423002070B505460024264601E00134A4
:10EF1000E4B20F2C0CD8074B03EBC4035B68AB4285
:10EF2000F5D1044B53F834602046FFF7D9FFEEE7E4
:10EF3000304670BD0423002010B504460379022B2F
:10EF400002D0052B11D010BD4369002BFBD01A69EC
:10EF5000002A03DB5A69013A5A61F4E7586815F050
:10EF600061FB606915F05EFBEDE7806815F05AFB08
:10EF7000E9E7000038B500240BE015F053FBC5EBC2
:10EF8000C505AB001C210948184415F035FD0134B6
:10EF9000E4B2032C08D82546C4EBC4029300034A0C
:10EFA000D0580028E9D1EAE738BD00BF8822002008
:10EFB00038B510B1054600240EE0164B186800382D
:10EFC00018BF012021E0B1F910200831284614F0C3
:10EFD000D6FBE8B10134E4B20F2C15D80D4B53F831
:10EFE00034100029F6D00B79022B0FD18B7C13F053
:10EFF000010FE8D0B1F910200831284614F014FCB4
:10F000000028E7D1012000E0002038BD0120FCE706
:10F010000120FAE7042300202DE9F843044688463E
:10F0200015461F46BDF920609DF824902C2115F04F
:10F03000E3FCB54255D0B54205DC33462E461D46AD
:10F040003B464746984627816681A4F80C80E581B7
:10F05000227C69F3010222746782A682A8EB07076B
:10F0600087EAE771A1EBE771AD1B85EAE572A2EBD8
:10F07000E5729142D4BF0021012194F8282061F368
:10F08000000284F828200021E161A1613C48206051
:10F09000217112F0010F2CD03FB14FF4801292FB7E
:10F0A000F7F202FB05F29212E2613DB14FF48012D9
:10F0B00092FBF5F505FB07F39B12A361E36923625D
:10F0C000237C13F0030329D194F828306FF3410314
:10F0D00084F82830226A93106362002A4DDBBDE871
:10F0E000F883B9F1030FA6D1013D2DB2013E36B22E
:10F0F000A1E73DB14FF4801292FBF5F202FB07F25B
:10F100009212A2613FB14FF4801292FBF7F303FB1E
:10F1100005F5AD12E561A3692362D1E7012B0DD09E
:10F12000022B12D0032BD5D1236A002B1EDD94F8BD
:10F1300028306FF3410384F82830CBE794F8283067
:10F1400043F0020384F82830C4E7236A002B06DD6D
:10F1500094F8283043F0020384F82830BAE794F892
:10F1600028306FF3410384F82830B3E794F828304F
:10F1700043F0020384F82830ACE75B426362AEE7F9
:10F18000F3E300082DE9F04182B007460D4616462C
:10F190001C46B42B02DDA3F1B40424B204F15A00DE
:10F1A00000B215F0FDF840F34F18204615F0F8F8BE
:10F1B00040F34F1408EB05039DF8202001923444DE
:10F1C00024B200941BB2324629463846FFF724FF8A
:10F1D00002B0BDE8F08100002DE9F04184B00446A2
:10F1E0000E461746BDF92850002B05DBB3F5B47F5A
:10F1F00003DB40F2671300E00023002D05DBB5F5CB
:10F20000B47F03DB40F2671500E00025AB4226DD4A
:10F21000EA1A02F5B472A4F86820A381E581268178
:10F2200067812B4A2260012222719AB2B2F5B47F23
:10F230001CD8B32A28D80021002D02DBB3F5B47FF7
:10F2400024DD244B0293244B0193244B0093244B45
:10F250004FF4E2722349032015F048F8FEE7EA1A5A
:10F26000002AB8BF5242A4F86820D6E71E4B02938A
:10F270001E4B0193194B0093194B4FF4DE72194941
:10F28000032015F033F8FEE70121D5E7AAB2B32A2F
:10F2900006D9B43A92B2B32A17D84FF0000801E069
:10F2A0004FF0010800913A46314604F11000FFF793
:10F2B00069FFCDF800802B463A46314604F13C0008
:10F2C000FFF760FF04B0BDE8F0814FF00108E9E707
:10F2D000D1E40008E0000508F8000508D4F70408A8
:10F2E0004401050824000508A0000508B800050829
:10F2F000F0B585B0044615468A88B1F90060B0B211
:10F30000121A92B2013212B2C8884F88C01B80B262
:10F31000013000B29042A8BF1046B5EB600F01DD8E
:10F32000421015B2002D21DB2681B1F90220628145
:10F33000B1F90420A281B1F90620E2812582A27CE4
:10F3400063F30002A274434B2360022323717DB157
:10F350000023032B2BD8C3EBC3023F4901EB8202EE
:10F36000B2F91820AA4206D00133F2E70025DBE704
:10F370000023636150E0C3EBC301374A02EB810213
:10F3800051690131516112690F2D0EDD2D112A4491
:10F39000B2F57A7FA8BF4FF47A722F49C3EBC3004E
:10F3A00001EB80000261606136E00125EFE7002695
:10F3B000334604E0C3EBC30201EB82060133032BA7
:10F3C00018D8C3EBC302244901EB82025269002A18
:10F3D000F4D1002EEED0C3EBC3011F4A02EB810231
:10F3E000116932699142E9DAC3EBC3021A4E06EBA6
:10F3F0008206E3E796B17369013373610F2D27DD50
:10F400002B11B3F57A7FA8BF4FF47A73336166612D
:10F4100029463046FFF788FB05B0F0BD1C2015F0EB
:10F42000E3F8064630B11C2115F0E6FA4FF0FF3341
:10F430003361ECE7094B0293094B0193094B0093AD
:10F44000094B4FF401720949032014F04FFFFEE706
:10F450000123D6E733E8000888220020A0F704083B
:10F4600020010508D4F704085C01050824000508FC
:10F4700010B4B1F900400481B1F902404481B1F9FE
:10F4800004408481B1F90610C18102759DF8042001
:10F4900042750382BDF908304382034B03600323A6
:10F4A000037110BC704700BF67DD000810B504464B
:10F4B000382115F0A1FA4FF6FF73A380E3804FF0D7
:10F4C00000036381FF2323730222A2734FF0000223
:10F4D000E283A285084A6261E370A37684F82A3049
:10F4E00084F8223084F8363094F823300F2262F307
:10F4F000450384F8233010BDC84E050810B5D388E5
:10F5000054881B1B9BB201331BB2002B09DD93886F
:10F5100014881B1B9BB201331BB2002B01DDC36897
:10F52000984710BD30B587B098B1846AF4B10F9D8B
:10F5300005950E9D04959DF8345003950C9D0295FC
:10F54000BDF92C500195BDF928500095A04707B092
:10F5500030BD0B4B02930B4B01930B4B00930B4BAA
:10F5600029220B49032014F0C1FEFEE7094B00934A
:10F57000064B2B220649022014F0B8FEE7E700BF35
:10F58000D0010508ECFD0408D4F7040804020508BE
:10F5900088010508E0010508F0B585B00446BDF80E
:10F5A00028500B9F1E4613B9B5F5807F72D00023FB
:10F5B000ADF80030ADF80230013909B2ADF80410F1
:10F5C000ADF80630ADF80830013A12B2ADF80A20B5
:10F5D000ADF80C10ADF80E203B462A463146684681
:10F5E00014F082F93B462A46314601A814F07CF912
:10F5F0003B462A46314602A814F076F93B462A4695
:10F60000314603A814F070F9BDF90C30BDF908506B
:10F610001A46AB42A8BF2A46BDF90410BDF9000046
:10F620000E468142A8BF0646B242A8BF324692B2F9
:10F63000023A2280AB42B8BF2B468142B8BF014696
:10F640008B42B8BF0B469BB20233A380BDF90E308C
:10F65000BDF90A501A46AB42A8BF2A46BDF90610AA
:10F66000BDF902000E468142A8BF0646B242A8BFBD
:10F67000324692B2023A6280AB42B8BF2B46814218
:10F68000B8BF01468B42B8BF0B469BB20233E38042
:10F6900005B0F0BD0380438001398180013AC2800A
:10F6A000F6E70000F0B583B004460D46164613F0A9
:10F6B000A3FC074633462A462146154800F042FC83
:10F6C00060B1134B00229A62DB69CBB1104BDB694E
:10F6D000E3B90F480123C36103B0F0BD0D4B0093A4
:10F6E0000D4B7D220D49022014F000FE084C2C2108
:10F6F000204615F081F94FF00043A3620020EBE7AC
:10F70000384613F087FC024BD861DFE70048E3E797
:10F71000A02300205C0205088802050818020508DD
:10F720007047000070B586B00D4614460846FDF7D8
:10F7300030FE0646E8B92B7803F01F03043BDBB22A
:10F74000102B13D82B68C3F38A23226863F3942207
:10F7500022606B88C3F34A13628863F34F1262809E
:10F760002A78237862F3040323700126304606B01A
:10F7700070BD012810D002283ED12368012666F30F
:10F7800094232360C3F30F4266F34F1262800B226F
:10F7900062F304032370E9E7284614F0B7FC1C4920
:10F7A000F0F752FF08B10026E0E70222294603A83D
:10F7B00014F024FC40B1237803F01F031C3303F042
:10F7C0001F03102BD2D9EEE702AB0422214603A877
:10F7D00014F089FB054603A814F066FB15B9029BDB
:10F7E000042BE8D00B4B00930B4B40F229120B4932
:10F7F000022014F07BFDD6E7094B0093064B4FF433
:10F800009D720649022014F071FD0026AEE700BF8C
:10F810009C020508E4020508EC040508A00205089E
:10F820000803050838B54D6A85B10C460B7C012BE1
:10F830000DD0E86808B114F0F5FE286908B114F09D
:10F84000F1FE284614F0EEFE0023636238BD284620
:10F8500014F02AFBEDE700002DE9F04788B00546DB
:10F860000C46087C012819D018B94B689B68002BFE
:10F870005AD0237D03F01F00031FDBB2022B4BD9AC
:10F880000E2849D0C31FDBB2032B50D9A0F10B03C4
:10F89000DBB2022B00F20181012045E0486814F040
:10F8A00035FC8649F0F7D0FE08B100203CE002228A
:10F8B000616805A814F0A2FB28B9636A6BB1616A9C
:10F8C00005AA0C2325E07E4B00937E4B4FF4A872D3
:10F8D0007D49022014F00AFDE7E7142014F084FEAD
:10F8E000606218B1142115F087F8E8E7774B0293AE
:10F8F000774B0193774B0093724B40F2571272494A
:10F90000032014F0F3FCFEE712F8010B01F8010BE1
:10F91000013B002BF8D1ACE7237C002B40F0CC80DE
:10F9200063689B68A361012008B0BDE8F087FDF71C
:10F93000FFFC82464FF0010909FA00F9636ADBB166
:10F94000D4F82480022000FA0AF014F04DFEC8F822
:10F950000C0040B3484614F047FEC8F810000028D9
:10F960002FD0D8F80C30002B39D0237C012B45D078
:10F9700063689F6800238CE0142014F035FE6062F9
:10F9800018B1142115F038F8DAE7504B0293504BB8
:10F990000193504B00934B4B4FF4C1724A490320E3
:10F9A00014F0A4FCFEE7494B02934B4B0193494BE7
:10F9B0000093444B4FF4C6724349032014F096FC65
:10F9C000FEE7424B0293454B0193424B00933D4B64
:10F9D0004FF4C7723C49032014F088FCFEE7404B0B
:10F9E0000093384B4FF4C8723749032014F07EFC63
:10F9F00021462846FFF716FF002095E745460022DE
:10FA00000421404614F092FA002422E0002304224C
:10FA100005A9284614F067FA9DF816009DF81530E0
:10FA20009DF81420D8F80C105E09C008D208C3F362
:10FA3000820366F3020760F3C70762F30C2763F3E0
:10FA40004F3721F81470D8F810309DF817201A5548
:10FA500001344C45DAD31EE007EB83018D784A78F8
:10FA600017F82340D8F80C004FEA521CED08E408C0
:10FA7000C2F382026CF3020665F3C70664F30C2638
:10FA800062F34F3620F81360D8F81020C978D154AB
:10FA900001334B45E0D3012046E721462846FFF7D6
:10FAA000C1FE104B0093074B4FF4DB720649022056
:10FAB00014F01CFC002037E7012035E79C02050804
:10FAC000300305080C050508A0020508A0F7040886
:10FAD0005C030508D4F704087403050890030508BF
:10FAE000A8030508D40305082DE9F04385B00646B0
:10FAF000894614469846476A007D00F01F00FDF7CE
:10FB000017FC05467169C1F38A2101FB049101FBD1
:10FB100000F1C91000220431384614F007FAE8B9A0
:10FB20000446C5F3C70505FB08F50023039303ABA3
:10FB30002A460C99384614F0D6F910B9039BAB420B
:10FB400017D00D4B00930D4B40F211220C490220AF
:10FB500014F0CCFB204605B0BDE8F083094B0093C0
:10FB6000064B40F20A220649022014F0BFFB002493
:10FB7000F0E70124EEE700BF24040508500505085E
:10FB8000A0020508000405082DE9F04F8BB00746D8
:10FB90000C4692461E46149D4FF47F43ADF8243028
:10FBA000A3F5AD03A3F528530893594B0DF1100CA1
:10FBB0000FCB8CE80F0038890023B34209DA82B2F8
:10FBC00003EB43016A540131120A6A5401331BB238
:10FBD000F3E7387D00F01F00FDF7AAFB81464FF0E8
:10FBE000010808FA00F81FFA88F808F1FF381FFA30
:10FBF00088F83B7D03F01F030B3B032B47D8DFE85E
:10FC000003F0021E2E3D7B69C3F38A200730C0102B
:10FC1000E3100AFB003AE44304F007040DF1240B5F
:10FC20007B6A0293039014F047FD019000286DD089
:10FC30003B7CABBB7B689B689A44002246E07B69B7
:10FC4000C3F38A2003308010A3100AFB003AA4B249
:10FC5000E44304F0030464000DF1200BE0E77B694A
:10FC6000C3F38A200130401063100AFB003A14F0FD
:10FC7000010F11D104240DF1100BD1E77869C0F305
:10FC80008A2318460AFB034A0024A346C8E7002437
:10FC9000A2462046A346C3E700240DF1100BBFE7A0
:10FCA00000220AF10401029814F040F90023039A9B
:10FCB000DDF804A05146029814F015F9BDE7C9F12A
:10FCC000080464B20AF1010A013212B2B24216DA31
:10FCD0009AF80030234103EA0803DBB2397D01F0D2
:10FCE0001F010E2901D01BF8033002EB4201023143
:10FCF0006B54A4EB090464B2002CE5DADFE7019849
:10FD000014F078FD01200BB0BDE8F08F0020FAE779
:10FD1000B89803082DE9F04F83B082460C4693460D
:10FD200099460C9D007D00F01F00FDF701FB804609
:10FD300001268640B6B2013EB6B29AF8143003F0FE
:10FD40001F03073B032B4ED8DFE803F002213242AA
:10FD5000DAF81430C3F38A200730C010E3100BFB2D
:10FD6000003B0BF1080BE44304F00704DAF82470BD
:10FD7000019014F0A1FC0090002874D09AF8103083
:10FD8000C3BBDAF804309B689B44002048E0DAF8F3
:10FD90001430C3F38A2003308010A3100BFB003B08
:10FDA0000BF1100BA4B2E44304F003046400DDE79C
:10FDB000DAF81430C3F38A200130401063100BFBD3
:10FDC000003B0BF1400B14F0010F11D10424CDE7DF
:10FDD000DAF81400C0F38A2318460BFB034B0BF52B
:10FDE000806B0024C2E74FF0000B5C465846BDE72D
:10FDF0000024BBE700220BF10401384614F096F80A
:10FE00000023019ADDF800B05946384614F06BF82B
:10FE1000BBE7C8F1080464B20BF1010B013000B27A
:10FE2000484519DA9BF8003023413340DBB2FA68C9
:10FE300032F8131000EB4002A95402F1010C090A38
:10FE400005F80C1039690232CB5CAB54A4EB080402
:10FE500064B2002CE2DADCE7009814F0CBFC01205D
:10FE600003B0BDE8F08F0020FAE7000030B583B0A2
:10FE7000084611461A46BDF91830047D04F01E05E7
:10FE8000042D11D004F01F04062C0DD0A4F10B0595
:10FE9000EDB2032D13D9073CE4B2032C14D8079C10
:10FEA0000094FFF737FF03E0047C012C02D0002010
:10FEB00003B030BD079C0094FFF716FEF8E7079CDF
:10FEC0000094FFF761FEF3E7054B0093054B4FF4F9
:10FED000EF720549022014F009FA0020E8E700BF9C
:10FEE000480405082C050508A0020508F8B50646D3
:10FEF0000F460421384614F07FFDEEB13046FDF781
:10FF000048FA054608B9B368BBB10D4814F06BF95F
:10FF10000446002504E02146094814F06CF9044623
:10FF20005CB12368002BF6D03A463146204698470C
:10FF300005460128EFD100E000252846F8BD00BFA6
:10FF4000CC2300202DE9F04184B0064688461746B0
:10FF50001C46282114F050FDB8F1000F60D0404637
:10FF6000FDF717FA054618B9D8F80830002B4FD01E
:10FF700037813574F460012D07D0C6F80480294814
:10FF800014F031F9044600251DE04046F0F7D8FC96
:10FF9000013014F029FB706018B1414623F0A8FD30
:10FFA000EDE7214B0293214B0193214B0093214B11
:10FFB0007D222149032014F099F9FEE721461948D2
:10FFC00014F019F9044604B32368002BF6D06268D4
:10FFD000002AF3D006F114073A46414620469847D6
:10FFE00005460128EAD134606368314620469847C7
:10FFF000054601280CD00421384614F0FDFC0023EE
:020000040801F1
:100000003362B3617362F361D8E7337C012B03D0B1
:10001000284604B0BDE8F081706814F003FBF7E7F0
:100020000025F5E7CC230020A0F704088404050888
:10003000D4F70408C0040508A002050870B582B012
:1000400004460068856845B1069E019600931346F4
:100050000A462146A84702B070BD0020FBE710B554
:100060000446006830B1C3680BB121469847237C31
:10007000012B00D010BD606814F0D4FA0023636037
:10008000F8E7000010B584B00B4814F06EF830B1FA
:100090000446142114F0B0FC204604B010BD074BF8
:1000A0000293074B0193074B0093074BD02207495C
:1000B000032014F01BF9FEE7CC230020A0F704086E
:1000C00098040508D4F70408D4040508A00205081C
:1000D000016070474160704781607047C160704740
:1000E00010B584B01421124814F037F8FFF7CAFF96
:1000F00088B104460F49FFF7EBFF0F492046FFF791
:10010000E9FF0E492046FFF7E7FF0D492046FFF7BC
:10011000E5FF04B010BD0B4B02930B4B01930B4B4F
:1001200000930B4B40220B49032014F0DFF8FEE74D
:10013000CC23002025F7000859F800086DFE0008C0
:1001400025F80008A0F7040898040508D4F7040867
:10015000A8040508A002050870472DE9F04791465C
:100160009846BDF924A00A9AB3F90240B3F90030C9
:1001700004FB093601EB4606B2F90250B2F9002041
:1001800005FB0A22089D05EB4205B8F804709BB2F6
:10019000FF1ABFB201373FB27F00B8F90610A14283
:1001A0000BDB3A462946304614F06CFB06EB490659
:1001B00005EB4A05013424B2EFE7BDE8F087000003
:1001C00010B50C464021204614F016FC0B4B236161
:1001D0000B4BE3600B4BE3620B4BE3610B4B636137
:1001E0000B4B23620B4B63620B4BA3620B4B2363E2
:1001F0000B4B63630B4BE36310BD00BF710B010836
:10020000395E01086957010851330108BB2C010808
:10021000953B0108413D01081D6401085901010891
:100220005B0101082F24010870B582B00446836980
:100230009D6843892BB982891AB9C0882289904266
:100240000ED31BB1A289002A40F0CD80002B56D0DE
:10025000A389002B00F08D80A3699D6002B070BD62
:1002600023685E8800B214F09BF8B4F90430B4F946
:100270000E209B1A03FB00F306EBE333ADF80230CC
:1002800023681E88E0885A3000B214F089F8B4F967
:10029000043003FB00F306EBE336ADF8046023689B
:1002A0005E88B4F9080014F07BF8B4F9043003FB5D
:1002B00000F306EBE336ADF8066023681E8820895C
:1002C0005A3000B214F06CF8B4F90430B4F90E20CE
:1002D0009B1A03FB00F306EBE333ADF800302A462C
:1002E0006946684613F018F90028B5D0A369C3F829
:1002F00008D062692169A069FFF700F9ACE72368BB
:10030000B3F90020ADF800205A88A1880A44ADF85E
:1003100006205E88B4F9060014F042F8B4F90430FF
:10032000B4F90E209B1A03FB00F306EBE333ADF8A0
:10033000023023681E88E0885A3000B214F030F88A
:10034000B4F9043003FB00F306EBE336ADF80460C8
:100350002A466946684613F0DFF800283FF478AF74
:10036000A369C3F808D062692169A069FFF7C6F8DC
:100370006EE723681A88A1880A44ADF80420B3F90F
:100380000220ADF802205E88B4F9080014F008F8E5
:10039000B4F9043003FB00F306EBE336ADF8066076
:1003A00023681E8820895A3000B213F0F9FFB4F98F
:1003B0000430B4F90E209B1A03FB00F306EBE33381
:1003C000ADF800302A466946684613F0A5F80028C3
:1003D0003FF442AFA369C3F808D062692169A069FC
:1003E000FFF78CF838E793420AD0022B2FD0032B6B
:1003F00030D0032B7FF430AF012A7FF42DAF03E020
:100400002089E1888842F0D22368B3F90020ADF852
:100410000020B3F90220ADF802201A88A1880A440E
:10042000ADF804205B880B44ADF806302A466946D7
:10043000684613F071F800283FF40EAFA369C3F8C3
:1004400008D062692169A069FFF758F804E7012A1A
:10045000CDD1D9E7022ACCD1D6E770B582B0044617
:1004600083699D684389012B14D0012B67D0A28931
:10047000012A64D0934200F0DD8013B9022A00F013
:10048000DE8013B9032A00F0DA80032B5CD1022A44
:100490005AD1D4E08289012AE7D1C08822899042CA
:1004A000E3D223685E8800B213F07AFFB4F9043017
:1004B00003FB00F306EBE336ADF8066023681E8805
:1004C000E0885A3000B213F06BFFB4F90430B4F98D
:1004D0000E209B1A03FB00F306EBE333ADF8043068
:1004E00023685E88B4F9080013F05AFFB4F90430A9
:1004F000B4F90E209B1A03FB00F306EBE333ADF8CF
:10050000023023681E8820895A3000B213F048FF59
:10051000B4F9043003FB00F306EBE336ADF80060FA
:100520002A466946684612F0F7FF68B1A369C3F826
:1005300008D062692169A069FEF7E0FF04E0012BA1
:1005400006D0A389012B3CD0A3699D6002B070BD89
:1005500023681A88A188521AADF80020B3F9022046
:10056000ADF802205E88B4F9060013F019FFB4F963
:10057000043003FB00F306EBE336ADF806602368B6
:100580001E88E0885A3000B213F00AFFB4F9043034
:10059000B4F90E209B1A03FB00F306EBE333ADF82E
:1005A00004302A466946684612F0B6FF0028C8D0D3
:1005B000A369C3F808D062692169A069FEF79EFFAC
:1005C000BFE723681A88013AADF804205A88A18849
:1005D0000A44ADF806205E88B4F9080013F0E0FE86
:1005E000B4F90430B4F90E209B1A03FB00F306EBB8
:1005F000E333ADF8023023681E8820895A3000B2F8
:1006000013F0CEFEB4F9043003FB00F306EBE3363F
:10061000ADF800602A466946684612F07DFF002862
:1006200092D0A369C3F808D062692169A069FEF776
:1006300065FF89E72089E1888842BFF41EAF2368FF
:100640001A88A188521AADF80020B3F90220ADF83B
:1006500002201A88013AADF804205B880B44ADF8FB
:1006600006302A466946684612F056FF00283FF4D5
:100670006BAFA369C3F808D062692169A069FEF76E
:100680003DFF61E770B582B0044683699D68438988
:10069000022B13D0022B66D0A289022A63D0934288
:1006A00000F0DC8013B9032A00F0DD80012B00F09C
:1006B000FD80012B5CD1002A5AD1D4E08289022A24
:1006C000E8D1C08822899042E4D223681E885A303B
:1006D00000B213F065FEB4F9043003FB00F306EB3F
:1006E000E336ADF8006023685E88B4F9060013F0C5
:1006F00057FEB4F90430B4F90E209B1A03FB00F343
:1007000006EBE333ADF8063023685E88B4F90800E1
:1007100013F046FEB4F9043003FB00F306EBE336B6
:10072000ADF8026023681E8820895A3000B213F0A9
:1007300037FEB4F90430B4F90E209B1A03FB00F322
:1007400006EBE333ADF804302A466946684612F0FA
:10075000E3FE68B1A369C3F808D062692169A069A2
:10076000FEF7CCFE04E0022B06D0A389022B3CD07E
:10077000A3699D6002B070BD23681A88013AADF884
:1007800004205A88A188521AADF802201E88E088F9
:100790005A3000B213F004FEB4F9043003FB00F346
:1007A00006EBE336ADF8006023685E88B4F9060016
:1007B00013F0F6FDB4F90430B4F90E209B1A03FBD4
:1007C00000F306EBE333ADF806302A466946684687
:1007D00012F0A2FE0028C8D0A369C3F808D062694D
:1007E0002169A069FEF78AFEBFE723681A88A188FD
:1007F000521AADF800205A88013AADF806201E883A
:1008000020895A3000B213F0CBFDB4F90430B4F9AA
:100810000E209B1A03FB00F306EBE333ADF8043024
:1008200023685E88B4F9080013F0BAFDB4F9043007
:1008300003FB00F306EBE336ADF802602A46694697
:10084000684612F069FE002892D0A369C3F808D068
:1008500062692169A069FEF751FE89E72089E18874
:100860008842BFF41FAF23681988A088091AADF821
:1008700000105A88121AADF802201A88013AADF811
:1008800004205B88013BADF806302A46694668467D
:1008900012F042FE00283FF46BAFA369C3F808D002
:1008A00062692169A069FEF729FE61E7032A7FF4E6
:1008B00000AFD8E770B582B0044683699D6843896C
:1008C000032B12D0032B65D0A289032A62D0934256
:1008D00000F0DB80022B00F00081012B00F0008192
:1008E000022B5CD1012A5AD1D4E08289032AE9D1B2
:1008F000C08822899042E5D223681E885A3000B20F
:1009000013F04EFDB4F90430B4F90E209B1A03FB2A
:1009100000F306EBE333ADF8003023685E88B4F9EA
:10092000060013F03DFDB4F9043003FB00F306EBC1
:10093000E336ADF8026023681E8820895A3000B281
:1009400013F02EFDB4F9043003FB00F306EBE3369D
:10095000ADF8046023685E88B4F9080013F020FD48
:10096000B4F90430B4F90E209B1A03FB00F306EB34
:10097000E333ADF806302A466946684612F0CCFDEE
:1009800068B1A369C3F808D062692169A069FEF75C
:10099000B5FD04E0032B06D0A389032B3CD0A3694B
:1009A0009D6002B070BD23681A88A1880A44ADF822
:1009B00004205A88013AADF806201E88E0885A3093
:1009C00000B213F0EDFCB4F90430B4F90E209B1A18
:1009D00003FB00F306EBE333ADF8003023685E88D9
:1009E000B4F9060013F0DCFCB4F9043003FB00F3A7
:1009F00006EBE336ADF802602A466946684612F017
:100A00008BFD0028C8D0A369C3F808D062692169AA
:100A1000A069FEF773FDBFE72368B3F90020ADF8C6
:100A200000205A88A188521AADF802201E88208919
:100A30005A3000B213F0B4FCB4F9043003FB00F3F5
:100A400006EBE336ADF8046023685E88B4F908006D
:100A500013F0A6FCB4F90430B4F90E209B1A03FB82
:100A600000F306EBE333ADF806302A4669466846E4
:100A700012F052FD002892D0A369C3F808D0626931
:100A80002169A069FEF73AFD89E72089E18888425B
:100A9000BFF420AF2368B3F90020ADF800205988D7
:100AA000A288891AADF8021019880A44ADF804200A
:100AB0005B88013BADF806302A466946684612F06D
:100AC0002BFD00283FF46BAFA369C3F808D062691F
:100AD0002169A069FEF712FD61E7002ADAD0FCE681
:100AE000002AD7D0FCE62DE9F84381461E4655087A
:100AF00082F0010707F00107A1EB5208C0F15A008C
:100B000000B213F04DFC00FB08F4E411484613F06A
:100B100047FC00FB08F1C911002C15DD7F3CC4F334
:100B20000F24631B17FA83F333802C44B48000290D
:100B300014DD7F39C1F30F214B1B17FA83F7778040
:100B40002944F180BDE8F8837F34C4F30F24631B8C
:100B500033802C44A4B2E41BB480E8E77F31C1F3B6
:100B60000F214B1B73800D44ADB2EF1BF780E9E7FB
:100B70002DE9F04FCDB01F46BDF85851BDF85C418E
:100B80000B7B022B40F2E78081460E469046B1F97E
:100B900002A0BAF1000F00F0DE80A54200F0DB8079
:100BA000BA4501DD0FFA87FA3EA8FEF77FFC737B9A
:100BB000C3F301038DF8FA30B368002B42D0002252
:100BC0008DF8FB204293337B8DF81231B8F800107A
:100BD000A1EB070EADF8F0E0B8F80200C21BADF8CB
:100BE000F220394489B201398BB2ADF8F41038449F
:100BF00080B2013881B2ADF8F600B6F802C01CFA36
:100C00008EF080B2ADF8E8001CFA82F292B2ADF834
:100C1000EA20A3EB0C039BB2ADF8EC30A1EB0C0186
:100C200089B2ADF8EE101B1A9BB201331BB2002B38
:100C30001CDD8B1A9BB201331BB2002B09DC4FF079
:100C4000FF3B15E0337B8DF8FB303388ADF8FC308B
:100C5000BCE7012347F6FF723AA934A8FEF748FB28
:100C6000002134A8FEF7E6F8834601E04FF0FF3B91
:100C7000002347F6FF723CA92EA8FEF739FB00219E
:100C80002EA8FEF7D7F8039005F5B473A3420AD057
:100C900004F5B4739D4206D0B5F5B47F20D3A5F515
:100CA000B475ADB2F8E747F6FF73ADF8F8303CAA7B
:100CB0003EA94846FEF722FC0398FEF711F9BBF166
:100CC000FF3F06D12EA8FEF737F934A8FEF734F916
:100CD00041E05846FEF704F9F4E7A4F5B474A4B271
:100CE000B4F5B47FF9D22BB2069322B207920092E8
:100CF000B8F90220B8F9001013A8FEF76DFA002128
:100D000013A8FEF797F80490A54227D2631BC3F5FA
:100D1000B473D9F8082005923C2B01DD0A2F1FD8A7
:100D20003CAA3EA94846FEF7E9FB13A8FEF704F9E2
:100D30002EA8FEF701F934A8FEF7FEF80498FEF796
:100D4000CFF80398FEF7CCF8BBF1FF3F34D1737BAB
:100D500013F0040F34D14DB0BDE8F08F2B1BD8E752
:100D6000CDF83080ADF83470ADF83650ADF838407D
:100D70006A085649A1FB0232C2F34112ADF83A208B
:100D80006308A1FB0323C3F34113ADF83C30ADF876
:100D90003EA03EAB10933CAB1193CDF848900CA80D
:100DA000FFF742FA0CA8FFF758FB0CA8FFF76AFC04
:100DB0000CA8FFF77FFDB8E75846FEF791F8C6E7A5
:100DC0003FB25FFA8AFA08AB524639460698FFF7F7
:100DD0008AFEB8F80030BDF820201A44ADF8202073
:100DE000BDF824201344ADF82430B8F80230BDF823
:100DF00022201A44ADF82220BDF826201344ADF875
:100E0000263008AA05990AA812F086FB38BB08AB61
:100E1000524639460798FFF766FEB8F80030BDF82D
:100E200020201A44ADF82020BDF824201344ADF84A
:100E30002430B8F80230BDF822201A44ADF8222040
:100E4000BDF826201344ADF8263008AA05990AA853
:100E500012F062FBF0B9059BC9F808307BE700236C
:100E600047F6FF7208A90CA8FEF742FA00210CA869
:100E7000FDF7E0FF04460AABC9F808303CAA3EA9DA
:100E80004846FEF73BFB2046FEF72AF80CA8FEF783
:100E900053F8BCE7002347F6FF7208A90CA8FEF739
:100EA00027FA00210CA8FDF7C5FF04460AABC9F8D4
:100EB00008303CAA3EA94846FEF720FB2046FEF734
:100EC0000FF80CA8FEF738F8C5E700BFB7600BB6FF
:100ED0002DE9F04F8BB006900D4607929A469DF88B
:100EE00050300893159EBDF958300993FBF7A4FEC6
:100EF00081467EB1AF882B88FF1ABFB201373FB25F
:100F0000EB886A889B1A9BB201331BB205934FF0A2
:100F1000000B48E0B5F902700597069FDDF81C80CC
:100F2000DDF820B002E0059B01330593B5F90630EA
:100F3000059A93423CDBB5F90040B5F90430A34271
:100F4000F1DBD9F80000C669CDF808B0ADF804A00F
:100F5000BDF91430009323B242463946B0470134FC
:100F6000EBE70134BC421ADA325D002AF9D0D9F835
:100F70000000D0F81C802B8803EB040C69885944CE
:100F8000089B02FB03F2120A0292ADF804A009B218
:100F900000910FFA8CF3079A0699C047E1E7099B85
:100FA0001E440BF1010B059B9B4501DA0024D9E798
:100FB0000BB0BDE8F08F2DE9F04F8BB004900D46DB
:100FC00005921F46BDF9503008939DF854300693A2
:100FD000DDF85880BDF95C300993FBF72DFE8246A1
:100FE000AE882B88F61AB6B2013636B2EB886A881C
:100FF0009B1A9BB201331BB20793B8F1000F23D0A9
:101000004FF0000BB9464CE0089B07EB430709F192
:101010000109079B994549DA00244445F4DADAF8D6
:101020000000C6692B8823446A884A44CDF808B07A
:1010300037F81410ADF8041012B200921BB2059AE2
:101040000499B0470134E8E74FF00009B046DDF8F5
:1010500018B0DEE70134B4421CDA18F80420002A84
:10106000F8D0DAF80000C7692B8803EB040C698814
:101070005944069B02FB03F2120A029239F814202B
:10108000ADF8042009B200910FFA8CF3059A049987
:10109000B847DFE7099B9844089B09EB43090BF12C
:1010A000010B079B9B4501DA0024D4E70BB0BDE898
:1010B000F08F00002DE9F04F89B0054606929B465F
:1010C0009DF848300393139FBDF9503007939DF866
:1010D0005420B1F804800B88A8EB03081FFA88F8A5
:1010E00008F101080FFA88F8CB8849885B1A9BB28F
:1010F00001331BB20593022A0FD0032A10D0012A14
:101100001BD0414B0093414B4FF4F67240490220F3
:1011100013F0ECF809B0BDE8F08FDFF8F8A001E0BB
:10112000DFF8F4A067B12B8819463B78FC2B31D847
:10113000039A03FB02F31A0A2DE0DFF8E0A0F1E7BF
:101140002E88039C224631465846D0474FF000096E
:10115000CDF80C90A14617E035F814604A463146A8
:101160005846D04738800134444507DAB3B205EB1E
:10117000440735F814209342EED1F3E7069B05EBC4
:101180004305039B01330393039B059A9342C1DA02
:101190000024E9E7039A0C465846D04700230493FD
:1011A000A4462BE01FFA8CF135F814E0714516D1F6
:1011B00008E0039A35F816105846D04799F80030E1
:1011C00035F816C025F81600013444450EDA2646D7
:1011D00007EB04093A5D002AF6D09A42E2D0FC2AD5
:1011E000E7D8039B02FB03F2120AE3E7069A05EB3A
:1011F0004205079A1744049A01320492049A059909
:101200008A4287DA0024E0E7C4050508EC050508F2
:101210007805050821220108092301083321010866
:101220002DE9F04F89B0064604929846BDF9483042
:1012300005939DF84CA0DDF85090BDF9543007930C
:101240009DF858208F880B88FF1ABFB201373FB234
:10125000CB8849885B1A9BB201331BB20693022AE2
:101260000FD0032A10D0012A16D02F4B00932F4BFA
:1012700040F212322E49022013F038F809B0BDE8CE
:10128000F08FDFF8B0B001E0DFF8ACB0B9F1000FDB
:101290001CD00023039340E0DFF8A0B0F6E75246ED
:1012A00036F8141038F81400A84726F81400013452
:1012B000BC42F4DB049B06EB4306059B08EB4308AA
:1012C00009F10109D945D9DA0024F1E70025A94639
:1012D0005D46DDF818B0F5E7524636F8151038F8D7
:1012E0001500D84726F815000134BC420ADA254615
:1012F00019F80420002AF7D0FC2AEDD802FB0AF2E4
:10130000120AEAE7049B06EB4306059B08EB430839
:10131000079B9944039B01330393039B069A9342D3
:10132000ACDA0024E1E700BFC4050508FC050508A8
:101330007805050821220108092301083321010845
:101340002DE9F04F8DB0044606921D469DF858B029
:10135000179ABDF9603007938B880888A3EB000AC1
:101360001FFA8AFA0AF1010A0FFA8AFACDF808A0E0
:10137000CB8849885B1A9BB201331BB205939AB1A3
:101380002B0413FA85F30493BBF1FC0F40F2D282D5
:10139000AAF10403019300230393ADF82070ADF884
:1013A0002260BDF826B0B8E2BBF1FC0F5FD84FF069
:1013B0000001C5F3C4030BFB03F3803303EB0322EB
:1013C00003EBC213C3F3C4530F4663F3C70705F01F
:1013D0000702C5F3423303EBC20303FB0BF3803375
:1013E00003EB032203EBC213C3F3826262F302072F
:1013F000C3F3C25363F34F37C5F3042303FB0BF36B
:10140000803303EB032203EBC213C3F3C45363F330
:101410000C27C5F3C40303FB0BF3ADF8283005F02C
:101420000702C5F3423303EBC2030BFB03F3ADF832
:101430002A30C5F304230BFB03F3ADF82C306FEA1D
:101440000B00C0B20026DDF808C0DDF814E0DDF8BE
:10145000188058E052462946204612F0FBFA04EB69
:1014600048040136BE42F5DB0DB0BDE8F08F002622
:10147000059FDDF81880F5E734F81210BDF82870E4
:10148000C1F3C40300FB0373803303EB032703EBB7
:10149000C713C3F3C45363F3C709BDF82A7001F03F
:1014A000070AC1F3423303EBCA0303FB0073803323
:1014B00003EB032703EBC713C3F3826767F3020948
:1014C000C3F3C25363F34F39BDF82C70C1F3042347
:1014D00003FB0073803303EB032703EBC713C3F352
:1014E000C45363F30C294F462F800132624507DA5B
:1014F0008BB204EB420534F812A05345BCD1F3E79C
:1015000004EB480401367645AEDA0022EEE7278880
:10151000C5F3C401C7F3C408C3F1FF0909FB08F808
:1015200003FB0181803101EB012801EBC811C1F3FC
:10153000C45161F3C70605F00701C5F3423808EB53
:10154000C10107F0070AC7F3423808EBCA0808FBD5
:1015500009F801FB0381803101EB012801EBC8117F
:10156000C1F3826868F30206C1F3C25161F34F36DA
:10157000C5F30421C7F3042707FB09F901FB039313
:10158000803303EB032903EBC913C3F3C45363F3A1
:101590000C262680013202340130584580F25681F3
:1015A00012F0030F04D01378FF2BB0D12580F1E7A0
:1015B000ADF82260BDF826B0BDF824600BE014F051
:1015C000030F00F034812580049BC4F80230E580CD
:1015D000083404320430019B984200F33E811368C2
:1015E000B3F1FF3FEBD0002B00F02D811378FF2BE0
:1015F00000F021812788C5F3C401C7F3C408C3F1F3
:10160000FF0909FB08F803FB0181803101EB012888
:1016100001EBC811C1F3C45161F3C70E05F0070116
:10162000C5F3423808EBC10107F0070AC7F3423897
:1016300008EBCA0808FB09F801FB0381803101EBC4
:10164000012801EBC811C1F3826868F3020EC1F3EF
:10165000C25161F34F3EC5F30421C7F3042707FBD2
:1016600009F701FB0377803707EB072107EBC11769
:10167000C7F3C45767F30C2EA4F800E05378FF2B90
:1016800000F0DB806788C5F3C401C7F3C408C3F169
:10169000FF0909FB08F803FB0181803101EB0128F8
:1016A00001EBC811C1F3C45161F3C70C05F0070188
:1016B000C5F3423808EBC10107F0070AC7F3423807
:1016C00008EBCA0808FB09F801FB0381803101EB34
:1016D000012801EBC811C1F3826868F3020CC1F361
:1016E000C25161F34F3CC5F30421C7F3042707FB44
:1016F00009F701FB0377803707EB072107EBC117D9
:10170000C7F3C45767F30C2CA4F802C09378FF2BDF
:1017100000F09580A788C5F3C401C7F3C408C3F1DE
:10172000FF0909FB08F803FB0181803101EB012867
:1017300001EBC811C1F3C45161F3C70605F00701FD
:10174000C5F3423808EBC10107F0070AC7F3423876
:1017500008EBCA0808FB09F801FB0381803101EBA3
:10176000012801EBC811C1F3826868F30206C1F3D6
:10177000C25161F34F36C5F30421C7F3042707FBB9
:1017800009F701FB0377803707EB072107EBC11748
:10179000C7F3C45767F30C26A680D378FF2B50D02D
:1017A000E788C5F3C401C7F3C408C3F1FF0909FB07
:1017B00008F803FB0181803101EB012801EBC8111E
:1017C000C1F3C45161F3C70B05F00701C5F34238FB
:1017D00008EBC10107F0070AC7F3423808EBCA0853
:1017E00008FB09F801FB0381803101EB012801EBC3
:1017F000C811C1F3826868F3020BC1F3C25161F3EF
:101800004F3BC5F30421C7F3042707FB09F701FB8E
:101810000377803707EB072107EBC117C7F3C457DE
:1018200067F30C2BA4F806B004320834D2E6049B0C
:1018300023606360CCE6258020E7658066E7A580AD
:10184000ABE7E580F0E704320834C3E6ADF8226088
:10185000BDF826B0BDF82460BDE6ADF82460BDF843
:10186000207045E02688C5F3C401C6F3C408C3F15F
:10187000FF0909FB08F803FB0181803101EB012816
:1018800001EBC811C1F3C45161F3C70705F00701AB
:10189000C5F3423808EBC10106F0070AC6F3423827
:1018A00008EBCA0808FB09F801FB0381803101EB52
:1018B000012801EBC811C1F3826868F30207C1F384
:1018C000C25161F34F37C5F30421C6F3042606FB6A
:1018D00009F901FB0393803303EB032103EBC113ED
:1018E000C3F3C45363F30C27278001320234013061
:1018F000029B984204DA1378FF2BB3D12580F4E7DA
:10190000ADF82070069B02995B1A04EB4304079B19
:101910005B1A1A44039B01330393039B05998B4283
:10192000BFF6A2AD0020BDF82260ADF826B0DDF80C
:1019300008B032E62688B64600273946B946DDF8B3
:1019400008A0CDF804B06FE0019F00FB07F73F0A45
:10195000884257D0FF2F5CD034F813C0C5F3C406BB
:10196000CCF3C401C7F1FF0E0EFB01F107FB061615
:10197000803606EB062106EBC116C6F3C45666F3A5
:10198000C70805F00701C5F3423606EBC1010CF0AC
:10199000070BCCF3423606EBCB0606FB0EF601FB3B
:1019A0000761803101EB012601EBC611C1F38266AC
:1019B00066F30208C1F3C25161F34F38C5F3042145
:1019C000CCF3042C0CFB0EFE01FB07E1803101EB94
:1019D000012601EBC611C1F3C45161F30C28464640
:1019E00034F813E0014624F8136001320133534503
:1019F00011DA10780028F8D08842A9D0FF28A3D1A6
:101A0000019FA5E71FFA8EFC34F813B0DC45A1D185
:101A1000E9E72E46E4E7069B04EB4304079BA3EBB0
:101A20000A031A4409F10109059B9945BFF61CAD4B
:101A30000023DCE72DE9F04F8DB0044603921E46EB
:101A4000BDF9583004939DF85C80BDF9643006936D
:101A50008B880A889F1ABFB201373FB2BA46CB883B
:101A60004A889B1A9BB201331BB20593189B73B132
:101A7000B8F1FD0F40F256833B1F01930023029300
:101A80000797ADF822B0CA46ADF82850D5E2B8F1B4
:101A9000FC0F13D84FF00009DDF814B068E07A00AD
:101AA0003146204612F0EEFE04EB490406EB4A06EE
:101AB00001354545F3DB0DB0BDE8F08F0025DDF8BD
:101AC0001480DDF80C90DDF810A0F2E736F8103045
:101AD00034F81010C3F3C402C1F3C407C8F1FF0502
:101AE00005FB07F708FB0272803202EB022702EBCC
:101AF000C712C2F3C45262F3C70C03F00707C3F363
:101B0000423202EBC70201F0070EC1F3423707EB86
:101B1000CE0707FB05F702FB0872803202EB0227B3
:101B200002EBC712C2F3826767F3020CC2F3C25220
:101B300062F34F3CC3F30423C1F3042101FB05F519
:101B400003FB0853803303EB032203EBC213C3F3FD
:101B5000C45363F30C2C24F810C001305045B5DB9E
:101B6000039B04EB4304049B06EB430609F10109C4
:101B7000D945A0DA0020F1E736F813C034F8137025
:101B8000CCF3C400C7F3C40EC1F1FF0808FB0EFE7E
:101B900001FB00E0803000EB002E00EBCE10C0F324
:101BA000C45060F3C7050CF0070ECCF3423000EBD5
:101BB000CE0007F0070BC7F3423E0EEBCB0E0EFB39
:101BC00008FE00FB01E0803000EB002E00EBCE10A1
:101BD000C0F3826E6EF30205C0F3C25060F34F355E
:101BE000CCF3042CC7F3042707FB08F80CFB018196
:101BF000803101EB012801EBC811C1F3C45161F33D
:101C00000C2524F81350013201334B4580F2A0819A
:101C100012F0030F09D011780029F4D0FF29ABD1BD
:101C200036F8131024F81310EDE7ADF82850BDF87E
:101C300024B0BDF82A90009618E0009931F81310EE
