Archive member included to satisfy reference by file (symbol)

d:/arm_rt/gcc-arm-none-eabi-9-2020-q2-update-win32/bin/../lib/gcc/arm-none-eabi/9.3.1/thumb/v7e-m/nofp\libgcc.a(_aeabi_uldivmod.o)
                              CMakeFiles/f4xx_SPI.elf.dir/Core/Src/gui/lvgl/misc/lv_printf.c.obj (__aeabi_uldivmod)
d:/arm_rt/gcc-arm-none-eabi-9-2020-q2-update-win32/bin/../lib/gcc/arm-none-eabi/9.3.1/thumb/v7e-m/nofp\libgcc.a(_udivmoddi4.o)
                              d:/arm_rt/gcc-arm-none-eabi-9-2020-q2-update-win32/bin/../lib/gcc/arm-none-eabi/9.3.1/thumb/v7e-m/nofp\libgcc.a(_aeabi_uldivmod.o) (__udivmoddi4)
d:/arm_rt/gcc-arm-none-eabi-9-2020-q2-update-win32/bin/../lib/gcc/arm-none-eabi/9.3.1/thumb/v7e-m/nofp\libgcc.a(_dvmd_tls.o)
                              d:/arm_rt/gcc-arm-none-eabi-9-2020-q2-update-win32/bin/../lib/gcc/arm-none-eabi/9.3.1/thumb/v7e-m/nofp\libgcc.a(_aeabi_uldivmod.o) (__aeabi_ldiv0)
d:/arm_rt/gcc-arm-none-eabi-9-2020-q2-update-win32/bin/../lib/gcc/arm-none-eabi/9.3.1/../../../../arm-none-eabi/lib/thumb/v7e-m/nofp\libg.a(lib_a-assert.o)
                              CMakeFiles/f4xx_SPI.elf.dir/Core/Src/gui/lvgl/extra/libs/qrcode/qrcodegen.c.obj (__assert_func)
d:/arm_rt/gcc-arm-none-eabi-9-2020-q2-update-win32/bin/../lib/gcc/arm-none-eabi/9.3.1/../../../../arm-none-eabi/lib/thumb/v7e-m/nofp\libg.a(lib_a-errno.o)
                              CMakeFiles/f4xx_SPI.elf.dir/Core/Src/syscalls.c.obj (__errno)
d:/arm_rt/gcc-arm-none-eabi-9-2020-q2-update-win32/bin/../lib/gcc/arm-none-eabi/9.3.1/../../../../arm-none-eabi/lib/thumb/v7e-m/nofp\libg.a(lib_a-exit.o)
                              d:/arm_rt/gcc-arm-none-eabi-9-2020-q2-update-win32/bin/../lib/gcc/arm-none-eabi/9.3.1/../../../../arm-none-eabi/lib/thumb/v7e-m/nofp/crt0.o (exit)
d:/arm_rt/gcc-arm-none-eabi-9-2020-q2-update-win32/bin/../lib/gcc/arm-none-eabi/9.3.1/../../../../arm-none-eabi/lib/thumb/v7e-m/nofp\libg.a(lib_a-fiprintf.o)
                              d:/arm_rt/gcc-arm-none-eabi-9-2020-q2-update-win32/bin/../lib/gcc/arm-none-eabi/9.3.1/../../../../arm-none-eabi/lib/thumb/v7e-m/nofp\libg.a(lib_a-assert.o) (fiprintf)
d:/arm_rt/gcc-arm-none-eabi-9-2020-q2-update-win32/bin/../lib/gcc/arm-none-eabi/9.3.1/../../../../arm-none-eabi/lib/thumb/v7e-m/nofp\libg.a(lib_a-impure.o)
                              d:/arm_rt/gcc-arm-none-eabi-9-2020-q2-update-win32/bin/../lib/gcc/arm-none-eabi/9.3.1/../../../../arm-none-eabi/lib/thumb/v7e-m/nofp\libg.a(lib_a-exit.o) (_global_impure_ptr)
d:/arm_rt/gcc-arm-none-eabi-9-2020-q2-update-win32/bin/../lib/gcc/arm-none-eabi/9.3.1/../../../../arm-none-eabi/lib/thumb/v7e-m/nofp\libg.a(lib_a-init.o)
                              d:/arm_rt/gcc-arm-none-eabi-9-2020-q2-update-win32/bin/../lib/gcc/arm-none-eabi/9.3.1/../../../../arm-none-eabi/lib/thumb/v7e-m/nofp/crt0.o (__libc_init_array)
d:/arm_rt/gcc-arm-none-eabi-9-2020-q2-update-win32/bin/../lib/gcc/arm-none-eabi/9.3.1/../../../../arm-none-eabi/lib/thumb/v7e-m/nofp\libg.a(lib_a-memcmp.o)
                              CMakeFiles/f4xx_SPI.elf.dir/Core/Src/gui/lvgl/font/lv_font_loader.c.obj (memcmp)
d:/arm_rt/gcc-arm-none-eabi-9-2020-q2-update-win32/bin/../lib/gcc/arm-none-eabi/9.3.1/../../../../arm-none-eabi/lib/thumb/v7e-m/nofp\libg.a(lib_a-memcpy.o)
                              CMakeFiles/f4xx_SPI.elf.dir/Core/Src/gui/lvgl/extra/libs/qrcode/qrcodegen.c.obj (memcpy)
d:/arm_rt/gcc-arm-none-eabi-9-2020-q2-update-win32/bin/../lib/gcc/arm-none-eabi/9.3.1/../../../../arm-none-eabi/lib/thumb/v7e-m/nofp\libg.a(lib_a-memmove.o)
                              CMakeFiles/f4xx_SPI.elf.dir/Core/Src/gui/lvgl/extra/libs/qrcode/qrcodegen.c.obj (memmove)
d:/arm_rt/gcc-arm-none-eabi-9-2020-q2-update-win32/bin/../lib/gcc/arm-none-eabi/9.3.1/../../../../arm-none-eabi/lib/thumb/v7e-m/nofp\libg.a(lib_a-memset.o)
                              d:/arm_rt/gcc-arm-none-eabi-9-2020-q2-update-win32/bin/../lib/gcc/arm-none-eabi/9.3.1/../../../../arm-none-eabi/lib/thumb/v7e-m/nofp/crt0.o (memset)
d:/arm_rt/gcc-arm-none-eabi-9-2020-q2-update-win32/bin/../lib/gcc/arm-none-eabi/9.3.1/../../../../arm-none-eabi/lib/thumb/v7e-m/nofp\libg.a(lib_a-printf.o)
                              CMakeFiles/f4xx_SPI.elf.dir/Core/Src/bsp_flash.c.obj (printf)
d:/arm_rt/gcc-arm-none-eabi-9-2020-q2-update-win32/bin/../lib/gcc/arm-none-eabi/9.3.1/../../../../arm-none-eabi/lib/thumb/v7e-m/nofp\libg.a(lib_a-putchar.o)
                              CMakeFiles/f4xx_SPI.elf.dir/Core/Src/bsp_flash.c.obj (putchar)
d:/arm_rt/gcc-arm-none-eabi-9-2020-q2-update-win32/bin/../lib/gcc/arm-none-eabi/9.3.1/../../../../arm-none-eabi/lib/thumb/v7e-m/nofp\libg.a(lib_a-strchr.o)
                              CMakeFiles/f4xx_SPI.elf.dir/Core/Src/gui/lvgl/extra/libs/qrcode/qrcodegen.c.obj (strchr)
d:/arm_rt/gcc-arm-none-eabi-9-2020-q2-update-win32/bin/../lib/gcc/arm-none-eabi/9.3.1/../../../../arm-none-eabi/lib/thumb/v7e-m/nofp\libg.a(lib_a-strcmp.o)
                              CMakeFiles/f4xx_SPI.elf.dir/Core/Src/gui/lvgl/draw/lv_img_decoder.c.obj (strcmp)
d:/arm_rt/gcc-arm-none-eabi-9-2020-q2-update-win32/bin/../lib/gcc/arm-none-eabi/9.3.1/../../../../arm-none-eabi/lib/thumb/v7e-m/nofp\libg.a(lib_a-strcpy.o)
                              CMakeFiles/f4xx_SPI.elf.dir/Core/Src/gui/lvgl/draw/lv_img_decoder.c.obj (strcpy)
d:/arm_rt/gcc-arm-none-eabi-9-2020-q2-update-win32/bin/../lib/gcc/arm-none-eabi/9.3.1/../../../../arm-none-eabi/lib/thumb/v7e-m/nofp\libg.a(lib_a-strlen.o)
                              CMakeFiles/f4xx_SPI.elf.dir/Core/Src/gui/lvgl/draw/lv_img_decoder.c.obj (strlen)
d:/arm_rt/gcc-arm-none-eabi-9-2020-q2-update-win32/bin/../lib/gcc/arm-none-eabi/9.3.1/../../../../arm-none-eabi/lib/thumb/v7e-m/nofp\libg.a(lib_a-vfiprintf.o)
                              d:/arm_rt/gcc-arm-none-eabi-9-2020-q2-update-win32/bin/../lib/gcc/arm-none-eabi/9.3.1/../../../../arm-none-eabi/lib/thumb/v7e-m/nofp\libg.a(lib_a-fiprintf.o) (_vfiprintf_r)
d:/arm_rt/gcc-arm-none-eabi-9-2020-q2-update-win32/bin/../lib/gcc/arm-none-eabi/9.3.1/../../../../arm-none-eabi/lib/thumb/v7e-m/nofp\libg.a(lib_a-vfprintf.o)
                              d:/arm_rt/gcc-arm-none-eabi-9-2020-q2-update-win32/bin/../lib/gcc/arm-none-eabi/9.3.1/../../../../arm-none-eabi/lib/thumb/v7e-m/nofp\libg.a(lib_a-printf.o) (_vfprintf_r)
d:/arm_rt/gcc-arm-none-eabi-9-2020-q2-update-win32/bin/../lib/gcc/arm-none-eabi/9.3.1/../../../../arm-none-eabi/lib/thumb/v7e-m/nofp\libg.a(lib_a-wsetup.o)
                              d:/arm_rt/gcc-arm-none-eabi-9-2020-q2-update-win32/bin/../lib/gcc/arm-none-eabi/9.3.1/../../../../arm-none-eabi/lib/thumb/v7e-m/nofp\libg.a(lib_a-vfiprintf.o) (__swsetup_r)
d:/arm_rt/gcc-arm-none-eabi-9-2020-q2-update-win32/bin/../lib/gcc/arm-none-eabi/9.3.1/../../../../arm-none-eabi/lib/thumb/v7e-m/nofp\libg.a(lib_a-__call_atexit.o)
                              d:/arm_rt/gcc-arm-none-eabi-9-2020-q2-update-win32/bin/../lib/gcc/arm-none-eabi/9.3.1/../../../../arm-none-eabi/lib/thumb/v7e-m/nofp\libg.a(lib_a-exit.o) (__call_exitprocs)
d:/arm_rt/gcc-arm-none-eabi-9-2020-q2-update-win32/bin/../lib/gcc/arm-none-eabi/9.3.1/../../../../arm-none-eabi/lib/thumb/v7e-m/nofp\libg.a(lib_a-abort.o)
                              d:/arm_rt/gcc-arm-none-eabi-9-2020-q2-update-win32/bin/../lib/gcc/arm-none-eabi/9.3.1/../../../../arm-none-eabi/lib/thumb/v7e-m/nofp\libg.a(lib_a-assert.o) (abort)
d:/arm_rt/gcc-arm-none-eabi-9-2020-q2-update-win32/bin/../lib/gcc/arm-none-eabi/9.3.1/../../../../arm-none-eabi/lib/thumb/v7e-m/nofp\libg.a(lib_a-atexit.o)
                              d:/arm_rt/gcc-arm-none-eabi-9-2020-q2-update-win32/bin/../lib/gcc/arm-none-eabi/9.3.1/../../../../arm-none-eabi/lib/thumb/v7e-m/nofp\libg.a(lib_a-__call_atexit.o) (atexit)
d:/arm_rt/gcc-arm-none-eabi-9-2020-q2-update-win32/bin/../lib/gcc/arm-none-eabi/9.3.1/../../../../arm-none-eabi/lib/thumb/v7e-m/nofp\libg.a(lib_a-dtoa.o)
                              d:/arm_rt/gcc-arm-none-eabi-9-2020-q2-update-win32/bin/../lib/gcc/arm-none-eabi/9.3.1/../../../../arm-none-eabi/lib/thumb/v7e-m/nofp\libg.a(lib_a-vfprintf.o) (_dtoa_r)
d:/arm_rt/gcc-arm-none-eabi-9-2020-q2-update-win32/bin/../lib/gcc/arm-none-eabi/9.3.1/../../../../arm-none-eabi/lib/thumb/v7e-m/nofp\libg.a(lib_a-fflush.o)
                              d:/arm_rt/gcc-arm-none-eabi-9-2020-q2-update-win32/bin/../lib/gcc/arm-none-eabi/9.3.1/../../../../arm-none-eabi/lib/thumb/v7e-m/nofp\libg.a(lib_a-vfiprintf.o) (_fflush_r)
d:/arm_rt/gcc-arm-none-eabi-9-2020-q2-update-win32/bin/../lib/gcc/arm-none-eabi/9.3.1/../../../../arm-none-eabi/lib/thumb/v7e-m/nofp\libg.a(lib_a-findfp.o)
                              d:/arm_rt/gcc-arm-none-eabi-9-2020-q2-update-win32/bin/../lib/gcc/arm-none-eabi/9.3.1/../../../../arm-none-eabi/lib/thumb/v7e-m/nofp\libg.a(lib_a-vfiprintf.o) (__sinit)
d:/arm_rt/gcc-arm-none-eabi-9-2020-q2-update-win32/bin/../lib/gcc/arm-none-eabi/9.3.1/../../../../arm-none-eabi/lib/thumb/v7e-m/nofp\libg.a(lib_a-fini.o)
                              d:/arm_rt/gcc-arm-none-eabi-9-2020-q2-update-win32/bin/../lib/gcc/arm-none-eabi/9.3.1/../../../../arm-none-eabi/lib/thumb/v7e-m/nofp\libg.a(lib_a-__call_atexit.o) (__libc_fini_array)
d:/arm_rt/gcc-arm-none-eabi-9-2020-q2-update-win32/bin/../lib/gcc/arm-none-eabi/9.3.1/../../../../arm-none-eabi/lib/thumb/v7e-m/nofp\libg.a(lib_a-fputwc.o)
                              d:/arm_rt/gcc-arm-none-eabi-9-2020-q2-update-win32/bin/../lib/gcc/arm-none-eabi/9.3.1/../../../../arm-none-eabi/lib/thumb/v7e-m/nofp\libg.a(lib_a-vfiprintf.o) (_fputwc_r)
d:/arm_rt/gcc-arm-none-eabi-9-2020-q2-update-win32/bin/../lib/gcc/arm-none-eabi/9.3.1/../../../../arm-none-eabi/lib/thumb/v7e-m/nofp\libg.a(lib_a-freer.o)
                              d:/arm_rt/gcc-arm-none-eabi-9-2020-q2-update-win32/bin/../lib/gcc/arm-none-eabi/9.3.1/../../../../arm-none-eabi/lib/thumb/v7e-m/nofp\libg.a(lib_a-vfprintf.o) (_free_r)
d:/arm_rt/gcc-arm-none-eabi-9-2020-q2-update-win32/bin/../lib/gcc/arm-none-eabi/9.3.1/../../../../arm-none-eabi/lib/thumb/v7e-m/nofp\libg.a(lib_a-fvwrite.o)
                              d:/arm_rt/gcc-arm-none-eabi-9-2020-q2-update-win32/bin/../lib/gcc/arm-none-eabi/9.3.1/../../../../arm-none-eabi/lib/thumb/v7e-m/nofp\libg.a(lib_a-vfiprintf.o) (__sfvwrite_r)
d:/arm_rt/gcc-arm-none-eabi-9-2020-q2-update-win32/bin/../lib/gcc/arm-none-eabi/9.3.1/../../../../arm-none-eabi/lib/thumb/v7e-m/nofp\libg.a(lib_a-fwalk.o)
                              d:/arm_rt/gcc-arm-none-eabi-9-2020-q2-update-win32/bin/../lib/gcc/arm-none-eabi/9.3.1/../../../../arm-none-eabi/lib/thumb/v7e-m/nofp\libg.a(lib_a-findfp.o) (_fwalk)
d:/arm_rt/gcc-arm-none-eabi-9-2020-q2-update-win32/bin/../lib/gcc/arm-none-eabi/9.3.1/../../../../arm-none-eabi/lib/thumb/v7e-m/nofp\libg.a(lib_a-locale.o)
                              d:/arm_rt/gcc-arm-none-eabi-9-2020-q2-update-win32/bin/../lib/gcc/arm-none-eabi/9.3.1/../../../../arm-none-eabi/lib/thumb/v7e-m/nofp\libg.a(lib_a-fputwc.o) (__locale_mb_cur_max)
d:/arm_rt/gcc-arm-none-eabi-9-2020-q2-update-win32/bin/../lib/gcc/arm-none-eabi/9.3.1/../../../../arm-none-eabi/lib/thumb/v7e-m/nofp\libg.a(lib_a-localeconv.o)
                              d:/arm_rt/gcc-arm-none-eabi-9-2020-q2-update-win32/bin/../lib/gcc/arm-none-eabi/9.3.1/../../../../arm-none-eabi/lib/thumb/v7e-m/nofp\libg.a(lib_a-vfiprintf.o) (_localeconv_r)
d:/arm_rt/gcc-arm-none-eabi-9-2020-q2-update-win32/bin/../lib/gcc/arm-none-eabi/9.3.1/../../../../arm-none-eabi/lib/thumb/v7e-m/nofp\libg.a(lib_a-lock.o)
                              d:/arm_rt/gcc-arm-none-eabi-9-2020-q2-update-win32/bin/../lib/gcc/arm-none-eabi/9.3.1/../../../../arm-none-eabi/lib/thumb/v7e-m/nofp\libg.a(lib_a-vfiprintf.o) (__retarget_lock_init_recursive)
d:/arm_rt/gcc-arm-none-eabi-9-2020-q2-update-win32/bin/../lib/gcc/arm-none-eabi/9.3.1/../../../../arm-none-eabi/lib/thumb/v7e-m/nofp\libg.a(lib_a-makebuf.o)
                              d:/arm_rt/gcc-arm-none-eabi-9-2020-q2-update-win32/bin/../lib/gcc/arm-none-eabi/9.3.1/../../../../arm-none-eabi/lib/thumb/v7e-m/nofp\libg.a(lib_a-wsetup.o) (__smakebuf_r)
d:/arm_rt/gcc-arm-none-eabi-9-2020-q2-update-win32/bin/../lib/gcc/arm-none-eabi/9.3.1/../../../../arm-none-eabi/lib/thumb/v7e-m/nofp\libg.a(lib_a-mallocr.o)
                              d:/arm_rt/gcc-arm-none-eabi-9-2020-q2-update-win32/bin/../lib/gcc/arm-none-eabi/9.3.1/../../../../arm-none-eabi/lib/thumb/v7e-m/nofp\libg.a(lib_a-vfprintf.o) (_malloc_r)
d:/arm_rt/gcc-arm-none-eabi-9-2020-q2-update-win32/bin/../lib/gcc/arm-none-eabi/9.3.1/../../../../arm-none-eabi/lib/thumb/v7e-m/nofp\libg.a(lib_a-mbtowc_r.o)
                              d:/arm_rt/gcc-arm-none-eabi-9-2020-q2-update-win32/bin/../lib/gcc/arm-none-eabi/9.3.1/../../../../arm-none-eabi/lib/thumb/v7e-m/nofp\libg.a(lib_a-locale.o) (__ascii_mbtowc)
d:/arm_rt/gcc-arm-none-eabi-9-2020-q2-update-win32/bin/../lib/gcc/arm-none-eabi/9.3.1/../../../../arm-none-eabi/lib/thumb/v7e-m/nofp\libg.a(lib_a-memchr.o)
                              d:/arm_rt/gcc-arm-none-eabi-9-2020-q2-update-win32/bin/../lib/gcc/arm-none-eabi/9.3.1/../../../../arm-none-eabi/lib/thumb/v7e-m/nofp\libg.a(lib_a-vfiprintf.o) (memchr)
d:/arm_rt/gcc-arm-none-eabi-9-2020-q2-update-win32/bin/../lib/gcc/arm-none-eabi/9.3.1/../../../../arm-none-eabi/lib/thumb/v7e-m/nofp\libg.a(lib_a-mlock.o)
                              d:/arm_rt/gcc-arm-none-eabi-9-2020-q2-update-win32/bin/../lib/gcc/arm-none-eabi/9.3.1/../../../../arm-none-eabi/lib/thumb/v7e-m/nofp\libg.a(lib_a-freer.o) (__malloc_lock)
d:/arm_rt/gcc-arm-none-eabi-9-2020-q2-update-win32/bin/../lib/gcc/arm-none-eabi/9.3.1/../../../../arm-none-eabi/lib/thumb/v7e-m/nofp\libg.a(lib_a-mprec.o)
                              d:/arm_rt/gcc-arm-none-eabi-9-2020-q2-update-win32/bin/../lib/gcc/arm-none-eabi/9.3.1/../../../../arm-none-eabi/lib/thumb/v7e-m/nofp\libg.a(lib_a-dtoa.o) (_Balloc)
d:/arm_rt/gcc-arm-none-eabi-9-2020-q2-update-win32/bin/../lib/gcc/arm-none-eabi/9.3.1/../../../../arm-none-eabi/lib/thumb/v7e-m/nofp\libg.a(lib_a-putc.o)
                              d:/arm_rt/gcc-arm-none-eabi-9-2020-q2-update-win32/bin/../lib/gcc/arm-none-eabi/9.3.1/../../../../arm-none-eabi/lib/thumb/v7e-m/nofp\libg.a(lib_a-putchar.o) (_putc_r)
d:/arm_rt/gcc-arm-none-eabi-9-2020-q2-update-win32/bin/../lib/gcc/arm-none-eabi/9.3.1/../../../../arm-none-eabi/lib/thumb/v7e-m/nofp\libg.a(lib_a-reallocr.o)
                              d:/arm_rt/gcc-arm-none-eabi-9-2020-q2-update-win32/bin/../lib/gcc/arm-none-eabi/9.3.1/../../../../arm-none-eabi/lib/thumb/v7e-m/nofp\libg.a(lib_a-fvwrite.o) (_realloc_r)
d:/arm_rt/gcc-arm-none-eabi-9-2020-q2-update-win32/bin/../lib/gcc/arm-none-eabi/9.3.1/../../../../arm-none-eabi/lib/thumb/v7e-m/nofp\libg.a(lib_a-s_frexp.o)
                              d:/arm_rt/gcc-arm-none-eabi-9-2020-q2-update-win32/bin/../lib/gcc/arm-none-eabi/9.3.1/../../../../arm-none-eabi/lib/thumb/v7e-m/nofp\libg.a(lib_a-vfprintf.o) (frexp)
d:/arm_rt/gcc-arm-none-eabi-9-2020-q2-update-win32/bin/../lib/gcc/arm-none-eabi/9.3.1/../../../../arm-none-eabi/lib/thumb/v7e-m/nofp\libg.a(lib_a-sbrkr.o)
                              d:/arm_rt/gcc-arm-none-eabi-9-2020-q2-update-win32/bin/../lib/gcc/arm-none-eabi/9.3.1/../../../../arm-none-eabi/lib/thumb/v7e-m/nofp\libg.a(lib_a-freer.o) (_sbrk_r)
d:/arm_rt/gcc-arm-none-eabi-9-2020-q2-update-win32/bin/../lib/gcc/arm-none-eabi/9.3.1/../../../../arm-none-eabi/lib/thumb/v7e-m/nofp\libg.a(lib_a-signal.o)
                              d:/arm_rt/gcc-arm-none-eabi-9-2020-q2-update-win32/bin/../lib/gcc/arm-none-eabi/9.3.1/../../../../arm-none-eabi/lib/thumb/v7e-m/nofp\libg.a(lib_a-abort.o) (raise)
d:/arm_rt/gcc-arm-none-eabi-9-2020-q2-update-win32/bin/../lib/gcc/arm-none-eabi/9.3.1/../../../../arm-none-eabi/lib/thumb/v7e-m/nofp\libg.a(lib_a-signalr.o)
                              d:/arm_rt/gcc-arm-none-eabi-9-2020-q2-update-win32/bin/../lib/gcc/arm-none-eabi/9.3.1/../../../../arm-none-eabi/lib/thumb/v7e-m/nofp\libg.a(lib_a-signal.o) (_kill_r)
d:/arm_rt/gcc-arm-none-eabi-9-2020-q2-update-win32/bin/../lib/gcc/arm-none-eabi/9.3.1/../../../../arm-none-eabi/lib/thumb/v7e-m/nofp\libg.a(lib_a-stdio.o)
                              d:/arm_rt/gcc-arm-none-eabi-9-2020-q2-update-win32/bin/../lib/gcc/arm-none-eabi/9.3.1/../../../../arm-none-eabi/lib/thumb/v7e-m/nofp\libg.a(lib_a-findfp.o) (__sread)
d:/arm_rt/gcc-arm-none-eabi-9-2020-q2-update-win32/bin/../lib/gcc/arm-none-eabi/9.3.1/../../../../arm-none-eabi/lib/thumb/v7e-m/nofp\libg.a(lib_a-strncpy.o)
                              d:/arm_rt/gcc-arm-none-eabi-9-2020-q2-update-win32/bin/../lib/gcc/arm-none-eabi/9.3.1/../../../../arm-none-eabi/lib/thumb/v7e-m/nofp\libg.a(lib_a-vfiprintf.o) (strncpy)
d:/arm_rt/gcc-arm-none-eabi-9-2020-q2-update-win32/bin/../lib/gcc/arm-none-eabi/9.3.1/../../../../arm-none-eabi/lib/thumb/v7e-m/nofp\libg.a(lib_a-wbuf.o)
                              d:/arm_rt/gcc-arm-none-eabi-9-2020-q2-update-win32/bin/../lib/gcc/arm-none-eabi/9.3.1/../../../../arm-none-eabi/lib/thumb/v7e-m/nofp\libg.a(lib_a-fputwc.o) (__swbuf_r)
d:/arm_rt/gcc-arm-none-eabi-9-2020-q2-update-win32/bin/../lib/gcc/arm-none-eabi/9.3.1/../../../../arm-none-eabi/lib/thumb/v7e-m/nofp\libg.a(lib_a-wcrtomb.o)
                              d:/arm_rt/gcc-arm-none-eabi-9-2020-q2-update-win32/bin/../lib/gcc/arm-none-eabi/9.3.1/../../../../arm-none-eabi/lib/thumb/v7e-m/nofp\libg.a(lib_a-fputwc.o) (_wcrtomb_r)
d:/arm_rt/gcc-arm-none-eabi-9-2020-q2-update-win32/bin/../lib/gcc/arm-none-eabi/9.3.1/../../../../arm-none-eabi/lib/thumb/v7e-m/nofp\libg.a(lib_a-wctomb_r.o)
                              d:/arm_rt/gcc-arm-none-eabi-9-2020-q2-update-win32/bin/../lib/gcc/arm-none-eabi/9.3.1/../../../../arm-none-eabi/lib/thumb/v7e-m/nofp\libg.a(lib_a-locale.o) (__ascii_wctomb)
d:/arm_rt/gcc-arm-none-eabi-9-2020-q2-update-win32/bin/../lib/gcc/arm-none-eabi/9.3.1/../../../../arm-none-eabi/lib/thumb/v7e-m/nofp\libg.a(lib_a-writer.o)
                              d:/arm_rt/gcc-arm-none-eabi-9-2020-q2-update-win32/bin/../lib/gcc/arm-none-eabi/9.3.1/../../../../arm-none-eabi/lib/thumb/v7e-m/nofp\libg.a(lib_a-stdio.o) (_write_r)
d:/arm_rt/gcc-arm-none-eabi-9-2020-q2-update-win32/bin/../lib/gcc/arm-none-eabi/9.3.1/../../../../arm-none-eabi/lib/thumb/v7e-m/nofp\libg.a(lib_a-__atexit.o)
                              d:/arm_rt/gcc-arm-none-eabi-9-2020-q2-update-win32/bin/../lib/gcc/arm-none-eabi/9.3.1/../../../../arm-none-eabi/lib/thumb/v7e-m/nofp\libg.a(lib_a-atexit.o) (__register_exitproc)
d:/arm_rt/gcc-arm-none-eabi-9-2020-q2-update-win32/bin/../lib/gcc/arm-none-eabi/9.3.1/../../../../arm-none-eabi/lib/thumb/v7e-m/nofp\libg.a(lib_a-callocr.o)
                              d:/arm_rt/gcc-arm-none-eabi-9-2020-q2-update-win32/bin/../lib/gcc/arm-none-eabi/9.3.1/../../../../arm-none-eabi/lib/thumb/v7e-m/nofp\libg.a(lib_a-mprec.o) (_calloc_r)
d:/arm_rt/gcc-arm-none-eabi-9-2020-q2-update-win32/bin/../lib/gcc/arm-none-eabi/9.3.1/../../../../arm-none-eabi/lib/thumb/v7e-m/nofp\libg.a(lib_a-closer.o)
                              d:/arm_rt/gcc-arm-none-eabi-9-2020-q2-update-win32/bin/../lib/gcc/arm-none-eabi/9.3.1/../../../../arm-none-eabi/lib/thumb/v7e-m/nofp\libg.a(lib_a-stdio.o) (_close_r)
d:/arm_rt/gcc-arm-none-eabi-9-2020-q2-update-win32/bin/../lib/gcc/arm-none-eabi/9.3.1/../../../../arm-none-eabi/lib/thumb/v7e-m/nofp\libg.a(lib_a-ctype_.o)
                              d:/arm_rt/gcc-arm-none-eabi-9-2020-q2-update-win32/bin/../lib/gcc/arm-none-eabi/9.3.1/../../../../arm-none-eabi/lib/thumb/v7e-m/nofp\libg.a(lib_a-locale.o) (_ctype_)
d:/arm_rt/gcc-arm-none-eabi-9-2020-q2-update-win32/bin/../lib/gcc/arm-none-eabi/9.3.1/../../../../arm-none-eabi/lib/thumb/v7e-m/nofp\libg.a(lib_a-fclose.o)
                              d:/arm_rt/gcc-arm-none-eabi-9-2020-q2-update-win32/bin/../lib/gcc/arm-none-eabi/9.3.1/../../../../arm-none-eabi/lib/thumb/v7e-m/nofp\libg.a(lib_a-findfp.o) (_fclose_r)
d:/arm_rt/gcc-arm-none-eabi-9-2020-q2-update-win32/bin/../lib/gcc/arm-none-eabi/9.3.1/../../../../arm-none-eabi/lib/thumb/v7e-m/nofp\libg.a(lib_a-fstatr.o)
                              d:/arm_rt/gcc-arm-none-eabi-9-2020-q2-update-win32/bin/../lib/gcc/arm-none-eabi/9.3.1/../../../../arm-none-eabi/lib/thumb/v7e-m/nofp\libg.a(lib_a-makebuf.o) (_fstat_r)
d:/arm_rt/gcc-arm-none-eabi-9-2020-q2-update-win32/bin/../lib/gcc/arm-none-eabi/9.3.1/../../../../arm-none-eabi/lib/thumb/v7e-m/nofp\libg.a(lib_a-isattyr.o)
                              d:/arm_rt/gcc-arm-none-eabi-9-2020-q2-update-win32/bin/../lib/gcc/arm-none-eabi/9.3.1/../../../../arm-none-eabi/lib/thumb/v7e-m/nofp\libg.a(lib_a-makebuf.o) (_isatty_r)
d:/arm_rt/gcc-arm-none-eabi-9-2020-q2-update-win32/bin/../lib/gcc/arm-none-eabi/9.3.1/../../../../arm-none-eabi/lib/thumb/v7e-m/nofp\libg.a(lib_a-lseekr.o)
                              d:/arm_rt/gcc-arm-none-eabi-9-2020-q2-update-win32/bin/../lib/gcc/arm-none-eabi/9.3.1/../../../../arm-none-eabi/lib/thumb/v7e-m/nofp\libg.a(lib_a-stdio.o) (_lseek_r)
d:/arm_rt/gcc-arm-none-eabi-9-2020-q2-update-win32/bin/../lib/gcc/arm-none-eabi/9.3.1/../../../../arm-none-eabi/lib/thumb/v7e-m/nofp\libg.a(lib_a-readr.o)
                              d:/arm_rt/gcc-arm-none-eabi-9-2020-q2-update-win32/bin/../lib/gcc/arm-none-eabi/9.3.1/../../../../arm-none-eabi/lib/thumb/v7e-m/nofp\libg.a(lib_a-stdio.o) (_read_r)
d:/arm_rt/gcc-arm-none-eabi-9-2020-q2-update-win32/bin/../lib/gcc/arm-none-eabi/9.3.1/../../../../arm-none-eabi/lib/thumb/v7e-m/nofp\libg.a(lib_a-reent.o)
                              d:/arm_rt/gcc-arm-none-eabi-9-2020-q2-update-win32/bin/../lib/gcc/arm-none-eabi/9.3.1/../../../../arm-none-eabi/lib/thumb/v7e-m/nofp\libg.a(lib_a-sbrkr.o) (errno)
d:/arm_rt/gcc-arm-none-eabi-9-2020-q2-update-win32/bin/../lib/gcc/arm-none-eabi/9.3.1/thumb/v7e-m/nofp\libgcc.a(_arm_muldf3.o)
                              d:/arm_rt/gcc-arm-none-eabi-9-2020-q2-update-win32/bin/../lib/gcc/arm-none-eabi/9.3.1/../../../../arm-none-eabi/lib/thumb/v7e-m/nofp\libg.a(lib_a-vfprintf.o) (__aeabi_dmul)
d:/arm_rt/gcc-arm-none-eabi-9-2020-q2-update-win32/bin/../lib/gcc/arm-none-eabi/9.3.1/thumb/v7e-m/nofp\libgcc.a(_arm_addsubdf3.o)
                              d:/arm_rt/gcc-arm-none-eabi-9-2020-q2-update-win32/bin/../lib/gcc/arm-none-eabi/9.3.1/../../../../arm-none-eabi/lib/thumb/v7e-m/nofp\libg.a(lib_a-vfprintf.o) (__aeabi_dsub)
d:/arm_rt/gcc-arm-none-eabi-9-2020-q2-update-win32/bin/../lib/gcc/arm-none-eabi/9.3.1/thumb/v7e-m/nofp\libgcc.a(_arm_muldivdf3.o)
                              d:/arm_rt/gcc-arm-none-eabi-9-2020-q2-update-win32/bin/../lib/gcc/arm-none-eabi/9.3.1/../../../../arm-none-eabi/lib/thumb/v7e-m/nofp\libg.a(lib_a-dtoa.o) (__aeabi_ddiv)
d:/arm_rt/gcc-arm-none-eabi-9-2020-q2-update-win32/bin/../lib/gcc/arm-none-eabi/9.3.1/thumb/v7e-m/nofp\libgcc.a(_arm_cmpdf2.o)
                              d:/arm_rt/gcc-arm-none-eabi-9-2020-q2-update-win32/bin/../lib/gcc/arm-none-eabi/9.3.1/../../../../arm-none-eabi/lib/thumb/v7e-m/nofp\libg.a(lib_a-vfprintf.o) (__aeabi_dcmpeq)
d:/arm_rt/gcc-arm-none-eabi-9-2020-q2-update-win32/bin/../lib/gcc/arm-none-eabi/9.3.1/thumb/v7e-m/nofp\libgcc.a(_arm_unorddf2.o)
                              d:/arm_rt/gcc-arm-none-eabi-9-2020-q2-update-win32/bin/../lib/gcc/arm-none-eabi/9.3.1/../../../../arm-none-eabi/lib/thumb/v7e-m/nofp\libg.a(lib_a-vfprintf.o) (__aeabi_dcmpun)
d:/arm_rt/gcc-arm-none-eabi-9-2020-q2-update-win32/bin/../lib/gcc/arm-none-eabi/9.3.1/thumb/v7e-m/nofp\libgcc.a(_arm_fixdfsi.o)
                              d:/arm_rt/gcc-arm-none-eabi-9-2020-q2-update-win32/bin/../lib/gcc/arm-none-eabi/9.3.1/../../../../arm-none-eabi/lib/thumb/v7e-m/nofp\libg.a(lib_a-vfprintf.o) (__aeabi_d2iz)

Allocating common symbols
Common symbol       size              file

__lock___atexit_recursive_mutex
                    0x1               d:/arm_rt/gcc-arm-none-eabi-9-2020-q2-update-win32/bin/../lib/gcc/arm-none-eabi/9.3.1/../../../../arm-none-eabi/lib/thumb/v7e-m/nofp\libg.a(lib_a-lock.o)
__lock___arc4random_mutex
                    0x1               d:/arm_rt/gcc-arm-none-eabi-9-2020-q2-update-win32/bin/../lib/gcc/arm-none-eabi/9.3.1/../../../../arm-none-eabi/lib/thumb/v7e-m/nofp\libg.a(lib_a-lock.o)
errno               0x4               d:/arm_rt/gcc-arm-none-eabi-9-2020-q2-update-win32/bin/../lib/gcc/arm-none-eabi/9.3.1/../../../../arm-none-eabi/lib/thumb/v7e-m/nofp\libg.a(lib_a-reent.o)
__lock___env_recursive_mutex
                    0x1               d:/arm_rt/gcc-arm-none-eabi-9-2020-q2-update-win32/bin/../lib/gcc/arm-none-eabi/9.3.1/../../../../arm-none-eabi/lib/thumb/v7e-m/nofp\libg.a(lib_a-lock.o)
__lock___sinit_recursive_mutex
                    0x1               d:/arm_rt/gcc-arm-none-eabi-9-2020-q2-update-win32/bin/../lib/gcc/arm-none-eabi/9.3.1/../../../../arm-none-eabi/lib/thumb/v7e-m/nofp\libg.a(lib_a-lock.o)
__lock___malloc_recursive_mutex
                    0x1               d:/arm_rt/gcc-arm-none-eabi-9-2020-q2-update-win32/bin/../lib/gcc/arm-none-eabi/9.3.1/../../../../arm-none-eabi/lib/thumb/v7e-m/nofp\libg.a(lib_a-lock.o)
__lock___at_quick_exit_mutex
                    0x1               d:/arm_rt/gcc-arm-none-eabi-9-2020-q2-update-win32/bin/../lib/gcc/arm-none-eabi/9.3.1/../../../../arm-none-eabi/lib/thumb/v7e-m/nofp\libg.a(lib_a-lock.o)
__lock___dd_hash_mutex
                    0x1               d:/arm_rt/gcc-arm-none-eabi-9-2020-q2-update-win32/bin/../lib/gcc/arm-none-eabi/9.3.1/../../../../arm-none-eabi/lib/thumb/v7e-m/nofp\libg.a(lib_a-lock.o)
__lock___tz_mutex   0x1               d:/arm_rt/gcc-arm-none-eabi-9-2020-q2-update-win32/bin/../lib/gcc/arm-none-eabi/9.3.1/../../../../arm-none-eabi/lib/thumb/v7e-m/nofp\libg.a(lib_a-lock.o)
__lock___sfp_recursive_mutex
                    0x1               d:/arm_rt/gcc-arm-none-eabi-9-2020-q2-update-win32/bin/../lib/gcc/arm-none-eabi/9.3.1/../../../../arm-none-eabi/lib/thumb/v7e-m/nofp\libg.a(lib_a-lock.o)

Discarded input sections

 .text          0x00000000        0x0 d:/arm_rt/gcc-arm-none-eabi-9-2020-q2-update-win32/bin/../lib/gcc/arm-none-eabi/9.3.1/thumb/v7e-m/nofp/crti.o
 .data          0x00000000        0x0 d:/arm_rt/gcc-arm-none-eabi-9-2020-q2-update-win32/bin/../lib/gcc/arm-none-eabi/9.3.1/thumb/v7e-m/nofp/crti.o
 .bss           0x00000000        0x0 d:/arm_rt/gcc-arm-none-eabi-9-2020-q2-update-win32/bin/../lib/gcc/arm-none-eabi/9.3.1/thumb/v7e-m/nofp/crti.o
 .data          0x00000000        0x4 d:/arm_rt/gcc-arm-none-eabi-9-2020-q2-update-win32/bin/../lib/gcc/arm-none-eabi/9.3.1/thumb/v7e-m/nofp/crtbegin.o
 .text          0x00000000       0x7c d:/arm_rt/gcc-arm-none-eabi-9-2020-q2-update-win32/bin/../lib/gcc/arm-none-eabi/9.3.1/../../../../arm-none-eabi/lib/thumb/v7e-m/nofp/crt0.o
 .data          0x00000000        0x0 d:/arm_rt/gcc-arm-none-eabi-9-2020-q2-update-win32/bin/../lib/gcc/arm-none-eabi/9.3.1/../../../../arm-none-eabi/lib/thumb/v7e-m/nofp/crt0.o
 .bss           0x00000000        0x0 d:/arm_rt/gcc-arm-none-eabi-9-2020-q2-update-win32/bin/../lib/gcc/arm-none-eabi/9.3.1/../../../../arm-none-eabi/lib/thumb/v7e-m/nofp/crt0.o
 .ARM.extab     0x00000000        0x0 d:/arm_rt/gcc-arm-none-eabi-9-2020-q2-update-win32/bin/../lib/gcc/arm-none-eabi/9.3.1/../../../../arm-none-eabi/lib/thumb/v7e-m/nofp/crt0.o
 .ARM.exidx     0x00000000       0x10 d:/arm_rt/gcc-arm-none-eabi-9-2020-q2-update-win32/bin/../lib/gcc/arm-none-eabi/9.3.1/../../../../arm-none-eabi/lib/thumb/v7e-m/nofp/crt0.o
 .ARM.attributes
                0x00000000       0x1c d:/arm_rt/gcc-arm-none-eabi-9-2020-q2-update-win32/bin/../lib/gcc/arm-none-eabi/9.3.1/../../../../arm-none-eabi/lib/thumb/v7e-m/nofp/crt0.o
 .text          0x00000000        0x0 CMakeFiles/f4xx_SPI.elf.dir/Core/Src/app/app.c.obj
 .data          0x00000000        0x0 CMakeFiles/f4xx_SPI.elf.dir/Core/Src/app/app.c.obj
 .bss           0x00000000        0x0 CMakeFiles/f4xx_SPI.elf.dir/Core/Src/app/app.c.obj
 .text          0x00000000        0x0 CMakeFiles/f4xx_SPI.elf.dir/Core/Src/app/benchmark/assets/img_benchmark_cogwheel_alpha16.c.obj
 .data          0x00000000        0x0 CMakeFiles/f4xx_SPI.elf.dir/Core/Src/app/benchmark/assets/img_benchmark_cogwheel_alpha16.c.obj
 .bss           0x00000000        0x0 CMakeFiles/f4xx_SPI.elf.dir/Core/Src/app/benchmark/assets/img_benchmark_cogwheel_alpha16.c.obj
 .debug_info    0x00000000     0x1980 CMakeFiles/f4xx_SPI.elf.dir/Core/Src/app/benchmark/assets/img_benchmark_cogwheel_alpha16.c.obj
Memory Configuration

Name             Origin             Length             Attributes
RAM              0x20000000         0x00020000         xrw
CCMRAM           0x10000000         0x00010000         xrw
FLASH            0x08000000         0x00080000         xr
*default*        0x00000000         0xffffffff

Linker script and memory map

LOAD d:/arm_rt/gcc-arm-none-eabi-9-2020-q2-update-win32/bin/../lib/gcc/arm-none-eabi/9.3.1/thumb/v7e-m/nofp/crti.o
LOAD d:/arm_rt/gcc-arm-none-eabi-9-2020-q2-update-win32/bin/../lib/gcc/arm-none-eabi/9.3.1/thumb/v7e-m/nofp/crtbegin.o
LOAD d:/arm_rt/gcc-arm-none-eabi-9-2020-q2-update-win32/bin/../lib/gcc/arm-none-eabi/9.3.1/../../../../arm-none-eabi/lib/thumb/v7e-m/nofp/crt0.o
LOAD CMakeFiles/f4xx_SPI.elf.dir/Core/Src/app/app.c.obj
LOAD CMakeFiles/f4xx_SPI.elf.dir/Core/Src/app/benchmark/assets/img_benchmark_cogwheel_alpha16.c.obj
LOAD CMakeFiles/f4xx_SPI.elf.dir/Core/Src/app/benchmark/assets/img_benchmark_cogwheel_argb.c.obj
LOAD CMakeFiles/f4xx_SPI.elf.dir/Core/Src/app/benchmark/assets/img_benchmark_cogwheel_chroma_keyed.c.obj
LOAD CMakeFiles/f4xx_SPI.elf.dir/Core/Src/app/benchmark/assets/img_benchmark_cogwheel_indexed16.c.obj
LOAD CMakeFiles/f4xx_SPI.elf.dir/Core/Src/app/benchmark/assets/img_benchmark_cogwheel_rgb.c.obj
LOAD CMakeFiles/f4xx_SPI.elf.dir/Core/Src/app/benchmark/assets/lv_font_bechmark_montserrat_12_compr_az.c.c.obj
LOAD CMakeFiles/f4xx_SPI.elf.dir/Core/Src/app/benchmark/assets/lv_font_bechmark_montserrat_16_compr_az.c.c.obj
LOAD CMakeFiles/f4xx_SPI.elf.dir/Core/Src/app/benchmark/assets/lv_font_bechmark_montserrat_28_compr_az.c.c.obj
LOAD CMakeFiles/f4xx_SPI.elf.dir/Core/Src/app/benchmark/lv_demo_benchmark.c.obj
LOAD CMakeFiles/f4xx_SPI.elf.dir/Core/Src/app/keypad_encoder/lv_demo_keypad_encoder.c.obj
LOAD CMakeFiles/f4xx_SPI.elf.dir/Core/Src/app/music/assets/img_lv_demo_music_btn_corner_large.c.obj
LOAD CMakeFiles/f4xx_SPI.elf.dir/Core/Src/app/music/assets/img_lv_demo_music_btn_list_pause.c.obj
LOAD CMakeFiles/f4xx_SPI.elf.dir/Core/Src/app/music/assets/img_lv_demo_music_btn_list_pause_large.c.obj
LOAD CMakeFiles/f4xx_SPI.elf.dir/Core/Src/app/music/assets/img_lv_demo_music_btn_list_play.c.obj
LOAD CMakeFiles/f4xx_SPI.elf.dir/Core/Src/app/music/assets/img_lv_demo_music_btn_list_play_large.c.obj
LOAD CMakeFiles/f4xx_SPI.elf.dir/Core/Src/app/music/assets/img_lv_demo_music_btn_loop.c.obj
LOAD CMakeFiles/f4xx_SPI.elf.dir/Core/Src/app/music/assets/img_lv_demo_music_btn_loop_large.c.obj
LOAD CMakeFiles/f4xx_SPI.elf.dir/Core/Src/app/music/assets/img_lv_demo_music_btn_next.c.obj
LOAD CMakeFiles/f4xx_SPI.elf.dir/Core/Src/app/music/assets/img_lv_demo_music_btn_next_large.c.obj
LOAD CMakeFiles/f4xx_SPI.elf.dir/Core/Src/app/music/assets/img_lv_demo_music_btn_pause.c.obj
LOAD CMakeFiles/f4xx_SPI.elf.dir/Core/Src/app/music/assets/img_lv_demo_music_btn_pause_large.c.obj
LOAD CMakeFiles/f4xx_SPI.elf.dir/Core/Src/app/music/assets/img_lv_demo_music_btn_play.c.obj
LOAD CMakeFiles/f4xx_SPI.elf.dir/Core/Src/app/music/assets/img_lv_demo_music_btn_play_large.c.obj
LOAD CMakeFiles/f4xx_SPI.elf.dir/Core/Src/app/music/assets/img_lv_demo_music_btn_prev.c.obj
LOAD CMakeFiles/f4xx_SPI.elf.dir/Core/Src/app/music/assets/img_lv_demo_music_btn_prev_large.c.obj
LOAD CMakeFiles/f4xx_SPI.elf.dir/Core/Src/app/music/assets/img_lv_demo_music_btn_rnd.c.obj
LOAD CMakeFiles/f4xx_SPI.elf.dir/Core/Src/app/music/assets/img_lv_demo_music_btn_rnd_large.c.obj
LOAD CMakeFiles/f4xx_SPI.elf.dir/Core/Src/app/music/assets/img_lv_demo_music_corner_left.c.obj
LOAD CMakeFiles/f4xx_SPI.elf.dir/Core/Src/app/music/assets/img_lv_demo_music_corner_left_large.c.obj
LOAD CMakeFiles/f4xx_SPI.elf.dir/Core/Src/app/music/assets/img_lv_demo_music_corner_right.c.obj
LOAD CMakeFiles/f4xx_SPI.elf.dir/Core/Src/app/music/assets/img_lv_demo_music_corner_right_large.c.obj
LOAD CMakeFiles/f4xx_SPI.elf.dir/Core/Src/app/music/assets/img_lv_demo_music_cover_1.c.obj
LOAD CMakeFiles/f4xx_SPI.elf.dir/Core/Src/app/music/assets/img_lv_demo_music_cover_1_large.c.obj
LOAD CMakeFiles/f4xx_SPI.elf.dir/Core/Src/app/music/assets/img_lv_demo_music_cover_2.c.obj
LOAD CMakeFiles/f4xx_SPI.elf.dir/Core/Src/app/music/assets/img_lv_demo_music_cover_2_large.c.obj
LOAD CMakeFiles/f4xx_SPI.elf.dir/Core/Src/app/music/assets/img_lv_demo_music_cover_3.c.obj
LOAD CMakeFiles/f4xx_SPI.elf.dir/Core/Src/app/music/assets/img_lv_demo_music_cover_3_large.c.obj
LOAD CMakeFiles/f4xx_SPI.elf.dir/Core/Src/app/music/assets/img_lv_demo_music_icon_1.c.obj
LOAD CMakeFiles/f4xx_SPI.elf.dir/Core/Src/app/music/assets/img_lv_demo_music_icon_1_large.c.obj
LOAD CMakeFiles/f4xx_SPI.elf.dir/Core/Src/app/music/assets/img_lv_demo_music_icon_2.c.obj
LOAD CMakeFiles/f4xx_SPI.elf.dir/Core/Src/app/music/assets/img_lv_demo_music_icon_2_large.c.obj
LOAD CMakeFiles/f4xx_SPI.elf.dir/Core/Src/app/music/assets/img_lv_demo_music_icon_3.c.obj
LOAD CMakeFiles/f4xx_SPI.elf.dir/Core/Src/app/music/assets/img_lv_demo_music_icon_3_large.c.obj
LOAD CMakeFiles/f4xx_SPI.elf.dir/Core/Src/app/music/assets/img_lv_demo_music_icon_4.c.obj
LOAD CMakeFiles/f4xx_SPI.elf.dir/Core/Src/app/music/assets/img_lv_demo_music_icon_4_large.c.obj
LOAD CMakeFiles/f4xx_SPI.elf.dir/Core/Src/app/music/assets/img_lv_demo_music_list_border.c.obj
LOAD CMakeFiles/f4xx_SPI.elf.dir/Core/Src/app/music/assets/img_lv_demo_music_list_border_large.c.obj
LOAD CMakeFiles/f4xx_SPI.elf.dir/Core/Src/app/music/assets/img_lv_demo_music_logo.c.obj
LOAD CMakeFiles/f4xx_SPI.elf.dir/Core/Src/app/music/assets/img_lv_demo_music_slider_knob.c.obj
LOAD CMakeFiles/f4xx_SPI.elf.dir/Core/Src/app/music/assets/img_lv_demo_music_slider_knob_large.c.obj
LOAD CMakeFiles/f4xx_SPI.elf.dir/Core/Src/app/music/assets/img_lv_demo_music_wave_bottom.c.obj
LOAD CMakeFiles/f4xx_SPI.elf.dir/Core/Src/app/music/assets/img_lv_demo_music_wave_bottom_large.c.obj
LOAD CMakeFiles/f4xx_SPI.elf.dir/Core/Src/app/music/assets/img_lv_demo_music_wave_top.c.obj
LOAD CMakeFiles/f4xx_SPI.elf.dir/Core/Src/app/music/assets/img_lv_demo_music_wave_top_large.c.obj
LOAD CMakeFiles/f4xx_SPI.elf.dir/Core/Src/app/music/lv_demo_music.c.obj
LOAD CMakeFiles/f4xx_SPI.elf.dir/Core/Src/app/music/lv_demo_music_list.c.obj
LOAD CMakeFiles/f4xx_SPI.elf.dir/Core/Src/app/music/lv_demo_music_main.c.obj
LOAD CMakeFiles/f4xx_SPI.elf.dir/Core/Src/app/stress/lv_demo_stress.c.obj
LOAD CMakeFiles/f4xx_SPI.elf.dir/Core/Src/app/widgets/assets/img_clothes.c.obj
LOAD CMakeFiles/f4xx_SPI.elf.dir/Core/Src/app/widgets/assets/img_demo_widgets_avatar.c.obj
LOAD CMakeFiles/f4xx_SPI.elf.dir/Core/Src/app/widgets/assets/img_lvgl_logo.c.obj
LOAD CMakeFiles/f4xx_SPI.elf.dir/Core/Src/app/widgets/lv_demo_widgets.c.obj
LOAD CMakeFiles/f4xx_SPI.elf.dir/Core/Src/bsp_flash.c.obj
LOAD CMakeFiles/f4xx_SPI.elf.dir/Core/Src/can.c.obj
LOAD CMakeFiles/f4xx_SPI.elf.dir/Core/Src/debug.c.obj
LOAD CMakeFiles/f4xx_SPI.elf.dir/Core/Src/display/display.c.obj
LOAD CMakeFiles/f4xx_SPI.elf.dir/Core/Src/display/display_test.c.obj
LOAD CMakeFiles/f4xx_SPI.elf.dir/Core/Src/dma.c.obj
LOAD CMakeFiles/f4xx_SPI.elf.dir/Core/Src/gpio.c.obj
LOAD CMakeFiles/f4xx_SPI.elf.dir/Core/Src/gui/lv_drv/display/GC9A01.c.obj
LOAD CMakeFiles/f4xx_SPI.elf.dir/Core/Src/gui/lv_drv/display/ILI9341.c.obj
LOAD CMakeFiles/f4xx_SPI.elf.dir/Core/Src/gui/lv_drv/display/R61581.c.obj
LOAD CMakeFiles/f4xx_SPI.elf.dir/Core/Src/gui/lv_drv/display/SHARP_MIP.c.obj
LOAD CMakeFiles/f4xx_SPI.elf.dir/Core/Src/gui/lv_drv/display/SSD1963.c.obj
LOAD CMakeFiles/f4xx_SPI.elf.dir/Core/Src/gui/lv_drv/display/ST7565.c.obj
LOAD CMakeFiles/f4xx_SPI.elf.dir/Core/Src/gui/lv_drv/display/UC1610.c.obj
LOAD CMakeFiles/f4xx_SPI.elf.dir/Core/Src/gui/lv_drv/display/drm.c.obj
LOAD CMakeFiles/f4xx_SPI.elf.dir/Core/Src/gui/lv_drv/display/fbdev.c.obj
LOAD CMakeFiles/f4xx_SPI.elf.dir/Core/Src/gui/lv_drv/gtkdrv/gtkdrv.c.obj
LOAD CMakeFiles/f4xx_SPI.elf.dir/Core/Src/gui/lv_drv/indev/AD_touch.c.obj
LOAD CMakeFiles/f4xx_SPI.elf.dir/Core/Src/gui/lv_drv/indev/FT5406EE8.c.obj
LOAD CMakeFiles/f4xx_SPI.elf.dir/Core/Src/gui/lv_drv/indev/XPT2046.c.obj
LOAD CMakeFiles/f4xx_SPI.elf.dir/Core/Src/gui/lv_drv/indev/evdev.c.obj
LOAD CMakeFiles/f4xx_SPI.elf.dir/Core/Src/gui/lv_drv/indev/libinput.c.obj
LOAD CMakeFiles/f4xx_SPI.elf.dir/Core/Src/gui/lv_drv/indev/xkb.c.obj
LOAD CMakeFiles/f4xx_SPI.elf.dir/Core/Src/gui/lv_drv/lv_drv.c.obj
LOAD CMakeFiles/f4xx_SPI.elf.dir/Core/Src/gui/lv_drv/sdl/sdl.c.obj
LOAD CMakeFiles/f4xx_SPI.elf.dir/Core/Src/gui/lv_drv/sdl/sdl_common.c.obj
LOAD CMakeFiles/f4xx_SPI.elf.dir/Core/Src/gui/lv_drv/sdl/sdl_gpu.c.obj
LOAD CMakeFiles/f4xx_SPI.elf.dir/Core/Src/gui/lv_drv/wayland/wayland.c.obj
LOAD CMakeFiles/f4xx_SPI.elf.dir/Core/Src/gui/lv_drv/win32drv/win32drv.c.obj
LOAD CMakeFiles/f4xx_SPI.elf.dir/Core/Src/gui/lvgl/core/lv_disp.c.obj
LOAD CMakeFiles/f4xx_SPI.elf.dir/Core/Src/gui/lvgl/core/lv_event.c.obj
LOAD CMakeFiles/f4xx_SPI.elf.dir/Core/Src/gui/lvgl/core/lv_group.c.obj
LOAD CMakeFiles/f4xx_SPI.elf.dir/Core/Src/gui/lvgl/core/lv_indev.c.obj
LOAD CMakeFiles/f4xx_SPI.elf.dir/Core/Src/gui/lvgl/core/lv_indev_scroll.c.obj
LOAD CMakeFiles/f4xx_SPI.elf.dir/Core/Src/gui/lvgl/core/lv_obj.c.obj
LOAD CMakeFiles/f4xx_SPI.elf.dir/Core/Src/gui/lvgl/core/lv_obj_class.c.obj
LOAD CMakeFiles/f4xx_SPI.elf.dir/Core/Src/gui/lvgl/core/lv_obj_draw.c.obj
LOAD CMakeFiles/f4xx_SPI.elf.dir/Core/Src/gui/lvgl/core/lv_obj_pos.c.obj
LOAD CMakeFiles/f4xx_SPI.elf.dir/Core/Src/gui/lvgl/core/lv_obj_scroll.c.obj
LOAD CMakeFiles/f4xx_SPI.elf.dir/Core/Src/gui/lvgl/core/lv_obj_style.c.obj
LOAD CMakeFiles/f4xx_SPI.elf.dir/Core/Src/gui/lvgl/core/lv_obj_style_gen.c.obj
LOAD CMakeFiles/f4xx_SPI.elf.dir/Core/Src/gui/lvgl/core/lv_obj_tree.c.obj
LOAD CMakeFiles/f4xx_SPI.elf.dir/Core/Src/gui/lvgl/core/lv_refr.c.obj
LOAD CMakeFiles/f4xx_SPI.elf.dir/Core/Src/gui/lvgl/core/lv_theme.c.obj
LOAD CMakeFiles/f4xx_SPI.elf.dir/Core/Src/gui/lvgl/draw/arm2d/lv_gpu_arm2d.c.obj
LOAD CMakeFiles/f4xx_SPI.elf.dir/Core/Src/gui/lvgl/draw/lv_draw.c.obj
LOAD CMakeFiles/f4xx_SPI.elf.dir/Core/Src/gui/lvgl/draw/lv_draw_arc.c.obj
LOAD CMakeFiles/f4xx_SPI.elf.dir/Core/Src/gui/lvgl/draw/lv_draw_img.c.obj
LOAD CMakeFiles/f4xx_SPI.elf.dir/Core/Src/gui/lvgl/draw/lv_draw_label.c.obj
LOAD CMakeFiles/f4xx_SPI.elf.dir/Core/Src/gui/lvgl/draw/lv_draw_line.c.obj
LOAD CMakeFiles/f4xx_SPI.elf.dir/Core/Src/gui/lvgl/draw/lv_draw_mask.c.obj
LOAD CMakeFiles/f4xx_SPI.elf.dir/Core/Src/gui/lvgl/draw/lv_draw_rect.c.obj
LOAD CMakeFiles/f4xx_SPI.elf.dir/Core/Src/gui/lvgl/draw/lv_draw_transform.c.obj
LOAD CMakeFiles/f4xx_SPI.elf.dir/Core/Src/gui/lvgl/draw/lv_draw_triangle.c.obj
LOAD CMakeFiles/f4xx_SPI.elf.dir/Core/Src/gui/lvgl/draw/lv_img_buf.c.obj
LOAD CMakeFiles/f4xx_SPI.elf.dir/Core/Src/gui/lvgl/draw/lv_img_cache.c.obj
LOAD CMakeFiles/f4xx_SPI.elf.dir/Core/Src/gui/lvgl/draw/lv_img_decoder.c.obj
LOAD CMakeFiles/f4xx_SPI.elf.dir/Core/Src/gui/lvgl/draw/nxp_pxp/lv_gpu_nxp_pxp.c.obj
LOAD CMakeFiles/f4xx_SPI.elf.dir/Core/Src/gui/lvgl/draw/nxp_pxp/lv_gpu_nxp_pxp_osa.c.obj
LOAD CMakeFiles/f4xx_SPI.elf.dir/Core/Src/gui/lvgl/draw/nxp_vglite/lv_gpu_nxp_vglite.c.obj
LOAD CMakeFiles/f4xx_SPI.elf.dir/Core/Src/gui/lvgl/draw/sdl/lv_draw_sdl.c.obj
LOAD CMakeFiles/f4xx_SPI.elf.dir/Core/Src/gui/lvgl/draw/sdl/lv_draw_sdl_arc.c.obj
LOAD CMakeFiles/f4xx_SPI.elf.dir/Core/Src/gui/lvgl/draw/sdl/lv_draw_sdl_bg.c.obj
LOAD CMakeFiles/f4xx_SPI.elf.dir/Core/Src/gui/lvgl/draw/sdl/lv_draw_sdl_composite.c.obj
LOAD CMakeFiles/f4xx_SPI.elf.dir/Core/Src/gui/lvgl/draw/sdl/lv_draw_sdl_img.c.obj
LOAD CMakeFiles/f4xx_SPI.elf.dir/Core/Src/gui/lvgl/draw/sdl/lv_draw_sdl_label.c.obj
LOAD CMakeFiles/f4xx_SPI.elf.dir/Core/Src/gui/lvgl/draw/sdl/lv_draw_sdl_line.c.obj
LOAD CMakeFiles/f4xx_SPI.elf.dir/Core/Src/gui/lvgl/draw/sdl/lv_draw_sdl_mask.c.obj
LOAD CMakeFiles/f4xx_SPI.elf.dir/Core/Src/gui/lvgl/draw/sdl/lv_draw_sdl_polygon.c.obj
LOAD CMakeFiles/f4xx_SPI.elf.dir/Core/Src/gui/lvgl/draw/sdl/lv_draw_sdl_rect.c.obj
LOAD CMakeFiles/f4xx_SPI.elf.dir/Core/Src/gui/lvgl/draw/sdl/lv_draw_sdl_stack_blur.c.obj
LOAD CMakeFiles/f4xx_SPI.elf.dir/Core/Src/gui/lvgl/draw/sdl/lv_draw_sdl_texture_cache.c.obj
LOAD CMakeFiles/f4xx_SPI.elf.dir/Core/Src/gui/lvgl/draw/sdl/lv_draw_sdl_utils.c.obj
LOAD CMakeFiles/f4xx_SPI.elf.dir/Core/Src/gui/lvgl/draw/stm32_dma2d/lv_gpu_stm32_dma2d.c.obj
LOAD CMakeFiles/f4xx_SPI.elf.dir/Core/Src/gui/lvgl/draw/sw/lv_draw_sw.c.obj
LOAD CMakeFiles/f4xx_SPI.elf.dir/Core/Src/gui/lvgl/draw/sw/lv_draw_sw_arc.c.obj
LOAD CMakeFiles/f4xx_SPI.elf.dir/Core/Src/gui/lvgl/draw/sw/lv_draw_sw_blend.c.obj
LOAD CMakeFiles/f4xx_SPI.elf.dir/Core/Src/gui/lvgl/draw/sw/lv_draw_sw_dither.c.obj
LOAD CMakeFiles/f4xx_SPI.elf.dir/Core/Src/gui/lvgl/draw/sw/lv_draw_sw_gradient.c.obj
LOAD CMakeFiles/f4xx_SPI.elf.dir/Core/Src/gui/lvgl/draw/sw/lv_draw_sw_img.c.obj
LOAD CMakeFiles/f4xx_SPI.elf.dir/Core/Src/gui/lvgl/draw/sw/lv_draw_sw_letter.c.obj
LOAD CMakeFiles/f4xx_SPI.elf.dir/Core/Src/gui/lvgl/draw/sw/lv_draw_sw_line.c.obj
LOAD CMakeFiles/f4xx_SPI.elf.dir/Core/Src/gui/lvgl/draw/sw/lv_draw_sw_polygon.c.obj
LOAD CMakeFiles/f4xx_SPI.elf.dir/Core/Src/gui/lvgl/draw/sw/lv_draw_sw_rect.c.obj
LOAD CMakeFiles/f4xx_SPI.elf.dir/Core/Src/gui/lvgl/draw/sw/lv_draw_sw_transform.c.obj
LOAD CMakeFiles/f4xx_SPI.elf.dir/Core/Src/gui/lvgl/draw/swm341_dma2d/lv_gpu_swm341_dma2d.c.obj
LOAD CMakeFiles/f4xx_SPI.elf.dir/Core/Src/gui/lvgl/extra/layouts/flex/lv_flex.c.obj
LOAD CMakeFiles/f4xx_SPI.elf.dir/Core/Src/gui/lvgl/extra/layouts/grid/lv_grid.c.obj
LOAD CMakeFiles/f4xx_SPI.elf.dir/Core/Src/gui/lvgl/extra/libs/bmp/lv_bmp.c.obj
LOAD CMakeFiles/f4xx_SPI.elf.dir/Core/Src/gui/lvgl/extra/libs/ffmpeg/lv_ffmpeg.c.obj
LOAD CMakeFiles/f4xx_SPI.elf.dir/Core/Src/gui/lvgl/extra/libs/freetype/lv_freetype.c.obj
LOAD CMakeFiles/f4xx_SPI.elf.dir/Core/Src/gui/lvgl/extra/libs/fsdrv/lv_fs_fatfs.c.obj
LOAD CMakeFiles/f4xx_SPI.elf.dir/Core/Src/gui/lvgl/extra/libs/fsdrv/lv_fs_posix.c.obj
LOAD CMakeFiles/f4xx_SPI.elf.dir/Core/Src/gui/lvgl/extra/libs/fsdrv/lv_fs_stdio.c.obj
LOAD CMakeFiles/f4xx_SPI.elf.dir/Core/Src/gui/lvgl/extra/libs/fsdrv/lv_fs_win32.c.obj
LOAD CMakeFiles/f4xx_SPI.elf.dir/Core/Src/gui/lvgl/extra/libs/gif/gifdec.c.obj
LOAD CMakeFiles/f4xx_SPI.elf.dir/Core/Src/gui/lvgl/extra/libs/gif/lv_gif.c.obj
LOAD CMakeFiles/f4xx_SPI.elf.dir/Core/Src/gui/lvgl/extra/libs/png/lodepng.c.obj
LOAD CMakeFiles/f4xx_SPI.elf.dir/Core/Src/gui/lvgl/extra/libs/png/lv_png.c.obj
LOAD CMakeFiles/f4xx_SPI.elf.dir/Core/Src/gui/lvgl/extra/libs/qrcode/lv_qrcode.c.obj
LOAD CMakeFiles/f4xx_SPI.elf.dir/Core/Src/gui/lvgl/extra/libs/qrcode/qrcodegen.c.obj
LOAD CMakeFiles/f4xx_SPI.elf.dir/Core/Src/gui/lvgl/extra/libs/rlottie/lv_rlottie.c.obj
LOAD CMakeFiles/f4xx_SPI.elf.dir/Core/Src/gui/lvgl/extra/libs/sjpg/lv_sjpg.c.obj
LOAD CMakeFiles/f4xx_SPI.elf.dir/Core/Src/gui/lvgl/extra/libs/sjpg/tjpgd.c.obj
LOAD CMakeFiles/f4xx_SPI.elf.dir/Core/Src/gui/lvgl/extra/lv_extra.c.obj
LOAD CMakeFiles/f4xx_SPI.elf.dir/Core/Src/gui/lvgl/extra/others/fragment/lv_fragment.c.obj
LOAD CMakeFiles/f4xx_SPI.elf.dir/Core/Src/gui/lvgl/extra/others/fragment/lv_fragment_manager.c.obj
LOAD CMakeFiles/f4xx_SPI.elf.dir/Core/Src/gui/lvgl/extra/others/gridnav/lv_gridnav.c.obj
LOAD CMakeFiles/f4xx_SPI.elf.dir/Core/Src/gui/lvgl/extra/others/imgfont/lv_imgfont.c.obj
LOAD CMakeFiles/f4xx_SPI.elf.dir/Core/Src/gui/lvgl/extra/others/monkey/lv_monkey.c.obj
LOAD CMakeFiles/f4xx_SPI.elf.dir/Core/Src/gui/lvgl/extra/others/msg/lv_msg.c.obj
LOAD CMakeFiles/f4xx_SPI.elf.dir/Core/Src/gui/lvgl/extra/others/snapshot/lv_snapshot.c.obj
LOAD CMakeFiles/f4xx_SPI.elf.dir/Core/Src/gui/lvgl/extra/themes/basic/lv_theme_basic.c.obj
LOAD CMakeFiles/f4xx_SPI.elf.dir/Core/Src/gui/lvgl/extra/themes/default/lv_theme_default.c.obj
LOAD CMakeFiles/f4xx_SPI.elf.dir/Core/Src/gui/lvgl/extra/themes/mono/lv_theme_mono.c.obj
LOAD CMakeFiles/f4xx_SPI.elf.dir/Core/Src/gui/lvgl/extra/widgets/animimg/lv_animimg.c.obj
LOAD CMakeFiles/f4xx_SPI.elf.dir/Core/Src/gui/lvgl/extra/widgets/calendar/lv_calendar.c.obj
LOAD CMakeFiles/f4xx_SPI.elf.dir/Core/Src/gui/lvgl/extra/widgets/calendar/lv_calendar_header_arrow.c.obj
LOAD CMakeFiles/f4xx_SPI.elf.dir/Core/Src/gui/lvgl/extra/widgets/calendar/lv_calendar_header_dropdown.c.obj
LOAD CMakeFiles/f4xx_SPI.elf.dir/Core/Src/gui/lvgl/extra/widgets/chart/lv_chart.c.obj
LOAD CMakeFiles/f4xx_SPI.elf.dir/Core/Src/gui/lvgl/extra/widgets/colorwheel/lv_colorwheel.c.obj
LOAD CMakeFiles/f4xx_SPI.elf.dir/Core/Src/gui/lvgl/extra/widgets/imgbtn/lv_imgbtn.c.obj
LOAD CMakeFiles/f4xx_SPI.elf.dir/Core/Src/gui/lvgl/extra/widgets/keyboard/lv_keyboard.c.obj
LOAD CMakeFiles/f4xx_SPI.elf.dir/Core/Src/gui/lvgl/extra/widgets/led/lv_led.c.obj
LOAD CMakeFiles/f4xx_SPI.elf.dir/Core/Src/gui/lvgl/extra/widgets/list/lv_list.c.obj
LOAD CMakeFiles/f4xx_SPI.elf.dir/Core/Src/gui/lvgl/extra/widgets/menu/lv_menu.c.obj
LOAD CMakeFiles/f4xx_SPI.elf.dir/Core/Src/gui/lvgl/extra/widgets/meter/lv_meter.c.obj
LOAD CMakeFiles/f4xx_SPI.elf.dir/Core/Src/gui/lvgl/extra/widgets/msgbox/lv_msgbox.c.obj
LOAD CMakeFiles/f4xx_SPI.elf.dir/Core/Src/gui/lvgl/extra/widgets/span/lv_span.c.obj
LOAD CMakeFiles/f4xx_SPI.elf.dir/Core/Src/gui/lvgl/extra/widgets/spinbox/lv_spinbox.c.obj
LOAD CMakeFiles/f4xx_SPI.elf.dir/Core/Src/gui/lvgl/extra/widgets/spinner/lv_spinner.c.obj
LOAD CMakeFiles/f4xx_SPI.elf.dir/Core/Src/gui/lvgl/extra/widgets/tabview/lv_tabview.c.obj
LOAD CMakeFiles/f4xx_SPI.elf.dir/Core/Src/gui/lvgl/extra/widgets/tileview/lv_tileview.c.obj
LOAD CMakeFiles/f4xx_SPI.elf.dir/Core/Src/gui/lvgl/extra/widgets/win/lv_win.c.obj
LOAD CMakeFiles/f4xx_SPI.elf.dir/Core/Src/gui/lvgl/font/lv_font.c.obj
LOAD CMakeFiles/f4xx_SPI.elf.dir/Core/Src/gui/lvgl/font/lv_font_dejavu_16_persian_hebrew.c.obj
LOAD CMakeFiles/f4xx_SPI.elf.dir/Core/Src/gui/lvgl/font/lv_font_fmt_txt.c.obj
LOAD CMakeFiles/f4xx_SPI.elf.dir/Core/Src/gui/lvgl/font/lv_font_loader.c.obj
LOAD CMakeFiles/f4xx_SPI.elf.dir/Core/Src/gui/lvgl/font/lv_font_montserrat_10.c.obj
LOAD CMakeFiles/f4xx_SPI.elf.dir/Core/Src/gui/lvgl/font/lv_font_montserrat_12.c.obj
LOAD CMakeFiles/f4xx_SPI.elf.dir/Core/Src/gui/lvgl/font/lv_font_montserrat_12_subpx.c.obj
LOAD CMakeFiles/f4xx_SPI.elf.dir/Core/Src/gui/lvgl/font/lv_font_montserrat_14.c.obj
LOAD CMakeFiles/f4xx_SPI.elf.dir/Core/Src/gui/lvgl/font/lv_font_montserrat_16.c.obj
LOAD CMakeFiles/f4xx_SPI.elf.dir/Core/Src/gui/lvgl/font/lv_font_montserrat_18.c.obj
LOAD CMakeFiles/f4xx_SPI.elf.dir/Core/Src/gui/lvgl/font/lv_font_montserrat_20.c.obj
LOAD CMakeFiles/f4xx_SPI.elf.dir/Core/Src/gui/lvgl/font/lv_font_montserrat_22.c.obj
LOAD CMakeFiles/f4xx_SPI.elf.dir/Core/Src/gui/lvgl/font/lv_font_montserrat_24.c.obj
LOAD CMakeFiles/f4xx_SPI.elf.dir/Core/Src/gui/lvgl/font/lv_font_montserrat_26.c.obj
LOAD CMakeFiles/f4xx_SPI.elf.dir/Core/Src/gui/lvgl/font/lv_font_montserrat_28.c.obj
LOAD CMakeFiles/f4xx_SPI.elf.dir/Core/Src/gui/lvgl/font/lv_font_montserrat_28_compressed.c.obj
LOAD CMakeFiles/f4xx_SPI.elf.dir/Core/Src/gui/lvgl/font/lv_font_montserrat_30.c.obj
LOAD CMakeFiles/f4xx_SPI.elf.dir/Core/Src/gui/lvgl/font/lv_font_montserrat_32.c.obj
LOAD CMakeFiles/f4xx_SPI.elf.dir/Core/Src/gui/lvgl/font/lv_font_montserrat_34.c.obj
LOAD CMakeFiles/f4xx_SPI.elf.dir/Core/Src/gui/lvgl/font/lv_font_montserrat_36.c.obj
LOAD CMakeFiles/f4xx_SPI.elf.dir/Core/Src/gui/lvgl/font/lv_font_montserrat_38.c.obj
LOAD CMakeFiles/f4xx_SPI.elf.dir/Core/Src/gui/lvgl/font/lv_font_montserrat_40.c.obj
LOAD CMakeFiles/f4xx_SPI.elf.dir/Core/Src/gui/lvgl/font/lv_font_montserrat_42.c.obj
LOAD CMakeFiles/f4xx_SPI.elf.dir/Core/Src/gui/lvgl/font/lv_font_montserrat_44.c.obj
LOAD CMakeFiles/f4xx_SPI.elf.dir/Core/Src/gui/lvgl/font/lv_font_montserrat_46.c.obj
LOAD CMakeFiles/f4xx_SPI.elf.dir/Core/Src/gui/lvgl/font/lv_font_montserrat_48.c.obj
LOAD CMakeFiles/f4xx_SPI.elf.dir/Core/Src/gui/lvgl/font/lv_font_montserrat_8.c.obj
LOAD CMakeFiles/f4xx_SPI.elf.dir/Core/Src/gui/lvgl/font/lv_font_simsun_16_cjk.c.obj
LOAD CMakeFiles/f4xx_SPI.elf.dir/Core/Src/gui/lvgl/font/lv_font_unscii_16.c.obj
LOAD CMakeFiles/f4xx_SPI.elf.dir/Core/Src/gui/lvgl/font/lv_font_unscii_8.c.obj
LOAD CMakeFiles/f4xx_SPI.elf.dir/Core/Src/gui/lvgl/hal/lv_hal_disp.c.obj
LOAD CMakeFiles/f4xx_SPI.elf.dir/Core/Src/gui/lvgl/hal/lv_hal_indev.c.obj
LOAD CMakeFiles/f4xx_SPI.elf.dir/Core/Src/gui/lvgl/hal/lv_hal_tick.c.obj
LOAD CMakeFiles/f4xx_SPI.elf.dir/Core/Src/gui/lvgl/misc/lv_anim.c.obj
LOAD CMakeFiles/f4xx_SPI.elf.dir/Core/Src/gui/lvgl/misc/lv_anim_timeline.c.obj
LOAD CMakeFiles/f4xx_SPI.elf.dir/Core/Src/gui/lvgl/misc/lv_area.c.obj
LOAD CMakeFiles/f4xx_SPI.elf.dir/Core/Src/gui/lvgl/misc/lv_async.c.obj
LOAD CMakeFiles/f4xx_SPI.elf.dir/Core/Src/gui/lvgl/misc/lv_bidi.c.obj
LOAD CMakeFiles/f4xx_SPI.elf.dir/Core/Src/gui/lvgl/misc/lv_color.c.obj
LOAD CMakeFiles/f4xx_SPI.elf.dir/Core/Src/gui/lvgl/misc/lv_fs.c.obj
LOAD CMakeFiles/f4xx_SPI.elf.dir/Core/Src/gui/lvgl/misc/lv_gc.c.obj
LOAD CMakeFiles/f4xx_SPI.elf.dir/Core/Src/gui/lvgl/misc/lv_ll.c.obj
LOAD CMakeFiles/f4xx_SPI.elf.dir/Core/Src/gui/lvgl/misc/lv_log.c.obj
LOAD CMakeFiles/f4xx_SPI.elf.dir/Core/Src/gui/lvgl/misc/lv_lru.c.obj
LOAD CMakeFiles/f4xx_SPI.elf.dir/Core/Src/gui/lvgl/misc/lv_math.c.obj
LOAD CMakeFiles/f4xx_SPI.elf.dir/Core/Src/gui/lvgl/misc/lv_mem.c.obj
LOAD CMakeFiles/f4xx_SPI.elf.dir/Core/Src/gui/lvgl/misc/lv_printf.c.obj
LOAD CMakeFiles/f4xx_SPI.elf.dir/Core/Src/gui/lvgl/misc/lv_style.c.obj
LOAD CMakeFiles/f4xx_SPI.elf.dir/Core/Src/gui/lvgl/misc/lv_style_gen.c.obj
LOAD CMakeFiles/f4xx_SPI.elf.dir/Core/Src/gui/lvgl/misc/lv_templ.c.obj
LOAD CMakeFiles/f4xx_SPI.elf.dir/Core/Src/gui/lvgl/misc/lv_timer.c.obj
LOAD CMakeFiles/f4xx_SPI.elf.dir/Core/Src/gui/lvgl/misc/lv_tlsf.c.obj
LOAD CMakeFiles/f4xx_SPI.elf.dir/Core/Src/gui/lvgl/misc/lv_txt.c.obj
LOAD CMakeFiles/f4xx_SPI.elf.dir/Core/Src/gui/lvgl/misc/lv_txt_ap.c.obj
LOAD CMakeFiles/f4xx_SPI.elf.dir/Core/Src/gui/lvgl/misc/lv_utils.c.obj
LOAD CMakeFiles/f4xx_SPI.elf.dir/Core/Src/gui/lvgl/widgets/lv_arc.c.obj
LOAD CMakeFiles/f4xx_SPI.elf.dir/Core/Src/gui/lvgl/widgets/lv_bar.c.obj
LOAD CMakeFiles/f4xx_SPI.elf.dir/Core/Src/gui/lvgl/widgets/lv_btn.c.obj
LOAD CMakeFiles/f4xx_SPI.elf.dir/Core/Src/gui/lvgl/widgets/lv_btnmatrix.c.obj
LOAD CMakeFiles/f4xx_SPI.elf.dir/Core/Src/gui/lvgl/widgets/lv_canvas.c.obj
LOAD CMakeFiles/f4xx_SPI.elf.dir/Core/Src/gui/lvgl/widgets/lv_checkbox.c.obj
LOAD CMakeFiles/f4xx_SPI.elf.dir/Core/Src/gui/lvgl/widgets/lv_dropdown.c.obj
LOAD CMakeFiles/f4xx_SPI.elf.dir/Core/Src/gui/lvgl/widgets/lv_img.c.obj
LOAD CMakeFiles/f4xx_SPI.elf.dir/Core/Src/gui/lvgl/widgets/lv_label.c.obj
LOAD CMakeFiles/f4xx_SPI.elf.dir/Core/Src/gui/lvgl/widgets/lv_line.c.obj
LOAD CMakeFiles/f4xx_SPI.elf.dir/Core/Src/gui/lvgl/widgets/lv_objx_templ.c.obj
LOAD CMakeFiles/f4xx_SPI.elf.dir/Core/Src/gui/lvgl/widgets/lv_roller.c.obj
LOAD CMakeFiles/f4xx_SPI.elf.dir/Core/Src/gui/lvgl/widgets/lv_slider.c.obj
LOAD CMakeFiles/f4xx_SPI.elf.dir/Core/Src/gui/lvgl/widgets/lv_switch.c.obj
LOAD CMakeFiles/f4xx_SPI.elf.dir/Core/Src/gui/lvgl/widgets/lv_table.c.obj
LOAD CMakeFiles/f4xx_SPI.elf.dir/Core/Src/gui/lvgl/widgets/lv_textarea.c.obj
LOAD CMakeFiles/f4xx_SPI.elf.dir/Core/Src/gui_timer.c.obj
LOAD CMakeFiles/f4xx_SPI.elf.dir/Core/Src/main.c.obj
LOAD CMakeFiles/f4xx_SPI.elf.dir/Core/Src/spi.c.obj
LOAD CMakeFiles/f4xx_SPI.elf.dir/Core/Src/stm32f4xx_hal_msp.c.obj
LOAD CMakeFiles/f4xx_SPI.elf.dir/Core/Src/stm32f4xx_it.c.obj
LOAD CMakeFiles/f4xx_SPI.elf.dir/Core/Src/sys.c.obj
LOAD CMakeFiles/f4xx_SPI.elf.dir/Core/Src/syscalls.c.obj
LOAD CMakeFiles/f4xx_SPI.elf.dir/Core/Src/system_stm32f4xx.c.obj
LOAD CMakeFiles/f4xx_SPI.elf.dir/Core/Src/tim.c.obj
LOAD CMakeFiles/f4xx_SPI.elf.dir/Core/Src/usart.c.obj
LOAD CMakeFiles/f4xx_SPI.elf.dir/Core/Src/w25qxx/driver_w25qxx.c.obj
LOAD CMakeFiles/f4xx_SPI.elf.dir/Drivers/STM32F4xx_HAL_Driver/Src/stm32f4xx_hal.c.obj
LOAD CMakeFiles/f4xx_SPI.elf.dir/Drivers/STM32F4xx_HAL_Driver/Src/stm32f4xx_hal_can.c.obj
LOAD CMakeFiles/f4xx_SPI.elf.dir/Drivers/STM32F4xx_HAL_Driver/Src/stm32f4xx_hal_cortex.c.obj
LOAD CMakeFiles/f4xx_SPI.elf.dir/Drivers/STM32F4xx_HAL_Driver/Src/stm32f4xx_hal_dma.c.obj
LOAD CMakeFiles/f4xx_SPI.elf.dir/Drivers/STM32F4xx_HAL_Driver/Src/stm32f4xx_hal_dma_ex.c.obj
LOAD CMakeFiles/f4xx_SPI.elf.dir/Drivers/STM32F4xx_HAL_Driver/Src/stm32f4xx_hal_exti.c.obj
LOAD CMakeFiles/f4xx_SPI.elf.dir/Drivers/STM32F4xx_HAL_Driver/Src/stm32f4xx_hal_flash.c.obj
LOAD CMakeFiles/f4xx_SPI.elf.dir/Drivers/STM32F4xx_HAL_Driver/Src/stm32f4xx_hal_flash_ex.c.obj
LOAD CMakeFiles/f4xx_SPI.elf.dir/Drivers/STM32F4xx_HAL_Driver/Src/stm32f4xx_hal_flash_ramfunc.c.obj
LOAD CMakeFiles/f4xx_SPI.elf.dir/Drivers/STM32F4xx_HAL_Driver/Src/stm32f4xx_hal_gpio.c.obj
LOAD CMakeFiles/f4xx_SPI.elf.dir/Drivers/STM32F4xx_HAL_Driver/Src/stm32f4xx_hal_pwr.c.obj
LOAD CMakeFiles/f4xx_SPI.elf.dir/Drivers/STM32F4xx_HAL_Driver/Src/stm32f4xx_hal_pwr_ex.c.obj
LOAD CMakeFiles/f4xx_SPI.elf.dir/Drivers/STM32F4xx_HAL_Driver/Src/stm32f4xx_hal_rcc.c.obj
LOAD CMakeFiles/f4xx_SPI.elf.dir/Drivers/STM32F4xx_HAL_Driver/Src/stm32f4xx_hal_rcc_ex.c.obj
LOAD CMakeFiles/f4xx_SPI.elf.dir/Drivers/STM32F4xx_HAL_Driver/Src/stm32f4xx_hal_spi.c.obj
LOAD CMakeFiles/f4xx_SPI.elf.dir/Drivers/STM32F4xx_HAL_Driver/Src/stm32f4xx_hal_tim.c.obj
LOAD CMakeFiles/f4xx_SPI.elf.dir/Drivers/STM32F4xx_HAL_Driver/Src/stm32f4xx_hal_tim_ex.c.obj
LOAD CMakeFiles/f4xx_SPI.elf.dir/Drivers/STM32F4xx_HAL_Driver/Src/stm32f4xx_hal_uart.c.obj
LOAD CMakeFiles/f4xx_SPI.elf.dir/startup/startup_stm32f407xx.s.obj
START GROUP
LOAD d:/arm_rt/gcc-arm-none-eabi-9-2020-q2-update-win32/bin/../lib/gcc/arm-none-eabi/9.3.1/thumb/v7e-m/nofp\libgcc.a
LOAD d:/arm_rt/gcc-arm-none-eabi-9-2020-q2-update-win32/bin/../lib/gcc/arm-none-eabi/9.3.1/../../../../arm-none-eabi/lib/thumb/v7e-m/nofp\libg.a
LOAD d:/arm_rt/gcc-arm-none-eabi-9-2020-q2-update-win32/bin/../lib/gcc/arm-none-eabi/9.3.1/../../../../arm-none-eabi/lib/thumb/v7e-m/nofp\libc.a
END GROUP
LOAD d:/arm_rt/gcc-arm-none-eabi-9-2020-q2-update-win32/bin/../lib/gcc/arm-none-eabi/9.3.1/thumb/v7e-m/nofp/crtend.o
LOAD d:/arm_rt/gcc-arm-none-eabi-9-2020-q2-update-win32/bin/../lib/gcc/arm-none-eabi/9.3.1/thumb/v7e-m/nofp/crtn.o
                0x20020000                _estack = 0x20020000
                0x00002000                _Min_Heap_Size = 0x2000
                0x00002000                _Min_Stack_Size = 0x2000

.isr_vector     0x08000000      0x188
                0x08000000                . = ALIGN (0x4)
 *(.isr_vector)
 .isr_vector    0x08000000      0x188 CMakeFiles/f4xx_SPI.elf.dir/startup/startup_stm32f407xx.s.obj
                0x08000000                g_pfnVectors
                0x08000188                . = ALIGN (0x4)

.text           0x080001c0    0x39694
                0x080001c0                . = ALIGN (0x4)
 *(.text)
 .text          0x080001c0       0x40 d:/arm_rt/gcc-arm-none-eabi-9-2020-q2-update-win32/bin/../lib/gcc/arm-none-eabi/9.3.1/thumb/v7e-m/nofp/crtbegin.o
 .text          0x08000200       0x30 d:/arm_rt/gcc-arm-none-eabi-9-2020-q2-update-win32/bin/../lib/gcc/arm-none-eabi/9.3.1/thumb/v7e-m/nofp\libgcc.a(_aeabi_uldivmod.o)
                0x08000200                __aeabi_uldivmod
 .text          0x08000230      0x2c0 d:/arm_rt/gcc-arm-none-eabi-9-2020-q2-update-win32/bin/../lib/gcc/arm-none-eabi/9.3.1/thumb/v7e-m/nofp\libgcc.a(_udivmoddi4.o)
                0x08000230                __udivmoddi4
 .text          0x080004f0        0x4 d:/arm_rt/gcc-arm-none-eabi-9-2020-q2-update-win32/bin/../lib/gcc/arm-none-eabi/9.3.1/thumb/v7e-m/nofp\libgcc.a(_dvmd_tls.o)
                0x080004f0                __aeabi_idiv0
                0x080004f0                __aeabi_ldiv0
 .text          0x080004f4      0x134 d:/arm_rt/gcc-arm-none-eabi-9-2020-q2-update-win32/bin/../lib/gcc/arm-none-eabi/9.3.1/../../../../arm-none-eabi/lib/thumb/v7e-m/nofp\libg.a(lib_a-memcpy.o)
                0x080004f4                memcpy
 *fill*         0x08000628       0x18 
 .text          0x08000640      0x2dc d:/arm_rt/gcc-arm-none-eabi-9-2020-q2-update-win32/bin/../lib/gcc/arm-none-eabi/9.3.1/../../../../arm-none-eabi/lib/thumb/v7e-m/nofp\libg.a(lib_a-strcmp.o)
                0x08000648                strcmp
 *fill*         0x0800091c       0x24 
 .text          0x08000940       0xdc d:/arm_rt/gcc-arm-none-eabi-9-2020-q2-update-win32/bin/../lib/gcc/arm-none-eabi/9.3.1/../../../../arm-none-eabi/lib/thumb/v7e-m/nofp\libg.a(lib_a-strlen.o)
                0x08000940                strlen
 *fill*         0x08000a1c        0x4 
 .text          0x08000a20       0xa0 d:/arm_rt/gcc-arm-none-eabi-9-2020-q2-update-win32/bin/../lib/gcc/arm-none-eabi/9.3.1/../../../../arm-none-eabi/lib/thumb/v7e-m/nofp\libg.a(lib_a-memchr.o)
                0x08000a20                memchr
 .text          0x08000ac0      0x378 d:/arm_rt/gcc-arm-none-eabi-9-2020-q2-update-win32/bin/../lib/gcc/arm-none-eabi/9.3.1/thumb/v7e-m/nofp\libgcc.a(_arm_addsubdf3.o)
                0x08000ac0                __aeabi_drsub
                0x08000ac8                __aeabi_dsub
                0x08000ac8                __subdf3
                0x08000acc                __aeabi_dadd
                0x08000acc                __adddf3
                0x08000d44                __floatunsidf
                0x08000d44                __aeabi_ui2d
                0x08000d64                __floatsidf
                0x08000d64                __aeabi_i2d
                0x08000d88                __aeabi_f2d
                0x08000d88                __extendsfdf2
                0x08000dcc                __floatundidf
                0x08000dcc                __aeabi_ul2d
                0x08000ddc                __floatdidf
                0x08000ddc                __aeabi_l2d
 .text          0x08000e38      0x424 d:/arm_rt/gcc-arm-none-eabi-9-2020-q2-update-win32/bin/../lib/gcc/arm-none-eabi/9.3.1/thumb/v7e-m/nofp\libgcc.a(_arm_muldivdf3.o)
                0x08000e38                __aeabi_dmul
                0x08000e38                __muldf3
                0x0800108c                __divdf3
                0x0800108c                __aeabi_ddiv
 .text          0x0800125c      0x110 d:/arm_rt/gcc-arm-none-eabi-9-2020-q2-update-win32/bin/../lib/gcc/arm-none-eabi/9.3.1/thumb/v7e-m/nofp\libgcc.a(_arm_cmpdf2.o)
                0x0800125c                __gtdf2
                0x0800125c                __gedf2
                0x08001264                __ltdf2
                0x08001264                __ledf2
                0x0800126c                __nedf2
                0x0800126c                __eqdf2
                0x0800126c                __cmpdf2
                0x080012e8                __aeabi_cdrcmple
                0x080012f8                __aeabi_cdcmpeq
                0x080012f8                __aeabi_cdcmple
                0x08001308                __aeabi_dcmpeq
                0x0800131c                __aeabi_dcmplt
                0x08001330                __aeabi_dcmple
                0x08001344                __aeabi_dcmpge
                0x08001358                __aeabi_dcmpgt
 .text          0x0800136c       0x2c d:/arm_rt/gcc-arm-none-eabi-9-2020-q2-update-win32/bin/../lib/gcc/arm-none-eabi/9.3.1/thumb/v7e-m/nofp\libgcc.a(_arm_unorddf2.o)
                0x0800136c                __unorddf2
                0x0800136c                __aeabi_dcmpun
 .text          0x08001398       0x50 d:/arm_rt/gcc-arm-none-eabi-9-2020-q2-update-win32/bin/../lib/gcc/arm-none-eabi/9.3.1/thumb/v7e-m/nofp\libgcc.a(_arm_fixdfsi.o)
                0x08001398                __aeabi_d2iz
                0x08001398                __fixdfsi
 *(.text*)
 .text.app_run  0x080013e8        0x8 CMakeFiles/f4xx_SPI.elf.dir/Core/Src/app/app.c.obj
                0x080013e8                app_run
 .text.profile_create
                0x080013f0      0xaec CMakeFiles/f4xx_SPI.elf.dir/Core/Src/app/widgets/lv_demo_widgets.c.obj
 .text.shop_chart_event_cb
                0x08001edc      0x174 CMakeFiles/f4xx_SPI.elf.dir/Core/Src/app/widgets/lv_demo_widgets.c.obj
 .text.slider_event_cb
                0x08002050      0x200 CMakeFiles/f4xx_SPI.elf.dir/Core/Src/app/widgets/lv_demo_widgets.c.obj
 .text.birthday_event_cb
                0x08002250       0xe4 CMakeFiles/f4xx_SPI.elf.dir/Core/Src/app/widgets/lv_demo_widgets.c.obj
 .text.calendar_event_cb
                0x08002334       0x80 CMakeFiles/f4xx_SPI.elf.dir/Core/Src/app/widgets/lv_demo_widgets.c.obj
 .text.ta_event_cb
                0x080023b4       0xf8 CMakeFiles/f4xx_SPI.elf.dir/Core/Src/app/widgets/lv_demo_widgets.c.obj
 .text.color_changer_event_cb
                0x080024ac       0x80 CMakeFiles/f4xx_SPI.elf.dir/Core/Src/app/widgets/lv_demo_widgets.c.obj
 .text.meter3_anim_cb
                0x0800252c       0x2c CMakeFiles/f4xx_SPI.elf.dir/Core/Src/app/widgets/lv_demo_widgets.c.obj
 .text.meter2_timer_cb
                0x08002558      0x19c CMakeFiles/f4xx_SPI.elf.dir/Core/Src/app/widgets/lv_demo_widgets.c.obj
 .text.meter1_indic3_anim_cb
                0x080026f4       0x30 CMakeFiles/f4xx_SPI.elf.dir/Core/Src/app/widgets/lv_demo_widgets.c.obj
 .text.meter1_indic2_anim_cb
                0x08002724       0x30 CMakeFiles/f4xx_SPI.elf.dir/Core/Src/app/widgets/lv_demo_widgets.c.obj
 .text.meter1_indic1_anim_cb
                0x08002754       0x30 CMakeFiles/f4xx_SPI.elf.dir/Core/Src/app/widgets/lv_demo_widgets.c.obj
 .text.chart_event_cb
                0x08002784      0x47c CMakeFiles/f4xx_SPI.elf.dir/Core/Src/app/widgets/lv_demo_widgets.c.obj
 .text.create_meter_box
                0x08002c00      0x2dc CMakeFiles/f4xx_SPI.elf.dir/Core/Src/app/widgets/lv_demo_widgets.c.obj
 .text.create_shop_item
                0x08002edc       0xdc CMakeFiles/f4xx_SPI.elf.dir/Core/Src/app/widgets/lv_demo_widgets.c.obj
 .text.analytics_create
                0x08002fb8      0xcac CMakeFiles/f4xx_SPI.elf.dir/Core/Src/app/widgets/lv_demo_widgets.c.obj
 .text.shop_create
                0x08003c64      0x6a4 CMakeFiles/f4xx_SPI.elf.dir/Core/Src/app/widgets/lv_demo_widgets.c.obj
 .text.color_changer_anim_cb
                0x08004308      0x1e8 CMakeFiles/f4xx_SPI.elf.dir/Core/Src/app/widgets/lv_demo_widgets.c.obj
 .text.color_event_cb
                0x080044f0       0xe0 CMakeFiles/f4xx_SPI.elf.dir/Core/Src/app/widgets/lv_demo_widgets.c.obj
 .text.color_changer_create
                0x080045d0      0x4c0 CMakeFiles/f4xx_SPI.elf.dir/Core/Src/app/widgets/lv_demo_widgets.c.obj
 .text.lv_demo_widgets
                0x08004a90      0x294 CMakeFiles/f4xx_SPI.elf.dir/Core/Src/app/widgets/lv_demo_widgets.c.obj
                0x08004a90                lv_demo_widgets
 .text.flash_driver_w25qxx_test
                0x08004d24      0x208 CMakeFiles/f4xx_SPI.elf.dir/Core/Src/bsp_flash.c.obj
                0x08004d24                flash_driver_w25qxx_test
 .text.MX_CAN1_Init
                0x08004f2c       0x38 CMakeFiles/f4xx_SPI.elf.dir/Core/Src/can.c.obj
                0x08004f2c                MX_CAN1_Init
 .text.HAL_CAN_MspInit
                0x08004f64       0xb0 CMakeFiles/f4xx_SPI.elf.dir/Core/Src/can.c.obj
                0x08004f64                HAL_CAN_MspInit
 .text.DEBUG_Start_Receiver
                0x08005014       0x18 CMakeFiles/f4xx_SPI.elf.dir/Core/Src/debug.c.obj
                0x08005014                DEBUG_Start_Receiver
 .text.DEBUG_RxCpltCallback
                0x0800502c       0x44 CMakeFiles/f4xx_SPI.elf.dir/Core/Src/debug.c.obj
                0x0800502c                DEBUG_RxCpltCallback
 .text.DEBUG_ErrorCallback
                0x08005070      0x134 CMakeFiles/f4xx_SPI.elf.dir/Core/Src/debug.c.obj
                0x08005070                DEBUG_ErrorCallback
 .text.DEBUG_TxCpltCallback
                0x080051a4       0x80 CMakeFiles/f4xx_SPI.elf.dir/Core/Src/debug.c.obj
                0x080051a4                DEBUG_TxCpltCallback
 .text.MX_DMA_Init
                0x08005224       0xb8 CMakeFiles/f4xx_SPI.elf.dir/Core/Src/dma.c.obj
                0x08005224                MX_DMA_Init
 .text.MX_GPIO_Init
                0x080052dc       0xd0 CMakeFiles/f4xx_SPI.elf.dir/Core/Src/gpio.c.obj
                0x080052dc                MX_GPIO_Init
 .text.GC9A01_command
                0x080053ac       0x4c CMakeFiles/f4xx_SPI.elf.dir/Core/Src/gui/lv_drv/display/GC9A01.c.obj
 .text.GC9A01_data
                0x080053f8       0x4c CMakeFiles/f4xx_SPI.elf.dir/Core/Src/gui/lv_drv/display/GC9A01.c.obj
 .text.GC9A01_set_addr_win
                0x08005444       0x4e CMakeFiles/f4xx_SPI.elf.dir/Core/Src/gui/lv_drv/display/GC9A01.c.obj
 *fill*         0x08005492        0x2 
 .text.GC9A01_hard_reset
                0x08005494       0x48 CMakeFiles/f4xx_SPI.elf.dir/Core/Src/gui/lv_drv/display/GC9A01.c.obj
 .text.GC9A01_run_cfg_script
                0x080054dc       0x5c CMakeFiles/f4xx_SPI.elf.dir/Core/Src/gui/lv_drv/display/GC9A01.c.obj
 .text.GC9A01_fillRect
                0x08005538       0x94 CMakeFiles/f4xx_SPI.elf.dir/Core/Src/gui/lv_drv/display/GC9A01.c.obj
                0x08005538                GC9A01_fillRect
 .text.GC9A01_fillScreen
                0x080055cc       0x18 CMakeFiles/f4xx_SPI.elf.dir/Core/Src/gui/lv_drv/display/GC9A01.c.obj
                0x080055cc                GC9A01_fillScreen
 .text.GC9A01_init
                0x080055e4       0x16 CMakeFiles/f4xx_SPI.elf.dir/Core/Src/gui/lv_drv/display/GC9A01.c.obj
                0x080055e4                GC9A01_init
 *fill*         0x080055fa        0x2 
 .text.GC9A01_flush
                0x080055fc       0xa0 CMakeFiles/f4xx_SPI.elf.dir/Core/Src/gui/lv_drv/display/GC9A01.c.obj
                0x080055fc                GC9A01_flush
 .text.disp_flush
                0x0800569c       0x10 CMakeFiles/f4xx_SPI.elf.dir/Core/Src/gui/lv_drv/lv_drv.c.obj
 .text.disp_init
                0x080056ac        0x8 CMakeFiles/f4xx_SPI.elf.dir/Core/Src/gui/lv_drv/lv_drv.c.obj
 .text.lv_drv_init
                0x080056b4       0x44 CMakeFiles/f4xx_SPI.elf.dir/Core/Src/gui/lv_drv/lv_drv.c.obj
                0x080056b4                lv_drv_init
 .text.lv_disp_get_scr_act
                0x080056f8       0x38 CMakeFiles/f4xx_SPI.elf.dir/Core/Src/gui/lvgl/core/lv_disp.c.obj
                0x080056f8                lv_disp_get_scr_act
 .text.lv_disp_get_scr_prev
                0x08005730       0x38 CMakeFiles/f4xx_SPI.elf.dir/Core/Src/gui/lvgl/core/lv_disp.c.obj
                0x08005730                lv_disp_get_scr_prev
 .text.lv_disp_get_layer_top
                0x08005768       0x38 CMakeFiles/f4xx_SPI.elf.dir/Core/Src/gui/lvgl/core/lv_disp.c.obj
                0x08005768                lv_disp_get_layer_top
 .text.lv_disp_get_layer_sys
                0x080057a0       0x38 CMakeFiles/f4xx_SPI.elf.dir/Core/Src/gui/lvgl/core/lv_disp.c.obj
                0x080057a0                lv_disp_get_layer_sys
 .text.lv_disp_get_theme
                0x080057d8       0x12 CMakeFiles/f4xx_SPI.elf.dir/Core/Src/gui/lvgl/core/lv_disp.c.obj
                0x080057d8                lv_disp_get_theme
 .text.lv_obj_get_event_dsc
                0x080057ea       0x1e CMakeFiles/f4xx_SPI.elf.dir/Core/Src/gui/lvgl/core/lv_event.c.obj
 .text.event_is_bubbled
                0x08005808       0xac CMakeFiles/f4xx_SPI.elf.dir/Core/Src/gui/lvgl/core/lv_event.c.obj
 .text.lv_obj_event_base
                0x080058b4       0x40 CMakeFiles/f4xx_SPI.elf.dir/Core/Src/gui/lvgl/core/lv_event.c.obj
                0x080058b4                lv_obj_event_base
 .text.event_send_core
                0x080058f4      0x112 CMakeFiles/f4xx_SPI.elf.dir/Core/Src/gui/lvgl/core/lv_event.c.obj
 *fill*         0x08005a06        0x2 
 .text.lv_event_send
                0x08005a08       0x44 CMakeFiles/f4xx_SPI.elf.dir/Core/Src/gui/lvgl/core/lv_event.c.obj
                0x08005a08                lv_event_send
 .text.lv_event_get_target
                0x08005a4c        0x4 CMakeFiles/f4xx_SPI.elf.dir/Core/Src/gui/lvgl/core/lv_event.c.obj
                0x08005a4c                lv_event_get_target
 .text.lv_event_get_current_target
                0x08005a50        0x4 CMakeFiles/f4xx_SPI.elf.dir/Core/Src/gui/lvgl/core/lv_event.c.obj
                0x08005a50                lv_event_get_current_target
 .text.lv_event_get_code
                0x08005a54        0x8 CMakeFiles/f4xx_SPI.elf.dir/Core/Src/gui/lvgl/core/lv_event.c.obj
                0x08005a54                lv_event_get_code
 .text.lv_event_get_param
                0x08005a5c        0x4 CMakeFiles/f4xx_SPI.elf.dir/Core/Src/gui/lvgl/core/lv_event.c.obj
                0x08005a5c                lv_event_get_param
 .text.lv_event_get_user_data
                0x08005a60        0x4 CMakeFiles/f4xx_SPI.elf.dir/Core/Src/gui/lvgl/core/lv_event.c.obj
                0x08005a60                lv_event_get_user_data
 .text._lv_event_mark_deleted
                0x08005a64       0x28 CMakeFiles/f4xx_SPI.elf.dir/Core/Src/gui/lvgl/core/lv_event.c.obj
                0x08005a64                _lv_event_mark_deleted
 .text.lv_obj_add_event_cb
                0x08005a8c       0xcc CMakeFiles/f4xx_SPI.elf.dir/Core/Src/gui/lvgl/core/lv_event.c.obj
                0x08005a8c                lv_obj_add_event_cb
 .text.lv_event_get_indev
                0x08005b58       0x3c CMakeFiles/f4xx_SPI.elf.dir/Core/Src/gui/lvgl/core/lv_event.c.obj
                0x08005b58                lv_event_get_indev
 .text.lv_event_get_draw_ctx
                0x08005b94       0x48 CMakeFiles/f4xx_SPI.elf.dir/Core/Src/gui/lvgl/core/lv_event.c.obj
                0x08005b94                lv_event_get_draw_ctx
 .text.lv_event_set_ext_draw_size
                0x08005bdc       0x40 CMakeFiles/f4xx_SPI.elf.dir/Core/Src/gui/lvgl/core/lv_event.c.obj
                0x08005bdc                lv_event_set_ext_draw_size
 .text.get_indev
                0x08005c1c       0x52 CMakeFiles/f4xx_SPI.elf.dir/Core/Src/gui/lvgl/core/lv_group.c.obj
 .text.focus_next_core
                0x08005c6e       0xe0 CMakeFiles/f4xx_SPI.elf.dir/Core/Src/gui/lvgl/core/lv_group.c.obj
 *fill*         0x08005d4e        0x2 
 .text._lv_group_init
                0x08005d50       0x10 CMakeFiles/f4xx_SPI.elf.dir/Core/Src/gui/lvgl/core/lv_group.c.obj
                0x08005d50                _lv_group_init
 .text.lv_group_get_default
                0x08005d60        0xc CMakeFiles/f4xx_SPI.elf.dir/Core/Src/gui/lvgl/core/lv_group.c.obj
                0x08005d60                lv_group_get_default
 .text.lv_group_focus_next
                0x08005d6c       0x14 CMakeFiles/f4xx_SPI.elf.dir/Core/Src/gui/lvgl/core/lv_group.c.obj
                0x08005d6c                lv_group_focus_next
 .text.lv_group_focus_prev
                0x08005d80       0x14 CMakeFiles/f4xx_SPI.elf.dir/Core/Src/gui/lvgl/core/lv_group.c.obj
                0x08005d80                lv_group_focus_prev
 .text.lv_group_refocus
                0x08005d94       0x2a CMakeFiles/f4xx_SPI.elf.dir/Core/Src/gui/lvgl/core/lv_group.c.obj
 *fill*         0x08005dbe        0x2 
 .text.lv_group_add_obj
                0x08005dc0       0xa4 CMakeFiles/f4xx_SPI.elf.dir/Core/Src/gui/lvgl/core/lv_group.c.obj
                0x08005dc0                lv_group_add_obj
 .text.lv_group_remove_obj
                0x08005e64       0xa4 CMakeFiles/f4xx_SPI.elf.dir/Core/Src/gui/lvgl/core/lv_group.c.obj
                0x08005e64                lv_group_remove_obj
 .text.lv_group_get_focused
                0x08005f08        0xc CMakeFiles/f4xx_SPI.elf.dir/Core/Src/gui/lvgl/core/lv_group.c.obj
                0x08005f08                lv_group_get_focused
 .text.lv_group_set_editing
                0x08005f14       0x44 CMakeFiles/f4xx_SPI.elf.dir/Core/Src/gui/lvgl/core/lv_group.c.obj
                0x08005f14                lv_group_set_editing
 .text.lv_group_get_editing
                0x08005f58        0xe CMakeFiles/f4xx_SPI.elf.dir/Core/Src/gui/lvgl/core/lv_group.c.obj
                0x08005f58                lv_group_get_editing
 *fill*         0x08005f66        0x2 
 .text.lv_indev_get_act
                0x08005f68        0xc CMakeFiles/f4xx_SPI.elf.dir/Core/Src/gui/lvgl/core/lv_indev.c.obj
                0x08005f68                lv_indev_get_act
 .text.lv_indev_get_type
                0x08005f74        0xc CMakeFiles/f4xx_SPI.elf.dir/Core/Src/gui/lvgl/core/lv_indev.c.obj
                0x08005f74                lv_indev_get_type
 .text.lv_indev_reset
                0x08005f80       0xb0 CMakeFiles/f4xx_SPI.elf.dir/Core/Src/gui/lvgl/core/lv_indev.c.obj
                0x08005f80                lv_indev_reset
 .text.lv_indev_reset_long_press
                0x08006030       0x1a CMakeFiles/f4xx_SPI.elf.dir/Core/Src/gui/lvgl/core/lv_indev.c.obj
                0x08006030                lv_indev_reset_long_press
 .text.lv_indev_get_point
                0x0800604a       0x30 CMakeFiles/f4xx_SPI.elf.dir/Core/Src/gui/lvgl/core/lv_indev.c.obj
                0x0800604a                lv_indev_get_point
 .text.lv_indev_get_scroll_dir
                0x0800607a       0x22 CMakeFiles/f4xx_SPI.elf.dir/Core/Src/gui/lvgl/core/lv_indev.c.obj
                0x0800607a                lv_indev_get_scroll_dir
 .text.lv_indev_get_scroll_obj
                0x0800609c       0x1a CMakeFiles/f4xx_SPI.elf.dir/Core/Src/gui/lvgl/core/lv_indev.c.obj
                0x0800609c                lv_indev_get_scroll_obj
 .text.lv_indev_get_vect
                0x080060b6       0x24 CMakeFiles/f4xx_SPI.elf.dir/Core/Src/gui/lvgl/core/lv_indev.c.obj
                0x080060b6                lv_indev_get_vect
 .text.lv_indev_wait_release
                0x080060da        0xc CMakeFiles/f4xx_SPI.elf.dir/Core/Src/gui/lvgl/core/lv_indev.c.obj
                0x080060da                lv_indev_wait_release
 *fill*         0x080060e6        0x2 
 .text.lv_indev_get_obj_act
                0x080060e8        0xc CMakeFiles/f4xx_SPI.elf.dir/Core/Src/gui/lvgl/core/lv_indev.c.obj
                0x080060e8                lv_indev_get_obj_act
 .text.lv_indev_scroll_throw_predict
                0x080060f4       0x4c CMakeFiles/f4xx_SPI.elf.dir/Core/Src/gui/lvgl/core/lv_indev_scroll.c.obj
                0x080060f4                lv_indev_scroll_throw_predict
 .text.scrollbar_init_draw_dsc
                0x08006140      0x110 CMakeFiles/f4xx_SPI.elf.dir/Core/Src/gui/lvgl/core/lv_obj.c.obj
 .text.draw_scrollbar
                0x08006250       0xac CMakeFiles/f4xx_SPI.elf.dir/Core/Src/gui/lvgl/core/lv_obj.c.obj
 .text.lv_obj_draw
                0x080062fc      0x2cc CMakeFiles/f4xx_SPI.elf.dir/Core/Src/gui/lvgl/core/lv_obj.c.obj
 .text.lv_obj_constructor
                0x080065c8       0x84 CMakeFiles/f4xx_SPI.elf.dir/Core/Src/gui/lvgl/core/lv_obj.c.obj
 .text.lv_obj_set_state
                0x0800664c      0x220 CMakeFiles/f4xx_SPI.elf.dir/Core/Src/gui/lvgl/core/lv_obj.c.obj
 .text.lv_init  0x0800686c       0x7c CMakeFiles/f4xx_SPI.elf.dir/Core/Src/gui/lvgl/core/lv_obj.c.obj
                0x0800686c                lv_init
 .text.lv_obj_create
                0x080068e8       0x18 CMakeFiles/f4xx_SPI.elf.dir/Core/Src/gui/lvgl/core/lv_obj.c.obj
                0x080068e8                lv_obj_create
 .text.lv_obj_add_flag
                0x08006900       0x72 CMakeFiles/f4xx_SPI.elf.dir/Core/Src/gui/lvgl/core/lv_obj.c.obj
                0x08006900                lv_obj_add_flag
 .text.lv_obj_clear_flag
                0x08006972       0x7e CMakeFiles/f4xx_SPI.elf.dir/Core/Src/gui/lvgl/core/lv_obj.c.obj
                0x08006972                lv_obj_clear_flag
 .text.lv_obj_add_state
                0x080069f0       0x18 CMakeFiles/f4xx_SPI.elf.dir/Core/Src/gui/lvgl/core/lv_obj.c.obj
                0x080069f0                lv_obj_add_state
 .text.lv_obj_clear_state
                0x08006a08       0x1a CMakeFiles/f4xx_SPI.elf.dir/Core/Src/gui/lvgl/core/lv_obj.c.obj
                0x08006a08                lv_obj_clear_state
 .text.lv_obj_has_flag
                0x08006a22        0xe CMakeFiles/f4xx_SPI.elf.dir/Core/Src/gui/lvgl/core/lv_obj.c.obj
                0x08006a22                lv_obj_has_flag
 .text.lv_obj_has_flag_any
                0x08006a30        0xc CMakeFiles/f4xx_SPI.elf.dir/Core/Src/gui/lvgl/core/lv_obj.c.obj
                0x08006a30                lv_obj_has_flag_any
 .text.lv_obj_get_state
                0x08006a3c        0x4 CMakeFiles/f4xx_SPI.elf.dir/Core/Src/gui/lvgl/core/lv_obj.c.obj
                0x08006a3c                lv_obj_get_state
 .text.lv_obj_has_state
                0x08006a40        0xc CMakeFiles/f4xx_SPI.elf.dir/Core/Src/gui/lvgl/core/lv_obj.c.obj
                0x08006a40                lv_obj_has_state
 .text.lv_obj_get_group
                0x08006a4c        0x8 CMakeFiles/f4xx_SPI.elf.dir/Core/Src/gui/lvgl/core/lv_obj.c.obj
                0x08006a4c                lv_obj_get_group
 .text.lv_obj_event
                0x08006a54      0x3be CMakeFiles/f4xx_SPI.elf.dir/Core/Src/gui/lvgl/core/lv_obj.c.obj
 *fill*         0x08006e12        0x2 
 .text.lv_obj_destructor
                0x08006e14       0x68 CMakeFiles/f4xx_SPI.elf.dir/Core/Src/gui/lvgl/core/lv_obj.c.obj
 .text.lv_obj_allocate_spec_attr
                0x08006e7c       0x70 CMakeFiles/f4xx_SPI.elf.dir/Core/Src/gui/lvgl/core/lv_obj.c.obj
                0x08006e7c                lv_obj_allocate_spec_attr
 .text.lv_obj_check_type
                0x08006eec       0x12 CMakeFiles/f4xx_SPI.elf.dir/Core/Src/gui/lvgl/core/lv_obj.c.obj
                0x08006eec                lv_obj_check_type
 .text.lv_obj_construct
                0x08006efe       0x1e CMakeFiles/f4xx_SPI.elf.dir/Core/Src/gui/lvgl/core/lv_obj_class.c.obj
 .text.get_instance_size
                0x08006f1c       0x20 CMakeFiles/f4xx_SPI.elf.dir/Core/Src/gui/lvgl/core/lv_obj_class.c.obj
 .text.lv_obj_class_create_obj
                0x08006f3c       0xf4 CMakeFiles/f4xx_SPI.elf.dir/Core/Src/gui/lvgl/core/lv_obj_class.c.obj
                0x08006f3c                lv_obj_class_create_obj
 .text._lv_obj_destruct
                0x08007030       0x1e CMakeFiles/f4xx_SPI.elf.dir/Core/Src/gui/lvgl/core/lv_obj_class.c.obj
                0x08007030                _lv_obj_destruct
 .text.lv_obj_is_editable
                0x0800704e       0x26 CMakeFiles/f4xx_SPI.elf.dir/Core/Src/gui/lvgl/core/lv_obj_class.c.obj
                0x0800704e                lv_obj_is_editable
 .text.lv_obj_is_group_def
                0x08007074       0x26 CMakeFiles/f4xx_SPI.elf.dir/Core/Src/gui/lvgl/core/lv_obj_class.c.obj
                0x08007074                lv_obj_is_group_def
 .text.lv_obj_class_init_obj
                0x0800709a       0x72 CMakeFiles/f4xx_SPI.elf.dir/Core/Src/gui/lvgl/core/lv_obj_class.c.obj
                0x0800709a                lv_obj_class_init_obj
 .text.lv_obj_init_draw_rect_dsc
                0x0800710c      0x2ee CMakeFiles/f4xx_SPI.elf.dir/Core/Src/gui/lvgl/core/lv_obj_draw.c.obj
                0x0800710c                lv_obj_init_draw_rect_dsc
 .text.lv_obj_init_draw_label_dsc
                0x080073fa       0xae CMakeFiles/f4xx_SPI.elf.dir/Core/Src/gui/lvgl/core/lv_obj_draw.c.obj
                0x080073fa                lv_obj_init_draw_label_dsc
 .text.lv_obj_init_draw_img_dsc
                0x080074a8       0xb4 CMakeFiles/f4xx_SPI.elf.dir/Core/Src/gui/lvgl/core/lv_obj_draw.c.obj
                0x080074a8                lv_obj_init_draw_img_dsc
 .text.lv_obj_init_draw_line_dsc
                0x0800755c       0xb8 CMakeFiles/f4xx_SPI.elf.dir/Core/Src/gui/lvgl/core/lv_obj_draw.c.obj
                0x0800755c                lv_obj_init_draw_line_dsc
 .text.lv_obj_init_draw_arc_dsc
                0x08007614       0xa2 CMakeFiles/f4xx_SPI.elf.dir/Core/Src/gui/lvgl/core/lv_obj_draw.c.obj
                0x08007614                lv_obj_init_draw_arc_dsc
 .text.lv_obj_calculate_ext_draw_size
                0x080076b6       0xd8 CMakeFiles/f4xx_SPI.elf.dir/Core/Src/gui/lvgl/core/lv_obj_draw.c.obj
                0x080076b6                lv_obj_calculate_ext_draw_size
 .text.lv_obj_draw_dsc_init
                0x0800778e       0x10 CMakeFiles/f4xx_SPI.elf.dir/Core/Src/gui/lvgl/core/lv_obj_draw.c.obj
                0x0800778e                lv_obj_draw_dsc_init
 .text._lv_obj_get_ext_draw_size
                0x0800779e        0xe CMakeFiles/f4xx_SPI.elf.dir/Core/Src/gui/lvgl/core/lv_obj_draw.c.obj
                0x0800779e                _lv_obj_get_ext_draw_size
 .text.lv_obj_refresh_ext_draw_size
                0x080077ac       0x64 CMakeFiles/f4xx_SPI.elf.dir/Core/Src/gui/lvgl/core/lv_obj_draw.c.obj
                0x080077ac                lv_obj_refresh_ext_draw_size
 .text._lv_obj_get_layer_type
                0x08007810        0xe CMakeFiles/f4xx_SPI.elf.dir/Core/Src/gui/lvgl/core/lv_obj_draw.c.obj
                0x08007810                _lv_obj_get_layer_type
 .text.transform_point
                0x0800781e       0x86 CMakeFiles/f4xx_SPI.elf.dir/Core/Src/gui/lvgl/core/lv_obj_pos.c.obj
 .text.lv_obj_set_x
                0x080078a4       0x2e CMakeFiles/f4xx_SPI.elf.dir/Core/Src/gui/lvgl/core/lv_obj_pos.c.obj
                0x080078a4                lv_obj_set_x
 .text.lv_obj_set_y
                0x080078d2       0x2e CMakeFiles/f4xx_SPI.elf.dir/Core/Src/gui/lvgl/core/lv_obj_pos.c.obj
                0x080078d2                lv_obj_set_y
 .text.lv_obj_set_pos
                0x08007900       0x14 CMakeFiles/f4xx_SPI.elf.dir/Core/Src/gui/lvgl/core/lv_obj_pos.c.obj
                0x08007900                lv_obj_set_pos
 .text.lv_obj_set_width
                0x08007914       0x2e CMakeFiles/f4xx_SPI.elf.dir/Core/Src/gui/lvgl/core/lv_obj_pos.c.obj
                0x08007914                lv_obj_set_width
 .text.lv_obj_set_height
                0x08007942       0x2e CMakeFiles/f4xx_SPI.elf.dir/Core/Src/gui/lvgl/core/lv_obj_pos.c.obj
                0x08007942                lv_obj_set_height
 .text.lv_obj_set_size
                0x08007970       0x14 CMakeFiles/f4xx_SPI.elf.dir/Core/Src/gui/lvgl/core/lv_obj_pos.c.obj
                0x08007970                lv_obj_set_size
 .text.lv_obj_is_layout_positioned
                0x08007984       0x34 CMakeFiles/f4xx_SPI.elf.dir/Core/Src/gui/lvgl/core/lv_obj_pos.c.obj
                0x08007984                lv_obj_is_layout_positioned
 .text.lv_obj_mark_layout_as_dirty
                0x080079b8       0x2c CMakeFiles/f4xx_SPI.elf.dir/Core/Src/gui/lvgl/core/lv_obj_pos.c.obj
                0x080079b8                lv_obj_mark_layout_as_dirty
 .text.lv_obj_set_layout
                0x080079e4       0x14 CMakeFiles/f4xx_SPI.elf.dir/Core/Src/gui/lvgl/core/lv_obj_pos.c.obj
                0x080079e4                lv_obj_set_layout
 .text.lv_layout_register
                0x080079f8       0x74 CMakeFiles/f4xx_SPI.elf.dir/Core/Src/gui/lvgl/core/lv_obj_pos.c.obj
                0x080079f8                lv_layout_register
 .text.lv_obj_align
                0x08007a6c       0x1a CMakeFiles/f4xx_SPI.elf.dir/Core/Src/gui/lvgl/core/lv_obj_pos.c.obj
                0x08007a6c                lv_obj_align
 .text.lv_obj_get_coords
                0x08007a86       0x1a CMakeFiles/f4xx_SPI.elf.dir/Core/Src/gui/lvgl/core/lv_obj_pos.c.obj
                0x08007a86                lv_obj_get_coords
 .text.lv_obj_get_x
                0x08007aa0       0x48 CMakeFiles/f4xx_SPI.elf.dir/Core/Src/gui/lvgl/core/lv_obj_pos.c.obj
                0x08007aa0                lv_obj_get_x
 .text.lv_obj_get_y
                0x08007ae8       0x48 CMakeFiles/f4xx_SPI.elf.dir/Core/Src/gui/lvgl/core/lv_obj_pos.c.obj
                0x08007ae8                lv_obj_get_y
 .text.lv_obj_get_width
                0x08007b30        0xe CMakeFiles/f4xx_SPI.elf.dir/Core/Src/gui/lvgl/core/lv_obj_pos.c.obj
                0x08007b30                lv_obj_get_width
 .text.lv_obj_get_height
                0x08007b3e        0xe CMakeFiles/f4xx_SPI.elf.dir/Core/Src/gui/lvgl/core/lv_obj_pos.c.obj
                0x08007b3e                lv_obj_get_height
 .text.lv_obj_get_y2
                0x08007b4c       0x18 CMakeFiles/f4xx_SPI.elf.dir/Core/Src/gui/lvgl/core/lv_obj_pos.c.obj
                0x08007b4c                lv_obj_get_y2
 .text.lv_obj_get_content_width
                0x08007b64       0x40 CMakeFiles/f4xx_SPI.elf.dir/Core/Src/gui/lvgl/core/lv_obj_pos.c.obj
                0x08007b64                lv_obj_get_content_width
 .text.lv_obj_get_content_height
                0x08007ba4       0x40 CMakeFiles/f4xx_SPI.elf.dir/Core/Src/gui/lvgl/core/lv_obj_pos.c.obj
                0x08007ba4                lv_obj_get_content_height
 .text.lv_obj_get_content_coords
                0x08007be4       0x6e CMakeFiles/f4xx_SPI.elf.dir/Core/Src/gui/lvgl/core/lv_obj_pos.c.obj
                0x08007be4                lv_obj_get_content_coords
 .text.lv_obj_get_self_width
                0x08007c52       0x24 CMakeFiles/f4xx_SPI.elf.dir/Core/Src/gui/lvgl/core/lv_obj_pos.c.obj
                0x08007c52                lv_obj_get_self_width
 *fill*         0x08007c76        0x2 
 .text.calc_content_width
                0x08007c78      0x1e0 CMakeFiles/f4xx_SPI.elf.dir/Core/Src/gui/lvgl/core/lv_obj_pos.c.obj
 .text.lv_obj_get_self_height
                0x08007e58       0x24 CMakeFiles/f4xx_SPI.elf.dir/Core/Src/gui/lvgl/core/lv_obj_pos.c.obj
                0x08007e58                lv_obj_get_self_height
 .text.calc_content_height
                0x08007e7c      0x11c CMakeFiles/f4xx_SPI.elf.dir/Core/Src/gui/lvgl/core/lv_obj_pos.c.obj
 .text.lv_obj_refresh_self_size
                0x08007f98       0x34 CMakeFiles/f4xx_SPI.elf.dir/Core/Src/gui/lvgl/core/lv_obj_pos.c.obj
                0x08007f98                lv_obj_refresh_self_size
 .text.lv_obj_move_children_by
                0x08007fcc       0x6a CMakeFiles/f4xx_SPI.elf.dir/Core/Src/gui/lvgl/core/lv_obj_pos.c.obj
                0x08007fcc                lv_obj_move_children_by
 .text.lv_obj_transform_point
                0x08008036       0x66 CMakeFiles/f4xx_SPI.elf.dir/Core/Src/gui/lvgl/core/lv_obj_pos.c.obj
                0x08008036                lv_obj_transform_point
 .text.lv_obj_get_transformed_area
                0x0800809c       0xec CMakeFiles/f4xx_SPI.elf.dir/Core/Src/gui/lvgl/core/lv_obj_pos.c.obj
                0x0800809c                lv_obj_get_transformed_area
 .text.lv_obj_area_is_visible
                0x08008188      0x104 CMakeFiles/f4xx_SPI.elf.dir/Core/Src/gui/lvgl/core/lv_obj_pos.c.obj
                0x08008188                lv_obj_area_is_visible
 .text.lv_obj_invalidate_area
                0x0800828c       0x40 CMakeFiles/f4xx_SPI.elf.dir/Core/Src/gui/lvgl/core/lv_obj_pos.c.obj
                0x0800828c                lv_obj_invalidate_area
 .text.lv_obj_invalidate
                0x080082cc       0x40 CMakeFiles/f4xx_SPI.elf.dir/Core/Src/gui/lvgl/core/lv_obj_pos.c.obj
                0x080082cc                lv_obj_invalidate
 .text.lv_obj_move_to
                0x0800830c      0x138 CMakeFiles/f4xx_SPI.elf.dir/Core/Src/gui/lvgl/core/lv_obj_pos.c.obj
                0x0800830c                lv_obj_move_to
 .text.lv_obj_refr_pos
                0x08008444      0x2ac CMakeFiles/f4xx_SPI.elf.dir/Core/Src/gui/lvgl/core/lv_obj_pos.c.obj
                0x08008444                lv_obj_refr_pos
 .text.lv_obj_is_visible
                0x080086f0       0x40 CMakeFiles/f4xx_SPI.elf.dir/Core/Src/gui/lvgl/core/lv_obj_pos.c.obj
                0x080086f0                lv_obj_is_visible
 .text.lv_obj_set_ext_click_area
                0x08008730       0x10 CMakeFiles/f4xx_SPI.elf.dir/Core/Src/gui/lvgl/core/lv_obj_pos.c.obj
                0x08008730                lv_obj_set_ext_click_area
 .text.lv_obj_get_click_area
                0x08008740       0x40 CMakeFiles/f4xx_SPI.elf.dir/Core/Src/gui/lvgl/core/lv_obj_pos.c.obj
                0x08008740                lv_obj_get_click_area
 .text.lv_clamp_width
                0x08008780       0x7c CMakeFiles/f4xx_SPI.elf.dir/Core/Src/gui/lvgl/core/lv_obj_pos.c.obj
                0x08008780                lv_clamp_width
 .text.lv_clamp_height
                0x080087fc       0x7c CMakeFiles/f4xx_SPI.elf.dir/Core/Src/gui/lvgl/core/lv_obj_pos.c.obj
                0x080087fc                lv_clamp_height
 .text.lv_obj_refr_size
                0x08008878      0x34c CMakeFiles/f4xx_SPI.elf.dir/Core/Src/gui/lvgl/core/lv_obj_pos.c.obj
                0x08008878                lv_obj_refr_size
 .text.layout_update_core
                0x08008bc4       0x84 CMakeFiles/f4xx_SPI.elf.dir/Core/Src/gui/lvgl/core/lv_obj_pos.c.obj
 .text.lv_obj_update_layout
                0x08008c48       0x40 CMakeFiles/f4xx_SPI.elf.dir/Core/Src/gui/lvgl/core/lv_obj_pos.c.obj
                0x08008c48                lv_obj_update_layout
 .text.lv_obj_align_to
                0x08008c88      0x454 CMakeFiles/f4xx_SPI.elf.dir/Core/Src/gui/lvgl/core/lv_obj_pos.c.obj
                0x08008c88                lv_obj_align_to
 .text.scroll_by_raw
                0x080090dc       0x4e CMakeFiles/f4xx_SPI.elf.dir/Core/Src/gui/lvgl/core/lv_obj_scroll.c.obj
 .text.scroll_anim_ready_cb
                0x0800912a        0xe CMakeFiles/f4xx_SPI.elf.dir/Core/Src/gui/lvgl/core/lv_obj_scroll.c.obj
 .text.lv_obj_set_scrollbar_mode
                0x08009138       0x26 CMakeFiles/f4xx_SPI.elf.dir/Core/Src/gui/lvgl/core/lv_obj_scroll.c.obj
                0x08009138                lv_obj_set_scrollbar_mode
 .text.lv_obj_set_scroll_dir
                0x0800915e       0x20 CMakeFiles/f4xx_SPI.elf.dir/Core/Src/gui/lvgl/core/lv_obj_scroll.c.obj
                0x0800915e                lv_obj_set_scroll_dir
 .text.lv_obj_set_scroll_snap_x
                0x0800917e       0x16 CMakeFiles/f4xx_SPI.elf.dir/Core/Src/gui/lvgl/core/lv_obj_scroll.c.obj
                0x0800917e                lv_obj_set_scroll_snap_x
 .text.lv_obj_set_scroll_snap_y
                0x08009194       0x16 CMakeFiles/f4xx_SPI.elf.dir/Core/Src/gui/lvgl/core/lv_obj_scroll.c.obj
                0x08009194                lv_obj_set_scroll_snap_y
 .text.lv_obj_get_scrollbar_mode
                0x080091aa       0x10 CMakeFiles/f4xx_SPI.elf.dir/Core/Src/gui/lvgl/core/lv_obj_scroll.c.obj
                0x080091aa                lv_obj_get_scrollbar_mode
 .text.lv_obj_get_scroll_dir
                0x080091ba       0x10 CMakeFiles/f4xx_SPI.elf.dir/Core/Src/gui/lvgl/core/lv_obj_scroll.c.obj
                0x080091ba                lv_obj_get_scroll_dir
 .text.lv_obj_get_scroll_snap_x
                0x080091ca       0x10 CMakeFiles/f4xx_SPI.elf.dir/Core/Src/gui/lvgl/core/lv_obj_scroll.c.obj
                0x080091ca                lv_obj_get_scroll_snap_x
 .text.lv_obj_get_scroll_snap_y
                0x080091da       0x10 CMakeFiles/f4xx_SPI.elf.dir/Core/Src/gui/lvgl/core/lv_obj_scroll.c.obj
                0x080091da                lv_obj_get_scroll_snap_y
 .text.lv_obj_get_scroll_x
                0x080091ea       0x10 CMakeFiles/f4xx_SPI.elf.dir/Core/Src/gui/lvgl/core/lv_obj_scroll.c.obj
                0x080091ea                lv_obj_get_scroll_x
 .text.scroll_x_anim
                0x080091fa       0x1a CMakeFiles/f4xx_SPI.elf.dir/Core/Src/gui/lvgl/core/lv_obj_scroll.c.obj
 .text.lv_obj_get_scroll_y
                0x08009214       0x10 CMakeFiles/f4xx_SPI.elf.dir/Core/Src/gui/lvgl/core/lv_obj_scroll.c.obj
                0x08009214                lv_obj_get_scroll_y
 .text.scroll_y_anim
                0x08009224       0x1a CMakeFiles/f4xx_SPI.elf.dir/Core/Src/gui/lvgl/core/lv_obj_scroll.c.obj
 .text.lv_obj_get_scroll_top
                0x0800923e       0x10 CMakeFiles/f4xx_SPI.elf.dir/Core/Src/gui/lvgl/core/lv_obj_scroll.c.obj
                0x0800923e                lv_obj_get_scroll_top
 *fill*         0x0800924e        0x2 
 .text.lv_obj_get_scroll_bottom
                0x08009250       0xb4 CMakeFiles/f4xx_SPI.elf.dir/Core/Src/gui/lvgl/core/lv_obj_scroll.c.obj
                0x08009250                lv_obj_get_scroll_bottom
 .text.lv_obj_get_scroll_left
                0x08009304       0xe4 CMakeFiles/f4xx_SPI.elf.dir/Core/Src/gui/lvgl/core/lv_obj_scroll.c.obj
                0x08009304                lv_obj_get_scroll_left
 .text.lv_obj_get_scroll_right
                0x080093e8       0xd0 CMakeFiles/f4xx_SPI.elf.dir/Core/Src/gui/lvgl/core/lv_obj_scroll.c.obj
                0x080093e8                lv_obj_get_scroll_right
 .text.lv_obj_get_scroll_end
                0x080094b8       0x44 CMakeFiles/f4xx_SPI.elf.dir/Core/Src/gui/lvgl/core/lv_obj_scroll.c.obj
                0x080094b8                lv_obj_get_scroll_end
 .text.lv_obj_scroll_by
                0x080094fc      0x120 CMakeFiles/f4xx_SPI.elf.dir/Core/Src/gui/lvgl/core/lv_obj_scroll.c.obj
                0x080094fc                lv_obj_scroll_by
 .text.lv_obj_scroll_by_bounded
                0x0800961c       0xfe CMakeFiles/f4xx_SPI.elf.dir/Core/Src/gui/lvgl/core/lv_obj_scroll.c.obj
                0x0800961c                lv_obj_scroll_by_bounded
 *fill*         0x0800971a        0x2 
 .text.scroll_area_into_view
                0x0800971c      0x370 CMakeFiles/f4xx_SPI.elf.dir/Core/Src/gui/lvgl/core/lv_obj_scroll.c.obj
 .text.lv_obj_scroll_to_x
                0x08009a8c       0x28 CMakeFiles/f4xx_SPI.elf.dir/Core/Src/gui/lvgl/core/lv_obj_scroll.c.obj
                0x08009a8c                lv_obj_scroll_to_x
 .text.lv_obj_scroll_to_y
                0x08009ab4       0x28 CMakeFiles/f4xx_SPI.elf.dir/Core/Src/gui/lvgl/core/lv_obj_scroll.c.obj
                0x08009ab4                lv_obj_scroll_to_y
 .text.lv_obj_scroll_to
                0x08009adc       0x1a CMakeFiles/f4xx_SPI.elf.dir/Core/Src/gui/lvgl/core/lv_obj_scroll.c.obj
                0x08009adc                lv_obj_scroll_to
 .text.lv_obj_scroll_to_view_recursive
                0x08009af6       0x3e CMakeFiles/f4xx_SPI.elf.dir/Core/Src/gui/lvgl/core/lv_obj_scroll.c.obj
                0x08009af6                lv_obj_scroll_to_view_recursive
 .text.lv_obj_get_scrollbar_area
                0x08009b34      0x814 CMakeFiles/f4xx_SPI.elf.dir/Core/Src/gui/lvgl/core/lv_obj_scroll.c.obj
                0x08009b34                lv_obj_get_scrollbar_area
 .text.lv_obj_scrollbar_invalidate
                0x0800a348       0x46 CMakeFiles/f4xx_SPI.elf.dir/Core/Src/gui/lvgl/core/lv_obj_scroll.c.obj
                0x0800a348                lv_obj_scrollbar_invalidate
 .text.lv_obj_readjust_scroll
                0x0800a38e       0x96 CMakeFiles/f4xx_SPI.elf.dir/Core/Src/gui/lvgl/core/lv_obj_scroll.c.obj
                0x0800a38e                lv_obj_readjust_scroll
 .text.trans_del
                0x0800a424       0xb0 CMakeFiles/f4xx_SPI.elf.dir/Core/Src/gui/lvgl/core/lv_obj_style.c.obj
 .text.refresh_children_style
                0x0800a4d4       0x3a CMakeFiles/f4xx_SPI.elf.dir/Core/Src/gui/lvgl/core/lv_obj_style.c.obj
 *fill*         0x0800a50e        0x2 
 .text.get_local_style
                0x0800a510       0xf8 CMakeFiles/f4xx_SPI.elf.dir/Core/Src/gui/lvgl/core/lv_obj_style.c.obj
 .text.get_trans_style
                0x0800a608       0xac CMakeFiles/f4xx_SPI.elf.dir/Core/Src/gui/lvgl/core/lv_obj_style.c.obj
 .text._lv_obj_style_init
                0x0800a6b4       0x10 CMakeFiles/f4xx_SPI.elf.dir/Core/Src/gui/lvgl/core/lv_obj_style.c.obj
                0x0800a6b4                _lv_obj_style_init
 .text.lv_obj_enable_style_refresh
                0x0800a6c4        0xc CMakeFiles/f4xx_SPI.elf.dir/Core/Src/gui/lvgl/core/lv_obj_style.c.obj
                0x0800a6c4                lv_obj_enable_style_refresh
 .text.lv_obj_get_local_style_prop
                0x0800a6d0       0x36 CMakeFiles/f4xx_SPI.elf.dir/Core/Src/gui/lvgl/core/lv_obj_style.c.obj
                0x0800a6d0                lv_obj_get_local_style_prop
 .text.lv_obj_remove_local_style_prop
                0x0800a706       0x3e CMakeFiles/f4xx_SPI.elf.dir/Core/Src/gui/lvgl/core/lv_obj_style.c.obj
                0x0800a706                lv_obj_remove_local_style_prop
 .text.lv_obj_style_get_selector_state
                0x0800a744        0x4 CMakeFiles/f4xx_SPI.elf.dir/Core/Src/gui/lvgl/core/lv_obj_style.c.obj
                0x0800a744                lv_obj_style_get_selector_state
 .text._lv_obj_style_state_compare
                0x0800a748      0x26a CMakeFiles/f4xx_SPI.elf.dir/Core/Src/gui/lvgl/core/lv_obj_style.c.obj
                0x0800a748                _lv_obj_style_state_compare
 .text.lv_obj_style_get_selector_part
                0x0800a9b2        0x6 CMakeFiles/f4xx_SPI.elf.dir/Core/Src/gui/lvgl/core/lv_obj_style.c.obj
                0x0800a9b2                lv_obj_style_get_selector_part
 .text.get_prop_core
                0x0800a9b8      0x128 CMakeFiles/f4xx_SPI.elf.dir/Core/Src/gui/lvgl/core/lv_obj_style.c.obj
 .text.lv_obj_get_style_prop
                0x0800aae0       0x96 CMakeFiles/f4xx_SPI.elf.dir/Core/Src/gui/lvgl/core/lv_obj_style.c.obj
                0x0800aae0                lv_obj_get_style_prop
 .text.calculate_layer_type
                0x0800ab76       0x52 CMakeFiles/f4xx_SPI.elf.dir/Core/Src/gui/lvgl/core/lv_obj_style.c.obj
 .text._lv_obj_style_create_transition
                0x0800abc8      0x16c CMakeFiles/f4xx_SPI.elf.dir/Core/Src/gui/lvgl/core/lv_obj_style.c.obj
                0x0800abc8                _lv_obj_style_create_transition
 .text._lv_obj_style_apply_color_filter
                0x0800ad34       0x3c CMakeFiles/f4xx_SPI.elf.dir/Core/Src/gui/lvgl/core/lv_obj_style.c.obj
                0x0800ad34                _lv_obj_style_apply_color_filter
 .text.lv_obj_refresh_style
                0x0800ad70      0x128 CMakeFiles/f4xx_SPI.elf.dir/Core/Src/gui/lvgl/core/lv_obj_style.c.obj
                0x0800ad70                lv_obj_refresh_style
 .text.lv_obj_add_style
                0x0800ae98       0xaa CMakeFiles/f4xx_SPI.elf.dir/Core/Src/gui/lvgl/core/lv_obj_style.c.obj
                0x0800ae98                lv_obj_add_style
 .text.report_style_change_core
                0x0800af42       0x52 CMakeFiles/f4xx_SPI.elf.dir/Core/Src/gui/lvgl/core/lv_obj_style.c.obj
 .text.lv_obj_report_style_change
                0x0800af94       0x40 CMakeFiles/f4xx_SPI.elf.dir/Core/Src/gui/lvgl/core/lv_obj_style.c.obj
                0x0800af94                lv_obj_report_style_change
 .text.lv_obj_set_local_style_prop
                0x0800afd4       0x24 CMakeFiles/f4xx_SPI.elf.dir/Core/Src/gui/lvgl/core/lv_obj_style.c.obj
                0x0800afd4                lv_obj_set_local_style_prop
 .text.trans_anim_cb
                0x0800aff8      0x1e8 CMakeFiles/f4xx_SPI.elf.dir/Core/Src/gui/lvgl/core/lv_obj_style.c.obj
 .text.lv_obj_remove_style
                0x0800b1e0      0x132 CMakeFiles/f4xx_SPI.elf.dir/Core/Src/gui/lvgl/core/lv_obj_style.c.obj
                0x0800b1e0                lv_obj_remove_style
 *fill*         0x0800b312        0x2 
 .text.trans_anim_ready_cb
                0x0800b314       0xac CMakeFiles/f4xx_SPI.elf.dir/Core/Src/gui/lvgl/core/lv_obj_style.c.obj
 .text.trans_anim_start_cb
                0x0800b3c0       0x40 CMakeFiles/f4xx_SPI.elf.dir/Core/Src/gui/lvgl/core/lv_obj_style.c.obj
 .text.lv_obj_calculate_style_text_align
                0x0800b400       0x20 CMakeFiles/f4xx_SPI.elf.dir/Core/Src/gui/lvgl/core/lv_obj_style.c.obj
                0x0800b400                lv_obj_calculate_style_text_align
 .text.lv_obj_set_style_width
                0x0800b420        0xe CMakeFiles/f4xx_SPI.elf.dir/Core/Src/gui/lvgl/core/lv_obj_style_gen.c.obj
                0x0800b420                lv_obj_set_style_width
 .text.lv_obj_set_style_min_width
                0x0800b42e        0xe CMakeFiles/f4xx_SPI.elf.dir/Core/Src/gui/lvgl/core/lv_obj_style_gen.c.obj
                0x0800b42e                lv_obj_set_style_min_width
 .text.lv_obj_set_style_height
                0x0800b43c        0xe CMakeFiles/f4xx_SPI.elf.dir/Core/Src/gui/lvgl/core/lv_obj_style_gen.c.obj
                0x0800b43c                lv_obj_set_style_height
 .text.lv_obj_set_style_max_height
                0x0800b44a        0xe CMakeFiles/f4xx_SPI.elf.dir/Core/Src/gui/lvgl/core/lv_obj_style_gen.c.obj
                0x0800b44a                lv_obj_set_style_max_height
 .text.lv_obj_set_style_x
                0x0800b458        0xe CMakeFiles/f4xx_SPI.elf.dir/Core/Src/gui/lvgl/core/lv_obj_style_gen.c.obj
                0x0800b458                lv_obj_set_style_x
 .text.lv_obj_set_style_y
                0x0800b466        0xe CMakeFiles/f4xx_SPI.elf.dir/Core/Src/gui/lvgl/core/lv_obj_style_gen.c.obj
                0x0800b466                lv_obj_set_style_y
 .text.lv_obj_set_style_align
                0x0800b474        0xe CMakeFiles/f4xx_SPI.elf.dir/Core/Src/gui/lvgl/core/lv_obj_style_gen.c.obj
                0x0800b474                lv_obj_set_style_align
 .text.lv_obj_set_style_pad_top
                0x0800b482        0xe CMakeFiles/f4xx_SPI.elf.dir/Core/Src/gui/lvgl/core/lv_obj_style_gen.c.obj
                0x0800b482                lv_obj_set_style_pad_top
 .text.lv_obj_set_style_pad_bottom
                0x0800b490        0xe CMakeFiles/f4xx_SPI.elf.dir/Core/Src/gui/lvgl/core/lv_obj_style_gen.c.obj
                0x0800b490                lv_obj_set_style_pad_bottom
 .text.lv_obj_set_style_pad_left
                0x0800b49e        0xe CMakeFiles/f4xx_SPI.elf.dir/Core/Src/gui/lvgl/core/lv_obj_style_gen.c.obj
                0x0800b49e                lv_obj_set_style_pad_left
 .text.lv_obj_set_style_pad_right
                0x0800b4ac        0xe CMakeFiles/f4xx_SPI.elf.dir/Core/Src/gui/lvgl/core/lv_obj_style_gen.c.obj
                0x0800b4ac                lv_obj_set_style_pad_right
 .text.lv_obj_set_style_pad_row
                0x0800b4ba        0xe CMakeFiles/f4xx_SPI.elf.dir/Core/Src/gui/lvgl/core/lv_obj_style_gen.c.obj
                0x0800b4ba                lv_obj_set_style_pad_row
 .text.lv_obj_set_style_pad_column
                0x0800b4c8        0xe CMakeFiles/f4xx_SPI.elf.dir/Core/Src/gui/lvgl/core/lv_obj_style_gen.c.obj
                0x0800b4c8                lv_obj_set_style_pad_column
 .text.lv_obj_set_style_bg_color
                0x0800b4d6       0x20 CMakeFiles/f4xx_SPI.elf.dir/Core/Src/gui/lvgl/core/lv_obj_style_gen.c.obj
                0x0800b4d6                lv_obj_set_style_bg_color
 .text.lv_obj_set_style_bg_opa
                0x0800b4f6        0xe CMakeFiles/f4xx_SPI.elf.dir/Core/Src/gui/lvgl/core/lv_obj_style_gen.c.obj
                0x0800b4f6                lv_obj_set_style_bg_opa
 .text.lv_obj_set_style_bg_img_src
                0x0800b504        0xe CMakeFiles/f4xx_SPI.elf.dir/Core/Src/gui/lvgl/core/lv_obj_style_gen.c.obj
                0x0800b504                lv_obj_set_style_bg_img_src
 .text.lv_obj_set_style_border_side
                0x0800b512        0xe CMakeFiles/f4xx_SPI.elf.dir/Core/Src/gui/lvgl/core/lv_obj_style_gen.c.obj
                0x0800b512                lv_obj_set_style_border_side
 .text.lv_obj_set_style_outline_width
                0x0800b520        0xe CMakeFiles/f4xx_SPI.elf.dir/Core/Src/gui/lvgl/core/lv_obj_style_gen.c.obj
                0x0800b520                lv_obj_set_style_outline_width
 .text.lv_obj_set_style_outline_color
                0x0800b52e       0x20 CMakeFiles/f4xx_SPI.elf.dir/Core/Src/gui/lvgl/core/lv_obj_style_gen.c.obj
                0x0800b52e                lv_obj_set_style_outline_color
 .text.lv_obj_set_style_shadow_width
                0x0800b54e        0xe CMakeFiles/f4xx_SPI.elf.dir/Core/Src/gui/lvgl/core/lv_obj_style_gen.c.obj
                0x0800b54e                lv_obj_set_style_shadow_width
 .text.lv_obj_set_style_text_color
                0x0800b55c       0x20 CMakeFiles/f4xx_SPI.elf.dir/Core/Src/gui/lvgl/core/lv_obj_style_gen.c.obj
                0x0800b55c                lv_obj_set_style_text_color
 .text.lv_obj_set_style_text_font
                0x0800b57c        0xe CMakeFiles/f4xx_SPI.elf.dir/Core/Src/gui/lvgl/core/lv_obj_style_gen.c.obj
                0x0800b57c                lv_obj_set_style_text_font
 .text.lv_obj_set_style_text_align
                0x0800b58a        0xe CMakeFiles/f4xx_SPI.elf.dir/Core/Src/gui/lvgl/core/lv_obj_style_gen.c.obj
                0x0800b58a                lv_obj_set_style_text_align
 .text.lv_obj_set_style_radius
                0x0800b598        0xe CMakeFiles/f4xx_SPI.elf.dir/Core/Src/gui/lvgl/core/lv_obj_style_gen.c.obj
                0x0800b598                lv_obj_set_style_radius
 .text.lv_obj_set_style_opa
                0x0800b5a6        0xe CMakeFiles/f4xx_SPI.elf.dir/Core/Src/gui/lvgl/core/lv_obj_style_gen.c.obj
                0x0800b5a6                lv_obj_set_style_opa
 .text.lv_obj_set_style_layout
                0x0800b5b4        0xe CMakeFiles/f4xx_SPI.elf.dir/Core/Src/gui/lvgl/core/lv_obj_style_gen.c.obj
                0x0800b5b4                lv_obj_set_style_layout
 .text.lv_obj_set_style_base_dir
                0x0800b5c2        0xe CMakeFiles/f4xx_SPI.elf.dir/Core/Src/gui/lvgl/core/lv_obj_style_gen.c.obj
                0x0800b5c2                lv_obj_set_style_base_dir
 .text.lv_obj_get_parent
                0x0800b5d0        0x8 CMakeFiles/f4xx_SPI.elf.dir/Core/Src/gui/lvgl/core/lv_obj_tree.c.obj
                0x0800b5d0                lv_obj_get_parent
 .text.lv_obj_get_screen
                0x0800b5d8       0x10 CMakeFiles/f4xx_SPI.elf.dir/Core/Src/gui/lvgl/core/lv_obj_tree.c.obj
                0x0800b5d8                lv_obj_get_screen
 .text.lv_obj_get_disp
                0x0800b5e8       0x64 CMakeFiles/f4xx_SPI.elf.dir/Core/Src/gui/lvgl/core/lv_obj_tree.c.obj
                0x0800b5e8                lv_obj_get_disp
 .text.lv_obj_get_child
                0x0800b64c       0x2a CMakeFiles/f4xx_SPI.elf.dir/Core/Src/gui/lvgl/core/lv_obj_tree.c.obj
                0x0800b64c                lv_obj_get_child
 .text.lv_obj_get_child_cnt
                0x0800b676        0xc CMakeFiles/f4xx_SPI.elf.dir/Core/Src/gui/lvgl/core/lv_obj_tree.c.obj
                0x0800b676                lv_obj_get_child_cnt
 .text.lv_obj_get_index
                0x0800b682       0x34 CMakeFiles/f4xx_SPI.elf.dir/Core/Src/gui/lvgl/core/lv_obj_tree.c.obj
                0x0800b682                lv_obj_get_index
 .text.obj_del_core
                0x0800b6b6      0x108 CMakeFiles/f4xx_SPI.elf.dir/Core/Src/gui/lvgl/core/lv_obj_tree.c.obj
 *fill*         0x0800b7be        0x2 
 .text.lv_obj_del
                0x0800b7c0       0x90 CMakeFiles/f4xx_SPI.elf.dir/Core/Src/gui/lvgl/core/lv_obj_tree.c.obj
                0x0800b7c0                lv_obj_del
 .text.lv_obj_set_parent
                0x0800b850      0x110 CMakeFiles/f4xx_SPI.elf.dir/Core/Src/gui/lvgl/core/lv_obj_tree.c.obj
                0x0800b850                lv_obj_set_parent
 .text.lv_obj_move_to_index
                0x0800b960       0x80 CMakeFiles/f4xx_SPI.elf.dir/Core/Src/gui/lvgl/core/lv_obj_tree.c.obj
                0x0800b960                lv_obj_move_to_index
 .text.draw_buf_rotate_180
                0x0800b9e0       0x74 CMakeFiles/f4xx_SPI.elf.dir/Core/Src/gui/lvgl/core/lv_refr.c.obj
 .text.draw_buf_rotate_90
                0x0800ba54       0x54 CMakeFiles/f4xx_SPI.elf.dir/Core/Src/gui/lvgl/core/lv_refr.c.obj
 .text.draw_buf_rotate_90_sqr
                0x0800baa8       0xa6 CMakeFiles/f4xx_SPI.elf.dir/Core/Src/gui/lvgl/core/lv_refr.c.obj
 .text.call_flush_cb
                0x0800bb4e       0x32 CMakeFiles/f4xx_SPI.elf.dir/Core/Src/gui/lvgl/core/lv_refr.c.obj
 .text.get_max_row
                0x0800bb80       0x94 CMakeFiles/f4xx_SPI.elf.dir/Core/Src/gui/lvgl/core/lv_refr.c.obj
 .text.lv_refr_get_top_obj
                0x0800bc14       0x84 CMakeFiles/f4xx_SPI.elf.dir/Core/Src/gui/lvgl/core/lv_refr.c.obj
 .text.lv_refr_join_area
                0x0800bc98       0xd4 CMakeFiles/f4xx_SPI.elf.dir/Core/Src/gui/lvgl/core/lv_refr.c.obj
 .text.draw_buf_rotate
                0x0800bd6c      0x240 CMakeFiles/f4xx_SPI.elf.dir/Core/Src/gui/lvgl/core/lv_refr.c.obj
 .text.draw_buf_flush
                0x0800bfac       0xac CMakeFiles/f4xx_SPI.elf.dir/Core/Src/gui/lvgl/core/lv_refr.c.obj
 .text._lv_refr_init
                0x0800c058        0x2 CMakeFiles/f4xx_SPI.elf.dir/Core/Src/gui/lvgl/core/lv_refr.c.obj
                0x0800c058                _lv_refr_init
 .text.lv_obj_redraw
                0x0800c05a       0xf0 CMakeFiles/f4xx_SPI.elf.dir/Core/Src/gui/lvgl/core/lv_refr.c.obj
                0x0800c05a                lv_obj_redraw
 *fill*         0x0800c14a        0x2 
 .text.refr_obj
                0x0800c14c      0x508 CMakeFiles/f4xx_SPI.elf.dir/Core/Src/gui/lvgl/core/lv_refr.c.obj
 .text.refr_obj_and_children
                0x0800c654       0x90 CMakeFiles/f4xx_SPI.elf.dir/Core/Src/gui/lvgl/core/lv_refr.c.obj
 .text.refr_area_part
                0x0800c6e4      0x1cc CMakeFiles/f4xx_SPI.elf.dir/Core/Src/gui/lvgl/core/lv_refr.c.obj
 .text.refr_area
                0x0800c8b0      0x194 CMakeFiles/f4xx_SPI.elf.dir/Core/Src/gui/lvgl/core/lv_refr.c.obj
 .text.refr_invalid_areas
                0x0800ca44       0xc8 CMakeFiles/f4xx_SPI.elf.dir/Core/Src/gui/lvgl/core/lv_refr.c.obj
 .text._lv_inv_area
                0x0800cb0c      0x12c CMakeFiles/f4xx_SPI.elf.dir/Core/Src/gui/lvgl/core/lv_refr.c.obj
                0x0800cb0c                _lv_inv_area
 .text._lv_refr_get_disp_refreshing
                0x0800cc38        0xc CMakeFiles/f4xx_SPI.elf.dir/Core/Src/gui/lvgl/core/lv_refr.c.obj
                0x0800cc38                _lv_refr_get_disp_refreshing
 .text._lv_disp_refr_timer
                0x0800cc44      0x120 CMakeFiles/f4xx_SPI.elf.dir/Core/Src/gui/lvgl/core/lv_refr.c.obj
                0x0800cc44                _lv_disp_refr_timer
 .text.apply_theme
                0x0800cd64       0x1a CMakeFiles/f4xx_SPI.elf.dir/Core/Src/gui/lvgl/core/lv_theme.c.obj
 .text.lv_theme_get_from_obj
                0x0800cd7e       0x14 CMakeFiles/f4xx_SPI.elf.dir/Core/Src/gui/lvgl/core/lv_theme.c.obj
                0x0800cd7e                lv_theme_get_from_obj
 *fill*         0x0800cd92        0x2 
 .text.lv_theme_apply
                0x0800cd94       0x24 CMakeFiles/f4xx_SPI.elf.dir/Core/Src/gui/lvgl/core/lv_theme.c.obj
                0x0800cd94                lv_theme_apply
 .text.lv_theme_get_color_primary
                0x0800cdb8       0x14 CMakeFiles/f4xx_SPI.elf.dir/Core/Src/gui/lvgl/core/lv_theme.c.obj
                0x0800cdb8                lv_theme_get_color_primary
 .text.lv_draw_init
                0x0800cdcc        0x2 CMakeFiles/f4xx_SPI.elf.dir/Core/Src/gui/lvgl/draw/lv_draw.c.obj
                0x0800cdcc                lv_draw_init
 .text.lv_draw_arc_dsc_init
                0x0800cdce       0x1a CMakeFiles/f4xx_SPI.elf.dir/Core/Src/gui/lvgl/draw/lv_draw_arc.c.obj
                0x0800cdce                lv_draw_arc_dsc_init
 .text.lv_draw_arc
                0x0800cde8       0x28 CMakeFiles/f4xx_SPI.elf.dir/Core/Src/gui/lvgl/draw/lv_draw_arc.c.obj
                0x0800cde8                lv_draw_arc
 .text.lv_draw_arc_get_area
                0x0800ce10      0x4b8 CMakeFiles/f4xx_SPI.elf.dir/Core/Src/gui/lvgl/draw/lv_draw_arc.c.obj
                0x0800ce10                lv_draw_arc_get_area
 .text.draw_cleanup
                0x0800d2c8        0x8 CMakeFiles/f4xx_SPI.elf.dir/Core/Src/gui/lvgl/draw/lv_draw_img.c.obj
 .text.show_error
                0x0800d2d0       0x3c CMakeFiles/f4xx_SPI.elf.dir/Core/Src/gui/lvgl/draw/lv_draw_img.c.obj
 .text.lv_draw_img_dsc_init
                0x0800d30c       0x24 CMakeFiles/f4xx_SPI.elf.dir/Core/Src/gui/lvgl/draw/lv_draw_img.c.obj
                0x0800d30c                lv_draw_img_dsc_init
 .text.lv_img_cf_get_px_size
                0x0800d330       0x32 CMakeFiles/f4xx_SPI.elf.dir/Core/Src/gui/lvgl/draw/lv_draw_img.c.obj
                0x0800d330                lv_img_cf_get_px_size
 .text.lv_img_cf_is_chroma_keyed
                0x0800d362       0x14 CMakeFiles/f4xx_SPI.elf.dir/Core/Src/gui/lvgl/draw/lv_draw_img.c.obj
                0x0800d362                lv_img_cf_is_chroma_keyed
 .text.lv_img_cf_has_alpha
                0x0800d376       0x1c CMakeFiles/f4xx_SPI.elf.dir/Core/Src/gui/lvgl/draw/lv_draw_img.c.obj
                0x0800d376                lv_img_cf_has_alpha
 .text.lv_img_src_get_type
                0x0800d392       0x24 CMakeFiles/f4xx_SPI.elf.dir/Core/Src/gui/lvgl/draw/lv_draw_img.c.obj
                0x0800d392                lv_img_src_get_type
 .text.lv_draw_img_decoded
                0x0800d3b6       0x14 CMakeFiles/f4xx_SPI.elf.dir/Core/Src/gui/lvgl/draw/lv_draw_img.c.obj
                0x0800d3b6                lv_draw_img_decoded
 *fill*         0x0800d3ca        0x2 
 .text.decode_and_draw
                0x0800d3cc      0x27c CMakeFiles/f4xx_SPI.elf.dir/Core/Src/gui/lvgl/draw/lv_draw_img.c.obj
 .text.lv_draw_img
                0x0800d648       0x78 CMakeFiles/f4xx_SPI.elf.dir/Core/Src/gui/lvgl/draw/lv_draw_img.c.obj
                0x0800d648                lv_draw_img
 .text.hex_char_to_num
                0x0800d6c0       0x3e CMakeFiles/f4xx_SPI.elf.dir/Core/Src/gui/lvgl/draw/lv_draw_label.c.obj
 *fill*         0x0800d6fe        0x2 
 .text.lv_draw_label_dsc_init
                0x0800d700       0x38 CMakeFiles/f4xx_SPI.elf.dir/Core/Src/gui/lvgl/draw/lv_draw_label.c.obj
                0x0800d700                lv_draw_label_dsc_init
 .text.lv_draw_letter
                0x0800d738        0x8 CMakeFiles/f4xx_SPI.elf.dir/Core/Src/gui/lvgl/draw/lv_draw_label.c.obj
                0x0800d738                lv_draw_letter
 .text.lv_draw_label
                0x0800d740      0x5f8 CMakeFiles/f4xx_SPI.elf.dir/Core/Src/gui/lvgl/draw/lv_draw_label.c.obj
                0x0800d740                lv_draw_label
 .text.lv_draw_line_dsc_init
                0x0800dd38       0x1a CMakeFiles/f4xx_SPI.elf.dir/Core/Src/gui/lvgl/draw/lv_draw_line.c.obj
                0x0800dd38                lv_draw_line_dsc_init
 .text.lv_draw_line
                0x0800dd52       0x14 CMakeFiles/f4xx_SPI.elf.dir/Core/Src/gui/lvgl/draw/lv_draw_line.c.obj
                0x0800dd52                lv_draw_line
 .text.lv_draw_mask_fade
                0x0800dd66      0x118 CMakeFiles/f4xx_SPI.elf.dir/Core/Src/gui/lvgl/draw/lv_draw_mask.c.obj
 .text.circ_init
                0x0800de7e        0xe CMakeFiles/f4xx_SPI.elf.dir/Core/Src/gui/lvgl/draw/lv_draw_mask.c.obj
 .text.circ_cont
                0x0800de8c       0x12 CMakeFiles/f4xx_SPI.elf.dir/Core/Src/gui/lvgl/draw/lv_draw_mask.c.obj
 .text.circ_next
                0x0800de9e       0x46 CMakeFiles/f4xx_SPI.elf.dir/Core/Src/gui/lvgl/draw/lv_draw_mask.c.obj
 .text.get_next_line
                0x0800dee4       0x28 CMakeFiles/f4xx_SPI.elf.dir/Core/Src/gui/lvgl/draw/lv_draw_mask.c.obj
 .text.line_mask_flat
                0x0800df0c      0x1f0 CMakeFiles/f4xx_SPI.elf.dir/Core/Src/gui/lvgl/draw/lv_draw_mask.c.obj
 .text.line_mask_steep
                0x0800e0fc      0x2f6 CMakeFiles/f4xx_SPI.elf.dir/Core/Src/gui/lvgl/draw/lv_draw_mask.c.obj
 .text.lv_draw_mask_line
                0x0800e3f2       0xde CMakeFiles/f4xx_SPI.elf.dir/Core/Src/gui/lvgl/draw/lv_draw_mask.c.obj
 .text.lv_draw_mask_angle
                0x0800e4d0      0x362 CMakeFiles/f4xx_SPI.elf.dir/Core/Src/gui/lvgl/draw/lv_draw_mask.c.obj
 .text.lv_draw_mask_radius
                0x0800e832      0x2f4 CMakeFiles/f4xx_SPI.elf.dir/Core/Src/gui/lvgl/draw/lv_draw_mask.c.obj
 *fill*         0x0800eb26        0x2 
 .text.circ_calc_aa4
                0x0800eb28      0x30c CMakeFiles/f4xx_SPI.elf.dir/Core/Src/gui/lvgl/draw/lv_draw_mask.c.obj
 .text.lv_draw_mask_add
                0x0800ee34       0x58 CMakeFiles/f4xx_SPI.elf.dir/Core/Src/gui/lvgl/draw/lv_draw_mask.c.obj
                0x0800ee34                lv_draw_mask_add
 .text.lv_draw_mask_apply
                0x0800ee8c       0x54 CMakeFiles/f4xx_SPI.elf.dir/Core/Src/gui/lvgl/draw/lv_draw_mask.c.obj
                0x0800ee8c                lv_draw_mask_apply
 .text.lv_draw_mask_remove_id
                0x0800eee0       0x24 CMakeFiles/f4xx_SPI.elf.dir/Core/Src/gui/lvgl/draw/lv_draw_mask.c.obj
                0x0800eee0                lv_draw_mask_remove_id
 .text.lv_draw_mask_remove_custom
                0x0800ef04       0x34 CMakeFiles/f4xx_SPI.elf.dir/Core/Src/gui/lvgl/draw/lv_draw_mask.c.obj
                0x0800ef04                lv_draw_mask_remove_custom
 .text.lv_draw_mask_free_param
                0x0800ef38       0x3a CMakeFiles/f4xx_SPI.elf.dir/Core/Src/gui/lvgl/draw/lv_draw_mask.c.obj
                0x0800ef38                lv_draw_mask_free_param
 *fill*         0x0800ef72        0x2 
 .text._lv_draw_mask_cleanup
                0x0800ef74       0x3c CMakeFiles/f4xx_SPI.elf.dir/Core/Src/gui/lvgl/draw/lv_draw_mask.c.obj
                0x0800ef74                _lv_draw_mask_cleanup
 .text.lv_draw_mask_is_any
                0x0800efb0       0x68 CMakeFiles/f4xx_SPI.elf.dir/Core/Src/gui/lvgl/draw/lv_draw_mask.c.obj
                0x0800efb0                lv_draw_mask_is_any
 .text.lv_draw_mask_line_points_init
                0x0800f018      0x16c CMakeFiles/f4xx_SPI.elf.dir/Core/Src/gui/lvgl/draw/lv_draw_mask.c.obj
                0x0800f018                lv_draw_mask_line_points_init
 .text.lv_draw_mask_line_angle_init
                0x0800f184       0x52 CMakeFiles/f4xx_SPI.elf.dir/Core/Src/gui/lvgl/draw/lv_draw_mask.c.obj
                0x0800f184                lv_draw_mask_line_angle_init
 *fill*         0x0800f1d6        0x2 
 .text.lv_draw_mask_angle_init
                0x0800f1d8      0x118 CMakeFiles/f4xx_SPI.elf.dir/Core/Src/gui/lvgl/draw/lv_draw_mask.c.obj
                0x0800f1d8                lv_draw_mask_angle_init
 .text.lv_draw_mask_radius_init
                0x0800f2f0      0x180 CMakeFiles/f4xx_SPI.elf.dir/Core/Src/gui/lvgl/draw/lv_draw_mask.c.obj
                0x0800f2f0                lv_draw_mask_radius_init
 .text.lv_draw_mask_fade_init
                0x0800f470       0x3c CMakeFiles/f4xx_SPI.elf.dir/Core/Src/gui/lvgl/draw/lv_draw_mask.c.obj
                0x0800f470                lv_draw_mask_fade_init
 .text.lv_draw_rect_dsc_init
                0x0800f4ac       0x50 CMakeFiles/f4xx_SPI.elf.dir/Core/Src/gui/lvgl/draw/lv_draw_rect.c.obj
                0x0800f4ac                lv_draw_rect_dsc_init
 .text.lv_draw_rect
                0x0800f4fc       0x28 CMakeFiles/f4xx_SPI.elf.dir/Core/Src/gui/lvgl/draw/lv_draw_rect.c.obj
                0x0800f4fc                lv_draw_rect
 .text.lv_draw_transform
                0x0800f524       0x74 CMakeFiles/f4xx_SPI.elf.dir/Core/Src/gui/lvgl/draw/lv_draw_transform.c.obj
                0x0800f524                lv_draw_transform
 .text._lv_img_buf_get_transformed_area
                0x0800f598      0x10a CMakeFiles/f4xx_SPI.elf.dir/Core/Src/gui/lvgl/draw/lv_img_buf.c.obj
                0x0800f598                _lv_img_buf_get_transformed_area
 *fill*         0x0800f6a2        0x2 
 .text._lv_img_cache_open
                0x0800f6a4       0x7c CMakeFiles/f4xx_SPI.elf.dir/Core/Src/gui/lvgl/draw/lv_img_cache.c.obj
                0x0800f6a4                _lv_img_cache_open
 .text.lv_img_cache_invalidate_src
                0x0800f720        0x2 CMakeFiles/f4xx_SPI.elf.dir/Core/Src/gui/lvgl/draw/lv_img_cache.c.obj
                0x0800f720                lv_img_cache_invalidate_src
 *fill*         0x0800f722        0x2 
 .text.lv_img_decoder_built_in_info
                0x0800f724      0x100 CMakeFiles/f4xx_SPI.elf.dir/Core/Src/gui/lvgl/draw/lv_img_decoder.c.obj
                0x0800f724                lv_img_decoder_built_in_info
 .text.lv_img_decoder_built_in_close
                0x0800f824       0x32 CMakeFiles/f4xx_SPI.elf.dir/Core/Src/gui/lvgl/draw/lv_img_decoder.c.obj
                0x0800f824                lv_img_decoder_built_in_close
 *fill*         0x0800f856        0x2 
 .text.lv_img_decoder_built_in_open
                0x0800f858      0x290 CMakeFiles/f4xx_SPI.elf.dir/Core/Src/gui/lvgl/draw/lv_img_decoder.c.obj
                0x0800f858                lv_img_decoder_built_in_open
 .text.lv_img_decoder_built_in_line_true_color
                0x0800fae8       0xa0 CMakeFiles/f4xx_SPI.elf.dir/Core/Src/gui/lvgl/draw/lv_img_decoder.c.obj
 .text.lv_img_decoder_built_in_line_alpha
                0x0800fb88      0x18c CMakeFiles/f4xx_SPI.elf.dir/Core/Src/gui/lvgl/draw/lv_img_decoder.c.obj
 .text.lv_img_decoder_built_in_line_indexed
                0x0800fd14      0x156 CMakeFiles/f4xx_SPI.elf.dir/Core/Src/gui/lvgl/draw/lv_img_decoder.c.obj
 *fill*         0x0800fe6a        0x2 
 .text.lv_img_decoder_built_in_read_line
                0x0800fe6c       0x80 CMakeFiles/f4xx_SPI.elf.dir/Core/Src/gui/lvgl/draw/lv_img_decoder.c.obj
                0x0800fe6c                lv_img_decoder_built_in_read_line
 .text.lv_img_decoder_get_info
                0x0800feec       0x58 CMakeFiles/f4xx_SPI.elf.dir/Core/Src/gui/lvgl/draw/lv_img_decoder.c.obj
                0x0800feec                lv_img_decoder_get_info
 .text.lv_img_decoder_open
                0x0800ff44       0xf8 CMakeFiles/f4xx_SPI.elf.dir/Core/Src/gui/lvgl/draw/lv_img_decoder.c.obj
                0x0800ff44                lv_img_decoder_open
 .text.lv_img_decoder_read_line
                0x0801003c       0x22 CMakeFiles/f4xx_SPI.elf.dir/Core/Src/gui/lvgl/draw/lv_img_decoder.c.obj
                0x0801003c                lv_img_decoder_read_line
 .text.lv_img_decoder_close
                0x0801005e       0x24 CMakeFiles/f4xx_SPI.elf.dir/Core/Src/gui/lvgl/draw/lv_img_decoder.c.obj
                0x0801005e                lv_img_decoder_close
 *fill*         0x08010082        0x2 
 .text.lv_img_decoder_create
                0x08010084       0x4c CMakeFiles/f4xx_SPI.elf.dir/Core/Src/gui/lvgl/draw/lv_img_decoder.c.obj
                0x08010084                lv_img_decoder_create
 .text.lv_img_decoder_set_info_cb
                0x080100d0        0x4 CMakeFiles/f4xx_SPI.elf.dir/Core/Src/gui/lvgl/draw/lv_img_decoder.c.obj
                0x080100d0                lv_img_decoder_set_info_cb
 .text.lv_img_decoder_set_open_cb
                0x080100d4        0x4 CMakeFiles/f4xx_SPI.elf.dir/Core/Src/gui/lvgl/draw/lv_img_decoder.c.obj
                0x080100d4                lv_img_decoder_set_open_cb
 .text.lv_img_decoder_set_read_line_cb
                0x080100d8        0x4 CMakeFiles/f4xx_SPI.elf.dir/Core/Src/gui/lvgl/draw/lv_img_decoder.c.obj
                0x080100d8                lv_img_decoder_set_read_line_cb
 .text.lv_img_decoder_set_close_cb
                0x080100dc        0x4 CMakeFiles/f4xx_SPI.elf.dir/Core/Src/gui/lvgl/draw/lv_img_decoder.c.obj
                0x080100dc                lv_img_decoder_set_close_cb
 .text._lv_img_decoder_init
                0x080100e0       0x78 CMakeFiles/f4xx_SPI.elf.dir/Core/Src/gui/lvgl/draw/lv_img_decoder.c.obj
                0x080100e0                _lv_img_decoder_init
 .text.lv_draw_sw_wait_for_finish
                0x08010158        0x2 CMakeFiles/f4xx_SPI.elf.dir/Core/Src/gui/lvgl/draw/sw/lv_draw_sw.c.obj
                0x08010158                lv_draw_sw_wait_for_finish
 .text.lv_draw_sw_buffer_copy
                0x0801015a       0x64 CMakeFiles/f4xx_SPI.elf.dir/Core/Src/gui/lvgl/draw/sw/lv_draw_sw.c.obj
                0x0801015a                lv_draw_sw_buffer_copy
 *fill*         0x080101be        0x2 
 .text.lv_draw_sw_init_ctx
                0x080101c0       0x68 CMakeFiles/f4xx_SPI.elf.dir/Core/Src/gui/lvgl/draw/sw/lv_draw_sw.c.obj
                0x080101c0                lv_draw_sw_init_ctx
 .text.draw_quarter_0
                0x08010228      0x232 CMakeFiles/f4xx_SPI.elf.dir/Core/Src/gui/lvgl/draw/sw/lv_draw_sw_arc.c.obj
 .text.draw_quarter_1
                0x0801045a      0x22a CMakeFiles/f4xx_SPI.elf.dir/Core/Src/gui/lvgl/draw/sw/lv_draw_sw_arc.c.obj
 .text.draw_quarter_2
                0x08010684      0x230 CMakeFiles/f4xx_SPI.elf.dir/Core/Src/gui/lvgl/draw/sw/lv_draw_sw_arc.c.obj
 .text.draw_quarter_3
                0x080108b4      0x232 CMakeFiles/f4xx_SPI.elf.dir/Core/Src/gui/lvgl/draw/sw/lv_draw_sw_arc.c.obj
 .text.get_rounded_area
                0x08010ae6       0x8a CMakeFiles/f4xx_SPI.elf.dir/Core/Src/gui/lvgl/draw/sw/lv_draw_sw_arc.c.obj
 .text.lv_draw_sw_arc
                0x08010b70      0x360 CMakeFiles/f4xx_SPI.elf.dir/Core/Src/gui/lvgl/draw/sw/lv_draw_sw_arc.c.obj
                0x08010b70                lv_draw_sw_arc
 .text.fill_set_px
                0x08010ed0       0xe6 CMakeFiles/f4xx_SPI.elf.dir/Core/Src/gui/lvgl/draw/sw/lv_draw_sw_blend.c.obj
 .text.map_set_px
                0x08010fb6       0xfc CMakeFiles/f4xx_SPI.elf.dir/Core/Src/gui/lvgl/draw/sw/lv_draw_sw_blend.c.obj
 *fill*         0x080110b2        0x2 
 .text.fill_blended
                0x080110b4      0x16c CMakeFiles/f4xx_SPI.elf.dir/Core/Src/gui/lvgl/draw/sw/lv_draw_sw_blend.c.obj
 .text.map_blended
                0x08011220      0x120 CMakeFiles/f4xx_SPI.elf.dir/Core/Src/gui/lvgl/draw/sw/lv_draw_sw_blend.c.obj
 .text.fill_normal
                0x08011340      0x6f4 CMakeFiles/f4xx_SPI.elf.dir/Core/Src/gui/lvgl/draw/sw/lv_draw_sw_blend.c.obj
 .text.map_normal
                0x08011a34      0x6fe CMakeFiles/f4xx_SPI.elf.dir/Core/Src/gui/lvgl/draw/sw/lv_draw_sw_blend.c.obj
 .text.color_blend_true_color_additive
                0x08012132       0xee CMakeFiles/f4xx_SPI.elf.dir/Core/Src/gui/lvgl/draw/sw/lv_draw_sw_blend.c.obj
 .text.color_blend_true_color_subtractive
                0x08012220       0xe8 CMakeFiles/f4xx_SPI.elf.dir/Core/Src/gui/lvgl/draw/sw/lv_draw_sw_blend.c.obj
 .text.color_blend_true_color_multiply
                0x08012308       0xf6 CMakeFiles/f4xx_SPI.elf.dir/Core/Src/gui/lvgl/draw/sw/lv_draw_sw_blend.c.obj
 .text.lv_draw_sw_blend
                0x080123fe       0x30 CMakeFiles/f4xx_SPI.elf.dir/Core/Src/gui/lvgl/draw/sw/lv_draw_sw_blend.c.obj
                0x080123fe                lv_draw_sw_blend
 .text.lv_draw_sw_blend_basic
                0x0801242e      0x1ee CMakeFiles/f4xx_SPI.elf.dir/Core/Src/gui/lvgl/draw/sw/lv_draw_sw_blend.c.obj
                0x0801242e                lv_draw_sw_blend_basic
 .text.compute_key
                0x0801261c        0x8 CMakeFiles/f4xx_SPI.elf.dir/Core/Src/gui/lvgl/draw/sw/lv_draw_sw_gradient.c.obj
 .text.get_cache_item_size
                0x08012624       0x10 CMakeFiles/f4xx_SPI.elf.dir/Core/Src/gui/lvgl/draw/sw/lv_draw_sw_gradient.c.obj
 .text.next_in_cache
                0x08012634       0x38 CMakeFiles/f4xx_SPI.elf.dir/Core/Src/gui/lvgl/draw/sw/lv_draw_sw_gradient.c.obj
 .text.iterate_cache
                0x0801266c       0x3c CMakeFiles/f4xx_SPI.elf.dir/Core/Src/gui/lvgl/draw/sw/lv_draw_sw_gradient.c.obj
 .text.find_oldest_item_life
                0x080126a8       0x12 CMakeFiles/f4xx_SPI.elf.dir/Core/Src/gui/lvgl/draw/sw/lv_draw_sw_gradient.c.obj
 .text.find_item
                0x080126ba       0x10 CMakeFiles/f4xx_SPI.elf.dir/Core/Src/gui/lvgl/draw/sw/lv_draw_sw_gradient.c.obj
 *fill*         0x080126ca        0x2 
 .text.allocate_item
                0x080126cc      0x148 CMakeFiles/f4xx_SPI.elf.dir/Core/Src/gui/lvgl/draw/sw/lv_draw_sw_gradient.c.obj
 .text.free_item
                0x08012814       0x54 CMakeFiles/f4xx_SPI.elf.dir/Core/Src/gui/lvgl/draw/sw/lv_draw_sw_gradient.c.obj
 .text.kill_oldest_item
                0x08012868       0x1a CMakeFiles/f4xx_SPI.elf.dir/Core/Src/gui/lvgl/draw/sw/lv_draw_sw_gradient.c.obj
 *fill*         0x08012882        0x2 
 .text.lv_gradient_set_cache_size
                0x08012884       0x64 CMakeFiles/f4xx_SPI.elf.dir/Core/Src/gui/lvgl/draw/sw/lv_draw_sw_gradient.c.obj
                0x08012884                lv_gradient_set_cache_size
 .text.lv_gradient_calculate
                0x080128e8      0x1d0 CMakeFiles/f4xx_SPI.elf.dir/Core/Src/gui/lvgl/draw/sw/lv_draw_sw_gradient.c.obj
                0x080128e8                lv_gradient_calculate
 .text.lv_gradient_get
                0x08012ab8       0xc4 CMakeFiles/f4xx_SPI.elf.dir/Core/Src/gui/lvgl/draw/sw/lv_draw_sw_gradient.c.obj
                0x08012ab8                lv_gradient_get
 .text.lv_gradient_cleanup
                0x08012b7c       0x12 CMakeFiles/f4xx_SPI.elf.dir/Core/Src/gui/lvgl/draw/sw/lv_draw_sw_gradient.c.obj
                0x08012b7c                lv_gradient_cleanup
 .text.convert_cb
                0x08012b8e      0x12c CMakeFiles/f4xx_SPI.elf.dir/Core/Src/gui/lvgl/draw/sw/lv_draw_sw_img.c.obj
 .text.lv_draw_sw_img_decoded
                0x08012cba      0x37c CMakeFiles/f4xx_SPI.elf.dir/Core/Src/gui/lvgl/draw/sw/lv_draw_sw_img.c.obj
                0x08012cba                lv_draw_sw_img_decoded
 *fill*         0x08013036        0x2 
 .text.draw_letter_normal
                0x08013038      0x318 CMakeFiles/f4xx_SPI.elf.dir/Core/Src/gui/lvgl/draw/sw/lv_draw_sw_letter.c.obj
 .text.lv_draw_sw_letter
                0x08013350      0x16c CMakeFiles/f4xx_SPI.elf.dir/Core/Src/gui/lvgl/draw/sw/lv_draw_sw_letter.c.obj
                0x08013350                lv_draw_sw_letter
 .text.draw_line_hor
                0x080134bc      0x19c CMakeFiles/f4xx_SPI.elf.dir/Core/Src/gui/lvgl/draw/sw/lv_draw_sw_line.c.obj
 .text.draw_line_ver
                0x08013658      0x18a CMakeFiles/f4xx_SPI.elf.dir/Core/Src/gui/lvgl/draw/sw/lv_draw_sw_line.c.obj
 *fill*         0x080137e2        0x2 
 .text.draw_line_skew
                0x080137e4      0x3b0 CMakeFiles/f4xx_SPI.elf.dir/Core/Src/gui/lvgl/draw/sw/lv_draw_sw_line.c.obj
 .text.lv_draw_sw_line
                0x08013b94      0x1ac CMakeFiles/f4xx_SPI.elf.dir/Core/Src/gui/lvgl/draw/sw/lv_draw_sw_line.c.obj
                0x08013b94                lv_draw_sw_line
 .text.lv_draw_sw_polygon
                0x08013d40      0x2b0 CMakeFiles/f4xx_SPI.elf.dir/Core/Src/gui/lvgl/draw/sw/lv_draw_sw_polygon.c.obj
                0x08013d40                lv_draw_sw_polygon
 .text.draw_border_simple
                0x08013ff0       0xf4 CMakeFiles/f4xx_SPI.elf.dir/Core/Src/gui/lvgl/draw/sw/lv_draw_sw_rect.c.obj
 .text.shadow_blur_corner
                0x080140e4      0x15e CMakeFiles/f4xx_SPI.elf.dir/Core/Src/gui/lvgl/draw/sw/lv_draw_sw_rect.c.obj
 .text.shadow_draw_corner_buf
                0x08014242      0x19c CMakeFiles/f4xx_SPI.elf.dir/Core/Src/gui/lvgl/draw/sw/lv_draw_sw_rect.c.obj
 .text.draw_shadow
                0x080143de      0xd70 CMakeFiles/f4xx_SPI.elf.dir/Core/Src/gui/lvgl/draw/sw/lv_draw_sw_rect.c.obj
 .text.draw_bg  0x0801514e      0x3e6 CMakeFiles/f4xx_SPI.elf.dir/Core/Src/gui/lvgl/draw/sw/lv_draw_sw_rect.c.obj
 .text.draw_bg_img
                0x08015534      0x234 CMakeFiles/f4xx_SPI.elf.dir/Core/Src/gui/lvgl/draw/sw/lv_draw_sw_rect.c.obj
 .text.lv_draw_sw_bg
                0x08015768       0x18 CMakeFiles/f4xx_SPI.elf.dir/Core/Src/gui/lvgl/draw/sw/lv_draw_sw_rect.c.obj
                0x08015768                lv_draw_sw_bg
 .text.draw_border_generic
                0x08015780      0x50e CMakeFiles/f4xx_SPI.elf.dir/Core/Src/gui/lvgl/draw/sw/lv_draw_sw_rect.c.obj
                0x08015780                draw_border_generic
 .text.draw_border
                0x08015c8e       0xfe CMakeFiles/f4xx_SPI.elf.dir/Core/Src/gui/lvgl/draw/sw/lv_draw_sw_rect.c.obj
 .text.draw_outline
                0x08015d8c       0xac CMakeFiles/f4xx_SPI.elf.dir/Core/Src/gui/lvgl/draw/sw/lv_draw_sw_rect.c.obj
 .text.lv_draw_sw_rect
                0x08015e38       0x36 CMakeFiles/f4xx_SPI.elf.dir/Core/Src/gui/lvgl/draw/sw/lv_draw_sw_rect.c.obj
                0x08015e38                lv_draw_sw_rect
 .text.argb_no_aa
                0x08015e6e       0x7a CMakeFiles/f4xx_SPI.elf.dir/Core/Src/gui/lvgl/draw/sw/lv_draw_sw_transform.c.obj
 .text.transform_point_upscaled
                0x08015ee8       0xac CMakeFiles/f4xx_SPI.elf.dir/Core/Src/gui/lvgl/draw/sw/lv_draw_sw_transform.c.obj
 .text.rgb_no_aa
                0x08015f94       0x7c CMakeFiles/f4xx_SPI.elf.dir/Core/Src/gui/lvgl/draw/sw/lv_draw_sw_transform.c.obj
 .text.argb_and_rgb_aa
                0x08016010      0x40a CMakeFiles/f4xx_SPI.elf.dir/Core/Src/gui/lvgl/draw/sw/lv_draw_sw_transform.c.obj
 *fill*         0x0801641a        0x2 
 .text.lv_draw_sw_transform
                0x0801641c      0x204 CMakeFiles/f4xx_SPI.elf.dir/Core/Src/gui/lvgl/draw/sw/lv_draw_sw_transform.c.obj
                0x0801641c                lv_draw_sw_transform
 .text.lv_area_get_width
                0x08016620        0xe CMakeFiles/f4xx_SPI.elf.dir/Core/Src/gui/lvgl/extra/layouts/flex/lv_flex.c.obj
 .text.lv_area_get_height
                0x0801662e        0xe CMakeFiles/f4xx_SPI.elf.dir/Core/Src/gui/lvgl/extra/layouts/flex/lv_flex.c.obj
 .text.place_content
                0x0801663c       0xa0 CMakeFiles/f4xx_SPI.elf.dir/Core/Src/gui/lvgl/extra/layouts/flex/lv_flex.c.obj
 .text.get_next_item
                0x080166dc       0x34 CMakeFiles/f4xx_SPI.elf.dir/Core/Src/gui/lvgl/extra/layouts/flex/lv_flex.c.obj
 .text.find_track_end
                0x08016710      0x2a0 CMakeFiles/f4xx_SPI.elf.dir/Core/Src/gui/lvgl/extra/layouts/flex/lv_flex.c.obj
 .text.children_repos
                0x080169b0      0x494 CMakeFiles/f4xx_SPI.elf.dir/Core/Src/gui/lvgl/extra/layouts/flex/lv_flex.c.obj
 .text.flex_update
                0x08016e44      0x39c CMakeFiles/f4xx_SPI.elf.dir/Core/Src/gui/lvgl/extra/layouts/flex/lv_flex.c.obj
 .text.lv_flex_init
                0x080171e0       0x50 CMakeFiles/f4xx_SPI.elf.dir/Core/Src/gui/lvgl/extra/layouts/flex/lv_flex.c.obj
                0x080171e0                lv_flex_init
 .text.lv_obj_set_style_flex_flow
                0x08017230       0x14 CMakeFiles/f4xx_SPI.elf.dir/Core/Src/gui/lvgl/extra/layouts/flex/lv_flex.c.obj
                0x08017230                lv_obj_set_style_flex_flow
 .text.lv_obj_set_flex_flow
                0x08017244       0x1c CMakeFiles/f4xx_SPI.elf.dir/Core/Src/gui/lvgl/extra/layouts/flex/lv_flex.c.obj
                0x08017244                lv_obj_set_flex_flow
 .text.lv_obj_set_style_flex_main_place
                0x08017260       0x14 CMakeFiles/f4xx_SPI.elf.dir/Core/Src/gui/lvgl/extra/layouts/flex/lv_flex.c.obj
                0x08017260                lv_obj_set_style_flex_main_place
 .text.lv_obj_set_style_flex_cross_place
                0x08017274       0x14 CMakeFiles/f4xx_SPI.elf.dir/Core/Src/gui/lvgl/extra/layouts/flex/lv_flex.c.obj
                0x08017274                lv_obj_set_style_flex_cross_place
 .text.lv_obj_set_style_flex_track_place
                0x08017288       0x14 CMakeFiles/f4xx_SPI.elf.dir/Core/Src/gui/lvgl/extra/layouts/flex/lv_flex.c.obj
                0x08017288                lv_obj_set_style_flex_track_place
 .text.lv_obj_set_flex_align
                0x0801729c       0x34 CMakeFiles/f4xx_SPI.elf.dir/Core/Src/gui/lvgl/extra/layouts/flex/lv_flex.c.obj
                0x0801729c                lv_obj_set_flex_align
 .text.lv_obj_set_style_flex_grow
                0x080172d0       0x14 CMakeFiles/f4xx_SPI.elf.dir/Core/Src/gui/lvgl/extra/layouts/flex/lv_flex.c.obj
                0x080172d0                lv_obj_set_style_flex_grow
 .text.lv_obj_set_flex_grow
                0x080172e4       0x16 CMakeFiles/f4xx_SPI.elf.dir/Core/Src/gui/lvgl/extra/layouts/flex/lv_flex.c.obj
                0x080172e4                lv_obj_set_flex_grow
 *fill*         0x080172fa        0x2 
 .text.grid_align
                0x080172fc      0x138 CMakeFiles/f4xx_SPI.elf.dir/Core/Src/gui/lvgl/extra/layouts/grid/lv_grid.c.obj
 .text.count_tracks
                0x08017434       0x16 CMakeFiles/f4xx_SPI.elf.dir/Core/Src/gui/lvgl/extra/layouts/grid/lv_grid.c.obj
 *fill*         0x0801744a        0x2 
 .text.calc_rows
                0x0801744c      0x198 CMakeFiles/f4xx_SPI.elf.dir/Core/Src/gui/lvgl/extra/layouts/grid/lv_grid.c.obj
 .text.calc_cols
                0x080175e4      0x19c CMakeFiles/f4xx_SPI.elf.dir/Core/Src/gui/lvgl/extra/layouts/grid/lv_grid.c.obj
 .text.calc     0x08017780      0x12c CMakeFiles/f4xx_SPI.elf.dir/Core/Src/gui/lvgl/extra/layouts/grid/lv_grid.c.obj
 .text.item_repos
                0x080178ac      0x3d0 CMakeFiles/f4xx_SPI.elf.dir/Core/Src/gui/lvgl/extra/layouts/grid/lv_grid.c.obj
 .text.calc_free
                0x08017c7c       0x1e CMakeFiles/f4xx_SPI.elf.dir/Core/Src/gui/lvgl/extra/layouts/grid/lv_grid.c.obj
 *fill*         0x08017c9a        0x2 
 .text.grid_update
                0x08017c9c       0xf0 CMakeFiles/f4xx_SPI.elf.dir/Core/Src/gui/lvgl/extra/layouts/grid/lv_grid.c.obj
 .text.lv_grid_init
                0x08017d8c       0xa4 CMakeFiles/f4xx_SPI.elf.dir/Core/Src/gui/lvgl/extra/layouts/grid/lv_grid.c.obj
                0x08017d8c                lv_grid_init
 .text.lv_obj_set_style_grid_row_dsc_array
                0x08017e30       0x14 CMakeFiles/f4xx_SPI.elf.dir/Core/Src/gui/lvgl/extra/layouts/grid/lv_grid.c.obj
                0x08017e30                lv_obj_set_style_grid_row_dsc_array
 .text.lv_obj_set_style_grid_column_dsc_array
                0x08017e44       0x14 CMakeFiles/f4xx_SPI.elf.dir/Core/Src/gui/lvgl/extra/layouts/grid/lv_grid.c.obj
                0x08017e44                lv_obj_set_style_grid_column_dsc_array
 .text.lv_obj_set_grid_dsc_array
                0x08017e58       0x28 CMakeFiles/f4xx_SPI.elf.dir/Core/Src/gui/lvgl/extra/layouts/grid/lv_grid.c.obj
                0x08017e58                lv_obj_set_grid_dsc_array
 .text.lv_obj_set_style_grid_cell_column_pos
                0x08017e80       0x14 CMakeFiles/f4xx_SPI.elf.dir/Core/Src/gui/lvgl/extra/layouts/grid/lv_grid.c.obj
                0x08017e80                lv_obj_set_style_grid_cell_column_pos
 .text.lv_obj_set_style_grid_cell_column_span
                0x08017e94       0x14 CMakeFiles/f4xx_SPI.elf.dir/Core/Src/gui/lvgl/extra/layouts/grid/lv_grid.c.obj
                0x08017e94                lv_obj_set_style_grid_cell_column_span
 .text.lv_obj_set_style_grid_cell_row_pos
                0x08017ea8       0x14 CMakeFiles/f4xx_SPI.elf.dir/Core/Src/gui/lvgl/extra/layouts/grid/lv_grid.c.obj
                0x08017ea8                lv_obj_set_style_grid_cell_row_pos
 .text.lv_obj_set_style_grid_cell_row_span
                0x08017ebc       0x14 CMakeFiles/f4xx_SPI.elf.dir/Core/Src/gui/lvgl/extra/layouts/grid/lv_grid.c.obj
                0x08017ebc                lv_obj_set_style_grid_cell_row_span
 .text.lv_obj_set_style_grid_cell_x_align
                0x08017ed0       0x14 CMakeFiles/f4xx_SPI.elf.dir/Core/Src/gui/lvgl/extra/layouts/grid/lv_grid.c.obj
                0x08017ed0                lv_obj_set_style_grid_cell_x_align
 .text.lv_obj_set_style_grid_cell_y_align
                0x08017ee4       0x14 CMakeFiles/f4xx_SPI.elf.dir/Core/Src/gui/lvgl/extra/layouts/grid/lv_grid.c.obj
                0x08017ee4                lv_obj_set_style_grid_cell_y_align
 .text.lv_obj_set_grid_cell
                0x08017ef8       0x54 CMakeFiles/f4xx_SPI.elf.dir/Core/Src/gui/lvgl/extra/layouts/grid/lv_grid.c.obj
                0x08017ef8                lv_obj_set_grid_cell
 .text.lv_extra_init
                0x08017f4c        0xc CMakeFiles/f4xx_SPI.elf.dir/Core/Src/gui/lvgl/extra/lv_extra.c.obj
                0x08017f4c                lv_extra_init
 .text.theme_apply
                0x08017f58     0x10b4 CMakeFiles/f4xx_SPI.elf.dir/Core/Src/gui/lvgl/extra/themes/default/lv_theme_default.c.obj
 .text.dark_color_filter_cb
                0x0801900c        0xc CMakeFiles/f4xx_SPI.elf.dir/Core/Src/gui/lvgl/extra/themes/default/lv_theme_default.c.obj
 .text.style_init_reset
                0x08019018       0x18 CMakeFiles/f4xx_SPI.elf.dir/Core/Src/gui/lvgl/extra/themes/default/lv_theme_default.c.obj
 .text.grey_filter_cb
                0x08019030      0x138 CMakeFiles/f4xx_SPI.elf.dir/Core/Src/gui/lvgl/extra/themes/default/lv_theme_default.c.obj
 .text.style_init
                0x08019168     0x3700 CMakeFiles/f4xx_SPI.elf.dir/Core/Src/gui/lvgl/extra/themes/default/lv_theme_default.c.obj
 .text.lv_theme_default_is_inited
                0x0801c868       0x10 CMakeFiles/f4xx_SPI.elf.dir/Core/Src/gui/lvgl/extra/themes/default/lv_theme_default.c.obj
                0x0801c868                lv_theme_default_is_inited
 .text.lv_theme_default_init
                0x0801c878       0xb0 CMakeFiles/f4xx_SPI.elf.dir/Core/Src/gui/lvgl/extra/themes/default/lv_theme_default.c.obj
                0x0801c878                lv_theme_default_init
 .text.lv_theme_default_get
                0x0801c928       0x14 CMakeFiles/f4xx_SPI.elf.dir/Core/Src/gui/lvgl/extra/themes/default/lv_theme_default.c.obj
                0x0801c928                lv_theme_default_get
 .text.is_leap_year
                0x0801c93c       0x3c CMakeFiles/f4xx_SPI.elf.dir/Core/Src/gui/lvgl/extra/widgets/calendar/lv_calendar.c.obj
 .text.get_month_length
                0x0801c978       0x50 CMakeFiles/f4xx_SPI.elf.dir/Core/Src/gui/lvgl/extra/widgets/calendar/lv_calendar.c.obj
 .text.get_day_of_week
                0x0801c9c8       0x60 CMakeFiles/f4xx_SPI.elf.dir/Core/Src/gui/lvgl/extra/widgets/calendar/lv_calendar.c.obj
 .text.draw_part_begin_event_cb
                0x0801ca28       0xb2 CMakeFiles/f4xx_SPI.elf.dir/Core/Src/gui/lvgl/extra/widgets/calendar/lv_calendar.c.obj
 .text.highlight_update
                0x0801cada       0x90 CMakeFiles/f4xx_SPI.elf.dir/Core/Src/gui/lvgl/extra/widgets/calendar/lv_calendar.c.obj
 *fill*         0x0801cb6a        0x2 
 .text.lv_calendar_create
                0x0801cb6c       0x18 CMakeFiles/f4xx_SPI.elf.dir/Core/Src/gui/lvgl/extra/widgets/calendar/lv_calendar.c.obj
                0x0801cb6c                lv_calendar_create
 .text.lv_calendar_set_today_date
                0x0801cb84       0x12 CMakeFiles/f4xx_SPI.elf.dir/Core/Src/gui/lvgl/extra/widgets/calendar/lv_calendar.c.obj
                0x0801cb84                lv_calendar_set_today_date
 *fill*         0x0801cb96        0x2 
 .text.lv_calendar_set_showed_date
                0x0801cb98      0x140 CMakeFiles/f4xx_SPI.elf.dir/Core/Src/gui/lvgl/extra/widgets/calendar/lv_calendar.c.obj
                0x0801cb98                lv_calendar_set_showed_date
 .text.lv_calendar_constructor
                0x0801ccd8      0x100 CMakeFiles/f4xx_SPI.elf.dir/Core/Src/gui/lvgl/extra/widgets/calendar/lv_calendar.c.obj
 .text.lv_calendar_get_showed_date
                0x0801cdd8        0x4 CMakeFiles/f4xx_SPI.elf.dir/Core/Src/gui/lvgl/extra/widgets/calendar/lv_calendar.c.obj
                0x0801cdd8                lv_calendar_get_showed_date
 .text.lv_calendar_get_pressed_date
                0x0801cddc       0x58 CMakeFiles/f4xx_SPI.elf.dir/Core/Src/gui/lvgl/extra/widgets/calendar/lv_calendar.c.obj
                0x0801cddc                lv_calendar_get_pressed_date
 .text.my_constructor
                0x0801ce34       0xdc CMakeFiles/f4xx_SPI.elf.dir/Core/Src/gui/lvgl/extra/widgets/calendar/lv_calendar_header_arrow.c.obj
 .text.value_changed_event_cb
                0x0801cf10       0x38 CMakeFiles/f4xx_SPI.elf.dir/Core/Src/gui/lvgl/extra/widgets/calendar/lv_calendar_header_arrow.c.obj
 .text.month_event_cb
                0x0801cf48       0xa4 CMakeFiles/f4xx_SPI.elf.dir/Core/Src/gui/lvgl/extra/widgets/calendar/lv_calendar_header_arrow.c.obj
 .text.my_constructor
                0x0801cfec       0x8c CMakeFiles/f4xx_SPI.elf.dir/Core/Src/gui/lvgl/extra/widgets/calendar/lv_calendar_header_dropdown.c.obj
 .text.value_changed_event_cb
                0x0801d078       0x40 CMakeFiles/f4xx_SPI.elf.dir/Core/Src/gui/lvgl/extra/widgets/calendar/lv_calendar_header_dropdown.c.obj
 .text.month_event_cb
                0x0801d0b8       0x34 CMakeFiles/f4xx_SPI.elf.dir/Core/Src/gui/lvgl/extra/widgets/calendar/lv_calendar_header_dropdown.c.obj
 .text.year_event_cb
                0x0801d0ec       0x3a CMakeFiles/f4xx_SPI.elf.dir/Core/Src/gui/lvgl/extra/widgets/calendar/lv_calendar_header_dropdown.c.obj
 *fill*         0x0801d126        0x2 
 .text.lv_calendar_header_dropdown_create
                0x0801d128       0x18 CMakeFiles/f4xx_SPI.elf.dir/Core/Src/gui/lvgl/extra/widgets/calendar/lv_calendar_header_dropdown.c.obj
                0x0801d128                lv_calendar_header_dropdown_create
 .text.get_index_from_x
                0x0801d140       0x72 CMakeFiles/f4xx_SPI.elf.dir/Core/Src/gui/lvgl/extra/widgets/chart/lv_chart.c.obj
 .text.invalidate_point
                0x0801d1b2      0x1a4 CMakeFiles/f4xx_SPI.elf.dir/Core/Src/gui/lvgl/extra/widgets/chart/lv_chart.c.obj
 *fill*         0x0801d356        0x2 
 .text.draw_div_lines
                0x0801d358      0x2fc CMakeFiles/f4xx_SPI.elf.dir/Core/Src/gui/lvgl/extra/widgets/chart/lv_chart.c.obj
 .text.draw_series_line
                0x0801d654      0x498 CMakeFiles/f4xx_SPI.elf.dir/Core/Src/gui/lvgl/extra/widgets/chart/lv_chart.c.obj
 .text.draw_series_scatter
                0x0801daec      0x41c CMakeFiles/f4xx_SPI.elf.dir/Core/Src/gui/lvgl/extra/widgets/chart/lv_chart.c.obj
 .text.draw_series_bar
                0x0801df08      0x27c CMakeFiles/f4xx_SPI.elf.dir/Core/Src/gui/lvgl/extra/widgets/chart/lv_chart.c.obj
 .text.lv_chart_destructor
                0x0801e184       0x68 CMakeFiles/f4xx_SPI.elf.dir/Core/Src/gui/lvgl/extra/widgets/chart/lv_chart.c.obj
 .text.lv_chart_constructor
                0x0801e1ec       0x76 CMakeFiles/f4xx_SPI.elf.dir/Core/Src/gui/lvgl/extra/widgets/chart/lv_chart.c.obj
 *fill*         0x0801e262        0x2 
 .text.new_points_alloc
                0x0801e264      0x104 CMakeFiles/f4xx_SPI.elf.dir/Core/Src/gui/lvgl/extra/widgets/chart/lv_chart.c.obj
 .text.lv_chart_create
                0x0801e368       0x18 CMakeFiles/f4xx_SPI.elf.dir/Core/Src/gui/lvgl/extra/widgets/chart/lv_chart.c.obj
                0x0801e368                lv_chart_create
 .text.lv_chart_set_div_line_count
                0x0801e380       0x22 CMakeFiles/f4xx_SPI.elf.dir/Core/Src/gui/lvgl/extra/widgets/chart/lv_chart.c.obj
                0x0801e380                lv_chart_set_div_line_count
 .text.lv_chart_set_zoom_x
                0x0801e3a2       0x26 CMakeFiles/f4xx_SPI.elf.dir/Core/Src/gui/lvgl/extra/widgets/chart/lv_chart.c.obj
                0x0801e3a2                lv_chart_set_zoom_x
 .text.lv_chart_get_type
                0x0801e3c8        0xa CMakeFiles/f4xx_SPI.elf.dir/Core/Src/gui/lvgl/extra/widgets/chart/lv_chart.c.obj
                0x0801e3c8                lv_chart_get_type
 *fill*         0x0801e3d2        0x2 
 .text.lv_chart_get_point_pos_by_id
                0x0801e3d4      0x230 CMakeFiles/f4xx_SPI.elf.dir/Core/Src/gui/lvgl/extra/widgets/chart/lv_chart.c.obj
                0x0801e3d4                lv_chart_get_point_pos_by_id
 .text.draw_cursors
                0x0801e604      0x250 CMakeFiles/f4xx_SPI.elf.dir/Core/Src/gui/lvgl/extra/widgets/chart/lv_chart.c.obj
 .text.lv_chart_refresh
                0x0801e854        0x8 CMakeFiles/f4xx_SPI.elf.dir/Core/Src/gui/lvgl/extra/widgets/chart/lv_chart.c.obj
                0x0801e854                lv_chart_refresh
 .text.lv_chart_set_type
                0x0801e85c       0xbc CMakeFiles/f4xx_SPI.elf.dir/Core/Src/gui/lvgl/extra/widgets/chart/lv_chart.c.obj
                0x0801e85c                lv_chart_set_type
 .text.lv_chart_set_point_count
                0x0801e918       0x74 CMakeFiles/f4xx_SPI.elf.dir/Core/Src/gui/lvgl/extra/widgets/chart/lv_chart.c.obj
                0x0801e918                lv_chart_set_point_count
 .text.lv_chart_add_series
                0x0801e98c      0x104 CMakeFiles/f4xx_SPI.elf.dir/Core/Src/gui/lvgl/extra/widgets/chart/lv_chart.c.obj
                0x0801e98c                lv_chart_add_series
 .text.lv_chart_set_series_color
                0x0801ea90       0x44 CMakeFiles/f4xx_SPI.elf.dir/Core/Src/gui/lvgl/extra/widgets/chart/lv_chart.c.obj
                0x0801ea90                lv_chart_set_series_color
 .text.lv_chart_get_series_next
                0x0801ead4       0x14 CMakeFiles/f4xx_SPI.elf.dir/Core/Src/gui/lvgl/extra/widgets/chart/lv_chart.c.obj
                0x0801ead4                lv_chart_get_series_next
 .text.lv_chart_set_next_value
                0x0801eae8       0x68 CMakeFiles/f4xx_SPI.elf.dir/Core/Src/gui/lvgl/extra/widgets/chart/lv_chart.c.obj
                0x0801eae8                lv_chart_set_next_value
 .text.lv_chart_get_pressed_point
                0x0801eb50        0x6 CMakeFiles/f4xx_SPI.elf.dir/Core/Src/gui/lvgl/extra/widgets/chart/lv_chart.c.obj
                0x0801eb50                lv_chart_get_pressed_point
 .text.get_tick_gsc
                0x0801eb56       0x22 CMakeFiles/f4xx_SPI.elf.dir/Core/Src/gui/lvgl/extra/widgets/chart/lv_chart.c.obj
                0x0801eb56                get_tick_gsc
 .text.draw_y_ticks
                0x0801eb78      0x300 CMakeFiles/f4xx_SPI.elf.dir/Core/Src/gui/lvgl/extra/widgets/chart/lv_chart.c.obj
 .text.draw_x_ticks
                0x0801ee78      0x3ac CMakeFiles/f4xx_SPI.elf.dir/Core/Src/gui/lvgl/extra/widgets/chart/lv_chart.c.obj
 .text.draw_axes
                0x0801f224       0x2c CMakeFiles/f4xx_SPI.elf.dir/Core/Src/gui/lvgl/extra/widgets/chart/lv_chart.c.obj
 .text.lv_chart_event
                0x0801f250      0x168 CMakeFiles/f4xx_SPI.elf.dir/Core/Src/gui/lvgl/extra/widgets/chart/lv_chart.c.obj
 .text.lv_chart_set_axis_tick
                0x0801f3b8       0x4a CMakeFiles/f4xx_SPI.elf.dir/Core/Src/gui/lvgl/extra/widgets/chart/lv_chart.c.obj
                0x0801f3b8                lv_chart_set_axis_tick
 .text.fast_hsv2rgb
                0x0801f402       0x8c CMakeFiles/f4xx_SPI.elf.dir/Core/Src/gui/lvgl/extra/widgets/colorwheel/lv_colorwheel.c.obj
 *fill*         0x0801f48e        0x2 
 .text.angle_to_mode_color_fast
                0x0801f490      0x188 CMakeFiles/f4xx_SPI.elf.dir/Core/Src/gui/lvgl/extra/widgets/colorwheel/lv_colorwheel.c.obj
 .text.get_angle
                0x0801f618       0x44 CMakeFiles/f4xx_SPI.elf.dir/Core/Src/gui/lvgl/extra/widgets/colorwheel/lv_colorwheel.c.obj
 .text.get_knob_area
                0x0801f65c       0x90 CMakeFiles/f4xx_SPI.elf.dir/Core/Src/gui/lvgl/extra/widgets/colorwheel/lv_colorwheel.c.obj
 .text.invalidate_knob
                0x0801f6ec       0x1a CMakeFiles/f4xx_SPI.elf.dir/Core/Src/gui/lvgl/extra/widgets/colorwheel/lv_colorwheel.c.obj
 .text.refr_knob_pos
                0x0801f706       0x68 CMakeFiles/f4xx_SPI.elf.dir/Core/Src/gui/lvgl/extra/widgets/colorwheel/lv_colorwheel.c.obj
 *fill*         0x0801f76e        0x2 
 .text.next_color_mode
                0x0801f770       0x34 CMakeFiles/f4xx_SPI.elf.dir/Core/Src/gui/lvgl/extra/widgets/colorwheel/lv_colorwheel.c.obj
 .text.draw_disc_grad
                0x0801f7a4      0x198 CMakeFiles/f4xx_SPI.elf.dir/Core/Src/gui/lvgl/extra/widgets/colorwheel/lv_colorwheel.c.obj
 .text.lv_colorwheel_constructor
                0x0801f93c       0x58 CMakeFiles/f4xx_SPI.elf.dir/Core/Src/gui/lvgl/extra/widgets/colorwheel/lv_colorwheel.c.obj
 .text.lv_colorwheel_set_hsv
                0x0801f994       0x74 CMakeFiles/f4xx_SPI.elf.dir/Core/Src/gui/lvgl/extra/widgets/colorwheel/lv_colorwheel.c.obj
                0x0801f994                lv_colorwheel_set_hsv
 .text.double_click_reset
                0x0801fa08       0x72 CMakeFiles/f4xx_SPI.elf.dir/Core/Src/gui/lvgl/extra/widgets/colorwheel/lv_colorwheel.c.obj
 .text.lv_colorwheel_get_rgb
                0x0801fa7a       0x12 CMakeFiles/f4xx_SPI.elf.dir/Core/Src/gui/lvgl/extra/widgets/colorwheel/lv_colorwheel.c.obj
                0x0801fa7a                lv_colorwheel_get_rgb
 .text.draw_knob
                0x0801fa8c       0x5a CMakeFiles/f4xx_SPI.elf.dir/Core/Src/gui/lvgl/extra/widgets/colorwheel/lv_colorwheel.c.obj
 *fill*         0x0801fae6        0x2 
 .text.lv_colorwheel_event
                0x0801fae8      0x430 CMakeFiles/f4xx_SPI.elf.dir/Core/Src/gui/lvgl/extra/widgets/colorwheel/lv_colorwheel.c.obj
 .text.lv_keyboard_update_ctrl_map
                0x0801ff18       0x68 CMakeFiles/f4xx_SPI.elf.dir/Core/Src/gui/lvgl/extra/widgets/keyboard/lv_keyboard.c.obj
 .text.lv_keyboard_update_map
                0x0801ff80       0x20 CMakeFiles/f4xx_SPI.elf.dir/Core/Src/gui/lvgl/extra/widgets/keyboard/lv_keyboard.c.obj
 .text.lv_keyboard_constructor
                0x0801ffa0       0x50 CMakeFiles/f4xx_SPI.elf.dir/Core/Src/gui/lvgl/extra/widgets/keyboard/lv_keyboard.c.obj
 .text.lv_keyboard_def_event_cb
                0x0801fff0      0x210 CMakeFiles/f4xx_SPI.elf.dir/Core/Src/gui/lvgl/extra/widgets/keyboard/lv_keyboard.c.obj
                0x0801fff0                lv_keyboard_def_event_cb
 .text.lv_keyboard_create
                0x08020200       0x18 CMakeFiles/f4xx_SPI.elf.dir/Core/Src/gui/lvgl/extra/widgets/keyboard/lv_keyboard.c.obj
                0x08020200                lv_keyboard_create
 .text.lv_keyboard_set_textarea
                0x08020218       0x1e CMakeFiles/f4xx_SPI.elf.dir/Core/Src/gui/lvgl/extra/widgets/keyboard/lv_keyboard.c.obj
                0x08020218                lv_keyboard_set_textarea
 .text.lv_led_constructor
                0x08020236       0x14 CMakeFiles/f4xx_SPI.elf.dir/Core/Src/gui/lvgl/extra/widgets/led/lv_led.c.obj
 *fill*         0x0802024a        0x2 
 .text.lv_led_event
                0x0802024c      0x6f8 CMakeFiles/f4xx_SPI.elf.dir/Core/Src/gui/lvgl/extra/widgets/led/lv_led.c.obj
 .text.lv_menu_destructor
                0x08020944        0xc CMakeFiles/f4xx_SPI.elf.dir/Core/Src/gui/lvgl/extra/widgets/menu/lv_menu.c.obj
 .text.lv_menu_section_constructor
                0x08020950       0x16 CMakeFiles/f4xx_SPI.elf.dir/Core/Src/gui/lvgl/extra/widgets/menu/lv_menu.c.obj
 .text.lv_menu_cont_constructor
                0x08020966       0x22 CMakeFiles/f4xx_SPI.elf.dir/Core/Src/gui/lvgl/extra/widgets/menu/lv_menu.c.obj
 .text.lv_menu_constructor
                0x08020988      0x140 CMakeFiles/f4xx_SPI.elf.dir/Core/Src/gui/lvgl/extra/widgets/menu/lv_menu.c.obj
 .text.lv_menu_page_destructor
                0x08020ac8       0x14 CMakeFiles/f4xx_SPI.elf.dir/Core/Src/gui/lvgl/extra/widgets/menu/lv_menu.c.obj
 .text.lv_menu_page_constructor
                0x08020adc       0x32 CMakeFiles/f4xx_SPI.elf.dir/Core/Src/gui/lvgl/extra/widgets/menu/lv_menu.c.obj
 .text.lv_menu_refr_main_header_mode
                0x08020b0e       0x7c CMakeFiles/f4xx_SPI.elf.dir/Core/Src/gui/lvgl/extra/widgets/menu/lv_menu.c.obj
 .text.lv_menu_get_cur_main_page
                0x08020b8a        0x4 CMakeFiles/f4xx_SPI.elf.dir/Core/Src/gui/lvgl/extra/widgets/menu/lv_menu.c.obj
                0x08020b8a                lv_menu_get_cur_main_page
 .text.lv_menu_get_cur_sidebar_page
                0x08020b8e        0x4 CMakeFiles/f4xx_SPI.elf.dir/Core/Src/gui/lvgl/extra/widgets/menu/lv_menu.c.obj
                0x08020b8e                lv_menu_get_cur_sidebar_page
 .text.lv_menu_value_changed_event_cb
                0x08020b92       0x54 CMakeFiles/f4xx_SPI.elf.dir/Core/Src/gui/lvgl/extra/widgets/menu/lv_menu.c.obj
 .text.lv_menu_back_btn_is_root
                0x08020be6       0x24 CMakeFiles/f4xx_SPI.elf.dir/Core/Src/gui/lvgl/extra/widgets/menu/lv_menu.c.obj
                0x08020be6                lv_menu_back_btn_is_root
 .text.lv_menu_clear_history
                0x08020c0a       0x12 CMakeFiles/f4xx_SPI.elf.dir/Core/Src/gui/lvgl/extra/widgets/menu/lv_menu.c.obj
                0x08020c0a                lv_menu_clear_history
 .text.lv_menu_set_page
                0x08020c1c      0x134 CMakeFiles/f4xx_SPI.elf.dir/Core/Src/gui/lvgl/extra/widgets/menu/lv_menu.c.obj
                0x08020c1c                lv_menu_set_page
 .text.lv_menu_back_event_cb
                0x08020d50       0x92 CMakeFiles/f4xx_SPI.elf.dir/Core/Src/gui/lvgl/extra/widgets/menu/lv_menu.c.obj
 *fill*         0x08020de2        0x2 
 .text.draw_arcs
                0x08020de4      0x140 CMakeFiles/f4xx_SPI.elf.dir/Core/Src/gui/lvgl/extra/widgets/meter/lv_meter.c.obj
 .text.draw_ticks_and_labels
                0x08020f24      0x52c CMakeFiles/f4xx_SPI.elf.dir/Core/Src/gui/lvgl/extra/widgets/meter/lv_meter.c.obj
 .text.draw_needles
                0x08021450      0x23c CMakeFiles/f4xx_SPI.elf.dir/Core/Src/gui/lvgl/extra/widgets/meter/lv_meter.c.obj
 .text.lv_meter_event
                0x0802168c       0xf0 CMakeFiles/f4xx_SPI.elf.dir/Core/Src/gui/lvgl/extra/widgets/meter/lv_meter.c.obj
 .text.lv_meter_destructor
                0x0802177c       0x16 CMakeFiles/f4xx_SPI.elf.dir/Core/Src/gui/lvgl/extra/widgets/meter/lv_meter.c.obj
 .text.lv_meter_constructor
                0x08021792       0x18 CMakeFiles/f4xx_SPI.elf.dir/Core/Src/gui/lvgl/extra/widgets/meter/lv_meter.c.obj
 .text.inv_arc  0x080217aa       0xc2 CMakeFiles/f4xx_SPI.elf.dir/Core/Src/gui/lvgl/extra/widgets/meter/lv_meter.c.obj
 .text.inv_line
                0x0802186c      0x1c0 CMakeFiles/f4xx_SPI.elf.dir/Core/Src/gui/lvgl/extra/widgets/meter/lv_meter.c.obj
 .text.lv_meter_create
                0x08021a2c       0x18 CMakeFiles/f4xx_SPI.elf.dir/Core/Src/gui/lvgl/extra/widgets/meter/lv_meter.c.obj
                0x08021a2c                lv_meter_create
 .text.lv_meter_add_scale
                0x08021a44       0x68 CMakeFiles/f4xx_SPI.elf.dir/Core/Src/gui/lvgl/extra/widgets/meter/lv_meter.c.obj
                0x08021a44                lv_meter_add_scale
 .text.lv_meter_set_scale_ticks
                0x08021aac       0x18 CMakeFiles/f4xx_SPI.elf.dir/Core/Src/gui/lvgl/extra/widgets/meter/lv_meter.c.obj
                0x08021aac                lv_meter_set_scale_ticks
 .text.lv_meter_set_scale_major_ticks
                0x08021ac4       0x1e CMakeFiles/f4xx_SPI.elf.dir/Core/Src/gui/lvgl/extra/widgets/meter/lv_meter.c.obj
                0x08021ac4                lv_meter_set_scale_major_ticks
 .text.lv_meter_set_scale_range
                0x08021ae2       0x14 CMakeFiles/f4xx_SPI.elf.dir/Core/Src/gui/lvgl/extra/widgets/meter/lv_meter.c.obj
                0x08021ae2                lv_meter_set_scale_range
 *fill*         0x08021af6        0x2 
 .text.lv_meter_add_needle_line
                0x08021af8       0x70 CMakeFiles/f4xx_SPI.elf.dir/Core/Src/gui/lvgl/extra/widgets/meter/lv_meter.c.obj
                0x08021af8                lv_meter_add_needle_line
 .text.lv_meter_add_arc
                0x08021b68       0x70 CMakeFiles/f4xx_SPI.elf.dir/Core/Src/gui/lvgl/extra/widgets/meter/lv_meter.c.obj
                0x08021b68                lv_meter_add_arc
 .text.lv_meter_add_scale_lines
                0x08021bd8       0x7c CMakeFiles/f4xx_SPI.elf.dir/Core/Src/gui/lvgl/extra/widgets/meter/lv_meter.c.obj
                0x08021bd8                lv_meter_add_scale_lines
 .text.lv_meter_set_indicator_value
                0x08021c54       0x4e CMakeFiles/f4xx_SPI.elf.dir/Core/Src/gui/lvgl/extra/widgets/meter/lv_meter.c.obj
                0x08021c54                lv_meter_set_indicator_value
 .text.lv_meter_set_indicator_start_value
                0x08021ca2       0x34 CMakeFiles/f4xx_SPI.elf.dir/Core/Src/gui/lvgl/extra/widgets/meter/lv_meter.c.obj
                0x08021ca2                lv_meter_set_indicator_start_value
 .text.lv_meter_set_indicator_end_value
                0x08021cd6       0x34 CMakeFiles/f4xx_SPI.elf.dir/Core/Src/gui/lvgl/extra/widgets/meter/lv_meter.c.obj
                0x08021cd6                lv_meter_set_indicator_end_value
 *fill*         0x08021d0a        0x2 
 .text.lv_spinbox_updatevalue
                0x08021d0c      0x124 CMakeFiles/f4xx_SPI.elf.dir/Core/Src/gui/lvgl/extra/widgets/spinbox/lv_spinbox.c.obj
 .text.lv_spinbox_constructor
                0x08021e30       0x58 CMakeFiles/f4xx_SPI.elf.dir/Core/Src/gui/lvgl/extra/widgets/spinbox/lv_spinbox.c.obj
 .text.lv_spinbox_step_next
                0x08021e88       0x28 CMakeFiles/f4xx_SPI.elf.dir/Core/Src/gui/lvgl/extra/widgets/spinbox/lv_spinbox.c.obj
                0x08021e88                lv_spinbox_step_next
 .text.lv_spinbox_step_prev
                0x08021eb0       0x28 CMakeFiles/f4xx_SPI.elf.dir/Core/Src/gui/lvgl/extra/widgets/spinbox/lv_spinbox.c.obj
                0x08021eb0                lv_spinbox_step_prev
 .text.lv_spinbox_increment
                0x08021ed8       0x40 CMakeFiles/f4xx_SPI.elf.dir/Core/Src/gui/lvgl/extra/widgets/spinbox/lv_spinbox.c.obj
                0x08021ed8                lv_spinbox_increment
 .text.lv_spinbox_decrement
                0x08021f18       0x40 CMakeFiles/f4xx_SPI.elf.dir/Core/Src/gui/lvgl/extra/widgets/spinbox/lv_spinbox.c.obj
                0x08021f18                lv_spinbox_decrement
 .text.lv_spinbox_event
                0x08021f58      0x198 CMakeFiles/f4xx_SPI.elf.dir/Core/Src/gui/lvgl/extra/widgets/spinbox/lv_spinbox.c.obj
 .text.lv_spinner_constructor
                0x080220f0       0x84 CMakeFiles/f4xx_SPI.elf.dir/Core/Src/gui/lvgl/extra/widgets/spinner/lv_spinner.c.obj
 .text.arc_anim_start_angle
                0x08022174        0xa CMakeFiles/f4xx_SPI.elf.dir/Core/Src/gui/lvgl/extra/widgets/spinner/lv_spinner.c.obj
 .text.arc_anim_end_angle
                0x0802217e        0xa CMakeFiles/f4xx_SPI.elf.dir/Core/Src/gui/lvgl/extra/widgets/spinner/lv_spinner.c.obj
 .text.lv_tabview_destructor
                0x08022188       0x62 CMakeFiles/f4xx_SPI.elf.dir/Core/Src/gui/lvgl/extra/widgets/tabview/lv_tabview.c.obj
 *fill*         0x080221ea        0x2 
 .text.lv_tabview_constructor
                0x080221ec      0x164 CMakeFiles/f4xx_SPI.elf.dir/Core/Src/gui/lvgl/extra/widgets/tabview/lv_tabview.c.obj
 .text.lv_tabview_create
                0x08022350       0x28 CMakeFiles/f4xx_SPI.elf.dir/Core/Src/gui/lvgl/extra/widgets/tabview/lv_tabview.c.obj
                0x08022350                lv_tabview_create
 .text.lv_tabview_get_tab_act
                0x08022378        0x4 CMakeFiles/f4xx_SPI.elf.dir/Core/Src/gui/lvgl/extra/widgets/tabview/lv_tabview.c.obj
                0x08022378                lv_tabview_get_tab_act
 .text.lv_tabview_get_content
                0x0802237c        0xa CMakeFiles/f4xx_SPI.elf.dir/Core/Src/gui/lvgl/extra/widgets/tabview/lv_tabview.c.obj
                0x0802237c                lv_tabview_get_content
 .text.lv_tabview_get_tab_btns
                0x08022386        0xa CMakeFiles/f4xx_SPI.elf.dir/Core/Src/gui/lvgl/extra/widgets/tabview/lv_tabview.c.obj
                0x08022386                lv_tabview_get_tab_btns
 .text.lv_tabview_set_act
                0x08022390       0xb4 CMakeFiles/f4xx_SPI.elf.dir/Core/Src/gui/lvgl/extra/widgets/tabview/lv_tabview.c.obj
                0x08022390                lv_tabview_set_act
 .text.lv_tabview_event
                0x08022444       0x38 CMakeFiles/f4xx_SPI.elf.dir/Core/Src/gui/lvgl/extra/widgets/tabview/lv_tabview.c.obj
 .text.cont_scroll_end_event_cb
                0x0802247c       0xda CMakeFiles/f4xx_SPI.elf.dir/Core/Src/gui/lvgl/extra/widgets/tabview/lv_tabview.c.obj
 .text.btns_value_changed_event_cb
                0x08022556       0x20 CMakeFiles/f4xx_SPI.elf.dir/Core/Src/gui/lvgl/extra/widgets/tabview/lv_tabview.c.obj
 *fill*         0x08022576        0x2 
 .text.lv_tabview_add_tab
                0x08022578      0x148 CMakeFiles/f4xx_SPI.elf.dir/Core/Src/gui/lvgl/extra/widgets/tabview/lv_tabview.c.obj
                0x08022578                lv_tabview_add_tab
 .text.lv_tileview_constructor
                0x080226c0       0x3c CMakeFiles/f4xx_SPI.elf.dir/Core/Src/gui/lvgl/extra/widgets/tileview/lv_tileview.c.obj
 .text.tileview_event_cb
                0x080226fc       0xb6 CMakeFiles/f4xx_SPI.elf.dir/Core/Src/gui/lvgl/extra/widgets/tileview/lv_tileview.c.obj
 *fill*         0x080227b2        0x2 
 .text.lv_tileview_tile_constructor
                0x080227b4       0x70 CMakeFiles/f4xx_SPI.elf.dir/Core/Src/gui/lvgl/extra/widgets/tileview/lv_tileview.c.obj
 .text.lv_win_constructor
                0x08022824       0x74 CMakeFiles/f4xx_SPI.elf.dir/Core/Src/gui/lvgl/extra/widgets/win/lv_win.c.obj
 .text.lv_font_get_glyph_bitmap
                0x08022898       0x40 CMakeFiles/f4xx_SPI.elf.dir/Core/Src/gui/lvgl/font/lv_font.c.obj
                0x08022898                lv_font_get_glyph_bitmap
 .text.lv_font_get_glyph_dsc
                0x080228d8      0x104 CMakeFiles/f4xx_SPI.elf.dir/Core/Src/gui/lvgl/font/lv_font.c.obj
                0x080228d8                lv_font_get_glyph_dsc
 .text.lv_font_get_glyph_width
                0x080229dc       0x48 CMakeFiles/f4xx_SPI.elf.dir/Core/Src/gui/lvgl/font/lv_font.c.obj
                0x080229dc                lv_font_get_glyph_width
 .text.kern_pair_8_compare
                0x08022a24       0x14 CMakeFiles/f4xx_SPI.elf.dir/Core/Src/gui/lvgl/font/lv_font_fmt_txt.c.obj
 .text.kern_pair_16_compare
                0x08022a38       0x14 CMakeFiles/f4xx_SPI.elf.dir/Core/Src/gui/lvgl/font/lv_font_fmt_txt.c.obj
 .text.unicode_list_compare
                0x08022a4c        0x8 CMakeFiles/f4xx_SPI.elf.dir/Core/Src/gui/lvgl/font/lv_font_fmt_txt.c.obj
 .text.get_glyph_dsc_id
                0x08022a54       0xec CMakeFiles/f4xx_SPI.elf.dir/Core/Src/gui/lvgl/font/lv_font_fmt_txt.c.obj
 .text.get_kern_value
                0x08022b40       0xac CMakeFiles/f4xx_SPI.elf.dir/Core/Src/gui/lvgl/font/lv_font_fmt_txt.c.obj
 .text.lv_font_get_bitmap_fmt_txt
                0x08022bec       0x54 CMakeFiles/f4xx_SPI.elf.dir/Core/Src/gui/lvgl/font/lv_font_fmt_txt.c.obj
                0x08022bec                lv_font_get_bitmap_fmt_txt
 .text.lv_font_get_glyph_dsc_fmt_txt
                0x08022c40       0xa0 CMakeFiles/f4xx_SPI.elf.dir/Core/Src/gui/lvgl/font/lv_font_fmt_txt.c.obj
                0x08022c40                lv_font_get_glyph_dsc_fmt_txt
 .text._lv_font_clean_up_fmt_txt
                0x08022ce0        0x2 CMakeFiles/f4xx_SPI.elf.dir/Core/Src/gui/lvgl/font/lv_font_fmt_txt.c.obj
                0x08022ce0                _lv_font_clean_up_fmt_txt
 *fill*         0x08022ce2        0x2 
 .text.lv_disp_drv_init
                0x08022ce4       0x50 CMakeFiles/f4xx_SPI.elf.dir/Core/Src/gui/lvgl/hal/lv_hal_disp.c.obj
                0x08022ce4                lv_disp_drv_init
 .text.lv_disp_draw_buf_init
                0x08022d34       0x1a CMakeFiles/f4xx_SPI.elf.dir/Core/Src/gui/lvgl/hal/lv_hal_disp.c.obj
                0x08022d34                lv_disp_draw_buf_init
 *fill*         0x08022d4e        0x2 
 .text.lv_disp_drv_register
                0x08022d50      0x1b8 CMakeFiles/f4xx_SPI.elf.dir/Core/Src/gui/lvgl/hal/lv_hal_disp.c.obj
                0x08022d50                lv_disp_drv_register
 .text.lv_disp_get_default
                0x08022f08        0xc CMakeFiles/f4xx_SPI.elf.dir/Core/Src/gui/lvgl/hal/lv_hal_disp.c.obj
                0x08022f08                lv_disp_get_default
 .text.lv_disp_get_hor_res
                0x08022f14       0x30 CMakeFiles/f4xx_SPI.elf.dir/Core/Src/gui/lvgl/hal/lv_hal_disp.c.obj
                0x08022f14                lv_disp_get_hor_res
 .text.lv_disp_get_ver_res
                0x08022f44       0x30 CMakeFiles/f4xx_SPI.elf.dir/Core/Src/gui/lvgl/hal/lv_hal_disp.c.obj
                0x08022f44                lv_disp_get_ver_res
 .text.lv_disp_get_dpi
                0x08022f74       0x1e CMakeFiles/f4xx_SPI.elf.dir/Core/Src/gui/lvgl/hal/lv_hal_disp.c.obj
                0x08022f74                lv_disp_get_dpi
 .text.lv_disp_flush_ready
                0x08022f92        0xc CMakeFiles/f4xx_SPI.elf.dir/Core/Src/gui/lvgl/hal/lv_hal_disp.c.obj
                0x08022f92                lv_disp_flush_ready
 *fill*         0x08022f9e        0x2 
 .text.lv_disp_get_next
                0x08022fa0       0x1c CMakeFiles/f4xx_SPI.elf.dir/Core/Src/gui/lvgl/hal/lv_hal_disp.c.obj
                0x08022fa0                lv_disp_get_next
 .text.lv_disp_get_draw_buf
                0x08022fbc        0x6 CMakeFiles/f4xx_SPI.elf.dir/Core/Src/gui/lvgl/hal/lv_hal_disp.c.obj
                0x08022fbc                lv_disp_get_draw_buf
 *fill*         0x08022fc2        0x2 
 .text.lv_indev_get_next
                0x08022fc4       0x1c CMakeFiles/f4xx_SPI.elf.dir/Core/Src/gui/lvgl/hal/lv_hal_indev.c.obj
                0x08022fc4                lv_indev_get_next
 .text.lv_tick_inc
                0x08022fe0       0x18 CMakeFiles/f4xx_SPI.elf.dir/Core/Src/gui/lvgl/hal/lv_hal_tick.c.obj
                0x08022fe0                lv_tick_inc
 .text.lv_tick_get
                0x08022ff8       0x1c CMakeFiles/f4xx_SPI.elf.dir/Core/Src/gui/lvgl/hal/lv_hal_tick.c.obj
                0x08022ff8                lv_tick_get
 .text.lv_tick_elaps
                0x08023014       0x14 CMakeFiles/f4xx_SPI.elf.dir/Core/Src/gui/lvgl/hal/lv_hal_tick.c.obj
                0x08023014                lv_tick_elaps
 .text.anim_mark_list_change
                0x08023028       0x30 CMakeFiles/f4xx_SPI.elf.dir/Core/Src/gui/lvgl/misc/lv_anim.c.obj
 .text.anim_ready_handler
                0x08023058       0x7c CMakeFiles/f4xx_SPI.elf.dir/Core/Src/gui/lvgl/misc/lv_anim.c.obj
 .text.anim_timer
                0x080230d4      0x100 CMakeFiles/f4xx_SPI.elf.dir/Core/Src/gui/lvgl/misc/lv_anim.c.obj
 .text.lv_anim_path_linear
                0x080231d4       0x2a CMakeFiles/f4xx_SPI.elf.dir/Core/Src/gui/lvgl/misc/lv_anim.c.obj
                0x080231d4                lv_anim_path_linear
 *fill*         0x080231fe        0x2 
 .text._lv_anim_core_init
                0x08023200       0x34 CMakeFiles/f4xx_SPI.elf.dir/Core/Src/gui/lvgl/misc/lv_anim.c.obj
                0x08023200                _lv_anim_core_init
 .text.lv_anim_init
                0x08023234       0x34 CMakeFiles/f4xx_SPI.elf.dir/Core/Src/gui/lvgl/misc/lv_anim.c.obj
                0x08023234                lv_anim_init
 .text.lv_anim_del
                0x08023268       0x5c CMakeFiles/f4xx_SPI.elf.dir/Core/Src/gui/lvgl/misc/lv_anim.c.obj
                0x08023268                lv_anim_del
 .text.lv_anim_start
                0x080232c4       0xbc CMakeFiles/f4xx_SPI.elf.dir/Core/Src/gui/lvgl/misc/lv_anim.c.obj
                0x080232c4                lv_anim_start
 .text.lv_anim_get
                0x08023380       0x34 CMakeFiles/f4xx_SPI.elf.dir/Core/Src/gui/lvgl/misc/lv_anim.c.obj
                0x08023380                lv_anim_get
 .text.lv_anim_speed_to_time
                0x080233b4       0x1e CMakeFiles/f4xx_SPI.elf.dir/Core/Src/gui/lvgl/misc/lv_anim.c.obj
                0x080233b4                lv_anim_speed_to_time
 .text.lv_anim_path_ease_out
                0x080233d2       0x3a CMakeFiles/f4xx_SPI.elf.dir/Core/Src/gui/lvgl/misc/lv_anim.c.obj
                0x080233d2                lv_anim_path_ease_out
 .text.lv_anim_path_ease_in_out
                0x0802340c       0x38 CMakeFiles/f4xx_SPI.elf.dir/Core/Src/gui/lvgl/misc/lv_anim.c.obj
                0x0802340c                lv_anim_path_ease_in_out
 .text.lv_anim_path_step
                0x08023444       0x10 CMakeFiles/f4xx_SPI.elf.dir/Core/Src/gui/lvgl/misc/lv_anim.c.obj
                0x08023444                lv_anim_path_step
 .text.lv_point_within_circle
                0x08023454       0x46 CMakeFiles/f4xx_SPI.elf.dir/Core/Src/gui/lvgl/misc/lv_area.c.obj
 .text.lv_area_set
                0x0802349a        0xe CMakeFiles/f4xx_SPI.elf.dir/Core/Src/gui/lvgl/misc/lv_area.c.obj
                0x0802349a                lv_area_set
 .text.lv_area_set_width
                0x080234a8        0xc CMakeFiles/f4xx_SPI.elf.dir/Core/Src/gui/lvgl/misc/lv_area.c.obj
                0x080234a8                lv_area_set_width
 .text.lv_area_set_height
                0x080234b4        0xc CMakeFiles/f4xx_SPI.elf.dir/Core/Src/gui/lvgl/misc/lv_area.c.obj
                0x080234b4                lv_area_set_height
 .text.lv_area_get_size
                0x080234c0       0x1c CMakeFiles/f4xx_SPI.elf.dir/Core/Src/gui/lvgl/misc/lv_area.c.obj
                0x080234c0                lv_area_get_size
 .text.lv_area_increase
                0x080234dc       0x1e CMakeFiles/f4xx_SPI.elf.dir/Core/Src/gui/lvgl/misc/lv_area.c.obj
                0x080234dc                lv_area_increase
 .text.lv_area_move
                0x080234fa       0x1e CMakeFiles/f4xx_SPI.elf.dir/Core/Src/gui/lvgl/misc/lv_area.c.obj
                0x080234fa                lv_area_move
 .text._lv_area_intersect
                0x08023518       0x58 CMakeFiles/f4xx_SPI.elf.dir/Core/Src/gui/lvgl/misc/lv_area.c.obj
                0x08023518                _lv_area_intersect
 .text._lv_area_join
                0x08023570       0x46 CMakeFiles/f4xx_SPI.elf.dir/Core/Src/gui/lvgl/misc/lv_area.c.obj
                0x08023570                _lv_area_join
 .text._lv_area_is_point_on
                0x080235b6      0x184 CMakeFiles/f4xx_SPI.elf.dir/Core/Src/gui/lvgl/misc/lv_area.c.obj
                0x080235b6                _lv_area_is_point_on
 .text._lv_area_is_on
                0x0802373a       0x44 CMakeFiles/f4xx_SPI.elf.dir/Core/Src/gui/lvgl/misc/lv_area.c.obj
                0x0802373a                _lv_area_is_on
 .text._lv_area_is_in
                0x0802377e       0xaa CMakeFiles/f4xx_SPI.elf.dir/Core/Src/gui/lvgl/misc/lv_area.c.obj
                0x0802377e                _lv_area_is_in
 .text._lv_area_is_out
                0x08023828       0xbe CMakeFiles/f4xx_SPI.elf.dir/Core/Src/gui/lvgl/misc/lv_area.c.obj
                0x08023828                _lv_area_is_out
 *fill*         0x080238e6        0x2 
 .text.lv_point_transform
                0x080238e8      0x16c CMakeFiles/f4xx_SPI.elf.dir/Core/Src/gui/lvgl/misc/lv_area.c.obj
                0x080238e8                lv_point_transform
 .text.lv_color_fill
                0x08023a54       0x38 CMakeFiles/f4xx_SPI.elf.dir/Core/Src/gui/lvgl/misc/lv_color.c.obj
                0x08023a54                lv_color_fill
 .text.lv_color_darken
                0x08023a8c       0x6e CMakeFiles/f4xx_SPI.elf.dir/Core/Src/gui/lvgl/misc/lv_color.c.obj
                0x08023a8c                lv_color_darken
 *fill*         0x08023afa        0x2 
 .text.lv_color_hsv_to_rgb
                0x08023afc      0x10c CMakeFiles/f4xx_SPI.elf.dir/Core/Src/gui/lvgl/misc/lv_color.c.obj
                0x08023afc                lv_color_hsv_to_rgb
 .text.lv_palette_main
                0x08023c08       0x40 CMakeFiles/f4xx_SPI.elf.dir/Core/Src/gui/lvgl/misc/lv_color.c.obj
                0x08023c08                lv_palette_main
 .text.lv_palette_lighten
                0x08023c48       0x6c CMakeFiles/f4xx_SPI.elf.dir/Core/Src/gui/lvgl/misc/lv_color.c.obj
                0x08023c48                lv_palette_lighten
 .text.lv_palette_darken
                0x08023cb4       0x68 CMakeFiles/f4xx_SPI.elf.dir/Core/Src/gui/lvgl/misc/lv_color.c.obj
                0x08023cb4                lv_palette_darken
 .text.lv_fs_get_real_path
                0x08023d1c       0x10 CMakeFiles/f4xx_SPI.elf.dir/Core/Src/gui/lvgl/misc/lv_fs.c.obj
 .text.lv_fs_read_cached
                0x08023d2c      0x16c CMakeFiles/f4xx_SPI.elf.dir/Core/Src/gui/lvgl/misc/lv_fs.c.obj
 .text._lv_fs_init
                0x08023e98       0x10 CMakeFiles/f4xx_SPI.elf.dir/Core/Src/gui/lvgl/misc/lv_fs.c.obj
                0x08023e98                _lv_fs_init
 .text.lv_fs_close
                0x08023ea8       0x3e CMakeFiles/f4xx_SPI.elf.dir/Core/Src/gui/lvgl/misc/lv_fs.c.obj
                0x08023ea8                lv_fs_close
 .text.lv_fs_read
                0x08023ee6       0x46 CMakeFiles/f4xx_SPI.elf.dir/Core/Src/gui/lvgl/misc/lv_fs.c.obj
                0x08023ee6                lv_fs_read
 .text.lv_fs_seek
                0x08023f2c       0xa2 CMakeFiles/f4xx_SPI.elf.dir/Core/Src/gui/lvgl/misc/lv_fs.c.obj
                0x08023f2c                lv_fs_seek
 *fill*         0x08023fce        0x2 
 .text.lv_fs_get_drv
                0x08023fd0       0x2c CMakeFiles/f4xx_SPI.elf.dir/Core/Src/gui/lvgl/misc/lv_fs.c.obj
                0x08023fd0                lv_fs_get_drv
 .text.lv_fs_open
                0x08023ffc      0x110 CMakeFiles/f4xx_SPI.elf.dir/Core/Src/gui/lvgl/misc/lv_fs.c.obj
                0x08023ffc                lv_fs_open
 .text.lv_fs_get_ext
                0x0802410c       0x34 CMakeFiles/f4xx_SPI.elf.dir/Core/Src/gui/lvgl/misc/lv_fs.c.obj
                0x0802410c                lv_fs_get_ext
 .text.node_set_prev
                0x08024140        0xa CMakeFiles/f4xx_SPI.elf.dir/Core/Src/gui/lvgl/misc/lv_ll.c.obj
 .text.node_set_next
                0x0802414a       0x10 CMakeFiles/f4xx_SPI.elf.dir/Core/Src/gui/lvgl/misc/lv_ll.c.obj
 .text._lv_ll_init
                0x0802415a       0x10 CMakeFiles/f4xx_SPI.elf.dir/Core/Src/gui/lvgl/misc/lv_ll.c.obj
                0x0802415a                _lv_ll_init
 .text._lv_ll_ins_head
                0x0802416a       0x3e CMakeFiles/f4xx_SPI.elf.dir/Core/Src/gui/lvgl/misc/lv_ll.c.obj
                0x0802416a                _lv_ll_ins_head
 .text._lv_ll_ins_tail
                0x080241a8       0x3e CMakeFiles/f4xx_SPI.elf.dir/Core/Src/gui/lvgl/misc/lv_ll.c.obj
                0x080241a8                _lv_ll_ins_tail
 .text._lv_ll_get_head
                0x080241e6        0x8 CMakeFiles/f4xx_SPI.elf.dir/Core/Src/gui/lvgl/misc/lv_ll.c.obj
                0x080241e6                _lv_ll_get_head
 .text._lv_ll_get_tail
                0x080241ee        0x8 CMakeFiles/f4xx_SPI.elf.dir/Core/Src/gui/lvgl/misc/lv_ll.c.obj
                0x080241ee                _lv_ll_get_tail
 .text._lv_ll_get_next
                0x080241f6        0x8 CMakeFiles/f4xx_SPI.elf.dir/Core/Src/gui/lvgl/misc/lv_ll.c.obj
                0x080241f6                _lv_ll_get_next
 .text._lv_ll_get_prev
                0x080241fe        0x6 CMakeFiles/f4xx_SPI.elf.dir/Core/Src/gui/lvgl/misc/lv_ll.c.obj
                0x080241fe                _lv_ll_get_prev
 .text._lv_ll_remove
                0x08024204       0x84 CMakeFiles/f4xx_SPI.elf.dir/Core/Src/gui/lvgl/misc/lv_ll.c.obj
                0x08024204                _lv_ll_remove
 .text._lv_ll_clear
                0x08024288       0x2a CMakeFiles/f4xx_SPI.elf.dir/Core/Src/gui/lvgl/misc/lv_ll.c.obj
                0x08024288                _lv_ll_clear
 .text._lv_ll_get_len
                0x080242b2       0x1e CMakeFiles/f4xx_SPI.elf.dir/Core/Src/gui/lvgl/misc/lv_ll.c.obj
                0x080242b2                _lv_ll_get_len
 .text._lv_ll_is_empty
                0x080242d0       0x1a CMakeFiles/f4xx_SPI.elf.dir/Core/Src/gui/lvgl/misc/lv_ll.c.obj
                0x080242d0                _lv_ll_is_empty
 *fill*         0x080242ea        0x2 
 .text._lv_log_add
                0x080242ec       0xb4 CMakeFiles/f4xx_SPI.elf.dir/Core/Src/gui/lvgl/misc/lv_log.c.obj
                0x080242ec                _lv_log_add
 .text.lv_trigo_sin
                0x080243a0       0x7c CMakeFiles/f4xx_SPI.elf.dir/Core/Src/gui/lvgl/misc/lv_math.c.obj
                0x080243a0                lv_trigo_sin
 .text.lv_bezier3
                0x0802441c       0x54 CMakeFiles/f4xx_SPI.elf.dir/Core/Src/gui/lvgl/misc/lv_math.c.obj
                0x0802441c                lv_bezier3
 .text.lv_atan2
                0x08024470       0xb6 CMakeFiles/f4xx_SPI.elf.dir/Core/Src/gui/lvgl/misc/lv_math.c.obj
                0x08024470                lv_atan2
 .text.lv_pow   0x08024526       0x36 CMakeFiles/f4xx_SPI.elf.dir/Core/Src/gui/lvgl/misc/lv_math.c.obj
                0x08024526                lv_pow
 .text.lv_map   0x0802455c       0x48 CMakeFiles/f4xx_SPI.elf.dir/Core/Src/gui/lvgl/misc/lv_math.c.obj
                0x0802455c                lv_map
 .text.lv_rand  0x080245a4       0x28 CMakeFiles/f4xx_SPI.elf.dir/Core/Src/gui/lvgl/misc/lv_math.c.obj
                0x080245a4                lv_rand
 .text.lv_mem_init
                0x080245cc       0x1c CMakeFiles/f4xx_SPI.elf.dir/Core/Src/gui/lvgl/misc/lv_mem.c.obj
                0x080245cc                lv_mem_init
 .text.lv_mem_alloc
                0x080245e8       0x3c CMakeFiles/f4xx_SPI.elf.dir/Core/Src/gui/lvgl/misc/lv_mem.c.obj
                0x080245e8                lv_mem_alloc
 .text.lv_mem_free
                0x08024624       0x38 CMakeFiles/f4xx_SPI.elf.dir/Core/Src/gui/lvgl/misc/lv_mem.c.obj
                0x08024624                lv_mem_free
 .text.lv_mem_realloc
                0x0802465c       0x5c CMakeFiles/f4xx_SPI.elf.dir/Core/Src/gui/lvgl/misc/lv_mem.c.obj
                0x0802465c                lv_mem_realloc
 .text.lv_mem_buf_get
                0x080246b8      0x13c CMakeFiles/f4xx_SPI.elf.dir/Core/Src/gui/lvgl/misc/lv_mem.c.obj
                0x080246b8                lv_mem_buf_get
 .text.lv_mem_buf_release
                0x080247f4       0x54 CMakeFiles/f4xx_SPI.elf.dir/Core/Src/gui/lvgl/misc/lv_mem.c.obj
                0x080247f4                lv_mem_buf_release
 .text.lv_mem_buf_free_all
                0x08024848       0x3c CMakeFiles/f4xx_SPI.elf.dir/Core/Src/gui/lvgl/misc/lv_mem.c.obj
                0x08024848                lv_mem_buf_free_all
 .text.lv_memcpy
                0x08024884      0x11c CMakeFiles/f4xx_SPI.elf.dir/Core/Src/gui/lvgl/misc/lv_mem.c.obj
                0x08024884                lv_memcpy
 .text.lv_memset
                0x080249a0       0x58 CMakeFiles/f4xx_SPI.elf.dir/Core/Src/gui/lvgl/misc/lv_mem.c.obj
                0x080249a0                lv_memset
 .text.lv_memset_00
                0x080249f8       0x54 CMakeFiles/f4xx_SPI.elf.dir/Core/Src/gui/lvgl/misc/lv_mem.c.obj
                0x080249f8                lv_memset_00
 .text.lv_memset_ff
                0x08024a4c       0x58 CMakeFiles/f4xx_SPI.elf.dir/Core/Src/gui/lvgl/misc/lv_mem.c.obj
                0x08024a4c                lv_memset_ff
 .text._out_buffer
                0x08024aa4        0x8 CMakeFiles/f4xx_SPI.elf.dir/Core/Src/gui/lvgl/misc/lv_printf.c.obj
 .text._out_null
                0x08024aac        0x2 CMakeFiles/f4xx_SPI.elf.dir/Core/Src/gui/lvgl/misc/lv_printf.c.obj
 .text._atoi    0x08024aae       0x24 CMakeFiles/f4xx_SPI.elf.dir/Core/Src/gui/lvgl/misc/lv_printf.c.obj
 .text._out_rev
                0x08024ad2       0x7e CMakeFiles/f4xx_SPI.elf.dir/Core/Src/gui/lvgl/misc/lv_printf.c.obj
 .text._ntoa_format
                0x08024b50      0x114 CMakeFiles/f4xx_SPI.elf.dir/Core/Src/gui/lvgl/misc/lv_printf.c.obj
 .text._ntoa_long
                0x08024c64       0x94 CMakeFiles/f4xx_SPI.elf.dir/Core/Src/gui/lvgl/misc/lv_printf.c.obj
 .text._ntoa_long_long
                0x08024cf8       0xba CMakeFiles/f4xx_SPI.elf.dir/Core/Src/gui/lvgl/misc/lv_printf.c.obj
 *fill*         0x08024db2        0x2 
 .text._vsnprintf
                0x08024db4      0x658 CMakeFiles/f4xx_SPI.elf.dir/Core/Src/gui/lvgl/misc/lv_printf.c.obj
 .text.lv_snprintf
                0x0802540c       0x28 CMakeFiles/f4xx_SPI.elf.dir/Core/Src/gui/lvgl/misc/lv_printf.c.obj
                0x0802540c                lv_snprintf
 .text.lv_vsnprintf
                0x08025434       0x1c CMakeFiles/f4xx_SPI.elf.dir/Core/Src/gui/lvgl/misc/lv_printf.c.obj
                0x08025434                lv_vsnprintf
 .text.lv_style_init
                0x08025450        0xa CMakeFiles/f4xx_SPI.elf.dir/Core/Src/gui/lvgl/misc/lv_style.c.obj
                0x08025450                lv_style_init
 *fill*         0x0802545a        0x2 
 .text.lv_style_reset
                0x0802545c       0x48 CMakeFiles/f4xx_SPI.elf.dir/Core/Src/gui/lvgl/misc/lv_style.c.obj
                0x0802545c                lv_style_reset
 .text.lv_style_register_prop
                0x080254a4       0xa0 CMakeFiles/f4xx_SPI.elf.dir/Core/Src/gui/lvgl/misc/lv_style.c.obj
                0x080254a4                lv_style_register_prop
 .text.lv_style_remove_prop
                0x08025544      0x104 CMakeFiles/f4xx_SPI.elf.dir/Core/Src/gui/lvgl/misc/lv_style.c.obj
                0x08025544                lv_style_remove_prop
 .text.lv_style_get_prop
                0x08025648       0x6e CMakeFiles/f4xx_SPI.elf.dir/Core/Src/gui/lvgl/misc/lv_style.c.obj
                0x08025648                lv_style_get_prop
 *fill*         0x080256b6        0x2 
 .text.lv_style_transition_dsc_init
                0x080256b8       0x2c CMakeFiles/f4xx_SPI.elf.dir/Core/Src/gui/lvgl/misc/lv_style.c.obj
                0x080256b8                lv_style_transition_dsc_init
 .text.lv_style_prop_get_default
                0x080256e4       0xac CMakeFiles/f4xx_SPI.elf.dir/Core/Src/gui/lvgl/misc/lv_style.c.obj
                0x080256e4                lv_style_prop_get_default
 .text.lv_style_is_empty
                0x08025790        0xa CMakeFiles/f4xx_SPI.elf.dir/Core/Src/gui/lvgl/misc/lv_style.c.obj
                0x08025790                lv_style_is_empty
 .text._lv_style_get_prop_group
                0x0802579a       0x10 CMakeFiles/f4xx_SPI.elf.dir/Core/Src/gui/lvgl/misc/lv_style.c.obj
                0x0802579a                _lv_style_get_prop_group
 *fill*         0x080257aa        0x2 
 .text.lv_style_set_prop
                0x080257ac      0x110 CMakeFiles/f4xx_SPI.elf.dir/Core/Src/gui/lvgl/misc/lv_style.c.obj
                0x080257ac                lv_style_set_prop
 .text._lv_style_prop_lookup_flags
                0x080258bc       0x48 CMakeFiles/f4xx_SPI.elf.dir/Core/Src/gui/lvgl/misc/lv_style.c.obj
                0x080258bc                _lv_style_prop_lookup_flags
 .text.lv_style_set_width
                0x08025904        0xc CMakeFiles/f4xx_SPI.elf.dir/Core/Src/gui/lvgl/misc/lv_style_gen.c.obj
                0x08025904                lv_style_set_width
 .text.lv_style_set_max_width
                0x08025910        0xc CMakeFiles/f4xx_SPI.elf.dir/Core/Src/gui/lvgl/misc/lv_style_gen.c.obj
                0x08025910                lv_style_set_max_width
 .text.lv_style_set_height
                0x0802591c        0xc CMakeFiles/f4xx_SPI.elf.dir/Core/Src/gui/lvgl/misc/lv_style_gen.c.obj
                0x0802591c                lv_style_set_height
 .text.lv_style_set_max_height
                0x08025928        0xc CMakeFiles/f4xx_SPI.elf.dir/Core/Src/gui/lvgl/misc/lv_style_gen.c.obj
                0x08025928                lv_style_set_max_height
 .text.lv_style_set_transform_width
                0x08025934        0xc CMakeFiles/f4xx_SPI.elf.dir/Core/Src/gui/lvgl/misc/lv_style_gen.c.obj
                0x08025934                lv_style_set_transform_width
 .text.lv_style_set_transform_height
                0x08025940        0xc CMakeFiles/f4xx_SPI.elf.dir/Core/Src/gui/lvgl/misc/lv_style_gen.c.obj
                0x08025940                lv_style_set_transform_height
 .text.lv_style_set_pad_top
                0x0802594c        0xc CMakeFiles/f4xx_SPI.elf.dir/Core/Src/gui/lvgl/misc/lv_style_gen.c.obj
                0x0802594c                lv_style_set_pad_top
 .text.lv_style_set_pad_bottom
                0x08025958        0xc CMakeFiles/f4xx_SPI.elf.dir/Core/Src/gui/lvgl/misc/lv_style_gen.c.obj
                0x08025958                lv_style_set_pad_bottom
 .text.lv_style_set_pad_left
                0x08025964        0xc CMakeFiles/f4xx_SPI.elf.dir/Core/Src/gui/lvgl/misc/lv_style_gen.c.obj
                0x08025964                lv_style_set_pad_left
 .text.lv_style_set_pad_right
                0x08025970        0xc CMakeFiles/f4xx_SPI.elf.dir/Core/Src/gui/lvgl/misc/lv_style_gen.c.obj
                0x08025970                lv_style_set_pad_right
 .text.lv_style_set_pad_row
                0x0802597c        0xc CMakeFiles/f4xx_SPI.elf.dir/Core/Src/gui/lvgl/misc/lv_style_gen.c.obj
                0x0802597c                lv_style_set_pad_row
 .text.lv_style_set_pad_column
                0x08025988        0xc CMakeFiles/f4xx_SPI.elf.dir/Core/Src/gui/lvgl/misc/lv_style_gen.c.obj
                0x08025988                lv_style_set_pad_column
 .text.lv_style_set_bg_color
                0x08025994       0x20 CMakeFiles/f4xx_SPI.elf.dir/Core/Src/gui/lvgl/misc/lv_style_gen.c.obj
                0x08025994                lv_style_set_bg_color
 .text.lv_style_set_bg_opa
                0x080259b4        0xc CMakeFiles/f4xx_SPI.elf.dir/Core/Src/gui/lvgl/misc/lv_style_gen.c.obj
                0x080259b4                lv_style_set_bg_opa
 .text.lv_style_set_bg_grad_color
                0x080259c0       0x20 CMakeFiles/f4xx_SPI.elf.dir/Core/Src/gui/lvgl/misc/lv_style_gen.c.obj
                0x080259c0                lv_style_set_bg_grad_color
 .text.lv_style_set_bg_img_src
                0x080259e0        0xc CMakeFiles/f4xx_SPI.elf.dir/Core/Src/gui/lvgl/misc/lv_style_gen.c.obj
                0x080259e0                lv_style_set_bg_img_src
 .text.lv_style_set_border_color
                0x080259ec       0x20 CMakeFiles/f4xx_SPI.elf.dir/Core/Src/gui/lvgl/misc/lv_style_gen.c.obj
                0x080259ec                lv_style_set_border_color
 .text.lv_style_set_border_opa
                0x08025a0c        0xc CMakeFiles/f4xx_SPI.elf.dir/Core/Src/gui/lvgl/misc/lv_style_gen.c.obj
                0x08025a0c                lv_style_set_border_opa
 .text.lv_style_set_border_width
                0x08025a18        0xc CMakeFiles/f4xx_SPI.elf.dir/Core/Src/gui/lvgl/misc/lv_style_gen.c.obj
                0x08025a18                lv_style_set_border_width
 .text.lv_style_set_border_side
                0x08025a24        0xc CMakeFiles/f4xx_SPI.elf.dir/Core/Src/gui/lvgl/misc/lv_style_gen.c.obj
                0x08025a24                lv_style_set_border_side
 .text.lv_style_set_border_post
                0x08025a30        0xc CMakeFiles/f4xx_SPI.elf.dir/Core/Src/gui/lvgl/misc/lv_style_gen.c.obj
                0x08025a30                lv_style_set_border_post
 .text.lv_style_set_outline_width
                0x08025a3c        0xc CMakeFiles/f4xx_SPI.elf.dir/Core/Src/gui/lvgl/misc/lv_style_gen.c.obj
                0x08025a3c                lv_style_set_outline_width
 .text.lv_style_set_outline_color
                0x08025a48       0x20 CMakeFiles/f4xx_SPI.elf.dir/Core/Src/gui/lvgl/misc/lv_style_gen.c.obj
                0x08025a48                lv_style_set_outline_color
 .text.lv_style_set_outline_opa
                0x08025a68        0xc CMakeFiles/f4xx_SPI.elf.dir/Core/Src/gui/lvgl/misc/lv_style_gen.c.obj
                0x08025a68                lv_style_set_outline_opa
 .text.lv_style_set_outline_pad
                0x08025a74        0xc CMakeFiles/f4xx_SPI.elf.dir/Core/Src/gui/lvgl/misc/lv_style_gen.c.obj
                0x08025a74                lv_style_set_outline_pad
 .text.lv_style_set_shadow_width
                0x08025a80        0xc CMakeFiles/f4xx_SPI.elf.dir/Core/Src/gui/lvgl/misc/lv_style_gen.c.obj
                0x08025a80                lv_style_set_shadow_width
 .text.lv_style_set_shadow_ofs_y
                0x08025a8c        0xc CMakeFiles/f4xx_SPI.elf.dir/Core/Src/gui/lvgl/misc/lv_style_gen.c.obj
                0x08025a8c                lv_style_set_shadow_ofs_y
 .text.lv_style_set_shadow_spread
                0x08025a98        0xc CMakeFiles/f4xx_SPI.elf.dir/Core/Src/gui/lvgl/misc/lv_style_gen.c.obj
                0x08025a98                lv_style_set_shadow_spread
 .text.lv_style_set_shadow_color
                0x08025aa4       0x20 CMakeFiles/f4xx_SPI.elf.dir/Core/Src/gui/lvgl/misc/lv_style_gen.c.obj
                0x08025aa4                lv_style_set_shadow_color
 .text.lv_style_set_shadow_opa
                0x08025ac4        0xc CMakeFiles/f4xx_SPI.elf.dir/Core/Src/gui/lvgl/misc/lv_style_gen.c.obj
                0x08025ac4                lv_style_set_shadow_opa
 .text.lv_style_set_line_width
                0x08025ad0        0xc CMakeFiles/f4xx_SPI.elf.dir/Core/Src/gui/lvgl/misc/lv_style_gen.c.obj
                0x08025ad0                lv_style_set_line_width
 .text.lv_style_set_line_color
                0x08025adc       0x20 CMakeFiles/f4xx_SPI.elf.dir/Core/Src/gui/lvgl/misc/lv_style_gen.c.obj
                0x08025adc                lv_style_set_line_color
 .text.lv_style_set_arc_width
                0x08025afc        0xc CMakeFiles/f4xx_SPI.elf.dir/Core/Src/gui/lvgl/misc/lv_style_gen.c.obj
                0x08025afc                lv_style_set_arc_width
 .text.lv_style_set_arc_rounded
                0x08025b08        0xc CMakeFiles/f4xx_SPI.elf.dir/Core/Src/gui/lvgl/misc/lv_style_gen.c.obj
                0x08025b08                lv_style_set_arc_rounded
 .text.lv_style_set_arc_color
                0x08025b14       0x20 CMakeFiles/f4xx_SPI.elf.dir/Core/Src/gui/lvgl/misc/lv_style_gen.c.obj
                0x08025b14                lv_style_set_arc_color
 .text.lv_style_set_text_color
                0x08025b34       0x20 CMakeFiles/f4xx_SPI.elf.dir/Core/Src/gui/lvgl/misc/lv_style_gen.c.obj
                0x08025b34                lv_style_set_text_color
 .text.lv_style_set_text_opa
                0x08025b54        0xc CMakeFiles/f4xx_SPI.elf.dir/Core/Src/gui/lvgl/misc/lv_style_gen.c.obj
                0x08025b54                lv_style_set_text_opa
 .text.lv_style_set_text_font
                0x08025b60        0xc CMakeFiles/f4xx_SPI.elf.dir/Core/Src/gui/lvgl/misc/lv_style_gen.c.obj
                0x08025b60                lv_style_set_text_font
 .text.lv_style_set_text_line_space
                0x08025b6c        0xc CMakeFiles/f4xx_SPI.elf.dir/Core/Src/gui/lvgl/misc/lv_style_gen.c.obj
                0x08025b6c                lv_style_set_text_line_space
 .text.lv_style_set_text_align
                0x08025b78        0xc CMakeFiles/f4xx_SPI.elf.dir/Core/Src/gui/lvgl/misc/lv_style_gen.c.obj
                0x08025b78                lv_style_set_text_align
 .text.lv_style_set_radius
                0x08025b84        0xc CMakeFiles/f4xx_SPI.elf.dir/Core/Src/gui/lvgl/misc/lv_style_gen.c.obj
                0x08025b84                lv_style_set_radius
 .text.lv_style_set_clip_corner
                0x08025b90        0xc CMakeFiles/f4xx_SPI.elf.dir/Core/Src/gui/lvgl/misc/lv_style_gen.c.obj
                0x08025b90                lv_style_set_clip_corner
 .text.lv_style_set_color_filter_dsc
                0x08025b9c        0xc CMakeFiles/f4xx_SPI.elf.dir/Core/Src/gui/lvgl/misc/lv_style_gen.c.obj
                0x08025b9c                lv_style_set_color_filter_dsc
 .text.lv_style_set_color_filter_opa
                0x08025ba8        0xc CMakeFiles/f4xx_SPI.elf.dir/Core/Src/gui/lvgl/misc/lv_style_gen.c.obj
                0x08025ba8                lv_style_set_color_filter_opa
 .text.lv_style_set_anim_time
                0x08025bb4        0xc CMakeFiles/f4xx_SPI.elf.dir/Core/Src/gui/lvgl/misc/lv_style_gen.c.obj
                0x08025bb4                lv_style_set_anim_time
 .text.lv_style_set_transition
                0x08025bc0        0xc CMakeFiles/f4xx_SPI.elf.dir/Core/Src/gui/lvgl/misc/lv_style_gen.c.obj
                0x08025bc0                lv_style_set_transition
 .text.lv_timer_time_remaining
                0x08025bcc       0x18 CMakeFiles/f4xx_SPI.elf.dir/Core/Src/gui/lvgl/misc/lv_timer.c.obj
 .text.lv_timer_create
                0x08025be4       0x70 CMakeFiles/f4xx_SPI.elf.dir/Core/Src/gui/lvgl/misc/lv_timer.c.obj
                0x08025be4                lv_timer_create
 .text.lv_timer_del
                0x08025c54       0x24 CMakeFiles/f4xx_SPI.elf.dir/Core/Src/gui/lvgl/misc/lv_timer.c.obj
                0x08025c54                lv_timer_del
 .text.lv_timer_exec
                0x08025c78       0x5c CMakeFiles/f4xx_SPI.elf.dir/Core/Src/gui/lvgl/misc/lv_timer.c.obj
 .text.lv_timer_handler
                0x08025cd4      0x15c CMakeFiles/f4xx_SPI.elf.dir/Core/Src/gui/lvgl/misc/lv_timer.c.obj
                0x08025cd4                lv_timer_handler
 .text.lv_timer_pause
                0x08025e30        0xa CMakeFiles/f4xx_SPI.elf.dir/Core/Src/gui/lvgl/misc/lv_timer.c.obj
                0x08025e30                lv_timer_pause
 .text.lv_timer_resume
                0x08025e3a        0xa CMakeFiles/f4xx_SPI.elf.dir/Core/Src/gui/lvgl/misc/lv_timer.c.obj
                0x08025e3a                lv_timer_resume
 .text.lv_timer_ready
                0x08025e44       0x12 CMakeFiles/f4xx_SPI.elf.dir/Core/Src/gui/lvgl/misc/lv_timer.c.obj
                0x08025e44                lv_timer_ready
 *fill*         0x08025e56        0x2 
 .text.lv_timer_enable
                0x08025e58        0xc CMakeFiles/f4xx_SPI.elf.dir/Core/Src/gui/lvgl/misc/lv_timer.c.obj
                0x08025e58                lv_timer_enable
 .text._lv_timer_core_init
                0x08025e64       0x18 CMakeFiles/f4xx_SPI.elf.dir/Core/Src/gui/lvgl/misc/lv_timer.c.obj
                0x08025e64                _lv_timer_core_init
 .text.block_size
                0x08025e7c        0x8 CMakeFiles/f4xx_SPI.elf.dir/Core/Src/gui/lvgl/misc/lv_tlsf.c.obj
 .text.block_set_size
                0x08025e84        0xc CMakeFiles/f4xx_SPI.elf.dir/Core/Src/gui/lvgl/misc/lv_tlsf.c.obj
 .text.block_is_last
                0x08025e90        0xe CMakeFiles/f4xx_SPI.elf.dir/Core/Src/gui/lvgl/misc/lv_tlsf.c.obj
 .text.block_is_free
                0x08025e9e        0x8 CMakeFiles/f4xx_SPI.elf.dir/Core/Src/gui/lvgl/misc/lv_tlsf.c.obj
 .text.block_set_free
                0x08025ea6        0xa CMakeFiles/f4xx_SPI.elf.dir/Core/Src/gui/lvgl/misc/lv_tlsf.c.obj
 .text.block_set_used
                0x08025eb0        0xa CMakeFiles/f4xx_SPI.elf.dir/Core/Src/gui/lvgl/misc/lv_tlsf.c.obj
 .text.block_is_prev_free
                0x08025eba        0x8 CMakeFiles/f4xx_SPI.elf.dir/Core/Src/gui/lvgl/misc/lv_tlsf.c.obj
 .text.block_set_prev_free
                0x08025ec2        0xa CMakeFiles/f4xx_SPI.elf.dir/Core/Src/gui/lvgl/misc/lv_tlsf.c.obj
 .text.block_set_prev_used
                0x08025ecc        0xa CMakeFiles/f4xx_SPI.elf.dir/Core/Src/gui/lvgl/misc/lv_tlsf.c.obj
 .text.block_from_ptr
                0x08025ed6        0x4 CMakeFiles/f4xx_SPI.elf.dir/Core/Src/gui/lvgl/misc/lv_tlsf.c.obj
 .text.block_to_ptr
                0x08025eda        0x4 CMakeFiles/f4xx_SPI.elf.dir/Core/Src/gui/lvgl/misc/lv_tlsf.c.obj
 .text.offset_to_block
                0x08025ede        0x4 CMakeFiles/f4xx_SPI.elf.dir/Core/Src/gui/lvgl/misc/lv_tlsf.c.obj
 .text.block_can_split
                0x08025ee2       0x14 CMakeFiles/f4xx_SPI.elf.dir/Core/Src/gui/lvgl/misc/lv_tlsf.c.obj
 .text.control_constructor
                0x08025ef6       0x36 CMakeFiles/f4xx_SPI.elf.dir/Core/Src/gui/lvgl/misc/lv_tlsf.c.obj
 .text.block_next
                0x08025f2c       0x54 CMakeFiles/f4xx_SPI.elf.dir/Core/Src/gui/lvgl/misc/lv_tlsf.c.obj
 .text.block_link_next
                0x08025f80        0xc CMakeFiles/f4xx_SPI.elf.dir/Core/Src/gui/lvgl/misc/lv_tlsf.c.obj
 .text.block_mark_as_free
                0x08025f8c       0x14 CMakeFiles/f4xx_SPI.elf.dir/Core/Src/gui/lvgl/misc/lv_tlsf.c.obj
 .text.block_mark_as_used
                0x08025fa0       0x14 CMakeFiles/f4xx_SPI.elf.dir/Core/Src/gui/lvgl/misc/lv_tlsf.c.obj
 .text.align_down
                0x08025fb4       0x38 CMakeFiles/f4xx_SPI.elf.dir/Core/Src/gui/lvgl/misc/lv_tlsf.c.obj
 .text.align_ptr
                0x08025fec       0x3c CMakeFiles/f4xx_SPI.elf.dir/Core/Src/gui/lvgl/misc/lv_tlsf.c.obj
 .text.insert_free_block
                0x08026028       0xc4 CMakeFiles/f4xx_SPI.elf.dir/Core/Src/gui/lvgl/misc/lv_tlsf.c.obj
 .text.remove_free_block
                0x080260ec       0xa0 CMakeFiles/f4xx_SPI.elf.dir/Core/Src/gui/lvgl/misc/lv_tlsf.c.obj
 .text.align_up
                0x0802618c       0x40 CMakeFiles/f4xx_SPI.elf.dir/Core/Src/gui/lvgl/misc/lv_tlsf.c.obj
 .text.adjust_request_size
                0x080261cc       0x1c CMakeFiles/f4xx_SPI.elf.dir/Core/Src/gui/lvgl/misc/lv_tlsf.c.obj
 .text.block_split
                0x080261e8       0xc8 CMakeFiles/f4xx_SPI.elf.dir/Core/Src/gui/lvgl/misc/lv_tlsf.c.obj
 .text.block_prev
                0x080262b0       0x3c CMakeFiles/f4xx_SPI.elf.dir/Core/Src/gui/lvgl/misc/lv_tlsf.c.obj
 .text.block_absorb
                0x080262ec       0x50 CMakeFiles/f4xx_SPI.elf.dir/Core/Src/gui/lvgl/misc/lv_tlsf.c.obj
 .text.tlsf_fls
